{
  "_format": "hh-sol-artifact-1",
  "contractName": "RollupVerifier",
  "sourceName": "src/libraries/verifier/RollupVerifier.sol",
  "abi": [
    {
      "inputs": [
        {
          "internalType": "uint256[]",
          "name": "proof",
          "type": "uint256[]"
        },
        {
          "internalType": "uint256[]",
          "name": "target_circuit_final_pair",
          "type": "uint256[]"
        }
      ],
      "name": "verify",
      "outputs": [],
      "stateMutability": "view",
      "type": "function"
    }
  ],
  "bytecode": "0x6158b16200003b600b82828239805160001a60731461002e57634e487b7160e01b600052600060045260246000fd5b30600052607381538281f3fe73000000000000000000000000000000000000000030146080604052600436106100355760003560e01c8063b864f5a91461003a575b600080fd5b61004d6100483660046156ae565b61004f565b005b61005761554b565b8282600081811061006a5761006a61571a565b905060200201356001600160881b03168160006006811061008d5761008d61571a565b60200201526088838360018181106100a7576100a761571a565b90506020020135600116901b6088848460008181106100c8576100c861571a565b90506020020135901c6100db9190615746565b6020820152828260028181106100f3576100f361571a565b905060200201356001600160881b0316816002600681106101165761011661571a565b60200201526088838360038181106101305761013061571a565b90506020020135600116901b6088848460028181106101515761015161571a565b90506020020135901c6101649190615746565b60608201528282600481811061017c5761017c61571a565b90506020020135816004600681106101965761019661571a565b6020020152828260058181106101ae576101ae61571a565b90506020020135816005600681106101c8576101c861571a565b6020020152604080516002808252606082019092526000918291829182918291816020015b60408051808201909152600080825260208201528152602001906001900390816101ed5750506040805160028082526060820190925291925060009190602082015b610237615569565b81526020019060019003908161022f57905050905060006102598c8c8a6104b3565b8651939a509098509096509450879084906000906102795761027961571a565b60200260200101516000018181525050848360008151811061029d5761029d61571a565b6020026020010151602001818152505085836001815181106102c1576102c161571a565b6020026020010151600001818152505083836001815181106102e5576102e561571a565b602002602001015160200181815250506102fd6149ad565b826000815181106103105761031061571a565b6020026020010181905250610323614a58565b826001815181106103365761033661571a565b602002602001018190525061034b8383614aff565b90508061035757600080fd5b8989600081811061036a5761036a61571a565b90506020020135836000815181106103845761038461571a565b602090810291909101015152898960018181106103a3576103a361571a565b90506020020135836000815181106103bd576103bd61571a565b60200260200101516020018181525050898960028181106103e0576103e061571a565b90506020020135836001815181106103fa576103fa61571a565b602090810291909101015152898960038181106104195761041961571a565b90506020020135836001815181106104335761043361571a565b6020026020010151602001818152505061044b6149ad565b8260008151811061045e5761045e61571a565b6020026020010181905250610471614a58565b826001815181106104845761048461571a565b60200260200101819052506104998383614aff565b9050806104a557600080fd5b505050505050505050505050565b6000806000806104c161558e565b6104c96155ad565b60008061051e7f23fa8c6d53fe818d8083928e29d3597c38dda32b345fbebe8aa44b42da0e62447f0e594ccea4ffd37388f582dae315dccbd738656dc40f8e8a97899df7915653318b845b6020020151614dd5565b90925090506105787f2f7516f17cc73ef811e61913df662670cf977c348c5c17b399d36b797de562137f29d21ef90921b7b36c386c9d7bccbc5cb5309f4c5f013f97fc2a164c032c43018b60015b60200201518585614e3b565b90925090506105ca7f0e067efa832df3d67402008e6c048eedaf997fc4abd0c77732d475105b498c947f131e1b423a6042b314cb5c170adcb698ba8b89244bb561d8e3ab4756e60725548b600261056c565b909250905061061c7f26eee7fdb2d0ede8432eb66a2e3181be7f96340ebec498145549bc564c4ed3667f11725549b524a14c004a5c1b6ae47cbfb3c682dec286691116938aac68f0d6908b600361056c565b909250905061066e7f02cf877805a2ac48e87560338798e471d2da02b51be61333b7d611da1c0838867f2485e81f92d71e68c0ffdee45107da955aa218d3cb98b74b263e089c566684c28b600461056c565b90925090506106c07f14224fd9110bf7bf0468769b1b103ef95a8f3cc374b89802d783ad11c92069d37f070e4d3f3b6fdb8c09e1b33e3581365f57f967969071286cf6d72d3ff40e7cbb8b600561056c565b602086015284526106f37f04bb2c994efc8532cf518d477e1297c6a2387a4a3662ac20ab3275e41cb58772846000614e87565b835160208501516107079190856002614ed3565b600091505b600482116107a5576107938b8b61072485600261576f565b61072f906000615746565b81811061073e5761073e61571a565b905060200201358c8c856002610754919061576f565b61075f906001615746565b81811061076e5761076e61571a565b9050602002013585856003610783919061576f565b61078e906005615746565b614ed3565b8161079d8161578e565b92505061070c565b6107b0836014614f43565b6040850152600091505b600d821161084e5761083c8b8b6107d285600261576f565b6107dd90600a615746565b8181106107ec576107ec61571a565b905060200201358c8c856002610802919061576f565b61080d90600b615746565b81811061081c5761081c61571a565b9050602002013585856003610831919061576f565b61078e906001615746565b816108468161578e565b9250506107ba565b61085983602b614f43565b6060850152610869836001614f43565b6080850152600091505b600982116108d8576108c68b8b61088b85600261576f565b610896906026615746565b8181106108a5576108a561571a565b905060200201358c8c8560026108bb919061576f565b61080d906027615746565b816108d08161578e565b925050610873565b6108e383601f614f43565b60a0850152600091505b60038211610952576109408b8b61090585600261576f565b61091090603a615746565b81811061091f5761091f61571a565b905060200201358c8c856002610935919061576f565b61080d90603b615746565b8161094a8161578e565b9250506108ed565b61095d83600d614f43565b60c0850152600091505b604682116109d0576109be8b8b61097f85600161576f565b61098a906042615746565b8181106109995761099961571a565b90506020020135848460026109ae919061576f565b6109b9906001615746565b614e87565b816109c88161578e565b925050610967565b6109db83608f614f43565b60e0850152600091505b60038211610a4a57610a388b8b6109fd85600261576f565b610a08906089615746565b818110610a1757610a1761571a565b905060200201358c8c856002610a2d919061576f565b61080d90608a615746565b81610a428161578e565b9250506109e5565b610a5583600d614f43565b61010085015260c084015160008051602061583c833981519152907f1dba8b5bdd64ef6ce29a9039aca3c0e524395c43b9227b96c75090cc6cc7ec97900961012085015260c084015160008051602061583c833981519152907f24a1fcd63e9f03b27281db85fe631ec8e5c466f8178a4ee94d4942b7ccd90e1c900961014085015260c084015160008051602061583c833981519152907f20bab6e5f766b4edf82399e9c5ff0e40d4b6875321a3d8020e18521d8f5c7241900961016085015260c0840151610b28906304000000614fa5565b61018085015260008051602061583c833981519152610b486001826157a7565b610180860151086101a0850181905260008051602061583c833981519152907f30644e66c81e03716be83b486d6feabcc7ddd0fe6cbf5e72d585d142f7829b05096101c085015260008051602061583c833981519152610ba96001826157a7565b60c0860151089150610bc384600e5b60200201518361500c565b6101c08501526101a084015160008051602061583c833981519152907f07baaa5b7af9cf52cd226bc56865f0f99ef8fcd4219060f09f43e9a148b5ab68096101e085015260008051602061583c833981519152610c407f20bab6e5f766b4edf82399e9c5ff0e40d4b6875321a3d8020e18521d8f5c7241826157a7565b60c0860151089150610c5384600f610bb8565b6101e08501526101a084015160008051602061583c833981519152907f1c699f652457365bf2fc4fa2c5c63d6c4349b03cb46d633d7a2655c5da4b900a0961020085015260008051602061583c833981519152610cd07f19277f31ecb5bfe8604677099c09556812b0b5c50cceb2b584098183a5a6c5c8826157a7565b60c0860151089150610ce3846010610bb8565b6102008501526101a084015160008051602061583c833981519152907f205cdbaf03903a5c23e60eef0df90673bc65a25762694c501e3281153b4e588a0961022085015260008051602061583c833981519152610d607f082a7bd4c0a7e4352229d332c27a160da18f0d7c651f3047df41b80345532f6e826157a7565b60c0860151089150610d73846011610bb8565b6102208501526101a084015160008051602061583c833981519152907f27db73b1a831278e143aab90091db38afdea3294c4ba05d1c697a392eb09cc790961024085015260008051602061583c833981519152610df07f26501ebfe559ea5826f023d3e76e4b66f170cd940408eb5590a4075c80b498d6826157a7565b60c0860151089150610e03846012610bb8565b6102408501526101a084015160008051602061583c833981519152907f0204822d629ab653697f028f5fa17d23ac2ba08c60c7112d98ebd28f325f0af60961026085015260008051602061583c833981519152610e807f0d5eb4c216db2c3262de3f6a2ef71a9be95ff21a7a1a50ed069d6131e7d54e5f826157a7565b60c0860151089150610e93846013610bb8565b6102608501526101a084015160008051602061583c833981519152907f2622622a60c0d9327ccf066a0f1fce13c48601b976affd1f41c2a72a9f77da640961028085015260008051602061583c833981519152610f107f24a1fcd63e9f03b27281db85fe631ec8e5c466f8178a4ee94d4942b7ccd90e1c826157a7565b60c0860151089150610f23846014610bb8565b6102808501526102008401516101e085015160008051602061583c833981519152919008915060008051602061583c83398151915284601160200201518308915060008051602061583c83398151915284601260200201518308915060008051602061583c833981519152846013602002015183086101e0850152610ff48b8b604a818110610fb457610fb461571a565b905060200201358c8c6048818110610fce57610fce61571a565b905060200201358d8d6049818110610fe857610fe861571a565b9050602002013561503c565b91506110338b8b604b81811061100c5761100c61571a565b905060200201358c8c60438181106110265761102661571a565b905060200201358461503c565b91506110658b8b604c81811061104b5761104b61571a565b905060200201358c8c60448181106110265761102661571a565b91506110978b8b604d81811061107d5761107d61571a565b905060200201358c8c60458181106110265761102661571a565b91506110c98b8b604e8181106110af576110af61571a565b905060200201358c8c60468181106110265761102661571a565b91506110fb8b8b604f8181106110e1576110e161571a565b905060200201358c8c60478181106110265761102661571a565b61020085015260008051602061583c8339815191528b8b60448181106111235761112361571a565b905060200201358c8c604381811061113d5761113d61571a565b905060200201350991506111828b8b605081811061115d5761115d61571a565b9050602002013583866010605481106111785761117861571a565b602002015161503c565b61020085015260008051602061583c8339815191528b8b60468181106111aa576111aa61571a565b905060200201358c8c60458181106111c4576111c461571a565b905060200201350991506111e48b8b605181811061115d5761115d61571a565b61020085015260008051602061583c8339815191528b8b606181811061120c5761120c61571a565b9050602002013560008051602061583c83398151915261122c91906157a7565b600108915060008051602061583c8339815191528285600e60200201510961022085015260008051602061583c8339815191528b8b60648181106112725761127261571a565b905060200201358c8c606481811061128c5761128c61571a565b9050602002013509915060008051602061583c8339815191528b8b60648181106112b8576112b861571a565b9050602002013560008051602061583c8339815191526112d891906157a7565b8308915060008051602061583c8339815191528285601460200201510961024085015260008051602061583c8339815191528b8b606381811061131d5761131d61571a565b9050602002013560008051602061583c83398151915261133d91906157a7565b8c8c60648181106113505761135061571a565b9050602002013508915060008051602061583c83398151915284600e6020020151830961026085015260c0840151606085015160008051602061583c8339815191529190096102a08501526101e084015161028085015160008051602061583c833981519152919008915060008051602061583c8339815191526113e28360008051602061583c8339815191526157a7565b6001086101e0850152608084015160008051602061583c833981519152908c8c60438181106114135761141361571a565b90506020020135086102c085015261145e8b8b605b8181106114375761143761571a565b90506020020135856003605481106114515761145161571a565b6020020151866016611178565b915060008051602061583c8339815191528b8b60628181106114825761148261571a565b9050602002013583096102e08501526102a08401516102c085015160008051602061583c833981519152919008915060008051602061583c8339815191528b8b60618181106114d3576114d361571a565b9050602002013583096102c08501526102a084015160008051602061583c8339815191529060008051602061585c83398151915209610300850152608084015160008051602061583c833981519152908c8c60448181106115365761153661571a565b90506020020135086103208501526115818b8b605c81811061155a5761155a61571a565b90506020020135856003605481106115745761157461571a565b6020020151866019611178565b915060008051602061583c833981519152846017602002015183096102e085015261030084015161032085015160008051602061583c833981519152919008915060008051602061583c833981519152846016602002015183096102c085015261030084015160008051602061583c8339815191529060008051602061585c83398151915209610300850152608084015160008051602061583c833981519152908c8c60458181106116355761163561571a565b90506020020135086103208501526116598b8b605d81811061155a5761155a61571a565b915060008051602061583c833981519152846017602002015183096102e085015261030084015161032085015160008051602061583c833981519152919008915060008051602061583c833981519152846016602002015183096102c085015261030084015160008051602061583c8339815191529060008051602061585c833981519152096103008501526102c084015160008051602061583c8339815191529061170590826157a7565b6102e086015108915060008051602061583c83398151915284600f602002015183096102c08501526102a084015160008051602061583c833981519152907f18afdf23e9bd9302673fc1e076a492d4d65bd18ebc4d854ed189139bab313e5290096102a0850152608084015160008051602061583c833981519152908c8c60468181106117945761179461571a565b90506020020135086102e08501526117df8b8b605e8181106117b8576117b861571a565b90506020020135856003605481106117d2576117d261571a565b6020020151866017611178565b915060008051602061583c8339815191528b8b60658181106118035761180361571a565b9050602002013583096103008501526102a08401516102e085015160008051602061583c833981519152919008915060008051602061583c8339815191528b8b60648181106118545761185461571a565b9050602002013583096102e08501526102a084015160008051602061583c8339815191529060008051602061585c833981519152096102a0850152608084015160008051602061583c833981519152908c8c60478181106118b7576118b761571a565b90506020020135086103208501526118db8b8b605f81811061155a5761155a61571a565b915060008051602061583c833981519152846018602002015183096103008501526102a084015161032085015160008051602061583c833981519152919008915060008051602061583c833981519152846017602002015183096102e08501526102a084015160008051602061583c8339815191529060008051602061585c833981519152096102a0850152608084015160008051602061583c833981519152908c8c604281811061198f5761198f61571a565b90506020020135086103208501526119b38b8b606081811061155a5761155a61571a565b915060008051602061583c833981519152846018602002015183096103008501526102a084015161032085015160008051602061583c833981519152919008915060008051602061583c833981519152846017602002015183096102e08501526102a084015160008051602061583c8339815191529060008051602061585c833981519152096102a08501526102e084015160008051602061583c83398151915290611a5f90826157a7565b61030086015108915060008051602061583c83398151915284600f602002015183096102a0850152606084015160008051602061583c833981519152908c8c6068818110611aaf57611aaf61571a565b9050602002013508915060008051602061583c833981519152828c8c6067818110611adc57611adc61571a565b90506020020135096102e0850152608084015160008051602061583c833981519152908c8c606a818110611b1257611b1261571a565b9050602002013508915060008051602061583c833981519152828560176020020151096102e085015260008051602061583c8339815191528b8b6052818110611b5d57611b5d61571a565b905060200201358c8c6043818110611b7757611b7761571a565b9050602002013509610300850152604084015160008051602061583c833981519152906000096040850181905261030085015160008051602061583c833981519152910861030085015260008051602061583c8339815191528b8b6053818110611be357611be361571a565b9050602002013585600260548110611bfd57611bfd61571a565b60200201510861032085015260008051602061583c8339815191528b8b606a818110611c2b57611c2b61571a565b9050602002013560008051602061583c833981519152611c4b91906157a7565b8c8c6068818110611c5e57611c5e61571a565b905060200201350861034085015260008051602061583c8339815191528b8b6066818110611c8e57611c8e61571a565b9050602002013560008051602061583c833981519152611cae91906157a7565b600108915060008051602061583c8339815191528285600e60200201510961036085015260008051602061583c8339815191528b8b6066818110611cf457611cf461571a565b905060200201358c8c6066818110611d0e57611d0e61571a565b9050602002013509915060008051602061583c8339815191528b8b6066818110611d3a57611d3a61571a565b9050602002013560008051602061583c833981519152611d5a91906157a7565b8308915060008051602061583c83398151915282856014602002015109610380850152606084015161030085015160008051602061583c833981519152919008915060008051602061583c833981519152828c8c6066818110611dbf57611dbf61571a565b9050602002013509610300850152608084015161032085015160008051602061583c833981519152919008610320850181905261030085015160008051602061583c833981519152919009915060008051602061583c833981519152611e338360008051602061583c8339815191526157a7565b6102e086015108915060008051602061583c83398151915284600f602002015183096102e08501526103408401516101c085015160008051602061583c83398151915291900961030085015260008051602061583c8339815191528b8b6069818110611ea157611ea161571a565b9050602002013560008051602061583c833981519152611ec191906157a7565b8c8c6068818110611ed457611ed461571a565b9050602002013508915060008051602061583c8339815191528285601a602002015109915060008051602061583c83398151915284600f60200201518309610340850152606084015160008051602061583c833981519152908c8c606d818110611f4057611f4061571a565b9050602002013508915060008051602061583c833981519152828c8c606c818110611f6d57611f6d61571a565b90506020020135096103a0850152608084015160008051602061583c833981519152908c8c606f818110611fa357611fa361571a565b9050602002013508915060008051602061583c8339815191528285601d6020020151096103a08501526120168b8b6052818110611fe257611fe261571a565b905060200201358c8c6044818110611ffc57611ffc61571a565b90506020020135866002605481106111785761117861571a565b6103c085015260008051602061583c8339815191528b8b606f81811061203e5761203e61571a565b9050602002013560008051602061583c83398151915261205e91906157a7565b8c8c606d8181106120715761207161571a565b90506020020135086103e085015260008051602061583c8339815191528b8b606b8181106120a1576120a161571a565b9050602002013560008051602061583c8339815191526120c191906157a7565b600108915060008051602061583c8339815191528285600e60200201510961040085015260008051602061583c8339815191528b8b606b8181106121075761210761571a565b905060200201358c8c606b8181106121215761212161571a565b9050602002013509915060008051602061583c8339815191528b8b606b81811061214d5761214d61571a565b9050602002013560008051602061583c83398151915261216d91906157a7565b8308915060008051602061583c8339815191528285601460200201510961042085015260608401516103c085015160008051602061583c833981519152919008915060008051602061583c833981519152828c8c606b8181106121d2576121d261571a565b9050602002013509915060008051602061583c83398151915284601960200201518309915060008051602061583c83398151915261221e8360008051602061583c8339815191526157a7565b6103a086015108915060008051602061583c83398151915284600f602002015183096103a08501526103e08401516101c085015160008051602061583c8339815191529190096103c085015260008051602061583c8339815191528b8b606e81811061228c5761228c61571a565b9050602002013560008051602061583c8339815191526122ac91906157a7565b8c8c606d8181106122bf576122bf61571a565b9050602002013508915060008051602061583c8339815191528285601f602002015109915060008051602061583c83398151915284600f602002015183096103e0850152606084015160008051602061583c833981519152908c8c607281811061232b5761232b61571a565b9050602002013508915060008051602061583c833981519152828c8c60718181106123585761235861571a565b9050602002013509610440850152608084015160008051602061583c833981519152908c8c607481811061238e5761238e61571a565b9050602002013508915060008051602061583c833981519152828560226020020151096104408501526123e78b8b60528181106123cd576123cd61571a565b905060200201358c8c6045818110611ffc57611ffc61571a565b61046085015260008051602061583c8339815191528b8b607481811061240f5761240f61571a565b9050602002013560008051602061583c83398151915261242f91906157a7565b8c8c60728181106124425761244261571a565b905060200201350861048085015260008051602061583c8339815191528b8b60708181106124725761247261571a565b9050602002013560008051602061583c83398151915261249291906157a7565b600108915060008051602061583c8339815191528285600e6020020151096104a085015260008051602061583c8339815191528b8b60708181106124d8576124d861571a565b905060200201358c8c60708181106124f2576124f261571a565b9050602002013509915060008051602061583c8339815191528b8b607081811061251e5761251e61571a565b9050602002013560008051602061583c83398151915261253e91906157a7565b8308915060008051602061583c833981519152828560146020020151096104c0850152606084015161046085015160008051602061583c833981519152919008915060008051602061583c833981519152828c8c60708181106125a3576125a361571a565b9050602002013509915060008051602061583c83398151915284601960200201518309915060008051602061583c8339815191526125ef8360008051602061583c8339815191526157a7565b61044086015108915060008051602061583c83398151915284600f602002015183096104408501526104808401516101c085015160008051602061583c83398151915291900961046085015260008051602061583c8339815191528b8b607381811061265d5761265d61571a565b9050602002013560008051602061583c83398151915261267d91906157a7565b8c8c60728181106126905761269061571a565b9050602002013508915060008051602061583c83398151915282856024602002015109915060008051602061583c83398151915284600f60200201518309610480850152606084015160008051602061583c833981519152908c8c60778181106126fc576126fc61571a565b9050602002013508915060008051602061583c833981519152828c8c60768181106127295761272961571a565b90506020020135096104e0850152608084015160008051602061583c833981519152908c8c607981811061275f5761275f61571a565b9050602002013508915060008051602061583c833981519152828560276020020151096104e08501526127b88b8b605281811061279e5761279e61571a565b905060200201358c8c6046818110611ffc57611ffc61571a565b61050085015260008051602061583c8339815191528b8b60798181106127e0576127e061571a565b9050602002013560008051602061583c83398151915261280091906157a7565b8c8c60778181106128135761281361571a565b905060200201350861052085015260008051602061583c8339815191528b8b60758181106128435761284361571a565b9050602002013560008051602061583c83398151915261286391906157a7565b600108915060008051602061583c8339815191528285600e60200201510961054085015260008051602061583c8339815191528b8b60758181106128a9576128a961571a565b905060200201358c8c60758181106128c3576128c361571a565b9050602002013509915060008051602061583c8339815191528b8b60758181106128ef576128ef61571a565b9050602002013560008051602061583c83398151915261290f91906157a7565b8308915060008051602061583c83398151915282856014602002015109610560850152606084015161050085015160008051602061583c833981519152919008915060008051602061583c833981519152828c8c60758181106129745761297461571a565b9050602002013509915060008051602061583c83398151915284601960200201518309915060008051602061583c8339815191526129c08360008051602061583c8339815191526157a7565b6104e086015108915060008051602061583c83398151915284600f602002015183096103208501526105208401516101c085015160008051602061583c8339815191529190096104e085015260008051602061583c8339815191528b8b6078818110612a2e57612a2e61571a565b9050602002013560008051602061583c833981519152612a4e91906157a7565b8c8c6077818110612a6157612a6161571a565b9050602002013508915060008051602061583c83398151915282856029602002015109915060008051602061583c83398151915284600f60200201518309610500850152606084015160008051602061583c833981519152908c8c607c818110612acd57612acd61571a565b9050602002013508915060008051602061583c833981519152828c8c607b818110612afa57612afa61571a565b9050602002013509610520850152608084015160008051602061583c833981519152908c8c607e818110612b3057612b3061571a565b9050602002013508915060008051602061583c83398151915282856029602002015109610520850152612b898b8b6054818110612b6f57612b6f61571a565b905060200201358c8c6043818110611ffc57611ffc61571a565b61058085015260008051602061583c8339815191528b8b6055818110612bb157612bb161571a565b9050602002013585600260548110612bcb57612bcb61571a565b6020020151086105a085015260008051602061583c8339815191528b8b607e818110612bf957612bf961571a565b9050602002013560008051602061583c833981519152612c1991906157a7565b8c8c607c818110612c2c57612c2c61571a565b90506020020135086105c085015260008051602061583c8339815191528b8b607a818110612c5c57612c5c61571a565b9050602002013560008051602061583c833981519152612c7c91906157a7565b600108915060008051602061583c8339815191528285600e6020020151096105e085015260008051602061583c8339815191528b8b607a818110612cc257612cc261571a565b905060200201358c8c607a818110612cdc57612cdc61571a565b9050602002013509915060008051602061583c8339815191528b8b607a818110612d0857612d0861571a565b9050602002013560008051602061583c833981519152612d2891906157a7565b8308915060008051602061583c83398151915282856014602002015109610600850152606084015161058085015160008051602061583c833981519152919008915060008051602061583c833981519152828c8c607a818110612d8d57612d8d61571a565b905060200201350961058085015260808401516105a085015160008051602061583c833981519152919008915060008051602061583c8339815191528285602c602002015109915060008051602061583c833981519152612dfc8360008051602061583c8339815191526157a7565b61052086015108915060008051602061583c83398151915284600f602002015183096105208501526105c08401516101c085015160008051602061583c83398151915291900961058085015260008051602061583c8339815191528b8b607d818110612e6a57612e6a61571a565b9050602002013560008051602061583c833981519152612e8a91906157a7565b8c8c607c818110612e9d57612e9d61571a565b9050602002013508915060008051602061583c8339815191528285602e602002015109915060008051602061583c83398151915284600f602002015183096105a0850152606084015160008051602061583c833981519152908c8c6081818110612f0957612f0961571a565b9050602002013508915060008051602061583c833981519152828c8c6080818110612f3657612f3661571a565b90506020020135096105c0850152608084015160008051602061583c833981519152908c8c6083818110612f6c57612f6c61571a565b9050602002013508915060008051602061583c8339815191528285602e6020020151096105c0850152612fab8b8b6056818110612b6f57612b6f61571a565b61062085015260008051602061583c8339815191528b8b6057818110612fd357612fd361571a565b9050602002013585600260548110612fed57612fed61571a565b60200201510861064085015260008051602061583c8339815191528b8b608381811061301b5761301b61571a565b9050602002013560008051602061583c83398151915261303b91906157a7565b8c8c608181811061304e5761304e61571a565b905060200201350861066085015260008051602061583c8339815191528b8b607f81811061307e5761307e61571a565b9050602002013560008051602061583c83398151915261309e91906157a7565b600108915060008051602061583c8339815191528285600e60200201510961068085015260008051602061583c8339815191528b8b607f8181106130e4576130e461571a565b905060200201358c8c607f8181106130fe576130fe61571a565b9050602002013509915060008051602061583c8339815191528b8b607f81811061312a5761312a61571a565b9050602002013560008051602061583c83398151915261314a91906157a7565b8308915060008051602061583c833981519152828560146020020151096106a0850152606084015161062085015160008051602061583c833981519152919008915060008051602061583c833981519152828c8c607f8181106131af576131af61571a565b9050602002013509610620850152608084015161064085015160008051602061583c833981519152919008915060008051602061583c83398151915282856031602002015109915060008051602061583c83398151915261321e8360008051602061583c8339815191526157a7565b6105c086015108915060008051602061583c83398151915284600f602002015183096105c08501526106608401516101c085015160008051602061583c83398151915291900961062085015260008051602061583c8339815191528b8b608281811061328c5761328c61571a565b9050602002013560008051602061583c8339815191526132ac91906157a7565b8c8c60818181106132bf576132bf61571a565b9050602002013508915060008051602061583c83398151915282856033602002015109915060008051602061583c83398151915284600f60200201518309610640850152606084015160008051602061583c833981519152908c8c608681811061332b5761332b61571a565b9050602002013508915060008051602061583c833981519152828c8c60858181106133585761335861571a565b9050602002013509610660850152608084015160008051602061583c833981519152908c8c608881811061338e5761338e61571a565b9050602002013508915060008051602061583c833981519152828560336020020151096106608501526133cd8b8b6058818110612b6f57612b6f61571a565b6106c085015260008051602061583c8339815191528b8b60598181106133f5576133f561571a565b905060200201358560026054811061340f5761340f61571a565b602002015108604085015260008051602061583c8339815191528b8b608881811061343c5761343c61571a565b9050602002013560008051602061583c83398151915261345c91906157a7565b8c8c608681811061346f5761346f61571a565b90506020020135086106e085015260008051602061583c8339815191528b8b608481811061349f5761349f61571a565b9050602002013560008051602061583c8339815191526134bf91906157a7565b600108915060008051602061583c8339815191528285600e60200201510961070085015260008051602061583c8339815191528b8b60848181106135055761350561571a565b905060200201358c8c608481811061351f5761351f61571a565b9050602002013509915060008051602061583c8339815191528b8b608481811061354b5761354b61571a565b9050602002013560008051602061583c83398151915261356b91906157a7565b8308915060008051602061583c8339815191528285601460200201510961028085015260608401516106c085015160008051602061583c833981519152919008915060008051602061583c833981519152828c8c60848181106135d0576135d061571a565b905060200201350960608501526080840151604085015160008051602061583c833981519152919008915060008051602061583c83398151915282856003602002015109915060008051602061583c83398151915261363d8360008051602061583c8339815191526157a7565b61066086015108915060008051602061583c83398151915284600f6020020151830960408501526106e08401516101c085015160008051602061583c833981519152919009606085015260008051602061583c8339815191528b8b60878181106136a9576136a961571a565b9050602002013560008051602061583c8339815191526136c991906157a7565b8c8c60868181106136dc576136dc61571a565b9050602002013508915060008051602061583c83398151915282856037602002015109915060008051602061583c83398151915284600f60200201518309608085015260a0840151613732906000866010611178565b91506137678480600560200201517f35342d2c29302f2827192b2a24232226251f1e1d21201a18171c1b151613121185615069565b915061378584806005602002015168ff040302143832312e85615069565b91506137988285600d602002015161500c565b604085015261010084015160008051602061583c8339815191529080096060850181905261010085015160008051602061583c833981519152910960808501526138228b8b608f8181106137ee576137ee61571a565b905060200201358c8c60908181106138085761380861571a565b90506020020135866004605481106105145761051461571a565b909250905061383b848c8c65ffff088b038d86866150ec565b909250905061387e82828d8d60898181106138585761385861571a565b905060200201358e8e608a8181106138725761387261571a565b905060200201356151f4565b6101e08601526101c0850152610160840151608085015160008051602061583c83398151915291900960a085015260e0840151608085015160008051602061583c833981519152919009610160850181905260e085015160008051602061583c83398151915291096101a0850181905260e085015160008051602061583c8339815191529109610200850181905260e085015160008051602061583c8339815191529109610220850181905260e085015160008051602061583c8339815191529109610240850181905260e085015160008051602061583c833981519152910961026085015260008051602061583c8339815191528b8b60878181106139865761398661571a565b90506020020135856013605481106139a0576139a061571a565b60200201510991506139c1848c8c6bffff0b6e0d731078117d128286615262565b91506139fe8b8b60698181106139d9576139d961571a565b90506020020135856004605481106139f3576139f361571a565b60200201518461503c565b610280850152610140840151606085015160008051602061583c833981519152919009610140850152613a648b8b6063818110613a3d57613a3d61571a565b9050602002013585600360548110613a5757613a5761571a565b6020020151866014611178565b61028085015261012084015161010085015160008051602061583c83398151915291900961012085015260e084015161010085015160008051602061583c8339815191529190096102a0850152600091505b6008821015613b655760008051602061583c83398151915284613ada84600061576f565b613ae5906007615746565b60548110613af557613af561571a565b602002015185613b0685600161576f565b613b11906015615746565b60548110613b2157613b2161571a565b60200201510984613b3384600161576f565b613b3e906016615746565b60548110613b4e57613b4e61571a565b602002015281613b5d8161578e565b925050613ab6565b60008051602061583c8339815191528b8b6085818110613b8757613b8761571a565b9050602002013585601d60548110613ba157613ba161571a565b6020020151099150613bca848c8c73ffff0848156216651767186c19711a761b7b1c8086615262565b915060008051602061583c833981519152828560146020020151086102808501526102a0840151606085015160008051602061583c833981519152919008606085015260e084015160008051602061583c8339815191529080096102a0850181905260e085015160008051602061583c83398151915291096103c0850152600091505b6032821015613cfc5760008051602061583c83398151915284613c7184600061576f565b613c7c906007615746565b60548110613c8c57613c8c61571a565b602002015185613c9d85600161576f565b613ca890601e615746565b60548110613cb857613cb861571a565b60200201510984613cca84600161576f565b613cd590601f615746565b60548110613ce557613ce561571a565b602002015281613cf48161578e565b925050613c4d565b60008051602061583c8339815191528b8b605a818110613d1e57613d1e61571a565b9050602002013585605060548110613d3857613d3861571a565b602002015109610a208501526101808401516109e085015160008051602061583c833981519152919009610a40850181905261018085015160008051602061583c8339815191529109610a60850181905261018085015160008051602061583c83398151915291096101808501526109e08401516040850151613dbe9190866051611178565b9150613ded848c8c7f3f50405141524253435444554556465747584859495b4a5c4b5d4c5e4d5f4e6086615262565b9150613e1c848c8c7f2f7a307c317e327f338134833584368637883849394a3a4b3b4c3c4d3d4e3e4f86615262565b9150613e4b848c8c7f1f4620472161226423662468256a266b276d286f29702a722b742c752d772e7986615262565b9150613e62848c8c67ffff074315441e4586615262565b915060008051602061583c8339815191528b8b6042818110613e8657613e8661571a565b905060200201358308915060008051602061583c8339815191528285601460200201510860408501526106c084015161026085015160008051602061583c8339815191529190086102608501526106a08401516103a085015160008051602061583c83398151915291900861028085015261066084015161024085015160008051602061583c83398151915291900861024085015261064084015161038085015160008051602061583c83398151915291900861038085015261060084015161022085015160008051602061583c8339815191529190086102208501526105e084015161036085015160008051602061583c8339815191529190086103608501526105a084015161020085015160008051602061583c83398151915291900861020085015261058084015161034085015160008051602061583c8339815191529190086103408501526105408401516101a085015160008051602061583c8339815191529190086101a085015261052084015161032085015160008051602061583c8339815191529190086103208501526104e084015161016085015160008051602061583c8339815191529190086101608501526104c084015161030085015160008051602061583c833981519152919008610300850152610480840151608085015160008051602061583c83398151915291900860808501526104608401516102e085015160008051602061583c8339815191529190086102e08501526104408401516102c085015160008051602061583c8339815191529190086102c0850152610420840151606085015160008051602061583c833981519152919008606085015261040084015161010085015160008051602061583c8339815191529190086101008501526141598b8b608f8181106141255761412561571a565b905060200201358c8c609081811061413f5761413f61571a565b90506020020135866005605481106105145761051461571a565b909250905061418c848c8c7f182c192e1a301b321c341436098b03260a8d040a0b0e0d121016111a121e132286866150ec565b90925090506141b3848c8c73ffff4f3a523c533e0c405038068908081628172a86866150ec565b90925090506142057f1b35b6ef23b4ac7d605742266a144a8476754a9fc2a069a27db18ba6fb3730e07f0ee60aa2ea9d4e7e94774a98a931ca332affc8dd1e6fd89ab9b29d721ce0a34e86604e61056c565b90925090506142577f07e5d14056654ad3c9650507f0670ce59f121b4577bc5b7a07a5579e3a003c267f255546d18bb64bba982efb65e4bb943b5264ba6597f9504360594f160c69944d86604d61056c565b90925090506142a97f19cbaf64117e332eca14ba3e40c89eb0a7c6f6fa289de218932519dec575e6267f09c8195e6632f6254d52f12e7e51edddf0a930d6f27b301441615f27d496ccad86604c61056c565b90925090506142fb7f18d9f37df43e24f1bde08d078e93239bbff83d6a5d61a8db0e16e7fa6b8a59387f267e0b943c043274c8a375ad63340c8d0fb084dd8bb938ffad21a8d6193b50c886604b61056c565b909250905061434d7f171022d992fae2a065c31e0e7a52020d5b36cf720460a0f54607ef3f4a1b43237f03cf25646aa66601f3165f2b40bcfd14d9f21b20fa634ad3cb88379dd430a14d86604a61056c565b909250905061439f7f20dc89d4e81d40956a81590a88ad393e9a65814ae5678c32f566a40047ee15487f14457b18319ba187eb6781fd05301f4d161095345803b81a437907b43fea9bdd86604961056c565b90925090506143f17f0bfcd70831b80abbfc3ee57ab35d25ccc816cc79770fd199c5d159f211f0b7dc7f208c5fa608df5e40aef7f9ccd81413484d9fab5817770595e6e233c43ae4d37686604861056c565b90925090506144427f24e564d02d6e5d05b9f65f6546236f808010c2da6f8d84dd170a40427dcd85797efbeabb40820098f9421146237468f9ee4db33b2e1f804a27929f1ed2fa050086604761056c565b90925090506144947f28cb036de4d9c7911efcbb202590407b21d77ee5472e8df71e052dc116c6d50b7f09c57548e61f154a6e1a9a4c7b5d1d2bb7f1154770c69dbc12fcf60cb3ad386686604661056c565b90925090506144e67f0122694a68abd948181022a68e739574202c1aa2d6d55492f8bd84831f2d7f5c7f2bcc96a1becd05eb2c79da0f4f6ec3bfce834d5b989f5be1b3a42ef3e3fb871c86604561056c565b90925090506145387f0bfcd70831b80abbfc3ee57ab35d25ccc816cc79770fd199c5d159f211f0b7dc7f208c5fa608df5e40aef7f9ccd81413484d9fab5817770595e6e233c43ae4d37686604461056c565b909250905061458a7f2691e7a83bcd6ad5eb8f2af894b38b37bc83007ac7f674e158a7a3ade53704397f279e79413f2cf4c3bc8e2c9ecc2cb09c162583c311d37d69fb7feb573918084386604361056c565b90925090506145dc7f2f9d9a1085e64adfdd3214634a236ccc7d0b375ce83c2419c9a099e8368309d57f04ce0eee98e87a6e2311cee81cd7330e801d66302a36e75288839cbec6c6d7ef86604261056c565b909250905061462e7f1d94bf4db9242fae82ef58df74e8d5e1800f99646e4ebf3d6f41cf9c25d828157f2efb055c10e4be6b82517e3a305108c36e0a19ada5a435a81a0b8f316d39590a86604161056c565b90925090506146807f2182f361eb7831a2fee9301954d802f0d7d9c24b56b000fe3baeac357aa994857f13d0b3de75b4d3ae9cc6962b6bdc15868895c81ba3cdcee71dc3f942d6c9122b86604061056c565b90925090506146d17e9fe3c9705c73604894716b9c90bc042ad691ddba728fdf4f4f710ea35be8ce7f031b80527830fa97758c2e4a1cfce807fe27a23aecd58825de9772c841c588f086603f61056c565b90925090506147237f199add066c71035794b6619048c0cddab3affff243857be8ea23a80b9866844c7f05d4abab8407bbadd785866aa0935b3d0fa071c69a5b5daaee2679f0fa9983d186603e61056c565b90925090506147757f0e10180e2f4f8fdb04684cef320805b344616765b8d7f763e07e805d4c8a3f4e7f161cda07ffdf4f460c125dcd4249744b9bc08567ab48c33a84f72314ceb21c6e86603d61056c565b90925090506147c77f3027c0c4c95b55f711ae1706d79c4d977149a2e444fcbaf169e2f2858eb05aaa7f27d2699eadde894557f20ddd264094911a53cd51e0e4a6bde23f36c0219ab86f86603c61056c565b90925090506148197f1bbf1483a65d274808e58e4fadf6c23136c1b173c1871de0c7c3f16b4fae06a97f1b74a8d8a6ab3a4813ca0ce17403f031b7e4fb770f16ae7b5eb128ce444c831c86603b61056c565b909250905061486b7f15b64e6cbd94c318a6d895415b02a2e820132fb9e126c17d6fca783f51ea86b37f05faef3259fc0481bae742ea874fec84f68087843e00ca844983830b1a09288686603a61056c565b90925090506148bd7f08b04bec0bbf0b383b58ec94b62780009de9aaee304743712d04ebc9474387267f2b98eabb0358df161585d12051638a8d4162d9e0ce1b942c6c251007edb37c1f86603961056c565b909250905061490f7f0ffa0693b7974777601dd568ea4d2813a4b5ed83adc8ef92b6a5023226e548307f1705549dab12fcd8977055facf3ff5d4a23a12f267997f54c72df9a7ecadf0dc86603861056c565b909250905061493a848c8c77ffff070015021e041f06250c28102b142e18311c3420372486866150ec565b8551602087015192945090925061495491849184916151f4565b60208601528452614969600160028681610514565b85516020870151929450909250614981918484615304565b602086018190528186526101c08601516101e090960151959d959c50909a509850929650505050505050565b6149b5615569565b80517f2c358c680be102b15427cd4f58158ea3267a938ac04e1de564fd577bb7258960905280517f097aa085249a574ff7d1aaa2b498623f2923d159833cfde765a657aff8e0b527602091820152810180517f0f77730977b52fe9c4d6cee4c281a3ace737795a9788d0ac3d9f3a9692708c759052517f1899775af20ee6b6b62d0b1c9dd6ad2e954af70764a84584c7cec5e522339fd99060015b602002015290565b614a60615569565b80517f198e9393920d483a7260bfb731fb5d25f1aa493335a9e71297e485b7aef312c2905280517f1800deef121f1e76426a00665e5c4479674322d4f75edadd46debd5cd992f6ed602091820152810180517f275dc4a288d1afb3cbb1ac09187524c7db36395df7be3b99e673b13a075a65ec9052517f1d9befcd05a5323e6da4d435f3b617cdb3af83285c2df711ef39c01571827f9d906001614a50565b60008083516006614b10919061576f565b905060008167ffffffffffffffff811115614b2d57614b2d615759565b604051908082528060200260200182016040528015614b56578160200160208202803683370190505b509050614b616155cc565b60008551875114614b7157600080fd5b60005b8751811015614daa57878181518110614b8f57614b8f61571a565b60200260200101516000015184826006614ba9919061576f565b614bb4906000615746565b81518110614bc457614bc461571a565b602002602001018181525050878181518110614be257614be261571a565b60200260200101516020015184826006614bfc919061576f565b614c07906001615746565b81518110614c1757614c1761571a565b602002602001018181525050868181518110614c3557614c3561571a565b6020908102919091010151515184614c4e83600661576f565b614c59906002615746565b81518110614c6957614c6961571a565b602002602001018181525050868181518110614c8757614c8761571a565b60209081029190910181015151015184614ca283600661576f565b614cad906003615746565b81518110614cbd57614cbd61571a565b602002602001018181525050868181518110614cdb57614cdb61571a565b602002602001015160200151600060028110614cf957614cf961571a565b602002015184614d0a83600661576f565b614d15906004615746565b81518110614d2557614d2561571a565b602002602001018181525050868181518110614d4357614d4361571a565b602002602001015160200151600160028110614d6157614d6161571a565b602002015184614d7283600661576f565b614d7d906005615746565b81518110614d8d57614d8d61571a565b602090810291909101015280614da28161578e565b915050614b74565b50602082602086026020860160085afa905080614dc657600080fd5b50511515925050505b92915050565b600080614de06155ea565b6000614dff604051806040016040528060008152602001600081525090565b8783526020830187905260408084018790528160608560075afa915081614e2557600080fd5b8051602090910151909890975095505050505050565b600080614e46615608565b87815260208101879052604081018690526060810185905260808101849052614e6e81615349565b6060810151608090910151909890975095505050505050565b60028282614e948161578e565b935060908110614ea657614ea661571a565b6020020152828282614eb78161578e565b935060908110614ec957614ec961571a565b6020020152505050565b60018282614ee08161578e565b935060908110614ef257614ef261571a565b6020020152838282614f038161578e565b935060908110614f1557614f1561571a565b6020020152828282614f268161578e565b935060908110614f3857614f3861571a565b602002015250505050565b600080838363ffffffff1660908110614f5e57614f5e61571a565b6020020181815250506000614f9084846020614f7a91906157ba565b614f859060016157e6565b63ffffffff16615384565b519050614f9c816153ba565b93525090919050565b6000614faf61554b565b614fb76155cc565b602080835282810181905260408301819052606083018690526080830185905260008051602061583c83398151915260a08401526000908260c08560055afa90508061500257600080fd5b5051949350505050565b60008160000361501b57600080fd5b60008051602061583c83398151915261503383615527565b84099392505050565b600060008051602061583c8339815191528260008051602061583c83398151915285870908949350505050565b6000805b60208110156150e25760ff8085169081146150c95760089490941c9360008051602061583c8339815191528782605481106150aa576150aa61571a565b602002015160008051602061583c8339815191528689090893506150cf565b506150e2565b506150db600182615746565b905061506d565b5090949350505050565b6000806150f7615608565b606081018590526080810184905260005b60208110156151d95760ff8088169081146151c057601088901c9760081c60ff168a8a8381811061513b5761513b61571a565b90506020020135846000600581106151555761515561571a565b60200201528a8a615167846001615746565b8181106151765761517661571a565b90506020020135846001600581106151905761519061571a565b60200201528b81605481106151a7576151a761571a565b602002015160408501526151ba84615349565b506151c6565b506151d9565b506151d2600282615746565b9050615108565b50606081015160809091015190999098509650505050505050565b6000806000615216604051806040016040528060008152602001600081525090565b61521e615626565b888152602081018890526040808201889052606082018790528260808360065afa92508261524b57600080fd5b508051602090910151909890975095505050505050565b6000805b60208110156152f95760ff8085169081146152e057601085901c9460081c60ff1660008051602061583c8339815191528560008051602061583c8339815191528b84605481106152b8576152b861571a565b60200201518b8b878181106152cf576152cf61571a565b9050602002013509089450506152e6565b506152f9565b506152f2600282615746565b9050615266565b509095945050505050565b60008061533c868686615337877f30644e72e131a029b85045b68181585d97816a916871ca8d3c208c16d87cfd476157a7565b6151f4565b9150915094509492505050565b600060406020830160608460075afa90508061536457600080fd5b60406060830160806020850160065afa90508061538057600080fd5b5050565b61538c6155cc565b6000602082848660026107d05a03fa905080806153a557fe5b50806153b3576153b3615803565b5092915050565b6000816155068160008190506008817eff00ff00ff00ff00ff00ff00ff00ff00ff00ff00ff00ff00ff00ff00ff00ff16901b6008827fff00ff00ff00ff00ff00ff00ff00ff00ff00ff00ff00ff00ff00ff00ff00ff0016901c1790506010817dffff0000ffff0000ffff0000ffff0000ffff0000ffff0000ffff0000ffff16901b6010827fffff0000ffff0000ffff0000ffff0000ffff0000ffff0000ffff0000ffff000016901c1790506020817bffffffff00000000ffffffff00000000ffffffff00000000ffffffff16901b6020827fffffffff00000000ffffffff00000000ffffffff00000000ffffffff0000000016901c17905060408177ffffffffffffffff0000000000000000ffffffffffffffff16901b60408277ffffffffffffffff0000000000000000ffffffffffffffff1916901c179050608081901b608082901c179050919050565b905061552060008051602061583c83398151915282615819565b9392505050565b6000614dcf82615546600260008051602061583c8339815191526157a7565b614fa5565b6040518060c001604052806006906020820280368337509192915050565b604051806040016040528061557c615644565b8152602001615589615644565b905290565b60405180610a8001604052806054906020820280368337509192915050565b6040518061120001604052806090906020820280368337509192915050565b60405180602001604052806001906020820280368337509192915050565b60405180606001604052806003906020820280368337509192915050565b6040518060a001604052806005906020820280368337509192915050565b60405180608001604052806004906020820280368337509192915050565b60405180604001604052806002906020820280368337509192915050565b60008083601f84011261567457600080fd5b50813567ffffffffffffffff81111561568c57600080fd5b6020830191508360208260051b85010111156156a757600080fd5b9250929050565b600080600080604085870312156156c457600080fd5b843567ffffffffffffffff808211156156dc57600080fd5b6156e888838901615662565b9096509450602087013591508082111561570157600080fd5b5061570e87828801615662565b95989497509550505050565b634e487b7160e01b600052603260045260246000fd5b634e487b7160e01b600052601160045260246000fd5b80820180821115614dcf57614dcf615730565b634e487b7160e01b600052604160045260246000fd5b600081600019048311821515161561578957615789615730565b500290565b6000600182016157a0576157a0615730565b5060010190565b81810381811115614dcf57614dcf615730565b600063ffffffff808316818516818304811182151516156157dd576157dd615730565b02949350505050565b63ffffffff8181168382160190808211156153b3576153b3615730565b634e487b7160e01b600052600160045260246000fd5b60008261583657634e487b7160e01b600052601260045260246000fd5b50069056fe30644e72e131a029b85045b68181585d2833e84879b9709143e1f593f000000109226b6e22c6f0ca64ec26aad4c86e715b5f898e5e963f25870e56bbe533e9a2a2646970667358221220c23514fea4de44c27238236418b8f16b0f93c759d6ae7ae4f065d306b2511edf64736f6c63430008100033",
  "linkReferences": {},
  "deployedLinkReferences": {}
}