{
  "_format": "hh-sol-artifact-1",
  "contractName": "L2StandardERC20Gateway",
  "sourceName": "src/L2/gateways/L2StandardERC20Gateway.sol",
  "abi": [
    {
      "inputs": [
        {
          "internalType": "address",
          "name": "_counterpart",
          "type": "address"
        },
        {
          "internalType": "address",
          "name": "_router",
          "type": "address"
        },
        {
          "internalType": "address",
          "name": "_messenger",
          "type": "address"
        },
        {
          "internalType": "address",
          "name": "_tokenFactory",
          "type": "address"
        }
      ],
      "stateMutability": "nonpayable",
      "type": "constructor"
    },
    {
      "inputs": [],
      "name": "ErrorCallerIsNotCounterpartGateway",
      "type": "error"
    },
    {
      "inputs": [],
      "name": "ErrorCallerIsNotMessenger",
      "type": "error"
    },
    {
      "inputs": [],
      "name": "ErrorNotInDropMessageContext",
      "type": "error"
    },
    {
      "inputs": [],
      "name": "ErrorZeroAddress",
      "type": "error"
    },
    {
      "anonymous": false,
      "inputs": [
        {
          "indexed": true,
          "internalType": "address",
          "name": "l1Token",
          "type": "address"
        },
        {
          "indexed": true,
          "internalType": "address",
          "name": "l2Token",
          "type": "address"
        },
        {
          "indexed": true,
          "internalType": "address",
          "name": "from",
          "type": "address"
        },
        {
          "indexed": false,
          "internalType": "address",
          "name": "to",
          "type": "address"
        },
        {
          "indexed": false,
          "internalType": "uint256",
          "name": "amount",
          "type": "uint256"
        },
        {
          "indexed": false,
          "internalType": "bytes",
          "name": "data",
          "type": "bytes"
        }
      ],
      "name": "FinalizeDepositERC20",
      "type": "event"
    },
    {
      "anonymous": false,
      "inputs": [
        {
          "indexed": false,
          "internalType": "uint8",
          "name": "version",
          "type": "uint8"
        }
      ],
      "name": "Initialized",
      "type": "event"
    },
    {
      "anonymous": false,
      "inputs": [
        {
          "indexed": true,
          "internalType": "address",
          "name": "previousOwner",
          "type": "address"
        },
        {
          "indexed": true,
          "internalType": "address",
          "name": "newOwner",
          "type": "address"
        }
      ],
      "name": "OwnershipTransferred",
      "type": "event"
    },
    {
      "anonymous": false,
      "inputs": [
        {
          "indexed": true,
          "internalType": "address",
          "name": "l1Token",
          "type": "address"
        },
        {
          "indexed": true,
          "internalType": "address",
          "name": "l2Token",
          "type": "address"
        },
        {
          "indexed": true,
          "internalType": "address",
          "name": "from",
          "type": "address"
        },
        {
          "indexed": false,
          "internalType": "address",
          "name": "to",
          "type": "address"
        },
        {
          "indexed": false,
          "internalType": "uint256",
          "name": "amount",
          "type": "uint256"
        },
        {
          "indexed": false,
          "internalType": "bytes",
          "name": "data",
          "type": "bytes"
        }
      ],
      "name": "WithdrawERC20",
      "type": "event"
    },
    {
      "inputs": [],
      "name": "counterpart",
      "outputs": [
        {
          "internalType": "address",
          "name": "",
          "type": "address"
        }
      ],
      "stateMutability": "view",
      "type": "function"
    },
    {
      "inputs": [
        {
          "internalType": "address",
          "name": "_l1Token",
          "type": "address"
        },
        {
          "internalType": "address",
          "name": "_l2Token",
          "type": "address"
        },
        {
          "internalType": "address",
          "name": "_from",
          "type": "address"
        },
        {
          "internalType": "address",
          "name": "_to",
          "type": "address"
        },
        {
          "internalType": "uint256",
          "name": "_amount",
          "type": "uint256"
        },
        {
          "internalType": "bytes",
          "name": "_data",
          "type": "bytes"
        }
      ],
      "name": "finalizeDepositERC20",
      "outputs": [],
      "stateMutability": "payable",
      "type": "function"
    },
    {
      "inputs": [
        {
          "internalType": "address",
          "name": "_l2Token",
          "type": "address"
        }
      ],
      "name": "getL1ERC20Address",
      "outputs": [
        {
          "internalType": "address",
          "name": "",
          "type": "address"
        }
      ],
      "stateMutability": "view",
      "type": "function"
    },
    {
      "inputs": [
        {
          "internalType": "address",
          "name": "_l1Token",
          "type": "address"
        }
      ],
      "name": "getL2ERC20Address",
      "outputs": [
        {
          "internalType": "address",
          "name": "",
          "type": "address"
        }
      ],
      "stateMutability": "view",
      "type": "function"
    },
    {
      "inputs": [
        {
          "internalType": "address",
          "name": "_counterpart",
          "type": "address"
        },
        {
          "internalType": "address",
          "name": "_router",
          "type": "address"
        },
        {
          "internalType": "address",
          "name": "_messenger",
          "type": "address"
        },
        {
          "internalType": "address",
          "name": "",
          "type": "address"
        }
      ],
      "name": "initialize",
      "outputs": [],
      "stateMutability": "nonpayable",
      "type": "function"
    },
    {
      "inputs": [],
      "name": "messenger",
      "outputs": [
        {
          "internalType": "address",
          "name": "",
          "type": "address"
        }
      ],
      "stateMutability": "view",
      "type": "function"
    },
    {
      "inputs": [],
      "name": "owner",
      "outputs": [
        {
          "internalType": "address",
          "name": "",
          "type": "address"
        }
      ],
      "stateMutability": "view",
      "type": "function"
    },
    {
      "inputs": [],
      "name": "renounceOwnership",
      "outputs": [],
      "stateMutability": "nonpayable",
      "type": "function"
    },
    {
      "inputs": [],
      "name": "router",
      "outputs": [
        {
          "internalType": "address",
          "name": "",
          "type": "address"
        }
      ],
      "stateMutability": "view",
      "type": "function"
    },
    {
      "inputs": [],
      "name": "tokenFactory",
      "outputs": [
        {
          "internalType": "address",
          "name": "",
          "type": "address"
        }
      ],
      "stateMutability": "view",
      "type": "function"
    },
    {
      "inputs": [
        {
          "internalType": "address",
          "name": "newOwner",
          "type": "address"
        }
      ],
      "name": "transferOwnership",
      "outputs": [],
      "stateMutability": "nonpayable",
      "type": "function"
    },
    {
      "inputs": [
        {
          "internalType": "address",
          "name": "_token",
          "type": "address"
        },
        {
          "internalType": "uint256",
          "name": "_amount",
          "type": "uint256"
        },
        {
          "internalType": "uint256",
          "name": "_gasLimit",
          "type": "uint256"
        }
      ],
      "name": "withdrawERC20",
      "outputs": [],
      "stateMutability": "payable",
      "type": "function"
    },
    {
      "inputs": [
        {
          "internalType": "address",
          "name": "_token",
          "type": "address"
        },
        {
          "internalType": "address",
          "name": "_to",
          "type": "address"
        },
        {
          "internalType": "uint256",
          "name": "_amount",
          "type": "uint256"
        },
        {
          "internalType": "uint256",
          "name": "_gasLimit",
          "type": "uint256"
        }
      ],
      "name": "withdrawERC20",
      "outputs": [],
      "stateMutability": "payable",
      "type": "function"
    },
    {
      "inputs": [
        {
          "internalType": "address",
          "name": "_token",
          "type": "address"
        },
        {
          "internalType": "address",
          "name": "_to",
          "type": "address"
        },
        {
          "internalType": "uint256",
          "name": "_amount",
          "type": "uint256"
        },
        {
          "internalType": "bytes",
          "name": "_data",
          "type": "bytes"
        },
        {
          "internalType": "uint256",
          "name": "_gasLimit",
          "type": "uint256"
        }
      ],
      "name": "withdrawERC20AndCall",
      "outputs": [],
      "stateMutability": "payable",
      "type": "function"
    }
  ],
  "bytecode": "0x6101006040523480156200001257600080fd5b5060405162001993380380620019938339810160408190526200003591620001c1565b8383836001600160a01b03831615806200005657506001600160a01b038116155b15620000755760405163a7f9319d60e01b815260040160405180910390fd5b6001600160a01b0392831660805290821660a052811660c05283161580620000a457506001600160a01b038116155b15620000c35760405163a7f9319d60e01b815260040160405180910390fd5b620000cd620000e3565b6001600160a01b031660e052506200021e915050565b600054610100900460ff1615620001505760405162461bcd60e51b815260206004820152602760248201527f496e697469616c697a61626c653a20636f6e747261637420697320696e697469604482015266616c697a696e6760c81b606482015260840160405180910390fd5b60005460ff90811614620001a2576000805460ff191660ff9081179091556040519081527f7f26b83ff96e1f2b6a682f133852f6798a09c465da95921460cefb38474024989060200160405180910390a15b565b80516001600160a01b0381168114620001bc57600080fd5b919050565b60008060008060808587031215620001d857600080fd5b620001e385620001a4565b9350620001f360208601620001a4565b92506200020360408601620001a4565b91506200021360608601620001a4565b905092959194509250565b60805160a05160c05160e0516116fd620002966000396000818161025201528181610570015281816108300152610e1901526000818160f40152818161038a015281816103d20152610bf70152600081816102a60152610a860152600081816101ba0152818161045d0152610c2601526116fd6000f3fe6080604052600436106100dd5760003560e01c80638da5cb5b1161007f578063e77772fe11610059578063e77772fe14610240578063f2fde38b14610274578063f887ea4014610294578063f8c8765e146102c857600080fd5b80638da5cb5b146101ef578063a93a4af91461020d578063c676ad291461022057600080fd5b80636c07ea43116100bb5780636c07ea4314610180578063715018a614610193578063797594b0146101a85780638431f5c1146101dc57600080fd5b80633cb747bf146100e257806354bbd59c14610132578063575361b61461016b575b600080fd5b3480156100ee57600080fd5b506101167f000000000000000000000000000000000000000000000000000000000000000081565b6040516001600160a01b03909116815260200160405180910390f35b34801561013e57600080fd5b5061011661014d366004611075565b6001600160a01b03908116600090815260fb60205260409020541690565b61017e610179366004611099565b6102e8565b005b61017e61018e366004611143565b610334565b34801561019f57600080fd5b5061017e610373565b3480156101b457600080fd5b506101167f000000000000000000000000000000000000000000000000000000000000000081565b61017e6101ea3660046111e7565b610387565b3480156101fb57600080fd5b506065546001600160a01b0316610116565b61017e61021b3660046112ba565b6107f5565b34801561022c57600080fd5b5061011661023b366004611075565b610808565b34801561024c57600080fd5b506101167f000000000000000000000000000000000000000000000000000000000000000081565b34801561028057600080fd5b5061017e61028f366004611075565b6108a3565b3480156102a057600080fd5b506101167f000000000000000000000000000000000000000000000000000000000000000081565b3480156102d457600080fd5b5061017e6102e3366004611300565b61091c565b61032c86868686868080601f016020809104026020016040519081016040528093929190818152602001838380828437600092019190915250889250610a34915050565b505050505050565b61036e83338460005b6040519080825280601f01601f191660200182016040528015610367576020820181803683370190505b5085610a34565b505050565b61037b610cec565b6103856000610d46565b565b337f00000000000000000000000000000000000000000000000000000000000000006001600160a01b0316146103d0576040516385bd908d60e01b815260040160405180910390fd5b7f00000000000000000000000000000000000000000000000000000000000000006001600160a01b0316636e296e456040518163ffffffff1660e01b8152600401602060405180830381865afa15801561042e573d6000803e3d6000fd5b505050506040513d601f19601f82011682018060405250810190610452919061135c565b6001600160a01b03167f00000000000000000000000000000000000000000000000000000000000000006001600160a01b0316146104a3576040516307b140f360e51b815260040160405180910390fd5b6104ab610d98565b34156104f25760405162461bcd60e51b81526020600482015260116024820152706e6f6e7a65726f206d73672e76616c756560781b60448201526064015b60405180910390fd5b6001600160a01b0386166105485760405162461bcd60e51b815260206004820152601960248201527f746f6b656e20616464726573732063616e6e6f7420626520300000000000000060448201526064016104e9565b6040516361e98ca160e01b81523060048201526001600160a01b0387811660248301526000917f0000000000000000000000000000000000000000000000000000000000000000909116906361e98ca190604401602060405180830381865afa1580156105b9573d6000803e3d6000fd5b505050506040513d601f19601f820116820180604052508101906105dd919061135c565b9050806001600160a01b0316866001600160a01b0316146106345760405162461bcd60e51b81526020600482015260116024820152700d86440e8ded6cadc40dad2e6dac2e8c6d607b1b60448201526064016104e9565b5060008180602001905181019061064b91906113ea565b925090506060808215610675578380602001905181019061066c9190611440565b925090506106dd565b6001600160a01b03888116600090815260fb60205260409020548116908a16146106da5760405162461bcd60e51b81526020600482015260166024820152750e8ded6cadc40dac2e0e0d2dcce40dad2e6dac2e8c6d60531b60448201526064016104e9565b50825b6001600160a01b0388163b610724576001600160a01b03888116600090815260fb6020526040902080546001600160a01b031916918b16919091179055610724828a610df1565b6040516340c10f1960e01b81526001600160a01b038781166004830152602482018790528916906340c10f1990604401600060405180830381600087803b15801561076e57600080fd5b505af1158015610782573d6000803e3d6000fd5b505050506107908682610f17565b866001600160a01b0316886001600160a01b03168a6001600160a01b03167f165ba69f6ab40c50cade6f65431801e5f9c7d7830b7545391920db039133ba348989866040516107e1939291906114c6565b60405180910390a450505061032c60018055565b610802848484600061033d565b50505050565b6040516361e98ca160e01b81523060048201526001600160a01b0382811660248301526000917f0000000000000000000000000000000000000000000000000000000000000000909116906361e98ca190604401602060405180830381865afa158015610879573d6000803e3d6000fd5b505050506040513d601f19601f8201168201806040525081019061089d919061135c565b92915050565b6108ab610cec565b6001600160a01b0381166109105760405162461bcd60e51b815260206004820152602660248201527f4f776e61626c653a206e6577206f776e657220697320746865207a65726f206160448201526564647265737360d01b60648201526084016104e9565b61091981610d46565b50565b600054610100900460ff161580801561093c5750600054600160ff909116105b806109565750303b158015610956575060005460ff166001145b6109b95760405162461bcd60e51b815260206004820152602e60248201527f496e697469616c697a61626c653a20636f6e747261637420697320616c72656160448201526d191e481a5b9a5d1a585b1a5e995960921b60648201526084016104e9565b6000805460ff1916600117905580156109dc576000805461ff0019166101001790555b6109e7858585610f9b565b8015610a2d576000805461ff0019169055604051600181527f7f26b83ff96e1f2b6a682f133852f6798a09c465da95921460cefb38474024989060200160405180910390a15b5050505050565b610a3c610d98565b60008311610a835760405162461bcd60e51b81526020600482015260146024820152731dda5d1a191c985dc81e995c9bc8185b5bdd5b9d60621b60448201526064016104e9565b337f00000000000000000000000000000000000000000000000000000000000000006001600160a01b0316819003610ace5782806020019051810190610ac991906114f6565b935090505b6001600160a01b03808716600090815260fb60205260409020541680610b365760405162461bcd60e51b815260206004820152601960248201527f6e6f20636f72726573706f6e64696e67206c3120746f6b656e0000000000000060448201526064016104e9565b604051632770a7eb60e21b81526001600160a01b03838116600483015260248201879052881690639dc29fac90604401600060405180830381600087803b158015610b8057600080fd5b505af1158015610b94573d6000803e3d6000fd5b505050506000818884898989604051602401610bb596959493929190611514565b60408051601f198184030181529181526020820180516001600160e01b031663084bd13b60e41b1790525163b2267a7b60e01b81529091506001600160a01b037f0000000000000000000000000000000000000000000000000000000000000000169063b2267a7b903490610c55907f00000000000000000000000000000000000000000000000000000000000000009060009087908b90600401611563565b6000604051808303818588803b158015610c6e57600080fd5b505af1158015610c82573d6000803e3d6000fd5b5050505050826001600160a01b0316886001600160a01b0316836001600160a01b03167fd8d3a3f4ab95694bef40475997598bcf8acd3ed9617a4c1013795429414c27e88a8a8a604051610cd8939291906114c6565b60405180910390a4505050610a2d60018055565b6065546001600160a01b031633146103855760405162461bcd60e51b815260206004820181905260248201527f4f776e61626c653a2063616c6c6572206973206e6f7420746865206f776e657260448201526064016104e9565b606580546001600160a01b038381166001600160a01b0319831681179093556040519116919082907f8be0079c531659141344cd1fd0a4f28419497f9722a3daafe3b4186f6b6457e090600090a35050565b600260015403610dea5760405162461bcd60e51b815260206004820152601f60248201527f5265656e7472616e637947756172643a207265656e7472616e742063616c6c0060448201526064016104e9565b6002600155565b604051637bdbcbbf60e01b81523060048201526001600160a01b0382811660248301526000917f000000000000000000000000000000000000000000000000000000000000000090911690637bdbcbbf906044016020604051808303816000875af1158015610e64573d6000803e3d6000fd5b505050506040513d601f19601f82011682018060405250810190610e88919061135c565b9050600080600085806020019051810190610ea3919061159b565b925092509250836001600160a01b031663c820f146838584308a6040518663ffffffff1660e01b8152600401610edd959493929190611619565b600060405180830381600087803b158015610ef757600080fd5b505af1158015610f0b573d6000803e3d6000fd5b50505050505050505050565b60008151118015610f3257506000826001600160a01b03163b115b15610f915760405163109b953160e01b81526001600160a01b0383169063109b953190610f63908490600401611669565b600060405180830381600087803b158015610f7d57600080fd5b505af115801561032c573d6000803e3d6000fd5b5050565b60018055565b610fa3610fab565b61036e610fda565b600054610100900460ff16610fd25760405162461bcd60e51b81526004016104e99061167c565b610385611009565b600054610100900460ff166110015760405162461bcd60e51b81526004016104e99061167c565b610385611030565b600054610100900460ff16610f955760405162461bcd60e51b81526004016104e99061167c565b600054610100900460ff166110575760405162461bcd60e51b81526004016104e99061167c565b61038533610d46565b6001600160a01b038116811461091957600080fd5b60006020828403121561108757600080fd5b813561109281611060565b9392505050565b60008060008060008060a087890312156110b257600080fd5b86356110bd81611060565b955060208701356110cd81611060565b945060408701359350606087013567ffffffffffffffff808211156110f157600080fd5b818901915089601f83011261110557600080fd5b81358181111561111457600080fd5b8a602082850101111561112657600080fd5b602083019550809450505050608087013590509295509295509295565b60008060006060848603121561115857600080fd5b833561116381611060565b95602085013595506040909401359392505050565b634e487b7160e01b600052604160045260246000fd5b604051601f8201601f1916810167ffffffffffffffff811182821017156111b7576111b7611178565b604052919050565b600067ffffffffffffffff8211156111d9576111d9611178565b50601f01601f191660200190565b60008060008060008060c0878903121561120057600080fd5b863561120b81611060565b9550602087013561121b81611060565b9450604087013561122b81611060565b9350606087013561123b81611060565b92506080870135915060a087013567ffffffffffffffff81111561125e57600080fd5b8701601f8101891361126f57600080fd5b803561128261127d826111bf565b61118e565b8181528a602083850101111561129757600080fd5b816020840160208301376000602083830101528093505050509295509295509295565b600080600080608085870312156112d057600080fd5b84356112db81611060565b935060208501356112eb81611060565b93969395505050506040820135916060013590565b6000806000806080858703121561131657600080fd5b843561132181611060565b9350602085013561133181611060565b9250604085013561134181611060565b9150606085013561135181611060565b939692955090935050565b60006020828403121561136e57600080fd5b815161109281611060565b60005b8381101561139457818101518382015260200161137c565b50506000910152565b600082601f8301126113ae57600080fd5b81516113bc61127d826111bf565b8181528460208386010111156113d157600080fd5b6113e2826020830160208701611379565b949350505050565b600080604083850312156113fd57600080fd5b8251801515811461140d57600080fd5b602084015190925067ffffffffffffffff81111561142a57600080fd5b6114368582860161139d565b9150509250929050565b6000806040838503121561145357600080fd5b825167ffffffffffffffff8082111561146b57600080fd5b6114778683870161139d565b9350602085015191508082111561148d57600080fd5b506114368582860161139d565b600081518084526114b2816020860160208601611379565b601f01601f19169290920160200192915050565b60018060a01b03841681528260208201526060604082015260006114ed606083018461149a565b95945050505050565b6000806040838503121561150957600080fd5b825161140d81611060565b6001600160a01b03878116825286811660208301528581166040830152841660608201526080810183905260c060a082018190526000906115579083018461149a565b98975050505050505050565b60018060a01b038516815283602082015260806040820152600061158a608083018561149a565b905082606083015295945050505050565b6000806000606084860312156115b057600080fd5b835167ffffffffffffffff808211156115c857600080fd5b6115d48783880161139d565b945060208601519150808211156115ea57600080fd5b506115f78682870161139d565b925050604084015160ff8116811461160e57600080fd5b809150509250925092565b60a08152600061162c60a083018861149a565b828103602084015261163e818861149a565b60ff96909616604084015250506001600160a01b039283166060820152911660809091015292915050565b602081526000611092602083018461149a565b6020808252602b908201527f496e697469616c697a61626c653a20636f6e7472616374206973206e6f74206960408201526a6e697469616c697a696e6760a81b60608201526080019056fea2646970667358221220dc8c6f69b9eca30755c7dcd539bf134039d9dfd2fbed7e53df738e97913ea11a64736f6c63430008100033",
  "linkReferences": {},
  "deployedLinkReferences": {}
}