{"abi":[{"type":"constructor","inputs":[{"name":"_counterpart","type":"address","internalType":"address"},{"name":"_router","type":"address","internalType":"address"},{"name":"_messenger","type":"address","internalType":"address"}],"stateMutability":"nonpayable"},{"type":"function","name":"counterpart","inputs":[],"outputs":[{"name":"","type":"address","internalType":"address"}],"stateMutability":"view"},{"type":"function","name":"depositERC20","inputs":[{"name":"_token","type":"address","internalType":"address"},{"name":"_amount","type":"uint256","internalType":"uint256"},{"name":"_gasLimit","type":"uint256","internalType":"uint256"}],"outputs":[],"stateMutability":"payable"},{"type":"function","name":"depositERC20","inputs":[{"name":"_token","type":"address","internalType":"address"},{"name":"_to","type":"address","internalType":"address"},{"name":"_amount","type":"uint256","internalType":"uint256"},{"name":"_gasLimit","type":"uint256","internalType":"uint256"}],"outputs":[],"stateMutability":"payable"},{"type":"function","name":"depositERC20AndCall","inputs":[{"name":"_token","type":"address","internalType":"address"},{"name":"_to","type":"address","internalType":"address"},{"name":"_amount","type":"uint256","internalType":"uint256"},{"name":"_data","type":"bytes","internalType":"bytes"},{"name":"_gasLimit","type":"uint256","internalType":"uint256"}],"outputs":[],"stateMutability":"payable"},{"type":"function","name":"finalizeWithdrawERC20","inputs":[{"name":"_l1Token","type":"address","internalType":"address"},{"name":"_l2Token","type":"address","internalType":"address"},{"name":"_from","type":"address","internalType":"address"},{"name":"_to","type":"address","internalType":"address"},{"name":"_amount","type":"uint256","internalType":"uint256"},{"name":"_data","type":"bytes","internalType":"bytes"}],"outputs":[],"stateMutability":"payable"},{"type":"function","name":"getL2ERC20Address","inputs":[{"name":"_l1Token","type":"address","internalType":"address"}],"outputs":[{"name":"","type":"address","internalType":"address"}],"stateMutability":"view"},{"type":"function","name":"initialize","inputs":[{"name":"_counterpart","type":"address","internalType":"address"},{"name":"_router","type":"address","internalType":"address"},{"name":"_messenger","type":"address","internalType":"address"}],"outputs":[],"stateMutability":"nonpayable"},{"type":"function","name":"messenger","inputs":[],"outputs":[{"name":"","type":"address","internalType":"address"}],"stateMutability":"view"},{"type":"function","name":"onDropMessage","inputs":[{"name":"_message","type":"bytes","internalType":"bytes"}],"outputs":[],"stateMutability":"payable"},{"type":"function","name":"owner","inputs":[],"outputs":[{"name":"","type":"address","internalType":"address"}],"stateMutability":"view"},{"type":"function","name":"renounceOwnership","inputs":[],"outputs":[],"stateMutability":"nonpayable"},{"type":"function","name":"router","inputs":[],"outputs":[{"name":"","type":"address","internalType":"address"}],"stateMutability":"view"},{"type":"function","name":"tokenMapping","inputs":[{"name":"","type":"address","internalType":"address"}],"outputs":[{"name":"","type":"address","internalType":"address"}],"stateMutability":"view"},{"type":"function","name":"transferOwnership","inputs":[{"name":"newOwner","type":"address","internalType":"address"}],"outputs":[],"stateMutability":"nonpayable"},{"type":"function","name":"updateTokenMapping","inputs":[{"name":"_l1Token","type":"address","internalType":"address"},{"name":"_l2Token","type":"address","internalType":"address"}],"outputs":[],"stateMutability":"nonpayable"},{"type":"event","name":"DepositERC20","inputs":[{"name":"l1Token","type":"address","indexed":true,"internalType":"address"},{"name":"l2Token","type":"address","indexed":true,"internalType":"address"},{"name":"from","type":"address","indexed":true,"internalType":"address"},{"name":"to","type":"address","indexed":false,"internalType":"address"},{"name":"amount","type":"uint256","indexed":false,"internalType":"uint256"},{"name":"data","type":"bytes","indexed":false,"internalType":"bytes"}],"anonymous":false},{"type":"event","name":"FinalizeWithdrawERC20","inputs":[{"name":"l1Token","type":"address","indexed":true,"internalType":"address"},{"name":"l2Token","type":"address","indexed":true,"internalType":"address"},{"name":"from","type":"address","indexed":true,"internalType":"address"},{"name":"to","type":"address","indexed":false,"internalType":"address"},{"name":"amount","type":"uint256","indexed":false,"internalType":"uint256"},{"name":"data","type":"bytes","indexed":false,"internalType":"bytes"}],"anonymous":false},{"type":"event","name":"Initialized","inputs":[{"name":"version","type":"uint8","indexed":false,"internalType":"uint8"}],"anonymous":false},{"type":"event","name":"OwnershipTransferred","inputs":[{"name":"previousOwner","type":"address","indexed":true,"internalType":"address"},{"name":"newOwner","type":"address","indexed":true,"internalType":"address"}],"anonymous":false},{"type":"event","name":"RefundERC20","inputs":[{"name":"token","type":"address","indexed":true,"internalType":"address"},{"name":"recipient","type":"address","indexed":true,"internalType":"address"},{"name":"amount","type":"uint256","indexed":false,"internalType":"uint256"}],"anonymous":false},{"type":"event","name":"UpdateTokenMapping","inputs":[{"name":"l1Token","type":"address","indexed":true,"internalType":"address"},{"name":"oldL2Token","type":"address","indexed":true,"internalType":"address"},{"name":"newL2Token","type":"address","indexed":true,"internalType":"address"}],"anonymous":false},{"type":"error","name":"ErrorCallerIsNotCounterpartGateway","inputs":[]},{"type":"error","name":"ErrorCallerIsNotMessenger","inputs":[]},{"type":"error","name":"ErrorNotInDropMessageContext","inputs":[]},{"type":"error","name":"ErrorZeroAddress","inputs":[]}],"bytecode":{"object":"0x60e06040523480156200001157600080fd5b5060405162001e5338038062001e5383398101604081905262000034916200019e565b8282826001600160a01b03831615806200005557506001600160a01b038116155b15620000745760405163a7f9319d60e01b815260040160405180910390fd5b6001600160a01b0392831660805290821660a052811660c0528216620000ad5760405163a7f9319d60e01b815260040160405180910390fd5b620000b7620000c0565b505050620001e8565b600054610100900460ff16156200012d5760405162461bcd60e51b815260206004820152602760248201527f496e697469616c697a61626c653a20636f6e747261637420697320696e697469604482015266616c697a696e6760c81b606482015260840160405180910390fd5b60005460ff908116146200017f576000805460ff191660ff9081179091556040519081527f7f26b83ff96e1f2b6a682f133852f6798a09c465da95921460cefb38474024989060200160405180910390a15b565b80516001600160a01b03811681146200019957600080fd5b919050565b600080600060608486031215620001b457600080fd5b620001bf8462000181565b9250620001cf6020850162000181565b9150620001df6040850162000181565b90509250925092565b60805160a05160c051611c03620002506000396000818161013a0152818161031f015281816103670152818161059b015281816105e30152610acc0152600081816102c60152610f0201526000818161019f0152818161066e0152610afb0152611c036000f3fe6080604052600436106100e85760003560e01c80638da5cb5b1161008a578063f219fa6611610059578063f219fa6614610281578063f2fde38b14610294578063f887ea40146102b4578063fac752eb146102e857600080fd5b80638da5cb5b146101d4578063ba27f50b146101f2578063c0c53b8b14610228578063c676ad291461024857600080fd5b80633cb747bf116100c65780633cb747bf14610128578063715018a614610178578063797594b01461018d57806384bd13b0146101c157600080fd5b80630aea8c26146100ed57806314298c511461010257806321425ee014610115575b600080fd5b6101006100fb36600461154a565b610308565b005b610100610110366004611607565b61031c565b610100610123366004611649565b610545565b34801561013457600080fd5b5061015c7f000000000000000000000000000000000000000000000000000000000000000081565b6040516001600160a01b03909116815260200160405180910390f35b34801561018457600080fd5b50610100610584565b34801561019957600080fd5b5061015c7f000000000000000000000000000000000000000000000000000000000000000081565b6101006101cf36600461167e565b610598565b3480156101e057600080fd5b506065546001600160a01b031661015c565b3480156101fe57600080fd5b5061015c61020d366004611716565b60fb602052600090815260409020546001600160a01b031681565b34801561023457600080fd5b5061010061024336600461173a565b61078c565b34801561025457600080fd5b5061015c610263366004611716565b6001600160a01b03908116600090815260fb60205260409020541690565b61010061028f366004611785565b6108a3565b3480156102a057600080fd5b506101006102af366004611716565b6108b0565b3480156102c057600080fd5b5061015c7f000000000000000000000000000000000000000000000000000000000000000081565b3480156102f457600080fd5b506101006103033660046117cb565b610929565b61031585858585856109e7565b5050505050565b337f00000000000000000000000000000000000000000000000000000000000000006001600160a01b031614610365576040516385bd908d60e01b815260040160405180910390fd5b7f00000000000000000000000000000000000000000000000000000000000000006001600160a01b0316636e296e456040518163ffffffff1660e01b8152600401602060405180830381865afa1580156103c3573d6000803e3d6000fd5b505050506040513d601f19601f820116820180604052508101906103e79190611804565b6001600160a01b0316736f297c61b5c92ef107ffd30cd56affe5a273e8416001600160a01b03161461042c57604051630d08b8ff60e01b815260040160405180910390fd5b610434610bc3565b638431f5c160e01b61044a600460008486611821565b6104539161184b565b6001600160e01b031916146104a25760405162461bcd60e51b815260206004820152601060248201526f34b73b30b634b21039b2b632b1ba37b960811b60448201526064015b60405180910390fd5b600080806104b38460048188611821565b8101906104c0919061187b565b5094505093505092506104d4838383610c1c565b6104e86001600160a01b0384168383610c5e565b816001600160a01b0316836001600160a01b03167fdbdf8eb487847e4c0f22847f5dac07f2d3690f96f581a6ae4b102769917645a88360405161052d91815260200190565b60405180910390a350505061054160018055565b5050565b61057f83338460005b6040519080825280601f01601f191660200182016040528015610578576020820181803683370190505b50856109e7565b505050565b61058c610cc7565b6105966000610d21565b565b337f00000000000000000000000000000000000000000000000000000000000000006001600160a01b0316146105e1576040516385bd908d60e01b815260040160405180910390fd5b7f00000000000000000000000000000000000000000000000000000000000000006001600160a01b0316636e296e456040518163ffffffff1660e01b8152600401602060405180830381865afa15801561063f573d6000803e3d6000fd5b505050506040513d601f19601f820116820180604052508101906106639190611804565b6001600160a01b03167f00000000000000000000000000000000000000000000000000000000000000006001600160a01b0316146106b4576040516307b140f360e51b815260040160405180910390fd5b6106bc610bc3565b6106cb87878787878787610d73565b6106df6001600160a01b0388168585610c5e565b61071f8483838080601f016020809104026020016040519081016040528093929190818152602001838380828437600092019190915250610e6792505050565b846001600160a01b0316866001600160a01b0316886001600160a01b03167fc6f985873b37805705f6bce756dce3d1ff4b603e298d506288cce499926846a787878787604051610772949392919061190b565b60405180910390a461078360018055565b50505050505050565b600054610100900460ff16158080156107ac5750600054600160ff909116105b806107c65750303b1580156107c6575060005460ff166001145b6108295760405162461bcd60e51b815260206004820152602e60248201527f496e697469616c697a61626c653a20636f6e747261637420697320616c72656160448201526d191e481a5b9a5d1a585b1a5e995960921b6064820152608401610499565b6000805460ff19166001179055801561084c576000805461ff0019166101001790555b610857848484610ee9565b801561089d576000805461ff0019169055604051600181527f7f26b83ff96e1f2b6a682f133852f6798a09c465da95921460cefb38474024989060200160405180910390a15b50505050565b61089d848484600061054e565b6108b8610cc7565b6001600160a01b03811661091d5760405162461bcd60e51b815260206004820152602660248201527f4f776e61626c653a206e6577206f776e657220697320746865207a65726f206160448201526564647265737360d01b6064820152608401610499565b61092681610d21565b50565b610931610cc7565b6001600160a01b0381166109835760405162461bcd60e51b81526020600482015260196024820152780746f6b656e20616464726573732063616e6e6f74206265203603c1b6044820152606401610499565b6001600160a01b03808316600081815260fb602052604080822080548686166001600160a01b0319821681179092559151919094169392849290917f2069a26c43c36ffaabe0c2d19bf65e55dd03abecdc449f5cc9663491e97f709d9190a4505050565b6109ef610bc3565b6001600160a01b03808616600090815260fb60205260409020541680610a575760405162461bcd60e51b815260206004820152601960248201527f6e6f20636f72726573706f6e64696e67206c3220746f6b656e000000000000006044820152606401610499565b6000610a64878686610ef9565b6040519197509550909150600090610a8a908990859085908b908b908b906024016119a3565b60408051601f198184030181529181526020820180516001600160e01b0316638431f5c160e01b17905251635f7b157760e01b81529091506001600160a01b037f00000000000000000000000000000000000000000000000000000000000000001690635f7b1577903490610b2c907f00000000000000000000000000000000000000000000000000000000000000009060009087908b908a906004016119f2565b6000604051808303818588803b158015610b4557600080fd5b505af1158015610b59573d6000803e3d6000fd5b5050505050816001600160a01b0316836001600160a01b0316896001600160a01b03167f31cd3b976e4d654022bf95c68a2ce53f1d5d94afabe0454d2832208eeb40af258a8a8a604051610baf93929190611a34565b60405180910390a450505061031560018055565b600260015403610c155760405162461bcd60e51b815260206004820152601f60248201527f5265656e7472616e637947756172643a207265656e7472616e742063616c6c006044820152606401610499565b6002600155565b341561057f5760405162461bcd60e51b81526020600482015260116024820152706e6f6e7a65726f206d73672e76616c756560781b6044820152606401610499565b6040516001600160a01b03831660248201526044810182905261057f90849063a9059cbb60e01b906064015b60408051601f198184030181529190526020810180516001600160e01b03166001600160e01b03199093169290921790915261111e565b60018055565b6065546001600160a01b031633146105965760405162461bcd60e51b815260206004820181905260248201527f4f776e61626c653a2063616c6c6572206973206e6f7420746865206f776e65726044820152606401610499565b606580546001600160a01b038381166001600160a01b0319831681179093556040519116919082907f8be0079c531659141344cd1fd0a4f28419497f9722a3daafe3b4186f6b6457e090600090a35050565b3415610db55760405162461bcd60e51b81526020600482015260116024820152706e6f6e7a65726f206d73672e76616c756560781b6044820152606401610499565b6001600160a01b038616610e075760405162461bcd60e51b81526020600482015260196024820152780746f6b656e20616464726573732063616e6e6f74206265203603c1b6044820152606401610499565b6001600160a01b03808816600090815260fb60205260409020548782169116146107835760405162461bcd60e51b81526020600482015260116024820152700d86440e8ded6cadc40dad2e6dac2e8c6d607b1b6044820152606401610499565b60008151118015610e8257506000826001600160a01b03163b115b156105415760405163109b953160e01b81526001600160a01b0383169063109b953190610eb3908490600401611a64565b600060405180830381600087803b158015610ecd57600080fd5b505af1158015610ee1573d6000803e3d6000fd5b505050505050565b610ef16111f3565b61057f611222565b600080606033807f00000000000000000000000000000000000000000000000000000000000000006001600160a01b0316819003610fcd5785806020019051810190610f459190611a77565b60405163314a8eef60e21b81526001600160a01b0380841660048301528b81166024830152604482018b905291985091925083169063c52a3bbc906064016020604051808303816000875af1158015610fa2573d6000803e3d6000fd5b505050506040513d601f19601f82011682018060405250810190610fc69190611b04565b96506110cb565b6040516370a0823160e01b81523060048201526000906001600160a01b038a16906370a0823190602401602060405180830381865afa158015611014573d6000803e3d6000fd5b505050506040513d601f19601f820116820180604052508101906110389190611b04565b905061104f6001600160a01b038a1683308b611251565b6040516370a0823160e01b81523060048201526000906001600160a01b038b16906370a0823190602401602060405180830381865afa158015611096573d6000803e3d6000fd5b505050506040513d601f19601f820116820180604052508101906110ba9190611b04565b90506110c68282611b1d565b985050505b600087116111115760405162461bcd60e51b815260206004820152601360248201527219195c1bdcda5d081e995c9bc8185b5bdd5b9d606a1b6044820152606401610499565b9795965093949350505050565b6000611173826040518060400160405280602081526020017f5361666545524332303a206c6f772d6c6576656c2063616c6c206661696c6564815250856001600160a01b03166112899092919063ffffffff16565b90508051600014806111945750808060200190518101906111949190611b44565b61057f5760405162461bcd60e51b815260206004820152602a60248201527f5361666545524332303a204552433230206f7065726174696f6e20646964206e6044820152691bdd081cdd58d8d9595960b21b6064820152608401610499565b600054610100900460ff1661121a5760405162461bcd60e51b815260040161049990611b66565b6105966112a0565b600054610100900460ff166112495760405162461bcd60e51b815260040161049990611b66565b6105966112c7565b6040516001600160a01b038085166024830152831660448201526064810182905261089d9085906323b872dd60e01b90608401610c8a565b606061129884846000856112f7565b949350505050565b600054610100900460ff16610cc15760405162461bcd60e51b815260040161049990611b66565b600054610100900460ff166112ee5760405162461bcd60e51b815260040161049990611b66565b61059633610d21565b6060824710156113585760405162461bcd60e51b815260206004820152602660248201527f416464726573733a20696e73756666696369656e742062616c616e636520666f6044820152651c8818d85b1b60d21b6064820152608401610499565b600080866001600160a01b031685876040516113749190611bb1565b60006040518083038185875af1925050503d80600081146113b1576040519150601f19603f3d011682016040523d82523d6000602084013e6113b6565b606091505b50915091506113c7878383876113d2565b979650505050505050565b6060831561144157825160000361143a576001600160a01b0385163b61143a5760405162461bcd60e51b815260206004820152601d60248201527f416464726573733a2063616c6c20746f206e6f6e2d636f6e74726163740000006044820152606401610499565b5081611298565b61129883838151156114565781518083602001fd5b8060405162461bcd60e51b81526004016104999190611a64565b6001600160a01b038116811461092657600080fd5b634e487b7160e01b600052604160045260246000fd5b604051601f8201601f1916810167ffffffffffffffff811182821017156114c4576114c4611485565b604052919050565b600067ffffffffffffffff8211156114e6576114e6611485565b50601f01601f191660200190565b600082601f83011261150557600080fd5b8135611518611513826114cc565b61149b565b81815284602083860101111561152d57600080fd5b816020850160208301376000918101602001919091529392505050565b600080600080600060a0868803121561156257600080fd5b853561156d81611470565b9450602086013561157d81611470565b935060408601359250606086013567ffffffffffffffff8111156115a057600080fd5b6115ac888289016114f4565b95989497509295608001359392505050565b60008083601f8401126115d057600080fd5b50813567ffffffffffffffff8111156115e857600080fd5b60208301915083602082850101111561160057600080fd5b9250929050565b6000806020838503121561161a57600080fd5b823567ffffffffffffffff81111561163157600080fd5b61163d858286016115be565b90969095509350505050565b60008060006060848603121561165e57600080fd5b833561166981611470565b95602085013595506040909401359392505050565b600080600080600080600060c0888a03121561169957600080fd5b87356116a481611470565b965060208801356116b481611470565b955060408801356116c481611470565b945060608801356116d481611470565b93506080880135925060a088013567ffffffffffffffff8111156116f757600080fd5b6117038a828b016115be565b989b979a50959850939692959293505050565b60006020828403121561172857600080fd5b813561173381611470565b9392505050565b60008060006060848603121561174f57600080fd5b833561175a81611470565b9250602084013561176a81611470565b9150604084013561177a81611470565b809150509250925092565b6000806000806080858703121561179b57600080fd5b84356117a681611470565b935060208501356117b681611470565b93969395505050506040820135916060013590565b600080604083850312156117de57600080fd5b82356117e981611470565b915060208301356117f981611470565b809150509250929050565b60006020828403121561181657600080fd5b815161173381611470565b6000808585111561183157600080fd5b8386111561183e57600080fd5b5050820193919092039150565b6001600160e01b031981358181169160048510156118735780818660040360031b1b83161692505b505092915050565b60008060008060008060c0878903121561189457600080fd5b863561189f81611470565b955060208701356118af81611470565b945060408701356118bf81611470565b935060608701356118cf81611470565b92506080870135915060a087013567ffffffffffffffff8111156118f257600080fd5b6118fe89828a016114f4565b9150509295509295509295565b6001600160a01b0385168152602081018490526060604082018190528101829052818360808301376000818301608090810191909152601f909201601f191601019392505050565b60005b8381101561196e578181015183820152602001611956565b50506000910152565b6000815180845261198f816020860160208601611953565b601f01601f19169290920160200192915050565b6001600160a01b03878116825286811660208301528581166040830152841660608201526080810183905260c060a082018190526000906119e690830184611977565b98975050505050505050565b600060018060a01b03808816835286602084015260a06040840152611a1a60a0840187611977565b606084019590955292909216608090910152509392505050565b60018060a01b0384168152826020820152606060408201526000611a5b6060830184611977565b95945050505050565b6020815260006117336020830184611977565b60008060408385031215611a8a57600080fd5b8251611a9581611470565b602084015190925067ffffffffffffffff811115611ab257600080fd5b8301601f81018513611ac357600080fd5b8051611ad1611513826114cc565b818152866020838501011115611ae657600080fd5b611af7826020830160208601611953565b8093505050509250929050565b600060208284031215611b1657600080fd5b5051919050565b81810381811115611b3e57634e487b7160e01b600052601160045260246000fd5b92915050565b600060208284031215611b5657600080fd5b8151801515811461173357600080fd5b6020808252602b908201527f496e697469616c697a61626c653a20636f6e7472616374206973206e6f74206960408201526a6e697469616c697a696e6760a81b606082015260800190565b60008251611bc3818460208701611953565b919091019291505056fea2646970667358221220c84bea062cedf6fd33c6314f483886c85d47e11edaffe78e36596ec805d77a2c64736f6c63430008100033","linkReferences":{}},"methodIdentifiers":{"counterpart()":"797594b0","depositERC20(address,address,uint256,uint256)":"f219fa66","depositERC20(address,uint256,uint256)":"21425ee0","depositERC20AndCall(address,address,uint256,bytes,uint256)":"0aea8c26","finalizeWithdrawERC20(address,address,address,address,uint256,bytes)":"84bd13b0","getL2ERC20Address(address)":"c676ad29","initialize(address,address,address)":"c0c53b8b","messenger()":"3cb747bf","onDropMessage(bytes)":"14298c51","owner()":"8da5cb5b","renounceOwnership()":"715018a6","router()":"f887ea40","tokenMapping(address)":"ba27f50b","transferOwnership(address)":"f2fde38b","updateTokenMapping(address,address)":"fac752eb"},"id":130}