{"abi":[{"type":"constructor","inputs":[{"name":"_counterpart","type":"address","internalType":"address"},{"name":"_messenger","type":"address","internalType":"address"}],"stateMutability":"nonpayable"},{"type":"function","name":"batchDepositERC721","inputs":[{"name":"_token","type":"address","internalType":"address"},{"name":"_to","type":"address","internalType":"address"},{"name":"_tokenIds","type":"uint256[]","internalType":"uint256[]"},{"name":"_gasLimit","type":"uint256","internalType":"uint256"}],"outputs":[],"stateMutability":"payable"},{"type":"function","name":"batchDepositERC721","inputs":[{"name":"_token","type":"address","internalType":"address"},{"name":"_tokenIds","type":"uint256[]","internalType":"uint256[]"},{"name":"_gasLimit","type":"uint256","internalType":"uint256"}],"outputs":[],"stateMutability":"payable"},{"type":"function","name":"counterpart","inputs":[],"outputs":[{"name":"","type":"address","internalType":"address"}],"stateMutability":"view"},{"type":"function","name":"depositERC721","inputs":[{"name":"_token","type":"address","internalType":"address"},{"name":"_to","type":"address","internalType":"address"},{"name":"_tokenId","type":"uint256","internalType":"uint256"},{"name":"_gasLimit","type":"uint256","internalType":"uint256"}],"outputs":[],"stateMutability":"payable"},{"type":"function","name":"depositERC721","inputs":[{"name":"_token","type":"address","internalType":"address"},{"name":"_tokenId","type":"uint256","internalType":"uint256"},{"name":"_gasLimit","type":"uint256","internalType":"uint256"}],"outputs":[],"stateMutability":"payable"},{"type":"function","name":"finalizeBatchWithdrawERC721","inputs":[{"name":"_l1Token","type":"address","internalType":"address"},{"name":"_l2Token","type":"address","internalType":"address"},{"name":"_from","type":"address","internalType":"address"},{"name":"_to","type":"address","internalType":"address"},{"name":"_tokenIds","type":"uint256[]","internalType":"uint256[]"}],"outputs":[],"stateMutability":"nonpayable"},{"type":"function","name":"finalizeWithdrawERC721","inputs":[{"name":"_l1Token","type":"address","internalType":"address"},{"name":"_l2Token","type":"address","internalType":"address"},{"name":"_from","type":"address","internalType":"address"},{"name":"_to","type":"address","internalType":"address"},{"name":"_tokenId","type":"uint256","internalType":"uint256"}],"outputs":[],"stateMutability":"nonpayable"},{"type":"function","name":"initialize","inputs":[{"name":"_counterpart","type":"address","internalType":"address"},{"name":"_messenger","type":"address","internalType":"address"}],"outputs":[],"stateMutability":"nonpayable"},{"type":"function","name":"messenger","inputs":[],"outputs":[{"name":"","type":"address","internalType":"address"}],"stateMutability":"view"},{"type":"function","name":"onDropMessage","inputs":[{"name":"_message","type":"bytes","internalType":"bytes"}],"outputs":[],"stateMutability":"payable"},{"type":"function","name":"onERC721Received","inputs":[{"name":"","type":"address","internalType":"address"},{"name":"","type":"address","internalType":"address"},{"name":"","type":"uint256","internalType":"uint256"},{"name":"","type":"bytes","internalType":"bytes"}],"outputs":[{"name":"","type":"bytes4","internalType":"bytes4"}],"stateMutability":"nonpayable"},{"type":"function","name":"owner","inputs":[],"outputs":[{"name":"","type":"address","internalType":"address"}],"stateMutability":"view"},{"type":"function","name":"renounceOwnership","inputs":[],"outputs":[],"stateMutability":"nonpayable"},{"type":"function","name":"router","inputs":[],"outputs":[{"name":"","type":"address","internalType":"address"}],"stateMutability":"view"},{"type":"function","name":"tokenMapping","inputs":[{"name":"","type":"address","internalType":"address"}],"outputs":[{"name":"","type":"address","internalType":"address"}],"stateMutability":"view"},{"type":"function","name":"transferOwnership","inputs":[{"name":"newOwner","type":"address","internalType":"address"}],"outputs":[],"stateMutability":"nonpayable"},{"type":"function","name":"updateTokenMapping","inputs":[{"name":"_l1Token","type":"address","internalType":"address"},{"name":"_l2Token","type":"address","internalType":"address"}],"outputs":[],"stateMutability":"nonpayable"},{"type":"event","name":"BatchDepositERC721","inputs":[{"name":"_l1Token","type":"address","indexed":true,"internalType":"address"},{"name":"_l2Token","type":"address","indexed":true,"internalType":"address"},{"name":"_from","type":"address","indexed":true,"internalType":"address"},{"name":"_to","type":"address","indexed":false,"internalType":"address"},{"name":"_tokenIds","type":"uint256[]","indexed":false,"internalType":"uint256[]"}],"anonymous":false},{"type":"event","name":"BatchRefundERC721","inputs":[{"name":"token","type":"address","indexed":true,"internalType":"address"},{"name":"recipient","type":"address","indexed":true,"internalType":"address"},{"name":"tokenIds","type":"uint256[]","indexed":false,"internalType":"uint256[]"}],"anonymous":false},{"type":"event","name":"DepositERC721","inputs":[{"name":"_l1Token","type":"address","indexed":true,"internalType":"address"},{"name":"_l2Token","type":"address","indexed":true,"internalType":"address"},{"name":"_from","type":"address","indexed":true,"internalType":"address"},{"name":"_to","type":"address","indexed":false,"internalType":"address"},{"name":"_tokenId","type":"uint256","indexed":false,"internalType":"uint256"}],"anonymous":false},{"type":"event","name":"FinalizeBatchWithdrawERC721","inputs":[{"name":"_l1Token","type":"address","indexed":true,"internalType":"address"},{"name":"_l2Token","type":"address","indexed":true,"internalType":"address"},{"name":"_from","type":"address","indexed":true,"internalType":"address"},{"name":"_to","type":"address","indexed":false,"internalType":"address"},{"name":"_tokenIds","type":"uint256[]","indexed":false,"internalType":"uint256[]"}],"anonymous":false},{"type":"event","name":"FinalizeWithdrawERC721","inputs":[{"name":"_l1Token","type":"address","indexed":true,"internalType":"address"},{"name":"_l2Token","type":"address","indexed":true,"internalType":"address"},{"name":"_from","type":"address","indexed":true,"internalType":"address"},{"name":"_to","type":"address","indexed":false,"internalType":"address"},{"name":"_tokenId","type":"uint256","indexed":false,"internalType":"uint256"}],"anonymous":false},{"type":"event","name":"Initialized","inputs":[{"name":"version","type":"uint8","indexed":false,"internalType":"uint8"}],"anonymous":false},{"type":"event","name":"OwnershipTransferred","inputs":[{"name":"previousOwner","type":"address","indexed":true,"internalType":"address"},{"name":"newOwner","type":"address","indexed":true,"internalType":"address"}],"anonymous":false},{"type":"event","name":"RefundERC721","inputs":[{"name":"token","type":"address","indexed":true,"internalType":"address"},{"name":"recipient","type":"address","indexed":true,"internalType":"address"},{"name":"tokenId","type":"uint256","indexed":false,"internalType":"uint256"}],"anonymous":false},{"type":"event","name":"UpdateTokenMapping","inputs":[{"name":"l1Token","type":"address","indexed":true,"internalType":"address"},{"name":"oldL2Token","type":"address","indexed":true,"internalType":"address"},{"name":"newL2Token","type":"address","indexed":true,"internalType":"address"}],"anonymous":false},{"type":"error","name":"ErrorCallerIsNotCounterpartGateway","inputs":[]},{"type":"error","name":"ErrorCallerIsNotMessenger","inputs":[]},{"type":"error","name":"ErrorNotInDropMessageContext","inputs":[]},{"type":"error","name":"ErrorZeroAddress","inputs":[]}],"bytecode":{"object":"0x60e06040523480156200001157600080fd5b506040516200204d3803806200204d83398101604081905262000034916200017d565b816000826001600160a01b03831615806200005657506001600160a01b038116155b15620000755760405163a7f9319d60e01b815260040160405180910390fd5b6001600160a01b0392831660805290821660a0521660c052620000976200009f565b5050620001b5565b600054610100900460ff16156200010c5760405162461bcd60e51b815260206004820152602760248201527f496e697469616c697a61626c653a20636f6e747261637420697320696e697469604482015266616c697a696e6760c81b606482015260840160405180910390fd5b60005460ff908116146200015e576000805460ff191660ff9081179091556040519081527f7f26b83ff96e1f2b6a682f133852f6798a09c465da95921460cefb38474024989060200160405180910390a15b565b80516001600160a01b03811681146200017857600080fd5b919050565b600080604083850312156200019157600080fd5b6200019c8362000160565b9150620001ac6020840162000160565b90509250929050565b60805160a05160c051611e1462000239600039600081816101990152818161037f015281816103c7015281816108bb0152818161090301528181610b6901528181610bb10152818161102c01526113210152600061032801526000818161022d0152818161098e01528181610c3c0152818161105b01526113500152611e146000f3fe6080604052600436106100fe5760003560e01c8063797594b011610095578063d606b4dc11610064578063d606b4dc146102c3578063d96c8ecf146102e3578063f2fde38b146102f6578063f887ea4014610316578063fac752eb1461034a57600080fd5b8063797594b01461021b5780638da5cb5b1461024f5780639f0a68b31461026d578063ba27f50b1461028d57600080fd5b80633cb747bf116100d15780633cb747bf1461018757806345a4276b146101d3578063485cc955146101e6578063715018a61461020657600080fd5b80630a7aa1961461010357806314298c5114610118578063150b7a021461012b5780631b997a9314610174575b600080fd5b6101166101113660046115c6565b61036a565b005b61011661012636600461160c565b61037c565b34801561013757600080fd5b506101566101463660046116c5565b630a85bd0160e11b949350505050565b6040516001600160e01b031990911681526020015b60405180910390f35b6101166101823660046117d5565b610761565b34801561019357600080fd5b506101bb7f000000000000000000000000000000000000000000000000000000000000000081565b6040516001600160a01b03909116815260200161016b565b6101166101e1366004611842565b610775565b3480156101f257600080fd5b50610116610201366004611877565b610786565b34801561021257600080fd5b506101166108a4565b34801561022757600080fd5b506101bb7f000000000000000000000000000000000000000000000000000000000000000081565b34801561025b57600080fd5b506097546001600160a01b03166101bb565b34801561027957600080fd5b506101166102883660046118b0565b6108b8565b34801561029957600080fd5b506101bb6102a836600461193e565b60fb602052600090815260409020546001600160a01b031681565b3480156102cf57600080fd5b506101166102de366004611962565b610b66565b6101166102f13660046119c6565b610dca565b34801561030257600080fd5b5061011661031136600461193e565b610dd7565b34801561032257600080fd5b506101bb7f000000000000000000000000000000000000000000000000000000000000000081565b34801561035657600080fd5b50610116610365366004611877565b610e50565b61037684848484610ee2565b50505050565b337f00000000000000000000000000000000000000000000000000000000000000006001600160a01b0316146103c5576040516385bd908d60e01b815260040160405180910390fd5b7f00000000000000000000000000000000000000000000000000000000000000006001600160a01b0316636e296e456040518163ffffffff1660e01b8152600401602060405180830381865afa158015610423573d6000803e3d6000fd5b505050506040513d601f19601f820116820180604052508101906104479190611a22565b6001600160a01b0316736f297c61b5c92ef107ffd30cd56affe5a273e8416001600160a01b03161461048c57604051630d08b8ff60e01b815260040160405180910390fd5b610494611119565b34156104db5760405162461bcd60e51b81526020600482015260116024820152706e6f6e7a65726f206d73672e76616c756560781b60448201526064015b60405180910390fd5b63f8c3cf2560e01b6104f1600460008486611a3f565b6104fa91611a69565b6001600160e01b031916036105e6576000808061051a8460048188611a3f565b8101906105279190611962565b9450509350509250826001600160a01b03166342842e0e3084846040518463ffffffff1660e01b815260040161055f93929190611a99565b600060405180830381600087803b15801561057957600080fd5b505af115801561058d573d6000803e3d6000fd5b50505050816001600160a01b0316836001600160a01b03167fb9a838365634e4fb87a9333edf0ea86f82836e361b311a125aefd14135581208836040516105d691815260200190565b60405180910390a3505050610753565b63982b151f60e01b6105fc600460008486611a3f565b61060591611a69565b6001600160e01b0319160361071857600080806106258460048188611a3f565b8101906106329190611abd565b945050935050925060005b81518110156106d457836001600160a01b03166342842e0e308585858151811061066957610669611bb0565b60200260200101516040518463ffffffff1660e01b815260040161068f93929190611a99565b600060405180830381600087803b1580156106a957600080fd5b505af11580156106bd573d6000803e3d6000fd5b5050505080806106cc90611bc6565b91505061063d565b50816001600160a01b0316836001600160a01b03167f998a3ef0a23771412ff48d871a2288502a89da39c5db04a2a66e5eb85586cc22836040516105d69190611bed565b60405162461bcd60e51b815260206004820152601060248201526f34b73b30b634b21039b2b632b1ba37b960811b60448201526064016104d2565b61075d6001603355565b5050565b61076e8585858585611179565b5050505050565b61078183338484610ee2565b505050565b600054610100900460ff16158080156107a65750600054600160ff909116105b806107c05750303b1580156107c0575060005460ff166001145b6108235760405162461bcd60e51b815260206004820152602e60248201527f496e697469616c697a61626c653a20636f6e747261637420697320616c72656160448201526d191e481a5b9a5d1a585b1a5e995960921b60648201526084016104d2565b6000805460ff191660011790558015610846576000805461ff0019166101001790555b61084e611419565b61085a83600084611440565b8015610781576000805461ff0019169055604051600181527f7f26b83ff96e1f2b6a682f133852f6798a09c465da95921460cefb38474024989060200160405180910390a1505050565b6108ac611450565b6108b660006114aa565b565b337f00000000000000000000000000000000000000000000000000000000000000006001600160a01b031614610901576040516385bd908d60e01b815260040160405180910390fd5b7f00000000000000000000000000000000000000000000000000000000000000006001600160a01b0316636e296e456040518163ffffffff1660e01b8152600401602060405180830381865afa15801561095f573d6000803e3d6000fd5b505050506040513d601f19601f820116820180604052508101906109839190611a22565b6001600160a01b03167f00000000000000000000000000000000000000000000000000000000000000006001600160a01b0316146109d4576040516307b140f360e51b815260040160405180910390fd5b6109dc611119565b6001600160a01b038516610a025760405162461bcd60e51b81526004016104d290611c31565b6001600160a01b03808716600090815260fb6020526040902054868216911614610a625760405162461bcd60e51b81526020600482015260116024820152700d86440e8ded6cadc40dad2e6dac2e8c6d607b1b60448201526064016104d2565b60005b81811015610afa57866001600160a01b03166342842e0e3086868686818110610a9057610a90611bb0565b905060200201356040518463ffffffff1660e01b8152600401610ab593929190611a99565b600060405180830381600087803b158015610acf57600080fd5b505af1158015610ae3573d6000803e3d6000fd5b505050508080610af290611bc6565b915050610a65565b50836001600160a01b0316856001600160a01b0316876001600160a01b03167f9b8e51c8f180115b421b26c9042287d6bf95e0ce9c0c5434784e2af3d0b9de7d868686604051610b4c93929190611c9a565b60405180910390a4610b5e6001603355565b505050505050565b337f00000000000000000000000000000000000000000000000000000000000000006001600160a01b031614610baf576040516385bd908d60e01b815260040160405180910390fd5b7f00000000000000000000000000000000000000000000000000000000000000006001600160a01b0316636e296e456040518163ffffffff1660e01b8152600401602060405180830381865afa158015610c0d573d6000803e3d6000fd5b505050506040513d601f19601f82011682018060405250810190610c319190611a22565b6001600160a01b03167f00000000000000000000000000000000000000000000000000000000000000006001600160a01b031614610c82576040516307b140f360e51b815260040160405180910390fd5b610c8a611119565b6001600160a01b038416610cb05760405162461bcd60e51b81526004016104d290611c31565b6001600160a01b03808616600090815260fb6020526040902054858216911614610d105760405162461bcd60e51b81526020600482015260116024820152700d86440e8ded6cadc40dad2e6dac2e8c6d607b1b60448201526064016104d2565b604051632142170760e11b81526001600160a01b038616906342842e0e90610d4090309086908690600401611a99565b600060405180830381600087803b158015610d5a57600080fd5b505af1158015610d6e573d6000803e3d6000fd5b5050604080516001600160a01b03868116825260208201869052808816945088811693508916917facdbfefc030b5ccccd5f60ca6d9ca371c6d6d6956fe16ebe10f81920198206e9910160405180910390a461076e6001603355565b6103768433858585611179565b610ddf611450565b6001600160a01b038116610e445760405162461bcd60e51b815260206004820152602660248201527f4f776e61626c653a206e6577206f776e657220697320746865207a65726f206160448201526564647265737360d01b60648201526084016104d2565b610e4d816114aa565b50565b610e58611450565b6001600160a01b038116610e7e5760405162461bcd60e51b81526004016104d290611c31565b6001600160a01b03808316600081815260fb602052604080822080548686166001600160a01b0319821681179092559151919094169392849290917f2069a26c43c36ffaabe0c2d19bf65e55dd03abecdc449f5cc9663491e97f709d9190a4505050565b610eea611119565b6001600160a01b03808516600090815260fb60205260409020541680610f4e5760405162461bcd60e51b815260206004820152601960248201527837379031b7b93932b9b837b73234b733903619103a37b5b2b760391b60448201526064016104d2565b604051632142170760e11b815233906001600160a01b038716906342842e0e90610f8090849030908990600401611a99565b600060405180830381600087803b158015610f9a57600080fd5b505af1158015610fae573d6000803e3d6000fd5b50506040516001600160a01b03808a166024830152808616604483015280851660648301528816608482015260a481018790526000925060c401905060408051601f198184030181529181526020820180516001600160e01b031663f8c3cf2560e01b17905251635f7b157760e01b81529091506001600160a01b037f00000000000000000000000000000000000000000000000000000000000000001690635f7b157790349061108c907f00000000000000000000000000000000000000000000000000000000000000009060009087908b908a90600401611cc8565b6000604051808303818588803b1580156110a557600080fd5b505af11580156110b9573d6000803e3d6000fd5b5050604080516001600160a01b038b81168252602082018b9052808816955088811694508c1692507ffc1d17c06ff1e4678321cc30660a73f3f1436df8195108a288d3159a961febec910160405180910390a45050506103766001603355565b60026033540361116b5760405162461bcd60e51b815260206004820152601f60248201527f5265656e7472616e637947756172643a207265656e7472616e742063616c6c0060448201526064016104d2565b6002603355565b6001603355565b611181611119565b816111c45760405162461bcd60e51b81526020600482015260136024820152721b9bc81d1bdad95b881d1bc819195c1bdcda5d606a1b60448201526064016104d2565b6001600160a01b03808616600090815260fb602052604090205416806112285760405162461bcd60e51b815260206004820152601960248201527837379031b7b93932b9b837b73234b733903619103a37b5b2b760391b60448201526064016104d2565b3360005b848110156112c157876001600160a01b03166342842e0e833089898681811061125757611257611bb0565b905060200201356040518463ffffffff1660e01b815260040161127c93929190611a99565b600060405180830381600087803b15801561129657600080fd5b505af11580156112aa573d6000803e3d6000fd5b5050505080806112b990611bc6565b91505061122c565b5060008783838989896040516024016112df96959493929190611d4a565b60408051601f198184030181529181526020820180516001600160e01b031663982b151f60e01b17905251635f7b157760e01b81529091506001600160a01b037f00000000000000000000000000000000000000000000000000000000000000001690635f7b1577903490611381907f00000000000000000000000000000000000000000000000000000000000000009060009087908b908a90600401611cc8565b6000604051808303818588803b15801561139a57600080fd5b505af11580156113ae573d6000803e3d6000fd5b5050505050816001600160a01b0316836001600160a01b0316896001600160a01b03167ff05915e3b4fbd6f61b8b6f80b07f10e1cad039ccc7abe7c7fec115d038fe3dd68a8a8a60405161140493929190611c9a565b60405180910390a450505061076e6001603355565b600054610100900460ff166108b65760405162461bcd60e51b81526004016104d290611d93565b6114486114fc565b61078161152b565b6097546001600160a01b031633146108b65760405162461bcd60e51b815260206004820181905260248201527f4f776e61626c653a2063616c6c6572206973206e6f7420746865206f776e657260448201526064016104d2565b609780546001600160a01b038381166001600160a01b0319831681179093556040519116919082907f8be0079c531659141344cd1fd0a4f28419497f9722a3daafe3b4186f6b6457e090600090a35050565b600054610100900460ff166115235760405162461bcd60e51b81526004016104d290611d93565b6108b661155a565b600054610100900460ff166115525760405162461bcd60e51b81526004016104d290611d93565b6108b6611581565b600054610100900460ff166111725760405162461bcd60e51b81526004016104d290611d93565b600054610100900460ff166115a85760405162461bcd60e51b81526004016104d290611d93565b6108b6336114aa565b6001600160a01b0381168114610e4d57600080fd5b600080600080608085870312156115dc57600080fd5b84356115e7816115b1565b935060208501356115f7816115b1565b93969395505050506040820135916060013590565b6000806020838503121561161f57600080fd5b823567ffffffffffffffff8082111561163757600080fd5b818501915085601f83011261164b57600080fd5b81358181111561165a57600080fd5b86602082850101111561166c57600080fd5b60209290920196919550909350505050565b634e487b7160e01b600052604160045260246000fd5b604051601f8201601f1916810167ffffffffffffffff811182821017156116bd576116bd61167e565b604052919050565b600080600080608085870312156116db57600080fd5b84356116e6816115b1565b93506020858101356116f7816115b1565b935060408601359250606086013567ffffffffffffffff8082111561171b57600080fd5b818801915088601f83011261172f57600080fd5b8135818111156117415761174161167e565b611753601f8201601f19168501611694565b9150808252898482850101111561176957600080fd5b808484018584013760008482840101525080935050505092959194509250565b60008083601f84011261179b57600080fd5b50813567ffffffffffffffff8111156117b357600080fd5b6020830191508360208260051b85010111156117ce57600080fd5b9250929050565b6000806000806000608086880312156117ed57600080fd5b85356117f8816115b1565b94506020860135611808816115b1565b9350604086013567ffffffffffffffff81111561182457600080fd5b61183088828901611789565b96999598509660600135949350505050565b60008060006060848603121561185757600080fd5b8335611862816115b1565b95602085013595506040909401359392505050565b6000806040838503121561188a57600080fd5b8235611895816115b1565b915060208301356118a5816115b1565b809150509250929050565b60008060008060008060a087890312156118c957600080fd5b86356118d4816115b1565b955060208701356118e4816115b1565b945060408701356118f4816115b1565b93506060870135611904816115b1565b9250608087013567ffffffffffffffff81111561192057600080fd5b61192c89828a01611789565b979a9699509497509295939492505050565b60006020828403121561195057600080fd5b813561195b816115b1565b9392505050565b600080600080600060a0868803121561197a57600080fd5b8535611985816115b1565b94506020860135611995816115b1565b935060408601356119a5816115b1565b925060608601356119b5816115b1565b949793965091946080013592915050565b600080600080606085870312156119dc57600080fd5b84356119e7816115b1565b9350602085013567ffffffffffffffff811115611a0357600080fd5b611a0f87828801611789565b9598909750949560400135949350505050565b600060208284031215611a3457600080fd5b815161195b816115b1565b60008085851115611a4f57600080fd5b83861115611a5c57600080fd5b5050820193919092039150565b6001600160e01b03198135818116916004851015611a915780818660040360031b1b83161692505b505092915050565b6001600160a01b039384168152919092166020820152604081019190915260600190565b600080600080600060a08688031215611ad557600080fd5b8535611ae0816115b1565b9450602086810135611af1816115b1565b94506040870135611b01816115b1565b93506060870135611b11816115b1565b9250608087013567ffffffffffffffff80821115611b2e57600080fd5b818901915089601f830112611b4257600080fd5b813581811115611b5457611b5461167e565b8060051b9150611b65848301611694565b818152918301840191848101908c841115611b7f57600080fd5b938501935b83851015611b9d57843582529385019390850190611b84565b8096505050505050509295509295909350565b634e487b7160e01b600052603260045260246000fd5b600060018201611be657634e487b7160e01b600052601160045260246000fd5b5060010190565b6020808252825182820181905260009190848201906040850190845b81811015611c2557835183529284019291840191600101611c09565b50909695505050505050565b60208082526019908201527f746f6b656e20616464726573732063616e6e6f74206265203000000000000000604082015260600190565b81835260006001600160fb1b03831115611c8157600080fd5b8260051b80836020870137939093016020019392505050565b6001600160a01b0384168152604060208201819052600090611cbf9083018486611c68565b95945050505050565b60018060a01b038616815260006020868184015260a0604084015285518060a085015260005b81811015611d0a5787810183015185820160c001528201611cee565b50600060c0828601015260c0601f19601f83011685010192505050836060830152611d4060808301846001600160a01b03169052565b9695505050505050565b6001600160a01b038781168252868116602083015285811660408301528416606082015260a060808201819052600090611d879083018486611c68565b98975050505050505050565b6020808252602b908201527f496e697469616c697a61626c653a20636f6e7472616374206973206e6f74206960408201526a6e697469616c697a696e6760a81b60608201526080019056fea264697066735822122059a04d8bd06509600ba5229767e784e3bb89c32a2c7cf946422d9d2ed19f341c64736f6c63430008100033","linkReferences":{}},"methodIdentifiers":{"batchDepositERC721(address,address,uint256[],uint256)":"1b997a93","batchDepositERC721(address,uint256[],uint256)":"d96c8ecf","counterpart()":"797594b0","depositERC721(address,address,uint256,uint256)":"0a7aa196","depositERC721(address,uint256,uint256)":"45a4276b","finalizeBatchWithdrawERC721(address,address,address,address,uint256[])":"9f0a68b3","finalizeWithdrawERC721(address,address,address,address,uint256)":"d606b4dc","initialize(address,address)":"485cc955","messenger()":"3cb747bf","onDropMessage(bytes)":"14298c51","onERC721Received(address,address,uint256,bytes)":"150b7a02","owner()":"8da5cb5b","renounceOwnership()":"715018a6","router()":"f887ea40","tokenMapping(address)":"ba27f50b","transferOwnership(address)":"f2fde38b","updateTokenMapping(address,address)":"fac752eb"},"id":133}