{"abi":[{"type":"constructor","inputs":[{"name":"_owner","type":"address","internalType":"address"}],"stateMutability":"nonpayable"},{"type":"function","name":"getL1Fee","inputs":[{"name":"_data","type":"bytes","internalType":"bytes"}],"outputs":[{"name":"","type":"uint256","internalType":"uint256"}],"stateMutability":"view"},{"type":"function","name":"getL1GasUsed","inputs":[{"name":"_data","type":"bytes","internalType":"bytes"}],"outputs":[{"name":"","type":"uint256","internalType":"uint256"}],"stateMutability":"view"},{"type":"function","name":"l1BaseFee","inputs":[],"outputs":[{"name":"","type":"uint256","internalType":"uint256"}],"stateMutability":"view"},{"type":"function","name":"overhead","inputs":[],"outputs":[{"name":"","type":"uint256","internalType":"uint256"}],"stateMutability":"view"},{"type":"function","name":"owner","inputs":[],"outputs":[{"name":"","type":"address","internalType":"address"}],"stateMutability":"view"},{"type":"function","name":"renounceOwnership","inputs":[],"outputs":[],"stateMutability":"nonpayable"},{"type":"function","name":"scalar","inputs":[],"outputs":[{"name":"","type":"uint256","internalType":"uint256"}],"stateMutability":"view"},{"type":"function","name":"setL1BaseFee","inputs":[{"name":"_l1BaseFee","type":"uint256","internalType":"uint256"}],"outputs":[],"stateMutability":"nonpayable"},{"type":"function","name":"setOverhead","inputs":[{"name":"_overhead","type":"uint256","internalType":"uint256"}],"outputs":[],"stateMutability":"nonpayable"},{"type":"function","name":"setScalar","inputs":[{"name":"_scalar","type":"uint256","internalType":"uint256"}],"outputs":[],"stateMutability":"nonpayable"},{"type":"function","name":"transferOwnership","inputs":[{"name":"_newOwner","type":"address","internalType":"address"}],"outputs":[],"stateMutability":"nonpayable"},{"type":"function","name":"updateWhitelist","inputs":[{"name":"_newWhitelist","type":"address","internalType":"address"}],"outputs":[],"stateMutability":"nonpayable"},{"type":"function","name":"whitelist","inputs":[],"outputs":[{"name":"","type":"address","internalType":"contract IWhitelist"}],"stateMutability":"view"},{"type":"event","name":"L1BaseFeeUpdated","inputs":[{"name":"l1BaseFee","type":"uint256","indexed":false,"internalType":"uint256"}],"anonymous":false},{"type":"event","name":"OverheadUpdated","inputs":[{"name":"overhead","type":"uint256","indexed":false,"internalType":"uint256"}],"anonymous":false},{"type":"event","name":"OwnershipTransferred","inputs":[{"name":"_oldOwner","type":"address","indexed":true,"internalType":"address"},{"name":"_newOwner","type":"address","indexed":true,"internalType":"address"}],"anonymous":false},{"type":"event","name":"ScalarUpdated","inputs":[{"name":"scalar","type":"uint256","indexed":false,"internalType":"uint256"}],"anonymous":false},{"type":"event","name":"UpdateWhitelist","inputs":[{"name":"_oldWhitelist","type":"address","indexed":false,"internalType":"address"},{"name":"_newWhitelist","type":"address","indexed":false,"internalType":"address"}],"anonymous":false}],"bytecode":{"object":"0x608060405234801561001057600080fd5b5060405161094238038061094283398101604081905261002f9161008e565b6100388161003e565b506100be565b600080546001600160a01b038381166001600160a01b0319831681178455604051919092169283917f8be0079c531659141344cd1fd0a4f28419497f9722a3daafe3b4186f6b6457e09190a35050565b6000602082840312156100a057600080fd5b81516001600160a01b03811681146100b757600080fd5b9392505050565b610875806100cd6000396000f3fe608060405234801561001057600080fd5b50600436106100cf5760003560e01c8063715018a61161008c578063bede39b511610066578063bede39b51461018d578063de26c4a1146101a0578063f2fde38b146101b3578063f45e65d8146101c657600080fd5b8063715018a6146101475780638da5cb5b1461014f57806393e59dc11461017a57600080fd5b80630c18c162146100d45780633577afc5146100f05780633d0f963e1461010557806349948e0e14610118578063519b4bd31461012b5780637046559714610134575b600080fd5b6100dd60025481565b6040519081526020015b60405180910390f35b6101036100fe366004610671565b6101cf565b005b61010361011336600461068a565b610291565b6100dd6101263660046106d0565b61031c565b6100dd60015481565b610103610142366004610671565b610361565b610103610416565b600054610162906001600160a01b031681565b6040516001600160a01b0390911681526020016100e7565b600454610162906001600160a01b031681565b61010361019b366004610671565b61044c565b6100dd6101ae3660046106d0565b610533565b6101036101c136600461068a565b610595565b6100dd60035481565b6000546001600160a01b031633146102025760405162461bcd60e51b81526004016101f990610781565b60405180910390fd5b621c9c388111156102555760405162461bcd60e51b815260206004820152601760248201527f657863656564206d6178696d756d206f7665726865616400000000000000000060448201526064016101f9565b60028190556040518181527f32740b35c0ea213650f60d44366b4fb211c9033b50714e4a1d34e65d5beb9bb4906020015b60405180910390a150565b6000546001600160a01b031633146102bb5760405162461bcd60e51b81526004016101f990610781565b600480546001600160a01b038381166001600160a01b031983168117909355604080519190921680825260208201939093527f22d1c35fe072d2e42c3c8f9bd4a0d34aa84a0101d020a62517b33fdb3174e5f7910160405180910390a15050565b60008061032883610533565b905060006001548261033a91906107b8565b9050633b9aca006003548261034f91906107b8565b61035991906107e5565b949350505050565b6000546001600160a01b0316331461038b5760405162461bcd60e51b81526004016101f990610781565b61039b633b9aca006103e86107b8565b8111156103e15760405162461bcd60e51b8152602060048201526014602482015273657863656564206d6178696d756d207363616c6560601b60448201526064016101f9565b60038190556040518181527f3336cd9708eaf2769a0f0dc0679f30e80f15dcd88d1921b5a16858e8b85c591a90602001610286565b6000546001600160a01b031633146104405760405162461bcd60e51b81526004016101f990610781565b61044a6000610621565b565b6004805460405163efc7840160e01b815233928101929092526001600160a01b03169063efc7840190602401602060405180830381865afa158015610495573d6000803e3d6000fd5b505050506040513d601f19601f820116820180604052508101906104b99190610807565b6104fe5760405162461bcd60e51b81526020600482015260166024820152752737ba103bb434ba32b634b9ba32b21039b2b73232b960511b60448201526064016101f9565b60018190556040518181527f351fb23757bb5ea0546c85b7996ddd7155f96b939ebaa5ff7bc49c75f27f2c4490602001610286565b80516000908190815b818110156105865784818151811061055657610556610829565b01602001516001600160f81b0319166000036105775760048301925061057e565b6010830192505b60010161053c565b50506002540160400192915050565b6000546001600160a01b031633146105bf5760405162461bcd60e51b81526004016101f990610781565b6001600160a01b0381166106155760405162461bcd60e51b815260206004820152601d60248201527f6e6577206f776e657220697320746865207a65726f206164647265737300000060448201526064016101f9565b61061e81610621565b50565b600080546001600160a01b038381166001600160a01b0319831681178455604051919092169283917f8be0079c531659141344cd1fd0a4f28419497f9722a3daafe3b4186f6b6457e09190a35050565b60006020828403121561068357600080fd5b5035919050565b60006020828403121561069c57600080fd5b81356001600160a01b03811681146106b357600080fd5b9392505050565b634e487b7160e01b600052604160045260246000fd5b6000602082840312156106e257600080fd5b813567ffffffffffffffff808211156106fa57600080fd5b818401915084601f83011261070e57600080fd5b813581811115610720576107206106ba565b604051601f8201601f19908116603f01168101908382118183101715610748576107486106ba565b8160405282815287602084870101111561076157600080fd5b826020860160208301376000928101602001929092525095945050505050565b60208082526017908201527f63616c6c6572206973206e6f7420746865206f776e6572000000000000000000604082015260600190565b60008160001904831182151516156107e057634e487b7160e01b600052601160045260246000fd5b500290565b60008261080257634e487b7160e01b600052601260045260246000fd5b500490565b60006020828403121561081957600080fd5b815180151581146106b357600080fd5b634e487b7160e01b600052603260045260246000fdfea26469706673582212205ea335809638809cf032c794fd966e2439020737b1dcc2218435cb438286efcf64736f6c63430008100033","linkReferences":{}},"methodIdentifiers":{"getL1Fee(bytes)":"49948e0e","getL1GasUsed(bytes)":"de26c4a1","l1BaseFee()":"519b4bd3","overhead()":"0c18c162","owner()":"8da5cb5b","renounceOwnership()":"715018a6","scalar()":"f45e65d8","setL1BaseFee(uint256)":"bede39b5","setOverhead(uint256)":"3577afc5","setScalar(uint256)":"70465597","transferOwnership(address)":"f2fde38b","updateWhitelist(address)":"3d0f963e","whitelist()":"93e59dc1"},"id":170}