{"abi":[{"type":"constructor","inputs":[{"name":"_messenger","type":"address","internalType":"address"},{"name":"_scrollChain","type":"address","internalType":"address"},{"name":"_enforcedTxGateway","type":"address","internalType":"address"}],"stateMutability":"nonpayable"},{"type":"function","name":"appendCrossDomainMessage","inputs":[{"name":"_target","type":"address","internalType":"address"},{"name":"_gasLimit","type":"uint256","internalType":"uint256"},{"name":"_data","type":"bytes","internalType":"bytes"}],"outputs":[],"stateMutability":"nonpayable"},{"type":"function","name":"appendEnforcedTransaction","inputs":[{"name":"_sender","type":"address","internalType":"address"},{"name":"_target","type":"address","internalType":"address"},{"name":"_value","type":"uint256","internalType":"uint256"},{"name":"_gasLimit","type":"uint256","internalType":"uint256"},{"name":"_data","type":"bytes","internalType":"bytes"}],"outputs":[],"stateMutability":"nonpayable"},{"type":"function","name":"calculateIntrinsicGasFee","inputs":[{"name":"_calldata","type":"bytes","internalType":"bytes"}],"outputs":[{"name":"","type":"uint256","internalType":"uint256"}],"stateMutability":"pure"},{"type":"function","name":"computeTransactionHash","inputs":[{"name":"_sender","type":"address","internalType":"address"},{"name":"_queueIndex","type":"uint256","internalType":"uint256"},{"name":"_value","type":"uint256","internalType":"uint256"},{"name":"_target","type":"address","internalType":"address"},{"name":"_gasLimit","type":"uint256","internalType":"uint256"},{"name":"_data","type":"bytes","internalType":"bytes"}],"outputs":[{"name":"","type":"bytes32","internalType":"bytes32"}],"stateMutability":"pure"},{"type":"function","name":"dropCrossDomainMessage","inputs":[{"name":"_index","type":"uint256","internalType":"uint256"}],"outputs":[],"stateMutability":"nonpayable"},{"type":"function","name":"enforcedTxGateway","inputs":[],"outputs":[{"name":"","type":"address","internalType":"address"}],"stateMutability":"view"},{"type":"function","name":"estimateCrossDomainMessageFee","inputs":[{"name":"_gasLimit","type":"uint256","internalType":"uint256"}],"outputs":[{"name":"","type":"uint256","internalType":"uint256"}],"stateMutability":"view"},{"type":"function","name":"gasOracle","inputs":[],"outputs":[{"name":"","type":"address","internalType":"address"}],"stateMutability":"view"},{"type":"function","name":"getCrossDomainMessage","inputs":[{"name":"_queueIndex","type":"uint256","internalType":"uint256"}],"outputs":[{"name":"","type":"bytes32","internalType":"bytes32"}],"stateMutability":"view"},{"type":"function","name":"initialize","inputs":[{"name":"_messenger","type":"address","internalType":"address"},{"name":"_scrollChain","type":"address","internalType":"address"},{"name":"_enforcedTxGateway","type":"address","internalType":"address"},{"name":"_gasOracle","type":"address","internalType":"address"},{"name":"_maxGasLimit","type":"uint256","internalType":"uint256"}],"outputs":[],"stateMutability":"nonpayable"},{"type":"function","name":"initializeV2","inputs":[],"outputs":[],"stateMutability":"nonpayable"},{"type":"function","name":"isMessageDropped","inputs":[{"name":"_queueIndex","type":"uint256","internalType":"uint256"}],"outputs":[{"name":"","type":"bool","internalType":"bool"}],"stateMutability":"view"},{"type":"function","name":"isMessageSkipped","inputs":[{"name":"_queueIndex","type":"uint256","internalType":"uint256"}],"outputs":[{"name":"","type":"bool","internalType":"bool"}],"stateMutability":"view"},{"type":"function","name":"l2BaseFee","inputs":[],"outputs":[{"name":"","type":"uint256","internalType":"uint256"}],"stateMutability":"view"},{"type":"function","name":"maxGasLimit","inputs":[],"outputs":[{"name":"","type":"uint256","internalType":"uint256"}],"stateMutability":"view"},{"type":"function","name":"messageQueue","inputs":[{"name":"","type":"uint256","internalType":"uint256"}],"outputs":[{"name":"","type":"bytes32","internalType":"bytes32"}],"stateMutability":"view"},{"type":"function","name":"messenger","inputs":[],"outputs":[{"name":"","type":"address","internalType":"address"}],"stateMutability":"view"},{"type":"function","name":"nextCrossDomainMessageIndex","inputs":[],"outputs":[{"name":"","type":"uint256","internalType":"uint256"}],"stateMutability":"view"},{"type":"function","name":"owner","inputs":[],"outputs":[{"name":"","type":"address","internalType":"address"}],"stateMutability":"view"},{"type":"function","name":"pendingQueueIndex","inputs":[],"outputs":[{"name":"","type":"uint256","internalType":"uint256"}],"stateMutability":"view"},{"type":"function","name":"popCrossDomainMessage","inputs":[{"name":"_startIndex","type":"uint256","internalType":"uint256"},{"name":"_count","type":"uint256","internalType":"uint256"},{"name":"_skippedBitmap","type":"uint256","internalType":"uint256"}],"outputs":[],"stateMutability":"nonpayable"},{"type":"function","name":"renounceOwnership","inputs":[],"outputs":[],"stateMutability":"nonpayable"},{"type":"function","name":"scrollChain","inputs":[],"outputs":[{"name":"","type":"address","internalType":"address"}],"stateMutability":"view"},{"type":"function","name":"setL2BaseFee","inputs":[{"name":"_newL2BaseFee","type":"uint256","internalType":"uint256"}],"outputs":[],"stateMutability":"nonpayable"},{"type":"function","name":"transferOwnership","inputs":[{"name":"newOwner","type":"address","internalType":"address"}],"outputs":[],"stateMutability":"nonpayable"},{"type":"function","name":"updateGasOracle","inputs":[{"name":"_newGasOracle","type":"address","internalType":"address"}],"outputs":[],"stateMutability":"nonpayable"},{"type":"function","name":"updateMaxGasLimit","inputs":[{"name":"_newMaxGasLimit","type":"uint256","internalType":"uint256"}],"outputs":[],"stateMutability":"nonpayable"},{"type":"function","name":"updateWhitelistChecker","inputs":[{"name":"_newWhitelistChecker","type":"address","internalType":"address"}],"outputs":[],"stateMutability":"nonpayable"},{"type":"function","name":"whitelistChecker","inputs":[],"outputs":[{"name":"","type":"address","internalType":"address"}],"stateMutability":"view"},{"type":"event","name":"DequeueTransaction","inputs":[{"name":"startIndex","type":"uint256","indexed":false,"internalType":"uint256"},{"name":"count","type":"uint256","indexed":false,"internalType":"uint256"},{"name":"skippedBitmap","type":"uint256","indexed":false,"internalType":"uint256"}],"anonymous":false},{"type":"event","name":"DropTransaction","inputs":[{"name":"index","type":"uint256","indexed":false,"internalType":"uint256"}],"anonymous":false},{"type":"event","name":"Initialized","inputs":[{"name":"version","type":"uint8","indexed":false,"internalType":"uint8"}],"anonymous":false},{"type":"event","name":"OwnershipTransferred","inputs":[{"name":"previousOwner","type":"address","indexed":true,"internalType":"address"},{"name":"newOwner","type":"address","indexed":true,"internalType":"address"}],"anonymous":false},{"type":"event","name":"QueueTransaction","inputs":[{"name":"sender","type":"address","indexed":true,"internalType":"address"},{"name":"target","type":"address","indexed":true,"internalType":"address"},{"name":"value","type":"uint256","indexed":false,"internalType":"uint256"},{"name":"queueIndex","type":"uint64","indexed":false,"internalType":"uint64"},{"name":"gasLimit","type":"uint256","indexed":false,"internalType":"uint256"},{"name":"data","type":"bytes","indexed":false,"internalType":"bytes"}],"anonymous":false},{"type":"event","name":"UpdateGasOracle","inputs":[{"name":"_oldGasOracle","type":"address","indexed":true,"internalType":"address"},{"name":"_newGasOracle","type":"address","indexed":true,"internalType":"address"}],"anonymous":false},{"type":"event","name":"UpdateL2BaseFee","inputs":[{"name":"oldL2BaseFee","type":"uint256","indexed":false,"internalType":"uint256"},{"name":"newL2BaseFee","type":"uint256","indexed":false,"internalType":"uint256"}],"anonymous":false},{"type":"event","name":"UpdateMaxGasLimit","inputs":[{"name":"_oldMaxGasLimit","type":"uint256","indexed":false,"internalType":"uint256"},{"name":"_newMaxGasLimit","type":"uint256","indexed":false,"internalType":"uint256"}],"anonymous":false},{"type":"event","name":"UpdateWhitelistChecker","inputs":[{"name":"_oldWhitelistChecker","type":"address","indexed":true,"internalType":"address"},{"name":"_newWhitelistChecker","type":"address","indexed":true,"internalType":"address"}],"anonymous":false},{"type":"error","name":"ErrorNotWhitelistedSender","inputs":[]},{"type":"error","name":"ErrorZeroAddress","inputs":[]}],"bytecode":{"object":"0x60e06040523480156200001157600080fd5b5060405162001a7138038062001a71833981016040819052620000349162000191565b8282826001600160a01b03831615806200005557506001600160a01b038216155b806200006857506001600160a01b038116155b15620000875760405163a7f9319d60e01b815260040160405180910390fd5b62000091620000b3565b6001600160a01b0392831660805290821660a0521660c05250620001db915050565b600054610100900460ff1615620001205760405162461bcd60e51b815260206004820152602760248201527f496e697469616c697a61626c653a20636f6e747261637420697320696e697469604482015266616c697a696e6760c81b606482015260840160405180910390fd5b60005460ff9081161462000172576000805460ff191660ff9081179091556040519081527f7f26b83ff96e1f2b6a682f133852f6798a09c465da95921460cefb38474024989060200160405180910390a15b565b80516001600160a01b03811681146200018c57600080fd5b919050565b600080600060608486031215620001a757600080fd5b620001b28462000174565b9250620001c26020850162000174565b9150620001d26040850162000174565b90509250925092565b60805160a05160c05161184a62000227600039600081816102610152610d4a01526000818161031501526104a80152600081816101ff01528181610aea0152610ca3015261184a6000f3fe608060405234801561001057600080fd5b50600436106101cf5760003560e01c80638da5cb5b11610104578063d5ad4a97116100a2578063e3176bd511610071578063e3176bd514610403578063f2fde38b1461040c578063f7013ef61461041f578063fd0ad31e1461043257600080fd5b8063d5ad4a97146103b0578063d7704bae146103c3578063d99bc80e146103d6578063e172d3a1146103e957600080fd5b8063a85006ca116100de578063a85006ca1461036e578063ae453cd514610377578063bb7862ca1461038a578063bdc6f0a01461039d57600080fd5b80638da5cb5b1461033757806391652461146103485780639b1597821461035b57600080fd5b80635d62a8dd1161017157806370cee67f1161014b57806370cee67f146102e2578063715018a6146102f55780637d82191a146102fd578063897630dd1461031057600080fd5b80635d62a8dd146102b35780635e45da23146102c65780635f9cd92e146102cf57600080fd5b80633e83496c116101ad5780633e83496c1461025c57806355f613ce146102835780635ad9945a146102985780635cd8a76b146102ab57600080fd5b806329aa604b146101d45780633cb747bf146101fa5780633e6dada114610239575b600080fd5b6101e76101e2366004611381565b61043a565b6040519081526020015b60405180910390f35b6102217f000000000000000000000000000000000000000000000000000000000000000081565b6040516001600160a01b0390911681526020016101f1565b61024c610247366004611381565b61045b565b60405190151581526020016101f1565b6102217f000000000000000000000000000000000000000000000000000000000000000081565b61029661029136600461139a565b6104a5565b005b6101e76102a6366004611424565b61065e565b610296610853565b606854610221906001600160a01b031681565b6101e7606b5481565b6102966102dd3660046114aa565b6109e9565b6102966102f03660046114aa565b610a43565b610296610a9d565b61024c61030b366004611381565b610ab1565b6102217f000000000000000000000000000000000000000000000000000000000000000081565b6033546001600160a01b0316610221565b610296610356366004611381565b610ae7565b6102966103693660046114ce565b610ca0565b6101e7606a5481565b6101e7610385366004611381565b610d20565b609854610221906001600160a01b031681565b6102966103ab36600461152a565b610d47565b6102966103be366004611381565b610e32565b6101e76103d1366004611381565b610e80565b6102966103e4366004611381565b610e90565b6101e76103f73660046115a6565b60100261520801919050565b6101e760975481565b61029661041a3660046114aa565b610f65565b61029661042d3660046115e8565b610fde565b6069546101e7565b6069818154811061044a57600080fd5b600091825260209091200154905081565b600881901c6000908152606d6020526040812054600160ff84161b161515801561049f5750600882901c6000908152606c6020526040902054600160ff84161b1615155b92915050565b337f00000000000000000000000000000000000000000000000000000000000000006001600160a01b0316146105225760405162461bcd60e51b815260206004820181905260248201527f4f6e6c792063616c6c61626c6520627920746865205363726f6c6c436861696e60448201526064015b60405180910390fd5b61010082111561056c5760405162461bcd60e51b8152602060048201526015602482015274706f7020746f6f206d616e79206d6573736167657360581b6044820152606401610519565b82606a54146105b45760405162461bcd60e51b81526020600482015260146024820152730e6e8c2e4e840d2dcc8caf040dad2e6dac2e8c6d60631b6044820152606401610519565b600883901c6000818152606d6020526040902080546001851b6000190193841660ff871681811b90921790925590929190610100818601111561060f57600182016000908152606d6020526040902061010082900385901c90555b505050818301606a5560408051848152602081018490529081018290527fc77f792f838ae38399ac31acc3348389aeb110ce7bedf3cfdbdd5e66792679709060600160405180910390a1505050565b6000607e8161070a565b60008161067757506001919050565b5b811561068d5760089190911c90600101610678565b919050565b8060808310600181146106ca576106a884610668565b60808101835360018301925084816020036008021b83528083019250506106eb565b84841516600181146106de578483536106e3565b608083535b506001820191505b509392505050565b806094815360609290921b60018301525060150190565b6005604051018061071d60018c83610692565b905061072b60018983610692565b905061073789826106f3565b905061074560018b83610692565b905060018614600181146107ad5760388710600181146107925761076888610668565b8060b701845360018401935088816020036008021b845280840193505087898437918701916107a7565b87608001835360018301925087898437918701915b506107c0565b6107bd6000893560001a84610692565b91505b506107cb8c826106f3565b905081810360008060388310600181146107ff576107e884610668565b60f78101600882021b85179350600101915061080a565b8360c0019250600191505b5086816008021b821791506001810190508060080292508451831c8284610100031b17915080850394505080845250508181038220925050508092505050979650505050505050565b600054600290610100900460ff16158015610875575060005460ff8083169116105b6108915760405162461bcd60e51b81526004016105199061164c565b6000805461ffff191660ff8316176101001790556068546040805163e3176bd560e01b815290516001600160a01b039092169163e3176bd5916004808201926020929091908290030181865afa1580156108ef573d6000803e3d6000fd5b505050506040513d601f19601f82011682018060405250810190610913919061169a565b609755606854604080516393e59dc160e01b815290516001600160a01b03909216916393e59dc1916004808201926020929091908290030181865afa158015610960573d6000803e3d6000fd5b505050506040513d601f19601f8201168201806040525081019061098491906116b3565b609880546001600160a01b0319166001600160a01b03929092169190911790556000805461ff001916905560405160ff821681527f7f26b83ff96e1f2b6a682f133852f6798a09c465da95921460cefb3847402498906020015b60405180910390a150565b6109f16110fb565b609880546001600160a01b038381166001600160a01b0319831681179093556040519116919082907ff91b2a410a89d46f14ee984a57e6d7892c217f116905371180998e20cef237e590600090a35050565b610a4b6110fb565b606880546001600160a01b038381166001600160a01b0319831681179093556040519116919082907f9ed5ec28f252b3e7f62f1ace8e54c5ebabf4c61cc2a7c33a806365b2ff7ecc5e90600090a35050565b610aa56110fb565b610aaf6000611155565b565b6000606a548210610ac457506000919050565b600882901c6000908152606d6020526040902054600160ff84161b16151561049f565b337f00000000000000000000000000000000000000000000000000000000000000006001600160a01b031614610b2f5760405162461bcd60e51b8152600401610519906116d0565b606a548110610b805760405162461bcd60e51b815260206004820152601b60248201527f63616e6e6f742064726f702070656e64696e67206d65737361676500000000006044820152606401610519565b600881901c6000908152606d6020526040902054600160ff83161b16610be85760405162461bcd60e51b815260206004820152601860248201527f64726f70206e6f6e2d736b6970706564206d65737361676500000000000000006044820152606401610519565b600881901c6000908152606c6020526040902054600160ff83161b1615610c515760405162461bcd60e51b815260206004820152601760248201527f6d65737361676520616c72656164792064726f707065640000000000000000006044820152606401610519565b600881901c6000908152606c602052604090208054600160ff84161b1790556040518181527f43a375005206d20a83abc71722cba68c24434a8dc1f583775be7c3fde0396cbf906020016109de565b337f00000000000000000000000000000000000000000000000000000000000000006001600160a01b031614610ce85760405162461bcd60e51b8152600401610519906116d0565b610cf38383836111a7565b3373111100000000000000000000000000000000111101610d1981866000878787611281565b5050505050565b600060698281548110610d3557610d35611716565b90600052602060002001549050919050565b337f00000000000000000000000000000000000000000000000000000000000000006001600160a01b031614610dce5760405162461bcd60e51b815260206004820152602660248201527f4f6e6c792063616c6c61626c652062792074686520456e666f7263656454784760448201526561746577617960d01b6064820152608401610519565b6001600160a01b0386163b15610e115760405162461bcd60e51b81526020600482015260086024820152676f6e6c7920454f4160c01b6044820152606401610519565b610e1c8383836111a7565b610e2a868686868686611281565b505050505050565b610e3a6110fb565b606b80549082905560408051828152602081018490527fa030881e03ff723954dd0d35500564afab9603555d09d4456a32436f2b2373c591015b60405180910390a15050565b60006097548261049f919061172c565b6098546001600160a01b031663efc78401336040516001600160e01b031960e084901b1681526001600160a01b039091166004820152602401602060405180830381865afa158015610ee6573d6000803e3d6000fd5b505050506040513d601f19601f82011682018060405250810190610f0a9190611759565b610f275760405163181f985f60e21b815260040160405180910390fd5b609780549082905560408051828152602081018490527fc5271ba80b67178cc31f04a3755325121400925878dc608432b6fcaead3663299101610e74565b610f6d6110fb565b6001600160a01b038116610fd25760405162461bcd60e51b815260206004820152602660248201527f4f776e61626c653a206e6577206f776e657220697320746865207a65726f206160448201526564647265737360d01b6064820152608401610519565b610fdb81611155565b50565b600054610100900460ff1615808015610ffe5750600054600160ff909116105b806110185750303b158015611018575060005460ff166001145b6110345760405162461bcd60e51b81526004016105199061164c565b6000805460ff191660011790558015611057576000805461ff0019166101001790555b61105f611327565b606880546001600160a01b038086166001600160a01b031992831617909255606b849055606580548984169083161790556066805488841690831617905560678054928716929091169190911790558015610e2a576000805461ff0019169055604051600181527f7f26b83ff96e1f2b6a682f133852f6798a09c465da95921460cefb38474024989060200160405180910390a1505050505050565b6033546001600160a01b03163314610aaf5760405162461bcd60e51b815260206004820181905260248201527f4f776e61626c653a2063616c6c6572206973206e6f7420746865206f776e65726044820152606401610519565b603380546001600160a01b038381166001600160a01b0319831681179093556040519116919082907f8be0079c531659141344cd1fd0a4f28419497f9722a3daafe3b4186f6b6457e090600090a35050565b606b548311156112075760405162461bcd60e51b815260206004820152602560248201527f476173206c696d6974206d757374206e6f7420657863656564206d6178476173604482015264131a5b5a5d60da1b6064820152608401610519565b60108102615208018084101561127b5760405162461bcd60e51b815260206004820152603360248201527f496e73756666696369656e7420676173206c696d69742c206d7573742062652060448201527261626f766520696e7472696e7369632067617360681b6064820152608401610519565b50505050565b60695460006112958883888a89898961065e565b606980546001810182556000919091527f7fb4302e8e91f9110a6554c2c0a24601252c2a42c2220ca988efcfe399914308018190556040519091506001600160a01b0380891691908a16907f69cfcb8e6d4192b8aba9902243912587f37e550d75c1fa801491fce26717f37e90611315908a9087908b908b908b9061177b565b60405180910390a35050505050505050565b600054610100900460ff1661134e5760405162461bcd60e51b8152600401610519906117c9565b610aaf600054610100900460ff166113785760405162461bcd60e51b8152600401610519906117c9565b610aaf33611155565b60006020828403121561139357600080fd5b5035919050565b6000806000606084860312156113af57600080fd5b505081359360208301359350604090920135919050565b6001600160a01b0381168114610fdb57600080fd5b60008083601f8401126113ed57600080fd5b50813567ffffffffffffffff81111561140557600080fd5b60208301915083602082850101111561141d57600080fd5b9250929050565b600080600080600080600060c0888a03121561143f57600080fd5b873561144a816113c6565b965060208801359550604088013594506060880135611468816113c6565b93506080880135925060a088013567ffffffffffffffff81111561148b57600080fd5b6114978a828b016113db565b989b979a50959850939692959293505050565b6000602082840312156114bc57600080fd5b81356114c7816113c6565b9392505050565b600080600080606085870312156114e457600080fd5b84356114ef816113c6565b935060208501359250604085013567ffffffffffffffff81111561151257600080fd5b61151e878288016113db565b95989497509550505050565b60008060008060008060a0878903121561154357600080fd5b863561154e816113c6565b9550602087013561155e816113c6565b94506040870135935060608701359250608087013567ffffffffffffffff81111561158857600080fd5b61159489828a016113db565b979a9699509497509295939492505050565b600080602083850312156115b957600080fd5b823567ffffffffffffffff8111156115d057600080fd5b6115dc858286016113db565b90969095509350505050565b600080600080600060a0868803121561160057600080fd5b853561160b816113c6565b9450602086013561161b816113c6565b9350604086013561162b816113c6565b9250606086013561163b816113c6565b949793965091946080013592915050565b6020808252602e908201527f496e697469616c697a61626c653a20636f6e747261637420697320616c72656160408201526d191e481a5b9a5d1a585b1a5e995960921b606082015260800190565b6000602082840312156116ac57600080fd5b5051919050565b6000602082840312156116c557600080fd5b81516114c7816113c6565b60208082526026908201527f4f6e6c792063616c6c61626c6520627920746865204c315363726f6c6c4d657360408201526539b2b733b2b960d11b606082015260800190565b634e487b7160e01b600052603260045260246000fd5b600081600019048311821515161561175457634e487b7160e01b600052601160045260246000fd5b500290565b60006020828403121561176b57600080fd5b815180151581146114c757600080fd5b85815267ffffffffffffffff8516602082015283604082015260806060820152816080820152818360a0830137600081830160a090810191909152601f909201601f19160101949350505050565b6020808252602b908201527f496e697469616c697a61626c653a20636f6e7472616374206973206e6f74206960408201526a6e697469616c697a696e6760a81b60608201526080019056fea26469706673582212204fa949da5a6f969c6a44c7a0a63bdcaf482a68da34d665a46449b23066c0951564736f6c63430008100033","linkReferences":{}},"methodIdentifiers":{"appendCrossDomainMessage(address,uint256,bytes)":"9b159782","appendEnforcedTransaction(address,address,uint256,uint256,bytes)":"bdc6f0a0","calculateIntrinsicGasFee(bytes)":"e172d3a1","computeTransactionHash(address,uint256,uint256,address,uint256,bytes)":"5ad9945a","dropCrossDomainMessage(uint256)":"91652461","enforcedTxGateway()":"3e83496c","estimateCrossDomainMessageFee(uint256)":"d7704bae","gasOracle()":"5d62a8dd","getCrossDomainMessage(uint256)":"ae453cd5","initialize(address,address,address,address,uint256)":"f7013ef6","initializeV2()":"5cd8a76b","isMessageDropped(uint256)":"3e6dada1","isMessageSkipped(uint256)":"7d82191a","l2BaseFee()":"e3176bd5","maxGasLimit()":"5e45da23","messageQueue(uint256)":"29aa604b","messenger()":"3cb747bf","nextCrossDomainMessageIndex()":"fd0ad31e","owner()":"8da5cb5b","pendingQueueIndex()":"a85006ca","popCrossDomainMessage(uint256,uint256,uint256)":"55f613ce","renounceOwnership()":"715018a6","scrollChain()":"897630dd","setL2BaseFee(uint256)":"d99bc80e","transferOwnership(address)":"f2fde38b","updateGasOracle(address)":"70cee67f","updateMaxGasLimit(uint256)":"d5ad4a97","updateWhitelistChecker(address)":"5f9cd92e","whitelistChecker()":"bb7862ca"},"id":145}