{"abi":[{"type":"constructor","inputs":[{"name":"_counterpart","type":"address","internalType":"address"},{"name":"_router","type":"address","internalType":"address"},{"name":"_messenger","type":"address","internalType":"address"},{"name":"_l2TokenImplementation","type":"address","internalType":"address"},{"name":"_l2TokenFactory","type":"address","internalType":"address"}],"stateMutability":"nonpayable"},{"type":"function","name":"counterpart","inputs":[],"outputs":[{"name":"","type":"address","internalType":"address"}],"stateMutability":"view"},{"type":"function","name":"depositERC20","inputs":[{"name":"_token","type":"address","internalType":"address"},{"name":"_amount","type":"uint256","internalType":"uint256"},{"name":"_gasLimit","type":"uint256","internalType":"uint256"}],"outputs":[],"stateMutability":"payable"},{"type":"function","name":"depositERC20","inputs":[{"name":"_token","type":"address","internalType":"address"},{"name":"_to","type":"address","internalType":"address"},{"name":"_amount","type":"uint256","internalType":"uint256"},{"name":"_gasLimit","type":"uint256","internalType":"uint256"}],"outputs":[],"stateMutability":"payable"},{"type":"function","name":"depositERC20AndCall","inputs":[{"name":"_token","type":"address","internalType":"address"},{"name":"_to","type":"address","internalType":"address"},{"name":"_amount","type":"uint256","internalType":"uint256"},{"name":"_data","type":"bytes","internalType":"bytes"},{"name":"_gasLimit","type":"uint256","internalType":"uint256"}],"outputs":[],"stateMutability":"payable"},{"type":"function","name":"finalizeWithdrawERC20","inputs":[{"name":"_l1Token","type":"address","internalType":"address"},{"name":"_l2Token","type":"address","internalType":"address"},{"name":"_from","type":"address","internalType":"address"},{"name":"_to","type":"address","internalType":"address"},{"name":"_amount","type":"uint256","internalType":"uint256"},{"name":"_data","type":"bytes","internalType":"bytes"}],"outputs":[],"stateMutability":"payable"},{"type":"function","name":"getL2ERC20Address","inputs":[{"name":"_l1Token","type":"address","internalType":"address"}],"outputs":[{"name":"","type":"address","internalType":"address"}],"stateMutability":"view"},{"type":"function","name":"initialize","inputs":[{"name":"_counterpart","type":"address","internalType":"address"},{"name":"_router","type":"address","internalType":"address"},{"name":"_messenger","type":"address","internalType":"address"},{"name":"","type":"address","internalType":"address"},{"name":"","type":"address","internalType":"address"}],"outputs":[],"stateMutability":"nonpayable"},{"type":"function","name":"l2TokenFactory","inputs":[],"outputs":[{"name":"","type":"address","internalType":"address"}],"stateMutability":"view"},{"type":"function","name":"l2TokenImplementation","inputs":[],"outputs":[{"name":"","type":"address","internalType":"address"}],"stateMutability":"view"},{"type":"function","name":"messenger","inputs":[],"outputs":[{"name":"","type":"address","internalType":"address"}],"stateMutability":"view"},{"type":"function","name":"onDropMessage","inputs":[{"name":"_message","type":"bytes","internalType":"bytes"}],"outputs":[],"stateMutability":"payable"},{"type":"function","name":"owner","inputs":[],"outputs":[{"name":"","type":"address","internalType":"address"}],"stateMutability":"view"},{"type":"function","name":"renounceOwnership","inputs":[],"outputs":[],"stateMutability":"nonpayable"},{"type":"function","name":"router","inputs":[],"outputs":[{"name":"","type":"address","internalType":"address"}],"stateMutability":"view"},{"type":"function","name":"transferOwnership","inputs":[{"name":"newOwner","type":"address","internalType":"address"}],"outputs":[],"stateMutability":"nonpayable"},{"type":"event","name":"DepositERC20","inputs":[{"name":"l1Token","type":"address","indexed":true,"internalType":"address"},{"name":"l2Token","type":"address","indexed":true,"internalType":"address"},{"name":"from","type":"address","indexed":true,"internalType":"address"},{"name":"to","type":"address","indexed":false,"internalType":"address"},{"name":"amount","type":"uint256","indexed":false,"internalType":"uint256"},{"name":"data","type":"bytes","indexed":false,"internalType":"bytes"}],"anonymous":false},{"type":"event","name":"FinalizeWithdrawERC20","inputs":[{"name":"l1Token","type":"address","indexed":true,"internalType":"address"},{"name":"l2Token","type":"address","indexed":true,"internalType":"address"},{"name":"from","type":"address","indexed":true,"internalType":"address"},{"name":"to","type":"address","indexed":false,"internalType":"address"},{"name":"amount","type":"uint256","indexed":false,"internalType":"uint256"},{"name":"data","type":"bytes","indexed":false,"internalType":"bytes"}],"anonymous":false},{"type":"event","name":"Initialized","inputs":[{"name":"version","type":"uint8","indexed":false,"internalType":"uint8"}],"anonymous":false},{"type":"event","name":"OwnershipTransferred","inputs":[{"name":"previousOwner","type":"address","indexed":true,"internalType":"address"},{"name":"newOwner","type":"address","indexed":true,"internalType":"address"}],"anonymous":false},{"type":"event","name":"RefundERC20","inputs":[{"name":"token","type":"address","indexed":true,"internalType":"address"},{"name":"recipient","type":"address","indexed":true,"internalType":"address"},{"name":"amount","type":"uint256","indexed":false,"internalType":"uint256"}],"anonymous":false},{"type":"error","name":"ErrorCallerIsNotCounterpartGateway","inputs":[]},{"type":"error","name":"ErrorCallerIsNotMessenger","inputs":[]},{"type":"error","name":"ErrorNotInDropMessageContext","inputs":[]},{"type":"error","name":"ErrorZeroAddress","inputs":[]}],"bytecode":{"object":"0x6101206040523480156200001257600080fd5b50604051620022bf380380620022bf8339810160408190526200003591620001db565b8484846001600160a01b03831615806200005657506001600160a01b038116155b15620000755760405163a7f9319d60e01b815260040160405180910390fd5b6001600160a01b0392831660805290821660a052811660c05284161580620000a457506001600160a01b038216155b80620000b757506001600160a01b038116155b15620000d65760405163a7f9319d60e01b815260040160405180910390fd5b620000e0620000fd565b6001600160a01b0391821660e0521661010052506200024b915050565b600054610100900460ff16156200016a5760405162461bcd60e51b815260206004820152602760248201527f496e697469616c697a61626c653a20636f6e747261637420697320696e697469604482015266616c697a696e6760c81b606482015260840160405180910390fd5b60005460ff90811614620001bc576000805460ff191660ff9081179091556040519081527f7f26b83ff96e1f2b6a682f133852f6798a09c465da95921460cefb38474024989060200160405180910390a15b565b80516001600160a01b0381168114620001d657600080fd5b919050565b600080600080600060a08688031215620001f457600080fd5b620001ff86620001be565b94506200020f60208701620001be565b93506200021f60408701620001be565b92506200022f60608701620001be565b91506200023f60808701620001be565b90509295509295909350565b60805160a05160c05160e05161010051611fe2620002dd600039600081816102780152610943015260008181610114015261097f0152600081816101aa0152818161031801528181610360015281816106ad015281816106f50152610d2c0152600081816102df015261120e0152600081816101f301528181610780015281816108c10152610d5b0152611fe26000f3fe6080604052600436106100e85760003560e01c8063797594b01161008a578063eddd5e8211610059578063eddd5e8214610266578063f219fa661461029a578063f2fde38b146102ad578063f887ea40146102cd57600080fd5b8063797594b0146101e157806384bd13b0146102155780638da5cb5b14610228578063c676ad291461024657600080fd5b80631459457a116100c65780631459457a1461016557806321425ee0146101855780633cb747bf14610198578063715018a6146101cc57600080fd5b80630aea8c26146100ed5780630e28c1f21461010257806314298c5114610152575b600080fd5b6101006100fb366004611856565b610301565b005b34801561010e57600080fd5b506101367f000000000000000000000000000000000000000000000000000000000000000081565b6040516001600160a01b03909116815260200160405180910390f35b610100610160366004611913565b610315565b34801561017157600080fd5b50610100610180366004611955565b61053e565b6101006101933660046119c6565b610657565b3480156101a457600080fd5b506101367f000000000000000000000000000000000000000000000000000000000000000081565b3480156101d857600080fd5b50610100610696565b3480156101ed57600080fd5b506101367f000000000000000000000000000000000000000000000000000000000000000081565b6101006102233660046119fb565b6106aa565b34801561023457600080fd5b506065546001600160a01b0316610136565b34801561025257600080fd5b50610136610261366004611a93565b61089e565b34801561027257600080fd5b506101367f000000000000000000000000000000000000000000000000000000000000000081565b6101006102a8366004611ab0565b6109e3565b3480156102b957600080fd5b506101006102c8366004611a93565b6109f6565b3480156102d957600080fd5b506101367f000000000000000000000000000000000000000000000000000000000000000081565b61030e8585858585610a6f565b5050505050565b337f00000000000000000000000000000000000000000000000000000000000000006001600160a01b03161461035e576040516385bd908d60e01b815260040160405180910390fd5b7f00000000000000000000000000000000000000000000000000000000000000006001600160a01b0316636e296e456040518163ffffffff1660e01b8152600401602060405180830381865afa1580156103bc573d6000803e3d6000fd5b505050506040513d601f19601f820116820180604052508101906103e09190611af6565b6001600160a01b0316736f297c61b5c92ef107ffd30cd56affe5a273e8416001600160a01b03161461042557604051630d08b8ff60e01b815260040160405180910390fd5b61042d610e24565b638431f5c160e01b610443600460008486611b13565b61044c91611b3d565b6001600160e01b0319161461049b5760405162461bcd60e51b815260206004820152601060248201526f34b73b30b634b21039b2b632b1ba37b960811b60448201526064015b60405180910390fd5b600080806104ac8460048188611b13565b8101906104b99190611b6d565b5094505093505092506104cd838383610e7d565b6104e16001600160a01b0384168383610ebf565b816001600160a01b0316836001600160a01b03167fdbdf8eb487847e4c0f22847f5dac07f2d3690f96f581a6ae4b102769917645a88360405161052691815260200190565b60405180910390a350505061053a60018055565b5050565b600054610100900460ff161580801561055e5750600054600160ff909116105b806105785750303b158015610578575060005460ff166001145b6105db5760405162461bcd60e51b815260206004820152602e60248201527f496e697469616c697a61626c653a20636f6e747261637420697320616c72656160448201526d191e481a5b9a5d1a585b1a5e995960921b6064820152608401610492565b6000805460ff1916600117905580156105fe576000805461ff0019166101001790555b610609868686610f28565b801561064f576000805461ff0019169055604051600181527f7f26b83ff96e1f2b6a682f133852f6798a09c465da95921460cefb38474024989060200160405180910390a15b505050505050565b61069183338460005b6040519080825280601f01601f19166020018201604052801561068a576020820181803683370190505b5085610a6f565b505050565b61069e610f38565b6106a86000610f92565b565b337f00000000000000000000000000000000000000000000000000000000000000006001600160a01b0316146106f3576040516385bd908d60e01b815260040160405180910390fd5b7f00000000000000000000000000000000000000000000000000000000000000006001600160a01b0316636e296e456040518163ffffffff1660e01b8152600401602060405180830381865afa158015610751573d6000803e3d6000fd5b505050506040513d601f19601f820116820180604052508101906107759190611af6565b6001600160a01b03167f00000000000000000000000000000000000000000000000000000000000000006001600160a01b0316146107c6576040516307b140f360e51b815260040160405180910390fd5b6107ce610e24565b6107dd87878787878787610fe4565b6107f16001600160a01b0388168585610ebf565b6108318483838080601f01602080910402602001604051908101604052809392919081815260200183838082843760009201919091525061118b92505050565b846001600160a01b0316866001600160a01b0316886001600160a01b03167fc6f985873b37805705f6bce756dce3d1ff4b603e298d506288cce499926846a7878787876040516108849493929190611bfd565b60405180910390a461089560018055565b50505050505050565b6040516bffffffffffffffffffffffff19606083901b16602082015260009081907f0000000000000000000000000000000000000000000000000000000000000000906034016040516020818303038152906040528051906020012060405160200161092892919060609290921b6bffffffffffffffffffffffff19168252601482015260340190565b60408051601f198184030181529082905280516020909101207f000000000000000000000000000000000000000000000000000000000000000060388301526f5af43d82803e903d91602b57fd5bf3ff60248301527f00000000000000000000000000000000000000000000000000000000000000006014830152733d602d80600a3d3981f3363d3d373d3d3d363d738252605882018190526037600c830120607883015260556043909201919091209091505b9392505050565b6109f08484846000610660565b50505050565b6109fe610f38565b6001600160a01b038116610a635760405162461bcd60e51b815260206004820152602660248201527f4f776e61626c653a206e6577206f776e657220697320746865207a65726f206160448201526564647265737360d01b6064820152608401610492565b610a6c81610f92565b50565b610a77610e24565b60008311610abd5760405162461bcd60e51b815260206004820152601360248201527219195c1bdcda5d081e995c9bc8185b5bdd5b9d606a1b6044820152606401610492565b6000610aca868585611205565b6001600160a01b03808a16600090815260fd602052604090205492975090955091925016606081610ca757610afe8861089e565b91506000886001600160a01b03166395d89b416040518163ffffffff1660e01b8152600401600060405180830381865afa158015610b40573d6000803e3d6000fd5b505050506040513d6000823e601f3d908101601f19168201604052610b689190810190611c99565b90506000896001600160a01b03166306fdde036040518163ffffffff1660e01b8152600401600060405180830381865afa158015610baa573d6000803e3d6000fd5b505050506040513d6000823e601f3d908101601f19168201604052610bd29190810190611c99565b905060008a6001600160a01b031663313ce5676040518163ffffffff1660e01b8152600401602060405180830381865afa158015610c14573d6000803e3d6000fd5b505050506040513d601f19601f82011682018060405250810190610c389190611ce2565b9050600188848484604051602001610c5293929190611d31565b60408051601f1981840301815290829052610c709291602001611d6a565b60408051601f1981840301815290829052610c8e9291602001611d98565b6040516020818303038152906040529350505050610ccd565b600085604051602001610cbb929190611d98565b60405160208183030381529060405290505b60008883858a8a86604051602401610cea96959493929190611db3565b60408051601f198184030181529181526020820180516001600160e01b0316638431f5c160e01b17905251635f7b157760e01b81529091506001600160a01b037f00000000000000000000000000000000000000000000000000000000000000001690635f7b1577903490610d8c907f00000000000000000000000000000000000000000000000000000000000000009060009087908c908c90600401611e02565b6000604051808303818588803b158015610da557600080fd5b505af1158015610db9573d6000803e3d6000fd5b5050505050836001600160a01b0316836001600160a01b03168a6001600160a01b03167f31cd3b976e4d654022bf95c68a2ce53f1d5d94afabe0454d2832208eeb40af258b8b8b604051610e0f93929190611e44565b60405180910390a45050505061030e60018055565b600260015403610e765760405162461bcd60e51b815260206004820152601f60248201527f5265656e7472616e637947756172643a207265656e7472616e742063616c6c006044820152606401610492565b6002600155565b34156106915760405162461bcd60e51b81526020600482015260116024820152706e6f6e7a65726f206d73672e76616c756560781b6044820152606401610492565b6040516001600160a01b03831660248201526044810182905261069190849063a9059cbb60e01b906064015b60408051601f198184030181529190526020810180516001600160e01b03166001600160e01b03199093169290921790915261142a565b60018055565b610f306114ff565b61069161152e565b6065546001600160a01b031633146106a85760405162461bcd60e51b815260206004820181905260248201527f4f776e61626c653a2063616c6c6572206973206e6f7420746865206f776e65726044820152606401610492565b606580546001600160a01b038381166001600160a01b0319831681179093556040519116919082907f8be0079c531659141344cd1fd0a4f28419497f9722a3daafe3b4186f6b6457e090600090a35050565b34156110265760405162461bcd60e51b81526020600482015260116024820152706e6f6e7a65726f206d73672e76616c756560781b6044820152606401610492565b6001600160a01b03861661107c5760405162461bcd60e51b815260206004820152601960248201527f746f6b656e20616464726573732063616e6e6f742062652030000000000000006044820152606401610492565b856001600160a01b031661108f8861089e565b6001600160a01b0316146110d95760405162461bcd60e51b81526020600482015260116024820152700d86440e8ded6cadc40dad2e6dac2e8c6d607b1b6044820152606401610492565b6001600160a01b03808816600090815260fd6020526040902054168061112c576001600160a01b03888116600090815260fd6020526040902080546001600160a01b031916918916919091179055611181565b866001600160a01b0316816001600160a01b0316146111815760405162461bcd60e51b81526020600482015260116024820152700d86440e8ded6cadc40dad2e6dac2e8c6d607b1b6044820152606401610492565b5050505050505050565b600081511180156111a657506000826001600160a01b03163b115b1561053a5760405163109b953160e01b81526001600160a01b0383169063109b9531906111d7908490600401611e6b565b600060405180830381600087803b1580156111f157600080fd5b505af115801561064f573d6000803e3d6000fd5b600080606033807f00000000000000000000000000000000000000000000000000000000000000006001600160a01b03168190036112d957858060200190518101906112519190611e7e565b60405163314a8eef60e21b81526001600160a01b0380841660048301528b81166024830152604482018b905291985091925083169063c52a3bbc906064016020604051808303816000875af11580156112ae573d6000803e3d6000fd5b505050506040513d601f19601f820116820180604052508101906112d29190611ee3565b96506113d7565b6040516370a0823160e01b81523060048201526000906001600160a01b038a16906370a0823190602401602060405180830381865afa158015611320573d6000803e3d6000fd5b505050506040513d601f19601f820116820180604052508101906113449190611ee3565b905061135b6001600160a01b038a1683308b61155d565b6040516370a0823160e01b81523060048201526000906001600160a01b038b16906370a0823190602401602060405180830381865afa1580156113a2573d6000803e3d6000fd5b505050506040513d601f19601f820116820180604052508101906113c69190611ee3565b90506113d28282611efc565b985050505b6000871161141d5760405162461bcd60e51b815260206004820152601360248201527219195c1bdcda5d081e995c9bc8185b5bdd5b9d606a1b6044820152606401610492565b9795965093949350505050565b600061147f826040518060400160405280602081526020017f5361666545524332303a206c6f772d6c6576656c2063616c6c206661696c6564815250856001600160a01b03166115959092919063ffffffff16565b90508051600014806114a05750808060200190518101906114a09190611f23565b6106915760405162461bcd60e51b815260206004820152602a60248201527f5361666545524332303a204552433230206f7065726174696f6e20646964206e6044820152691bdd081cdd58d8d9595960b21b6064820152608401610492565b600054610100900460ff166115265760405162461bcd60e51b815260040161049290611f45565b6106a86115ac565b600054610100900460ff166115555760405162461bcd60e51b815260040161049290611f45565b6106a86115d3565b6040516001600160a01b03808516602483015283166044820152606481018290526109f09085906323b872dd60e01b90608401610eeb565b60606115a48484600085611603565b949350505050565b600054610100900460ff16610f225760405162461bcd60e51b815260040161049290611f45565b600054610100900460ff166115fa5760405162461bcd60e51b815260040161049290611f45565b6106a833610f92565b6060824710156116645760405162461bcd60e51b815260206004820152602660248201527f416464726573733a20696e73756666696369656e742062616c616e636520666f6044820152651c8818d85b1b60d21b6064820152608401610492565b600080866001600160a01b031685876040516116809190611f90565b60006040518083038185875af1925050503d80600081146116bd576040519150601f19603f3d011682016040523d82523d6000602084013e6116c2565b606091505b50915091506116d3878383876116de565b979650505050505050565b6060831561174d578251600003611746576001600160a01b0385163b6117465760405162461bcd60e51b815260206004820152601d60248201527f416464726573733a2063616c6c20746f206e6f6e2d636f6e74726163740000006044820152606401610492565b50816115a4565b6115a483838151156117625781518083602001fd5b8060405162461bcd60e51b81526004016104929190611e6b565b6001600160a01b0381168114610a6c57600080fd5b634e487b7160e01b600052604160045260246000fd5b604051601f8201601f1916810167ffffffffffffffff811182821017156117d0576117d0611791565b604052919050565b600067ffffffffffffffff8211156117f2576117f2611791565b50601f01601f191660200190565b600082601f83011261181157600080fd5b813561182461181f826117d8565b6117a7565b81815284602083860101111561183957600080fd5b816020850160208301376000918101602001919091529392505050565b600080600080600060a0868803121561186e57600080fd5b85356118798161177c565b945060208601356118898161177c565b935060408601359250606086013567ffffffffffffffff8111156118ac57600080fd5b6118b888828901611800565b95989497509295608001359392505050565b60008083601f8401126118dc57600080fd5b50813567ffffffffffffffff8111156118f457600080fd5b60208301915083602082850101111561190c57600080fd5b9250929050565b6000806020838503121561192657600080fd5b823567ffffffffffffffff81111561193d57600080fd5b611949858286016118ca565b90969095509350505050565b600080600080600060a0868803121561196d57600080fd5b85356119788161177c565b945060208601356119888161177c565b935060408601356119988161177c565b925060608601356119a88161177c565b915060808601356119b88161177c565b809150509295509295909350565b6000806000606084860312156119db57600080fd5b83356119e68161177c565b95602085013595506040909401359392505050565b600080600080600080600060c0888a031215611a1657600080fd5b8735611a218161177c565b96506020880135611a318161177c565b95506040880135611a418161177c565b94506060880135611a518161177c565b93506080880135925060a088013567ffffffffffffffff811115611a7457600080fd5b611a808a828b016118ca565b989b979a50959850939692959293505050565b600060208284031215611aa557600080fd5b81356109dc8161177c565b60008060008060808587031215611ac657600080fd5b8435611ad18161177c565b93506020850135611ae18161177c565b93969395505050506040820135916060013590565b600060208284031215611b0857600080fd5b81516109dc8161177c565b60008085851115611b2357600080fd5b83861115611b3057600080fd5b5050820193919092039150565b6001600160e01b03198135818116916004851015611b655780818660040360031b1b83161692505b505092915050565b60008060008060008060c08789031215611b8657600080fd5b8635611b918161177c565b95506020870135611ba18161177c565b94506040870135611bb18161177c565b93506060870135611bc18161177c565b92506080870135915060a087013567ffffffffffffffff811115611be457600080fd5b611bf089828a01611800565b9150509295509295509295565b6001600160a01b0385168152602081018490526060604082018190528101829052818360808301376000818301608090810191909152601f909201601f191601019392505050565b60005b83811015611c60578181015183820152602001611c48565b50506000910152565b6000611c7761181f846117d8565b9050828152838383011115611c8b57600080fd5b6109dc836020830184611c45565b600060208284031215611cab57600080fd5b815167ffffffffffffffff811115611cc257600080fd5b8201601f81018413611cd357600080fd5b6115a484825160208401611c69565b600060208284031215611cf457600080fd5b815160ff811681146109dc57600080fd5b60008151808452611d1d816020860160208601611c45565b601f01601f19169290920160200192915050565b606081526000611d446060830186611d05565b8281036020840152611d568186611d05565b91505060ff83166040830152949350505050565b604081526000611d7d6040830185611d05565b8281036020840152611d8f8185611d05565b95945050505050565b82151581526040602082015260006115a46040830184611d05565b6001600160a01b03878116825286811660208301528581166040830152841660608201526080810183905260c060a08201819052600090611df690830184611d05565b98975050505050505050565b600060018060a01b03808816835286602084015260a06040840152611e2a60a0840187611d05565b606084019590955292909216608090910152509392505050565b60018060a01b0384168152826020820152606060408201526000611d8f6060830184611d05565b6020815260006109dc6020830184611d05565b60008060408385031215611e9157600080fd5b8251611e9c8161177c565b602084015190925067ffffffffffffffff811115611eb957600080fd5b8301601f81018513611eca57600080fd5b611ed985825160208401611c69565b9150509250929050565b600060208284031215611ef557600080fd5b5051919050565b81810381811115611f1d57634e487b7160e01b600052601160045260246000fd5b92915050565b600060208284031215611f3557600080fd5b815180151581146109dc57600080fd5b6020808252602b908201527f496e697469616c697a61626c653a20636f6e7472616374206973206e6f74206960408201526a6e697469616c697a696e6760a81b606082015260800190565b60008251611fa2818460208701611c45565b919091019291505056fea264697066735822122011a3330212385e47c13fc974677c3e725dd1357cce1353e94ddd116e8abc20b364736f6c63430008100033","linkReferences":{}},"methodIdentifiers":{"counterpart()":"797594b0","depositERC20(address,address,uint256,uint256)":"f219fa66","depositERC20(address,uint256,uint256)":"21425ee0","depositERC20AndCall(address,address,uint256,bytes,uint256)":"0aea8c26","finalizeWithdrawERC20(address,address,address,address,uint256,bytes)":"84bd13b0","getL2ERC20Address(address)":"c676ad29","initialize(address,address,address,address,address)":"1459457a","l2TokenFactory()":"eddd5e82","l2TokenImplementation()":"0e28c1f2","messenger()":"3cb747bf","onDropMessage(bytes)":"14298c51","owner()":"8da5cb5b","renounceOwnership()":"715018a6","router()":"f887ea40","transferOwnership(address)":"f2fde38b"},"id":136}