{"abi":[{"type":"constructor","inputs":[],"stateMutability":"nonpayable"},{"type":"receive","stateMutability":"payable"},{"type":"function","name":"DOMAIN_SEPARATOR","inputs":[],"outputs":[{"name":"","type":"bytes32","internalType":"bytes32"}],"stateMutability":"view"},{"type":"function","name":"allowance","inputs":[{"name":"owner","type":"address","internalType":"address"},{"name":"spender","type":"address","internalType":"address"}],"outputs":[{"name":"","type":"uint256","internalType":"uint256"}],"stateMutability":"view"},{"type":"function","name":"approve","inputs":[{"name":"spender","type":"address","internalType":"address"},{"name":"amount","type":"uint256","internalType":"uint256"}],"outputs":[{"name":"","type":"bool","internalType":"bool"}],"stateMutability":"nonpayable"},{"type":"function","name":"balanceOf","inputs":[{"name":"account","type":"address","internalType":"address"}],"outputs":[{"name":"","type":"uint256","internalType":"uint256"}],"stateMutability":"view"},{"type":"function","name":"decimals","inputs":[],"outputs":[{"name":"","type":"uint8","internalType":"uint8"}],"stateMutability":"view"},{"type":"function","name":"decreaseAllowance","inputs":[{"name":"spender","type":"address","internalType":"address"},{"name":"subtractedValue","type":"uint256","internalType":"uint256"}],"outputs":[{"name":"","type":"bool","internalType":"bool"}],"stateMutability":"nonpayable"},{"type":"function","name":"deposit","inputs":[],"outputs":[],"stateMutability":"payable"},{"type":"function","name":"eip712Domain","inputs":[],"outputs":[{"name":"fields","type":"bytes1","internalType":"bytes1"},{"name":"name","type":"string","internalType":"string"},{"name":"version","type":"string","internalType":"string"},{"name":"chainId","type":"uint256","internalType":"uint256"},{"name":"verifyingContract","type":"address","internalType":"address"},{"name":"salt","type":"bytes32","internalType":"bytes32"},{"name":"extensions","type":"uint256[]","internalType":"uint256[]"}],"stateMutability":"view"},{"type":"function","name":"increaseAllowance","inputs":[{"name":"spender","type":"address","internalType":"address"},{"name":"addedValue","type":"uint256","internalType":"uint256"}],"outputs":[{"name":"","type":"bool","internalType":"bool"}],"stateMutability":"nonpayable"},{"type":"function","name":"name","inputs":[],"outputs":[{"name":"","type":"string","internalType":"string"}],"stateMutability":"view"},{"type":"function","name":"nonces","inputs":[{"name":"owner","type":"address","internalType":"address"}],"outputs":[{"name":"","type":"uint256","internalType":"uint256"}],"stateMutability":"view"},{"type":"function","name":"permit","inputs":[{"name":"owner","type":"address","internalType":"address"},{"name":"spender","type":"address","internalType":"address"},{"name":"value","type":"uint256","internalType":"uint256"},{"name":"deadline","type":"uint256","internalType":"uint256"},{"name":"v","type":"uint8","internalType":"uint8"},{"name":"r","type":"bytes32","internalType":"bytes32"},{"name":"s","type":"bytes32","internalType":"bytes32"}],"outputs":[],"stateMutability":"nonpayable"},{"type":"function","name":"symbol","inputs":[],"outputs":[{"name":"","type":"string","internalType":"string"}],"stateMutability":"view"},{"type":"function","name":"totalSupply","inputs":[],"outputs":[{"name":"","type":"uint256","internalType":"uint256"}],"stateMutability":"view"},{"type":"function","name":"transfer","inputs":[{"name":"to","type":"address","internalType":"address"},{"name":"amount","type":"uint256","internalType":"uint256"}],"outputs":[{"name":"","type":"bool","internalType":"bool"}],"stateMutability":"nonpayable"},{"type":"function","name":"transferFrom","inputs":[{"name":"from","type":"address","internalType":"address"},{"name":"to","type":"address","internalType":"address"},{"name":"amount","type":"uint256","internalType":"uint256"}],"outputs":[{"name":"","type":"bool","internalType":"bool"}],"stateMutability":"nonpayable"},{"type":"function","name":"withdraw","inputs":[{"name":"wad","type":"uint256","internalType":"uint256"}],"outputs":[],"stateMutability":"nonpayable"},{"type":"event","name":"Approval","inputs":[{"name":"owner","type":"address","indexed":true,"internalType":"address"},{"name":"spender","type":"address","indexed":true,"internalType":"address"},{"name":"value","type":"uint256","indexed":false,"internalType":"uint256"}],"anonymous":false},{"type":"event","name":"Deposit","inputs":[{"name":"dst","type":"address","indexed":true,"internalType":"address"},{"name":"wad","type":"uint256","indexed":false,"internalType":"uint256"}],"anonymous":false},{"type":"event","name":"EIP712DomainChanged","inputs":[],"anonymous":false},{"type":"event","name":"Transfer","inputs":[{"name":"from","type":"address","indexed":true,"internalType":"address"},{"name":"to","type":"address","indexed":true,"internalType":"address"},{"name":"value","type":"uint256","indexed":false,"internalType":"uint256"}],"anonymous":false},{"type":"event","name":"Withdrawal","inputs":[{"name":"src","type":"address","indexed":true,"internalType":"address"},{"name":"wad","type":"uint256","indexed":false,"internalType":"uint256"}],"anonymous":false},{"type":"error","name":"InvalidShortString","inputs":[]},{"type":"error","name":"StringTooLong","inputs":[{"name":"str","type":"string","internalType":"string"}]}],"bytecode":{"object":"0x6101606040523480156200001257600080fd5b506040518060400160405280600d81526020016c2bb930b83832b21022ba3432b960991b81525080604051806040016040528060018152602001603160f81b8152506040518060400160405280600d81526020016c2bb930b83832b21022ba3432b960991b815250604051806040016040528060048152602001630ae8aa8960e31b8152508160039081620000a89190620002d4565b506004620000b78282620002d4565b505050620000d56005836200019060201b6200084d1790919060201c565b61012052620000f281600662000190602090811b6200084d17901c565b61014052815160208084019190912060e052815190820120610100524660a0526200018060e05161010051604080517f8b73c3c69bb8fe3d512ecc4cf759cc79239f7b179b0ffacaa9a75d522b39400f60208201529081019290925260608201524660808201523060a082015260009060c00160405160208183030381529060405280519060200120905090565b60805250503060c0525062000415565b6000602083511015620001b057620001a883620001e0565b9050620001da565b82620001c7836200022c60201b6200087e1760201c565b90620001d49082620002d4565b5060ff90505b92915050565b600080829050601f8151111562000217578260405163305a27a960e01b81526004016200020e9190620003a0565b60405180910390fd5b80516200022482620003f0565b179392505050565b90565b634e487b7160e01b600052604160045260246000fd5b600181811c908216806200025a57607f821691505b6020821081036200027b57634e487b7160e01b600052602260045260246000fd5b50919050565b601f821115620002cf57600081815260208120601f850160051c81016020861015620002aa5750805b601f850160051c820191505b81811015620002cb57828155600101620002b6565b5050505b505050565b81516001600160401b03811115620002f057620002f06200022f565b620003088162000301845462000245565b8462000281565b602080601f831160018114620003405760008415620003275750858301515b600019600386901b1c1916600185901b178555620002cb565b600085815260208120601f198616915b82811015620003715788860151825594840194600190910190840162000350565b5085821015620003905787850151600019600388901b60f8161c191681555b5050505050600190811b01905550565b600060208083528351808285015260005b81811015620003cf57858101830151858201604001528201620003b1565b506000604082860101526040601f19601f8301168501019250505092915050565b805160208083015191908110156200027b5760001960209190910360031b1b16919050565b60805160a05160c05160e0516101005161012051610140516116ef6200047060003960006105d6015260006105ab01526000610e8c01526000610e6401526000610dbf01526000610de901526000610e1301526116ef6000f3fe6080604052600436106101025760003560e01c806370a0823111610095578063a457c2d711610064578063a457c2d7146102b4578063a9059cbb146102d4578063d0e30db0146102f4578063d505accf146102fc578063dd62ed3e1461031c57600080fd5b806370a08231146102215780637ecebe001461025757806384b0196e1461027757806395d89b411461029f57600080fd5b80632e1a7d4d116100d15780632e1a7d4d146101b0578063313ce567146101d05780633644e515146101ec578063395093511461020157600080fd5b806306fdde0314610116578063095ea7b31461014157806318160ddd1461017157806323b872dd1461019057600080fd5b366101115761010f61033c565b005b600080fd5b34801561012257600080fd5b5061012b61038d565b60405161013891906112fa565b60405180910390f35b34801561014d57600080fd5b5061016161015c366004611330565b61041f565b6040519015158152602001610138565b34801561017d57600080fd5b506002545b604051908152602001610138565b34801561019c57600080fd5b506101616101ab36600461135a565b610439565b3480156101bc57600080fd5b5061010f6101cb366004611396565b61045d565b3480156101dc57600080fd5b5060405160128152602001610138565b3480156101f857600080fd5b5061018261054e565b34801561020d57600080fd5b5061016161021c366004611330565b61055d565b34801561022d57600080fd5b5061018261023c3660046113af565b6001600160a01b031660009081526020819052604090205490565b34801561026357600080fd5b506101826102723660046113af565b61057f565b34801561028357600080fd5b5061028c61059d565b60405161013897969594939291906113ca565b3480156102ab57600080fd5b5061012b610626565b3480156102c057600080fd5b506101616102cf366004611330565b610635565b3480156102e057600080fd5b506101616102ef366004611330565b6106b0565b61010f61033c565b34801561030857600080fd5b5061010f610317366004611460565b6106be565b34801561032857600080fd5b506101826103373660046114d3565b610822565b336103478134610881565b806001600160a01b03167fe1fffcc4923d04b559f4d29a8bfc6cda04eb5b0d3c460751c2402c5c5cc9109c3460405161038291815260200190565b60405180910390a250565b60606003805461039c90611506565b80601f01602080910402602001604051908101604052809291908181526020018280546103c890611506565b80156104155780601f106103ea57610100808354040283529160200191610415565b820191906000526020600020905b8154815290600101906020018083116103f857829003601f168201915b5050505050905090565b60003361042d818585610940565b60019150505b92915050565b600033610447858285610a65565b610452858585610adf565b506001949350505050565b336104688183610c83565b6000816001600160a01b03168360405160006040518083038185875af1925050503d80600081146104b5576040519150601f19603f3d011682016040523d82523d6000602084013e6104ba565b606091505b50509050806105065760405162461bcd60e51b81526020600482015260136024820152721dda5d1a191c985dc81155120819985a5b1959606a1b60448201526064015b60405180910390fd5b816001600160a01b03167f7fcf532c15f0a6db0bd6d0e038bea71d30d808c7d98cb3bf7268a95bf5081b658460405161054191815260200190565b60405180910390a2505050565b6000610558610db2565b905090565b60003361042d8185856105708383610822565b61057a919061153a565b610940565b6001600160a01b038116600090815260076020526040812054610433565b6000606080828080836105d17f00000000000000000000000000000000000000000000000000000000000000006005610edd565b6105fc7f00000000000000000000000000000000000000000000000000000000000000006006610edd565b60408051600080825260208201909252600f60f81b9b939a50919850469750309650945092509050565b60606004805461039c90611506565b600033816106438286610822565b9050838110156106a35760405162461bcd60e51b815260206004820152602560248201527f45524332303a2064656372656173656420616c6c6f77616e63652062656c6f77604482015264207a65726f60d81b60648201526084016104fd565b6104528286868403610940565b60003361042d818585610adf565b8342111561070e5760405162461bcd60e51b815260206004820152601d60248201527f45524332305065726d69743a206578706972656420646561646c696e6500000060448201526064016104fd565b60007f6e71edae12b1b97f4d1f60370fef10105fa2faae0126114a169c64845d6126c988888861073d8c610f81565b6040805160208101969096526001600160a01b0394851690860152929091166060840152608083015260a082015260c0810186905260e001604051602081830303815290604052805190602001209050600061079882610fa9565b905060006107a882878787610fd6565b9050896001600160a01b0316816001600160a01b03161461080b5760405162461bcd60e51b815260206004820152601e60248201527f45524332305065726d69743a20696e76616c6964207369676e6174757265000060448201526064016104fd565b6108168a8a8a610940565b50505050505050505050565b6001600160a01b03918216600090815260016020908152604080832093909416825291909152205490565b60006020835110156108695761086283610ffe565b9050610433565b8161087484826115bf565b5060ff9050610433565b90565b6001600160a01b0382166108d75760405162461bcd60e51b815260206004820152601f60248201527f45524332303a206d696e7420746f20746865207a65726f20616464726573730060448201526064016104fd565b80600260008282546108e9919061153a565b90915550506001600160a01b038216600081815260208181526040808320805486019055518481527fddf252ad1be2c89b69c2b068fc378daa952ba7f163c4a11628f55a4df523b3ef910160405180910390a35050565b6001600160a01b0383166109a25760405162461bcd60e51b8152602060048201526024808201527f45524332303a20617070726f76652066726f6d20746865207a65726f206164646044820152637265737360e01b60648201526084016104fd565b6001600160a01b038216610a035760405162461bcd60e51b815260206004820152602260248201527f45524332303a20617070726f766520746f20746865207a65726f206164647265604482015261737360f01b60648201526084016104fd565b6001600160a01b0383811660008181526001602090815260408083209487168084529482529182902085905590518481527f8c5be1e5ebec7d5bd14f71427d1e84f3dd0314c0f7b2291e5b200ac8c7c3b92591015b60405180910390a3505050565b6000610a718484610822565b90506000198114610ad95781811015610acc5760405162461bcd60e51b815260206004820152601d60248201527f45524332303a20696e73756666696369656e7420616c6c6f77616e636500000060448201526064016104fd565b610ad98484848403610940565b50505050565b6001600160a01b038316610b435760405162461bcd60e51b815260206004820152602560248201527f45524332303a207472616e736665722066726f6d20746865207a65726f206164604482015264647265737360d81b60648201526084016104fd565b6001600160a01b038216610ba55760405162461bcd60e51b815260206004820152602360248201527f45524332303a207472616e7366657220746f20746865207a65726f206164647260448201526265737360e81b60648201526084016104fd565b6001600160a01b03831660009081526020819052604090205481811015610c1d5760405162461bcd60e51b815260206004820152602660248201527f45524332303a207472616e7366657220616d6f756e7420657863656564732062604482015265616c616e636560d01b60648201526084016104fd565b6001600160a01b03848116600081815260208181526040808320878703905593871680835291849020805487019055925185815290927fddf252ad1be2c89b69c2b068fc378daa952ba7f163c4a11628f55a4df523b3ef910160405180910390a3610ad9565b6001600160a01b038216610ce35760405162461bcd60e51b815260206004820152602160248201527f45524332303a206275726e2066726f6d20746865207a65726f206164647265736044820152607360f81b60648201526084016104fd565b6001600160a01b03821660009081526020819052604090205481811015610d575760405162461bcd60e51b815260206004820152602260248201527f45524332303a206275726e20616d6f756e7420657863656564732062616c616e604482015261636560f01b60648201526084016104fd565b6001600160a01b0383166000818152602081815260408083208686039055600280548790039055518581529192917fddf252ad1be2c89b69c2b068fc378daa952ba7f163c4a11628f55a4df523b3ef9101610a58565b505050565b6000306001600160a01b037f000000000000000000000000000000000000000000000000000000000000000016148015610e0b57507f000000000000000000000000000000000000000000000000000000000000000046145b15610e3557507f000000000000000000000000000000000000000000000000000000000000000090565b610558604080517f8b73c3c69bb8fe3d512ecc4cf759cc79239f7b179b0ffacaa9a75d522b39400f60208201527f0000000000000000000000000000000000000000000000000000000000000000918101919091527f000000000000000000000000000000000000000000000000000000000000000060608201524660808201523060a082015260009060c00160405160208183030381529060405280519060200120905090565b606060ff8314610ef0576108628361103c565b818054610efc90611506565b80601f0160208091040260200160405190810160405280929190818152602001828054610f2890611506565b8015610f755780601f10610f4a57610100808354040283529160200191610f75565b820191906000526020600020905b815481529060010190602001808311610f5857829003601f168201915b50505050509050610433565b6001600160a01b03811660009081526007602052604090208054600181018255905b50919050565b6000610433610fb6610db2565b8360405161190160f01b8152600281019290925260228201526042902090565b6000806000610fe78787878761107b565b91509150610ff48161113f565b5095945050505050565b600080829050601f81511115611029578260405163305a27a960e01b81526004016104fd91906112fa565b80516110348261167f565b179392505050565b606060006110498361128c565b604080516020808252818301909252919250600091906020820181803683375050509182525060208101929092525090565b6000807f7fffffffffffffffffffffffffffffff5d576e7357a4501ddfe92f46681b20a08311156110b25750600090506003611136565b6040805160008082526020820180845289905260ff881692820192909252606081018690526080810185905260019060a0016020604051602081039080840390855afa158015611106573d6000803e3d6000fd5b5050604051601f1901519150506001600160a01b03811661112f57600060019250925050611136565b9150600090505b94509492505050565b6000816004811115611153576111536116a3565b0361115b5750565b600181600481111561116f5761116f6116a3565b036111bc5760405162461bcd60e51b815260206004820152601860248201527f45434453413a20696e76616c6964207369676e6174757265000000000000000060448201526064016104fd565b60028160048111156111d0576111d06116a3565b0361121d5760405162461bcd60e51b815260206004820152601f60248201527f45434453413a20696e76616c6964207369676e6174757265206c656e6774680060448201526064016104fd565b6003816004811115611231576112316116a3565b036112895760405162461bcd60e51b815260206004820152602260248201527f45434453413a20696e76616c6964207369676e6174757265202773272076616c604482015261756560f01b60648201526084016104fd565b50565b600060ff8216601f81111561043357604051632cd44ac360e21b815260040160405180910390fd5b6000815180845260005b818110156112da576020818501810151868301820152016112be565b506000602082860101526020601f19601f83011685010191505092915050565b60208152600061130d60208301846112b4565b9392505050565b80356001600160a01b038116811461132b57600080fd5b919050565b6000806040838503121561134357600080fd5b61134c83611314565b946020939093013593505050565b60008060006060848603121561136f57600080fd5b61137884611314565b925061138660208501611314565b9150604084013590509250925092565b6000602082840312156113a857600080fd5b5035919050565b6000602082840312156113c157600080fd5b61130d82611314565b60ff60f81b881681526000602060e0818401526113ea60e084018a6112b4565b83810360408501526113fc818a6112b4565b606085018990526001600160a01b038816608086015260a0850187905284810360c0860152855180825283870192509083019060005b8181101561144e57835183529284019291840191600101611432565b50909c9b505050505050505050505050565b600080600080600080600060e0888a03121561147b57600080fd5b61148488611314565b965061149260208901611314565b95506040880135945060608801359350608088013560ff811681146114b657600080fd5b9699959850939692959460a0840135945060c09093013592915050565b600080604083850312156114e657600080fd5b6114ef83611314565b91506114fd60208401611314565b90509250929050565b600181811c9082168061151a57607f821691505b602082108103610fa357634e487b7160e01b600052602260045260246000fd5b8082018082111561043357634e487b7160e01b600052601160045260246000fd5b634e487b7160e01b600052604160045260246000fd5b601f821115610dad57600081815260208120601f850160051c810160208610156115985750805b601f850160051c820191505b818110156115b7578281556001016115a4565b505050505050565b815167ffffffffffffffff8111156115d9576115d961155b565b6115ed816115e78454611506565b84611571565b602080601f831160018114611622576000841561160a5750858301515b600019600386901b1c1916600185901b1785556115b7565b600085815260208120601f198616915b8281101561165157888601518255948401946001909101908401611632565b508582101561166f5787850151600019600388901b60f8161c191681555b5050505050600190811b01905550565b80516020808301519190811015610fa35760001960209190910360031b1b16919050565b634e487b7160e01b600052602160045260246000fdfea26469706673582212207f39e33e122e8e2b0381aa6abea46046f56b05ced66c556a06bb1b80be7f55cf64736f6c63430008100033","linkReferences":{}},"methodIdentifiers":{"DOMAIN_SEPARATOR()":"3644e515","allowance(address,address)":"dd62ed3e","approve(address,uint256)":"095ea7b3","balanceOf(address)":"70a08231","decimals()":"313ce567","decreaseAllowance(address,uint256)":"a457c2d7","deposit()":"d0e30db0","eip712Domain()":"84b0196e","increaseAllowance(address,uint256)":"39509351","name()":"06fdde03","nonces(address)":"7ecebe00","permit(address,address,uint256,uint256,uint8,bytes32,bytes32)":"d505accf","symbol()":"95d89b41","totalSupply()":"18160ddd","transfer(address,uint256)":"a9059cbb","transferFrom(address,address,uint256)":"23b872dd","withdraw(uint256)":"2e1a7d4d"},"id":174}