{
  "_format": "hh-sol-artifact-1",
  "contractName": "ScrollChainCommitmentVerifier",
  "sourceName": "src/L1/rollup/ScrollChainCommitmentVerifier.sol",
  "abi": [
    {
      "inputs": [
        {
          "internalType": "address",
          "name": "_poseidon",
          "type": "address"
        },
        {
          "internalType": "address",
          "name": "_rollup",
          "type": "address"
        }
      ],
      "stateMutability": "nonpayable",
      "type": "constructor"
    },
    {
      "inputs": [],
      "name": "poseidon",
      "outputs": [
        {
          "internalType": "address",
          "name": "",
          "type": "address"
        }
      ],
      "stateMutability": "view",
      "type": "function"
    },
    {
      "inputs": [],
      "name": "rollup",
      "outputs": [
        {
          "internalType": "address",
          "name": "",
          "type": "address"
        }
      ],
      "stateMutability": "view",
      "type": "function"
    },
    {
      "inputs": [
        {
          "internalType": "uint256",
          "name": "batchIndex",
          "type": "uint256"
        },
        {
          "internalType": "address",
          "name": "account",
          "type": "address"
        },
        {
          "internalType": "bytes32",
          "name": "storageKey",
          "type": "bytes32"
        },
        {
          "internalType": "bytes",
          "name": "proof",
          "type": "bytes"
        }
      ],
      "name": "verifyStateCommitment",
      "outputs": [
        {
          "internalType": "bytes32",
          "name": "storageValue",
          "type": "bytes32"
        }
      ],
      "stateMutability": "view",
      "type": "function"
    },
    {
      "inputs": [
        {
          "internalType": "address",
          "name": "account",
          "type": "address"
        },
        {
          "internalType": "bytes32",
          "name": "storageKey",
          "type": "bytes32"
        },
        {
          "internalType": "bytes",
          "name": "proof",
          "type": "bytes"
        }
      ],
      "name": "verifyZkTrieProof",
      "outputs": [
        {
          "internalType": "bytes32",
          "name": "stateRoot",
          "type": "bytes32"
        },
        {
          "internalType": "bytes32",
          "name": "storageValue",
          "type": "bytes32"
        }
      ],
      "stateMutability": "view",
      "type": "function"
    }
  ],
  "bytecode": "0x60c060405234801561001057600080fd5b50604051610c17380380610c1783398101604081905261002f91610062565b6001600160a01b039182166080521660a052610095565b80516001600160a01b038116811461005d57600080fd5b919050565b6000806040838503121561007557600080fd5b61007e83610046565b915061008c60208401610046565b90509250929050565b60805160a051610b436100d46000396000818160e30152818161015b015261026301526000818160a40152818161010d015261021c0152610b436000f3fe608060405234801561001057600080fd5b506004361061004c5760003560e01c806361016dc4146100515780638f906e111461007e578063c62b919e1461009f578063cb23bcb5146100de575b600080fd5b61006461005f366004610a10565b610105565b604080519283526020830191909152015b60405180910390f35b61009161008c366004610a6a565b610142565b604051908152602001610075565b6100c67f000000000000000000000000000000000000000000000000000000000000000081565b6040516001600160a01b039091168152602001610075565b6100c67f000000000000000000000000000000000000000000000000000000000000000081565b6000806101357f000000000000000000000000000000000000000000000000000000000000000087878787610332565b9150915094509492505050565b6040516308b50fa160e11b8152600481018690526000907f00000000000000000000000000000000000000000000000000000000000000006001600160a01b03169063116a1f4290602401602060405180830381865afa1580156101aa573d6000803e3d6000fd5b505050506040513d601f19601f820116820180604052508101906101ce9190610ad2565b6102155760405162461bcd60e51b815260206004820152601360248201527210985d18da081b9bdd08199a5b985b1a5e9959606a1b60448201526064015b60405180910390fd5b60006102447f000000000000000000000000000000000000000000000000000000000000000087878787610332565b604051632571098d60e01b8152600481018a90529093509091506000907f00000000000000000000000000000000000000000000000000000000000000006001600160a01b031690632571098d90602401602060405180830381865afa1580156102b2573d6000803e3d6000fd5b505050506040513d601f19601f820116820180604052508101906102d69190610af4565b90508082146103275760405162461bcd60e51b815260206004820152601760248201527f496e76616c696420696e636c7573696f6e2070726f6f66000000000000000000604482015260640161020c565b505095945050505050565b600080610953565b62461bcd60e51b60005260206004528060445260005b81156103655760089190911b90600101610350565b8060245260646000fd5b8061037d5761037d8261033a565b5050565b60006040516329c5c05b60e21b8152836004820152846024820152856044820152602080606483865afa90506103ce731c1bdcd95a591bdb881a185cda0819985a5b195960621b8261036f565b5050602051949350505050565b60006104006102006fffffffffffffffffffffffffffffffff85168560801c85610381565b9392505050565b60018084019060009081906000198735831a01905b818110156104cd57843560001a61045174496e76616c69644272616e63684e6f64655479706560581b6004600684031061036f565b60418601956001810135906021013561046c8382848c610381565b9250836001811461049d5761049871084e4c2dcc6d090c2e6d09ad2e6dac2e8c6d60731b88861461036f565b6104a1565b8397505b5060018a1680156104b4578196506104b8565b8296505b505050508660011c965060018101905061041c565b505093509350939050565b506040518190602d828237602d902061052c75496e76616c696450726f6f664d61676963427974657360501b7f950654da67865a81bc70e45f3230f5179f08e29c66184bf746f71050f117b3b8831461036f565b50602d01919050565b8260008080610548606087901b866103db565b610553858288610407565b935093509450843560001a6004811461059c5760058114610726576105977f496e76616c69644163636f756e744c6561664e6f64655479706500000000000061033a565b61072d565b6001860195506105c471082c6c6deeadce896caf29ad2e6dac2e8c6d60731b8388351461036f565b6020860195506105fe7f496e76616c69644163636f756e74436f6d70726573736564466c6167000000006305080000883560e01c1461036f565b600486019550853560005260208601955061062061050087356000518a610381565b60005260408601956020013594506106398635886103db565b60208701965061064d61050082888b610381565b905061065f610500826000518b610381565b90506106706105008835838b610381565b9050602087019650610685600482858b610381565b90506106b37f496e76616c69644163636f756e744c6561664e6f64654861736800000000000082861461036f565b506106e57f496e76616c69644163636f756e744b6579507265696d6167654c656e67746800873560001a60201461036f565b60018601955061071b7f496e76616c69644163636f756e744b6579507265696d6167650000000000000087358a60601b1461036f565b60208601955061072d565b6001860195505b50505061073a83856104d8565b925093509350939050565b8360008061075385856103db565b6000610760858388610407565b945091509450806000811461079657610791720a6e8dee4c2cecaa4dedee89ad2e6dac2e8c6d606b1b8a841461036f565b61079a565b8893505b5050833560001a600481146107df5760058114610908576107da7f496e76616c696453746f726167654c6561664e6f64655479706500000000000061033a565b61093b565b600185019450610807710a6e8dee4c2ceca96caf29ad2e6dac2e8c6d60731b8387351461036f565b6020850194506108417f496e76616c696453746f72616765436f6d70726573736564466c6167000000006301010000873560e01c1461036f565b602485019460040135935061085684876103db565b60005261086860046000518489610381565b6000526108997f496e76616c696453746f726167654c6561664e6f646548617368000000000000600051851461036f565b6108ca7f496e76616c696453746f726167654b6579507265696d6167654c656e67746800863560001a60201461036f565b6001850194506108fd7f496e76616c696453746f726167654b6579507265696d616765000000000000008635891461036f565b60208501945061093b565b60018501945061093b7f496e76616c696453746f72616765456d7074794c6561664e6f646548617368006000851461036f565b50505061094882846104d8565b915094509492505050565b60008461096181898b610535565b9550925090506109738183898c610745565b93509050848601811461099f5761099f720a0e4dedecc98cadccee8d09ad2e6dac2e8c6d606b1b61033a565b50509550959350505050565b80356001600160a01b03811681146109c257600080fd5b919050565b60008083601f8401126109d957600080fd5b50813567ffffffffffffffff8111156109f157600080fd5b602083019150836020828501011115610a0957600080fd5b9250929050565b60008060008060608587031215610a2657600080fd5b610a2f856109ab565b935060208501359250604085013567ffffffffffffffff811115610a5257600080fd5b610a5e878288016109c7565b95989497509550505050565b600080600080600060808688031215610a8257600080fd5b85359450610a92602087016109ab565b935060408601359250606086013567ffffffffffffffff811115610ab557600080fd5b610ac1888289016109c7565b969995985093965092949392505050565b600060208284031215610ae457600080fd5b8151801515811461040057600080fd5b600060208284031215610b0657600080fd5b505191905056fea26469706673582212209e4a07a2bd928ab216a9b611e50c9fd6182a7a87b9cfa439d59b01d1d3a6160064736f6c63430008100033",
  "linkReferences": {},
  "deployedLinkReferences": {}
}