{
  "_format": "hh-sol-artifact-1",
  "contractName": "ZkEvmVerifierV1",
  "sourceName": "src/libraries/verifier/ZkEvmVerifierV1.sol",
  "abi": [
    {
      "inputs": [
        {
          "internalType": "address",
          "name": "_verifier",
          "type": "address"
        }
      ],
      "stateMutability": "nonpayable",
      "type": "constructor"
    },
    {
      "inputs": [],
      "name": "VerificationFailed",
      "type": "error"
    },
    {
      "inputs": [],
      "name": "plonkVerifier",
      "outputs": [
        {
          "internalType": "address",
          "name": "",
          "type": "address"
        }
      ],
      "stateMutability": "view",
      "type": "function"
    },
    {
      "inputs": [
        {
          "internalType": "bytes",
          "name": "aggrProof",
          "type": "bytes"
        },
        {
          "internalType": "bytes32",
          "name": "publicInputHash",
          "type": "bytes32"
        }
      ],
      "name": "verify",
      "outputs": [],
      "stateMutability": "view",
      "type": "function"
    }
  ],
  "bytecode": "0x60a060405234801561001057600080fd5b5060405161026d38038061026d83398101604081905261002f91610040565b6001600160a01b0316608052610070565b60006020828403121561005257600080fd5b81516001600160a01b038116811461006957600080fd5b9392505050565b6080516101dd6100906000396000818160550152609801526101dd6000f3fe608060405234801561001057600080fd5b50600436106100365760003560e01c80636b4063411461003b578063e4886e5014610050575b600080fd5b61004e61004936600461012f565b610093565b005b6100777f000000000000000000000000000000000000000000000000000000000000000081565b6040516001600160a01b03909116815260200160405180910390f35b6040517f00000000000000000000000000000000000000000000000000000000000000009060009061018086823760005b6104008110156100ea5760ff851661056082900383015260089490941c936020016100c4565b5061018085036101808701610580830137600080610400870183865afa915050806101285760405163439cc0cd60e01b815260040160405180910390fd5b5050505050565b60008060006040848603121561014457600080fd5b833567ffffffffffffffff8082111561015c57600080fd5b818601915086601f83011261017057600080fd5b81358181111561017f57600080fd5b87602082850101111561019157600080fd5b602092830198909750959091013594935050505056fea2646970667358221220d675e4bfb77fd3951026374aadfd6a32c60dc4dbe0742985c214587681ed60be64736f6c63430008100033",
  "linkReferences": {},
  "deployedLinkReferences": {}
}