{
  "_format": "hh-sol-artifact-1",
  "contractName": "MockZkTrieVerifier",
  "sourceName": "src/mocks/MockZkTrieVerifier.sol",
  "abi": [
    {
      "inputs": [
        {
          "internalType": "address",
          "name": "_poseidon",
          "type": "address"
        }
      ],
      "stateMutability": "nonpayable",
      "type": "constructor"
    },
    {
      "inputs": [],
      "name": "poseidon",
      "outputs": [
        {
          "internalType": "address",
          "name": "",
          "type": "address"
        }
      ],
      "stateMutability": "view",
      "type": "function"
    },
    {
      "inputs": [
        {
          "internalType": "address",
          "name": "account",
          "type": "address"
        },
        {
          "internalType": "bytes32",
          "name": "storageKey",
          "type": "bytes32"
        },
        {
          "internalType": "bytes",
          "name": "proof",
          "type": "bytes"
        }
      ],
      "name": "verifyZkTrieProof",
      "outputs": [
        {
          "internalType": "bytes32",
          "name": "stateRoot",
          "type": "bytes32"
        },
        {
          "internalType": "bytes32",
          "name": "storageValue",
          "type": "bytes32"
        },
        {
          "internalType": "uint256",
          "name": "gasUsed",
          "type": "uint256"
        }
      ],
      "stateMutability": "view",
      "type": "function"
    }
  ],
  "bytecode": "0x60a060405234801561001057600080fd5b506040516108fb3803806108fb83398101604081905261002f91610040565b6001600160a01b0316608052610070565b60006020828403121561005257600080fd5b81516001600160a01b038116811461006957600080fd5b9392505050565b60805161086b610090600039600081816073015260bb015261086b6000f3fe608060405234801561001057600080fd5b50600436106100365760003560e01c806361016dc41461003b578063c62b919e1461006e575b600080fd5b61004e610049366004610779565b6100ad565b604080519384526020840192909252908201526060015b60405180910390f35b6100957f000000000000000000000000000000000000000000000000000000000000000081565b6040516001600160a01b039091168152602001610065565b6000806000805a90506100e37f000000000000000000000000000000000000000000000000000000000000000089898989610100565b90945092505a6100f3908261080e565b9150509450945094915050565b600080610721565b62461bcd60e51b60005260206004528060445260005b81156101335760089190911b9060010161011e565b8060245260646000fd5b8061014b5761014b82610108565b5050565b60006040516329c5c05b60e21b8152836004820152846024820152856044820152602080606483865afa905061019c731c1bdcd95a591bdb881a185cda0819985a5b195960621b8261013d565b5050602051949350505050565b60006101ce6102006fffffffffffffffffffffffffffffffff85168560801c8561014f565b9392505050565b60018084019060009081906000198735831a01905b8181101561029b57843560001a61021f74496e76616c69644272616e63684e6f64655479706560581b6004600684031061013d565b60418601956001810135906021013561023a8382848c61014f565b9250836001811461026b5761026671084e4c2dcc6d090c2e6d09ad2e6dac2e8c6d60731b88861461013d565b61026f565b8397505b5060018a16801561028257819650610286565b8296505b505050508660011c96506001810190506101ea565b505093509350939050565b506040518190602d828237602d90206102fa75496e76616c696450726f6f664d61676963427974657360501b7f950654da67865a81bc70e45f3230f5179f08e29c66184bf746f71050f117b3b8831461013d565b50602d01919050565b8260008080610316606087901b866101a9565b6103218582886101d5565b935093509450843560001a6004811461036a57600581146104f4576103657f496e76616c69644163636f756e744c6561664e6f646554797065000000000000610108565b6104fb565b60018601955061039271082c6c6deeadce896caf29ad2e6dac2e8c6d60731b8388351461013d565b6020860195506103cc7f496e76616c69644163636f756e74436f6d70726573736564466c6167000000006305080000883560e01c1461013d565b60048601955085356000526020860195506103ee61050087356000518a61014f565b60005260408601956020013594506104078635886101a9565b60208701965061041b61050082888b61014f565b905061042d610500826000518b61014f565b905061043e6105008835838b61014f565b9050602087019650610453600482858b61014f565b90506104817f496e76616c69644163636f756e744c6561664e6f64654861736800000000000082861461013d565b506104b37f496e76616c69644163636f756e744b6579507265696d6167654c656e67746800873560001a60201461013d565b6001860195506104e97f496e76616c69644163636f756e744b6579507265696d6167650000000000000087358a60601b1461013d565b6020860195506104fb565b6001860195505b50505061050883856102a6565b925093509350939050565b8360008061052185856101a9565b600061052e8583886101d5565b94509150945080600081146105645761055f720a6e8dee4c2cecaa4dedee89ad2e6dac2e8c6d606b1b8a841461013d565b610568565b8893505b5050833560001a600481146105ad57600581146106d6576105a87f496e76616c696453746f726167654c6561664e6f646554797065000000000000610108565b610709565b6001850194506105d5710a6e8dee4c2ceca96caf29ad2e6dac2e8c6d60731b8387351461013d565b60208501945061060f7f496e76616c696453746f72616765436f6d70726573736564466c6167000000006301010000873560e01c1461013d565b602485019460040135935061062484876101a9565b6000526106366004600051848961014f565b6000526106677f496e76616c696453746f726167654c6561664e6f646548617368000000000000600051851461013d565b6106987f496e76616c696453746f726167654b6579507265696d6167654c656e67746800863560001a60201461013d565b6001850194506106cb7f496e76616c696453746f726167654b6579507265696d616765000000000000008635891461013d565b602085019450610709565b6001850194506107097f496e76616c696453746f72616765456d7074794c6561664e6f646548617368006000851461013d565b50505061071682846102a6565b915094509492505050565b60008461072f81898b610303565b9550925090506107418183898c610513565b93509050848601811461076d5761076d720a0e4dedecc98cadccee8d09ad2e6dac2e8c6d606b1b610108565b50509550959350505050565b6000806000806060858703121561078f57600080fd5b84356001600160a01b03811681146107a657600080fd5b935060208501359250604085013567ffffffffffffffff808211156107ca57600080fd5b818701915087601f8301126107de57600080fd5b8135818111156107ed57600080fd5b8860208285010111156107ff57600080fd5b95989497505060200194505050565b8181038181111561082f57634e487b7160e01b600052601160045260246000fd5b9291505056fea264697066735822122005654790b11313c8736867e3d6f58a7383df44d316ad2ae2966c725001450ea964736f6c63430008100033",
  "linkReferences": {},
  "deployedLinkReferences": {}
}