{
  "_format": "hh-sol-artifact-1",
  "contractName": "ScrollOwner",
  "sourceName": "src/misc/ScrollOwner.sol",
  "abi": [
    {
      "inputs": [],
      "stateMutability": "nonpayable",
      "type": "constructor"
    },
    {
      "anonymous": false,
      "inputs": [
        {
          "indexed": true,
          "internalType": "bytes32",
          "name": "role",
          "type": "bytes32"
        },
        {
          "indexed": true,
          "internalType": "address",
          "name": "target",
          "type": "address"
        },
        {
          "indexed": false,
          "internalType": "bytes4[]",
          "name": "selectors",
          "type": "bytes4[]"
        }
      ],
      "name": "GrantAccess",
      "type": "event"
    },
    {
      "anonymous": false,
      "inputs": [
        {
          "indexed": true,
          "internalType": "bytes32",
          "name": "role",
          "type": "bytes32"
        },
        {
          "indexed": true,
          "internalType": "address",
          "name": "target",
          "type": "address"
        },
        {
          "indexed": false,
          "internalType": "bytes4[]",
          "name": "selectors",
          "type": "bytes4[]"
        }
      ],
      "name": "RevokeAccess",
      "type": "event"
    },
    {
      "anonymous": false,
      "inputs": [
        {
          "indexed": true,
          "internalType": "bytes32",
          "name": "role",
          "type": "bytes32"
        },
        {
          "indexed": true,
          "internalType": "bytes32",
          "name": "previousAdminRole",
          "type": "bytes32"
        },
        {
          "indexed": true,
          "internalType": "bytes32",
          "name": "newAdminRole",
          "type": "bytes32"
        }
      ],
      "name": "RoleAdminChanged",
      "type": "event"
    },
    {
      "anonymous": false,
      "inputs": [
        {
          "indexed": true,
          "internalType": "bytes32",
          "name": "role",
          "type": "bytes32"
        },
        {
          "indexed": true,
          "internalType": "address",
          "name": "account",
          "type": "address"
        },
        {
          "indexed": true,
          "internalType": "address",
          "name": "sender",
          "type": "address"
        }
      ],
      "name": "RoleGranted",
      "type": "event"
    },
    {
      "anonymous": false,
      "inputs": [
        {
          "indexed": true,
          "internalType": "bytes32",
          "name": "role",
          "type": "bytes32"
        },
        {
          "indexed": true,
          "internalType": "address",
          "name": "account",
          "type": "address"
        },
        {
          "indexed": true,
          "internalType": "address",
          "name": "sender",
          "type": "address"
        }
      ],
      "name": "RoleRevoked",
      "type": "event"
    },
    {
      "inputs": [],
      "name": "DEFAULT_ADMIN_ROLE",
      "outputs": [
        {
          "internalType": "bytes32",
          "name": "",
          "type": "bytes32"
        }
      ],
      "stateMutability": "view",
      "type": "function"
    },
    {
      "inputs": [
        {
          "internalType": "address",
          "name": "_target",
          "type": "address"
        },
        {
          "internalType": "bytes4",
          "name": "_selector",
          "type": "bytes4"
        }
      ],
      "name": "callableRoles",
      "outputs": [
        {
          "internalType": "bytes32[]",
          "name": "_roles",
          "type": "bytes32[]"
        }
      ],
      "stateMutability": "view",
      "type": "function"
    },
    {
      "inputs": [
        {
          "internalType": "address",
          "name": "_target",
          "type": "address"
        },
        {
          "internalType": "uint256",
          "name": "_value",
          "type": "uint256"
        },
        {
          "internalType": "bytes",
          "name": "_data",
          "type": "bytes"
        },
        {
          "internalType": "bytes32",
          "name": "_role",
          "type": "bytes32"
        }
      ],
      "name": "execute",
      "outputs": [],
      "stateMutability": "payable",
      "type": "function"
    },
    {
      "inputs": [
        {
          "internalType": "bytes32",
          "name": "role",
          "type": "bytes32"
        }
      ],
      "name": "getRoleAdmin",
      "outputs": [
        {
          "internalType": "bytes32",
          "name": "",
          "type": "bytes32"
        }
      ],
      "stateMutability": "view",
      "type": "function"
    },
    {
      "inputs": [
        {
          "internalType": "bytes32",
          "name": "role",
          "type": "bytes32"
        },
        {
          "internalType": "uint256",
          "name": "index",
          "type": "uint256"
        }
      ],
      "name": "getRoleMember",
      "outputs": [
        {
          "internalType": "address",
          "name": "",
          "type": "address"
        }
      ],
      "stateMutability": "view",
      "type": "function"
    },
    {
      "inputs": [
        {
          "internalType": "bytes32",
          "name": "role",
          "type": "bytes32"
        }
      ],
      "name": "getRoleMemberCount",
      "outputs": [
        {
          "internalType": "uint256",
          "name": "",
          "type": "uint256"
        }
      ],
      "stateMutability": "view",
      "type": "function"
    },
    {
      "inputs": [
        {
          "internalType": "bytes32",
          "name": "role",
          "type": "bytes32"
        },
        {
          "internalType": "address",
          "name": "account",
          "type": "address"
        }
      ],
      "name": "grantRole",
      "outputs": [],
      "stateMutability": "nonpayable",
      "type": "function"
    },
    {
      "inputs": [
        {
          "internalType": "bytes32",
          "name": "role",
          "type": "bytes32"
        },
        {
          "internalType": "address",
          "name": "account",
          "type": "address"
        }
      ],
      "name": "hasRole",
      "outputs": [
        {
          "internalType": "bool",
          "name": "",
          "type": "bool"
        }
      ],
      "stateMutability": "view",
      "type": "function"
    },
    {
      "inputs": [
        {
          "internalType": "bytes32",
          "name": "role",
          "type": "bytes32"
        },
        {
          "internalType": "address",
          "name": "account",
          "type": "address"
        }
      ],
      "name": "renounceRole",
      "outputs": [],
      "stateMutability": "nonpayable",
      "type": "function"
    },
    {
      "inputs": [
        {
          "internalType": "bytes32",
          "name": "role",
          "type": "bytes32"
        },
        {
          "internalType": "address",
          "name": "account",
          "type": "address"
        }
      ],
      "name": "revokeRole",
      "outputs": [],
      "stateMutability": "nonpayable",
      "type": "function"
    },
    {
      "inputs": [
        {
          "internalType": "bytes4",
          "name": "interfaceId",
          "type": "bytes4"
        }
      ],
      "name": "supportsInterface",
      "outputs": [
        {
          "internalType": "bool",
          "name": "",
          "type": "bool"
        }
      ],
      "stateMutability": "view",
      "type": "function"
    },
    {
      "inputs": [
        {
          "internalType": "address",
          "name": "_target",
          "type": "address"
        },
        {
          "internalType": "bytes4[]",
          "name": "_selectors",
          "type": "bytes4[]"
        },
        {
          "internalType": "bytes32",
          "name": "_role",
          "type": "bytes32"
        },
        {
          "internalType": "bool",
          "name": "_status",
          "type": "bool"
        }
      ],
      "name": "updateAccess",
      "outputs": [],
      "stateMutability": "nonpayable",
      "type": "function"
    },
    {
      "stateMutability": "payable",
      "type": "receive"
    }
  ],
  "bytecode": "0x60806040523480156200001157600080fd5b506200001f60003362000025565b6200017b565b6200003c82826200006860201b620007081760201c565b6000828152600160209081526040909120620000639183906200078c62000109821b17901c565b505050565b6000828152602081815260408083206001600160a01b038516845290915290205460ff1662000105576000828152602081815260408083206001600160a01b03851684529091529020805460ff19166001179055620000c43390565b6001600160a01b0316816001600160a01b0316837f2f8788117e7eff1d82e926ec794901d17c78024a50270940304540a733656f0d60405160405180910390a45b5050565b600062000120836001600160a01b03841662000129565b90505b92915050565b6000818152600183016020526040812054620001725750815460018181018455600084815260208082209093018490558454848252828601909352604090209190915562000123565b50600062000123565b6111fc806200018b6000396000f3fe6080604052600436106100ab5760003560e01c806388aa4c121161006457806388aa4c12146101b95780639010d07c146101cc57806391d1485414610204578063a217fddf14610224578063ca15c87314610239578063d547741f1461025957600080fd5b806301ffc9a7146100b7578063248a9ca3146100ec5780632eef838c1461012a5780632f2ff15d1461014c57806336568abe1461016c578063693dafb71461018c57600080fd5b366100b257005b600080fd5b3480156100c357600080fd5b506100d76100d2366004610cec565b610279565b60405190151581526020015b60405180910390f35b3480156100f857600080fd5b5061011c610107366004610d07565b60009081526020819052604090206001015490565b6040519081526020016100e3565b34801561013657600080fd5b5061014a610145366004610d5d565b6102a4565b005b34801561015857600080fd5b5061014a610167366004610e4e565b61045c565b34801561017857600080fd5b5061014a610187366004610e4e565b610486565b34801561019857600080fd5b506101ac6101a7366004610e7a565b610509565b6040516100e39190610ea4565b61014a6101c7366004610ee8565b6105d3565b3480156101d857600080fd5b506101ec6101e7366004610f77565b610684565b6040516001600160a01b0390911681526020016100e3565b34801561021057600080fd5b506100d761021f366004610e4e565b6106a3565b34801561023057600080fd5b5061011c600081565b34801561024557600080fd5b5061011c610254366004610d07565b6106cc565b34801561026557600080fd5b5061014a610274366004610e4e565b6106e3565b60006001600160e01b03198216635a05180f60e01b148061029e575061029e826107a1565b92915050565b60006102af816107d6565b81156103875760005b845181101561033f576001600160a01b0386166000908152600260205260408120865161032c928792918990869081106102f4576102f4610f99565b60200260200101516001600160e01b0319166001600160e01b03191681526020019081526020016000206107e390919063ffffffff16565b508061033781610fc5565b9150506102b8565b50846001600160a01b0316837fab8116947fdf4ffd9379522dc6451e9c767d55db320b2f6a93017bc44d6778808660405161037a9190610fde565b60405180910390a3610455565b60005b8451811015610411576001600160a01b038616600090815260026020526040812086516103fe928792918990869081106103c6576103c6610f99565b60200260200101516001600160e01b0319166001600160e01b03191681526020019081526020016000206107ef90919063ffffffff16565b508061040981610fc5565b91505061038a565b50846001600160a01b0316837fefe7a81eac20757f542b11567aacfce76f897581ecd3ae29c0d271cd867247338660405161044c9190610fde565b60405180910390a35b5050505050565b600082815260208190526040902060010154610477816107d6565b61048183836107fb565b505050565b6001600160a01b03811633146104fb5760405162461bcd60e51b815260206004820152602f60248201527f416363657373436f6e74726f6c3a2063616e206f6e6c792072656e6f756e636560448201526e103937b632b9903337b91039b2b63360891b60648201526084015b60405180910390fd5b610505828261081d565b5050565b6001600160a01b03821660009081526002602090815260408083206001600160e01b03198516845290915290206060906105428161083f565b67ffffffffffffffff81111561055a5761055a610d37565b604051908082528060200260200182016040528015610583578160200160208202803683370190505b50915060005b82518110156105cb5761059c8282610849565b8382815181106105ae576105ae610f99565b6020908102919091010152806105c381610fc5565b915050610589565b505092915050565b806105dd816107d6565b856105ec600460008688611020565b6105f59161104a565b8380158061063557506001600160a01b03831660009081526002602090815260408083206001600160e01b03198616845290915290206106359082610855565b61066d5760405162461bcd60e51b81526020600482015260096024820152686e6f2061636365737360b81b60448201526064016104f2565b6106798989898961086d565b505050505050505050565b600082815260016020526040812061069c9083610849565b9392505050565b6000918252602082815260408084206001600160a01b0393909316845291905290205460ff1690565b600081815260016020526040812061029e9061083f565b6000828152602081905260409020600101546106fe816107d6565b610481838361081d565b61071282826106a3565b610505576000828152602081815260408083206001600160a01b03851684529091529020805460ff191660011790556107483390565b6001600160a01b0316816001600160a01b0316837f2f8788117e7eff1d82e926ec794901d17c78024a50270940304540a733656f0d60405160405180910390a45050565b600061069c836001600160a01b0384166108e2565b60006001600160e01b03198216637965db0b60e01b148061029e57506301ffc9a760e01b6001600160e01b031983161461029e565b6107e08133610931565b50565b600061069c83836108e2565b600061069c838361098a565b6108058282610708565b6000828152600160205260409020610481908261078c565b6108278282610a7d565b60008281526001602052604090206104819082610ae2565b600061029e825490565b600061069c8383610af7565b6000818152600183016020526040812054151561069c565b6000846001600160a01b031684848460405161088a929190611078565b60006040518083038185875af1925050503d80600081146108c7576040519150601f19603f3d011682016040523d82523d6000602084013e6108cc565b606091505b5050905080610455576040513d806000833e8082fd5b60008181526001830160205260408120546109295750815460018181018455600084815260208082209093018490558454848252828601909352604090209190915561029e565b50600061029e565b61093b82826106a3565b6105055761094881610b21565b610953836020610b33565b6040516020016109649291906110ac565b60408051601f198184030181529082905262461bcd60e51b82526104f291600401611121565b60008181526001830160205260408120548015610a735760006109ae600183611154565b85549091506000906109c290600190611154565b9050818114610a275760008660000182815481106109e2576109e2610f99565b9060005260206000200154905080876000018481548110610a0557610a05610f99565b6000918252602080832090910192909255918252600188019052604090208390555b8554869080610a3857610a38611167565b60019003818190600052602060002001600090559055856001016000868152602001908152602001600020600090556001935050505061029e565b600091505061029e565b610a8782826106a3565b15610505576000828152602081815260408083206001600160a01b0385168085529252808320805460ff1916905551339285917ff6391f5c32d9c69d2a47ea670b442974b53935d1edc7fd64eb21e047a839171b9190a45050565b600061069c836001600160a01b03841661098a565b6000826000018281548110610b0e57610b0e610f99565b9060005260206000200154905092915050565b606061029e6001600160a01b03831660145b60606000610b4283600261117d565b610b4d90600261119c565b67ffffffffffffffff811115610b6557610b65610d37565b6040519080825280601f01601f191660200182016040528015610b8f576020820181803683370190505b509050600360fc1b81600081518110610baa57610baa610f99565b60200101906001600160f81b031916908160001a905350600f60fb1b81600181518110610bd957610bd9610f99565b60200101906001600160f81b031916908160001a9053506000610bfd84600261117d565b610c0890600161119c565b90505b6001811115610c80576f181899199a1a9b1b9c1cb0b131b232b360811b85600f1660108110610c3c57610c3c610f99565b1a60f81b828281518110610c5257610c52610f99565b60200101906001600160f81b031916908160001a90535060049490941c93610c79816111af565b9050610c0b565b50831561069c5760405162461bcd60e51b815260206004820181905260248201527f537472696e67733a20686578206c656e67746820696e73756666696369656e7460448201526064016104f2565b80356001600160e01b031981168114610ce757600080fd5b919050565b600060208284031215610cfe57600080fd5b61069c82610ccf565b600060208284031215610d1957600080fd5b5035919050565b80356001600160a01b0381168114610ce757600080fd5b634e487b7160e01b600052604160045260246000fd5b80358015158114610ce757600080fd5b60008060008060808587031215610d7357600080fd5b610d7c85610d20565b935060208086013567ffffffffffffffff80821115610d9a57600080fd5b818801915088601f830112610dae57600080fd5b813581811115610dc057610dc0610d37565b8060051b604051601f19603f83011681018181108582111715610de557610de5610d37565b60405291825284820192508381018501918b831115610e0357600080fd5b938501935b82851015610e2857610e1985610ccf565b84529385019392850192610e08565b975050505060408701359350610e4391505060608601610d4d565b905092959194509250565b60008060408385031215610e6157600080fd5b82359150610e7160208401610d20565b90509250929050565b60008060408385031215610e8d57600080fd5b610e9683610d20565b9150610e7160208401610ccf565b6020808252825182820181905260009190848201906040850190845b81811015610edc57835183529284019291840191600101610ec0565b50909695505050505050565b600080600080600060808688031215610f0057600080fd5b610f0986610d20565b945060208601359350604086013567ffffffffffffffff80821115610f2d57600080fd5b818801915088601f830112610f4157600080fd5b813581811115610f5057600080fd5b896020828501011115610f6257600080fd5b96999598505060200195606001359392505050565b60008060408385031215610f8a57600080fd5b50508035926020909101359150565b634e487b7160e01b600052603260045260246000fd5b634e487b7160e01b600052601160045260246000fd5b600060018201610fd757610fd7610faf565b5060010190565b6020808252825182820181905260009190848201906040850190845b81811015610edc5783516001600160e01b03191683529284019291840191600101610ffa565b6000808585111561103057600080fd5b8386111561103d57600080fd5b5050820193919092039150565b6001600160e01b031981358181169160048510156105cb5760049490940360031b84901b1690921692915050565b8183823760009101908152919050565b60005b838110156110a357818101518382015260200161108b565b50506000910152565b7f416363657373436f6e74726f6c3a206163636f756e74200000000000000000008152600083516110e4816017850160208801611088565b7001034b99036b4b9b9b4b733903937b6329607d1b6017918401918201528351611115816028840160208801611088565b01602801949350505050565b6020815260008251806020840152611140816040850160208701611088565b601f01601f19169190910160400192915050565b8181038181111561029e5761029e610faf565b634e487b7160e01b600052603160045260246000fd5b600081600019048311821515161561119757611197610faf565b500290565b8082018082111561029e5761029e610faf565b6000816111be576111be610faf565b50600019019056fea264697066735822122064e58421fc7e1d78142d2cbfe0d4c13d9f69efc7497788c311a84380fa23e84f64736f6c63430008100033",
  "linkReferences": {},
  "deployedLinkReferences": {}
}