{
  "_format": "hh-sol-artifact-1",
  "contractName": "L2ScrollMessenger",
  "sourceName": "src/L2/L2ScrollMessenger.sol",
  "abi": [
    {
      "inputs": [
        {
          "internalType": "address",
          "name": "_counterpart",
          "type": "address"
        },
        {
          "internalType": "address",
          "name": "_messageQueue",
          "type": "address"
        }
      ],
      "stateMutability": "nonpayable",
      "type": "constructor"
    },
    {
      "inputs": [],
      "name": "ErrorZeroAddress",
      "type": "error"
    },
    {
      "anonymous": false,
      "inputs": [
        {
          "indexed": true,
          "internalType": "bytes32",
          "name": "messageHash",
          "type": "bytes32"
        }
      ],
      "name": "FailedRelayedMessage",
      "type": "event"
    },
    {
      "anonymous": false,
      "inputs": [
        {
          "indexed": false,
          "internalType": "uint8",
          "name": "version",
          "type": "uint8"
        }
      ],
      "name": "Initialized",
      "type": "event"
    },
    {
      "anonymous": false,
      "inputs": [
        {
          "indexed": true,
          "internalType": "address",
          "name": "previousOwner",
          "type": "address"
        },
        {
          "indexed": true,
          "internalType": "address",
          "name": "newOwner",
          "type": "address"
        }
      ],
      "name": "OwnershipTransferred",
      "type": "event"
    },
    {
      "anonymous": false,
      "inputs": [
        {
          "indexed": false,
          "internalType": "address",
          "name": "account",
          "type": "address"
        }
      ],
      "name": "Paused",
      "type": "event"
    },
    {
      "anonymous": false,
      "inputs": [
        {
          "indexed": true,
          "internalType": "bytes32",
          "name": "messageHash",
          "type": "bytes32"
        }
      ],
      "name": "RelayedMessage",
      "type": "event"
    },
    {
      "anonymous": false,
      "inputs": [
        {
          "indexed": true,
          "internalType": "address",
          "name": "sender",
          "type": "address"
        },
        {
          "indexed": true,
          "internalType": "address",
          "name": "target",
          "type": "address"
        },
        {
          "indexed": false,
          "internalType": "uint256",
          "name": "value",
          "type": "uint256"
        },
        {
          "indexed": false,
          "internalType": "uint256",
          "name": "messageNonce",
          "type": "uint256"
        },
        {
          "indexed": false,
          "internalType": "uint256",
          "name": "gasLimit",
          "type": "uint256"
        },
        {
          "indexed": false,
          "internalType": "bytes",
          "name": "message",
          "type": "bytes"
        }
      ],
      "name": "SentMessage",
      "type": "event"
    },
    {
      "anonymous": false,
      "inputs": [
        {
          "indexed": false,
          "internalType": "address",
          "name": "account",
          "type": "address"
        }
      ],
      "name": "Unpaused",
      "type": "event"
    },
    {
      "anonymous": false,
      "inputs": [
        {
          "indexed": false,
          "internalType": "address",
          "name": "_oldFeeVault",
          "type": "address"
        },
        {
          "indexed": false,
          "internalType": "address",
          "name": "_newFeeVault",
          "type": "address"
        }
      ],
      "name": "UpdateFeeVault",
      "type": "event"
    },
    {
      "anonymous": false,
      "inputs": [
        {
          "indexed": false,
          "internalType": "uint256",
          "name": "oldMaxFailedExecutionTimes",
          "type": "uint256"
        },
        {
          "indexed": false,
          "internalType": "uint256",
          "name": "newMaxFailedExecutionTimes",
          "type": "uint256"
        }
      ],
      "name": "UpdateMaxFailedExecutionTimes",
      "type": "event"
    },
    {
      "inputs": [],
      "name": "counterpart",
      "outputs": [
        {
          "internalType": "address",
          "name": "",
          "type": "address"
        }
      ],
      "stateMutability": "view",
      "type": "function"
    },
    {
      "inputs": [],
      "name": "feeVault",
      "outputs": [
        {
          "internalType": "address",
          "name": "",
          "type": "address"
        }
      ],
      "stateMutability": "view",
      "type": "function"
    },
    {
      "inputs": [
        {
          "internalType": "address",
          "name": "",
          "type": "address"
        }
      ],
      "name": "initialize",
      "outputs": [],
      "stateMutability": "nonpayable",
      "type": "function"
    },
    {
      "inputs": [
        {
          "internalType": "bytes32",
          "name": "",
          "type": "bytes32"
        }
      ],
      "name": "isL1MessageExecuted",
      "outputs": [
        {
          "internalType": "bool",
          "name": "",
          "type": "bool"
        }
      ],
      "stateMutability": "view",
      "type": "function"
    },
    {
      "inputs": [],
      "name": "messageQueue",
      "outputs": [
        {
          "internalType": "address",
          "name": "",
          "type": "address"
        }
      ],
      "stateMutability": "view",
      "type": "function"
    },
    {
      "inputs": [
        {
          "internalType": "bytes32",
          "name": "",
          "type": "bytes32"
        }
      ],
      "name": "messageSendTimestamp",
      "outputs": [
        {
          "internalType": "uint256",
          "name": "",
          "type": "uint256"
        }
      ],
      "stateMutability": "view",
      "type": "function"
    },
    {
      "inputs": [],
      "name": "owner",
      "outputs": [
        {
          "internalType": "address",
          "name": "",
          "type": "address"
        }
      ],
      "stateMutability": "view",
      "type": "function"
    },
    {
      "inputs": [],
      "name": "paused",
      "outputs": [
        {
          "internalType": "bool",
          "name": "",
          "type": "bool"
        }
      ],
      "stateMutability": "view",
      "type": "function"
    },
    {
      "inputs": [
        {
          "internalType": "address",
          "name": "_from",
          "type": "address"
        },
        {
          "internalType": "address",
          "name": "_to",
          "type": "address"
        },
        {
          "internalType": "uint256",
          "name": "_value",
          "type": "uint256"
        },
        {
          "internalType": "uint256",
          "name": "_nonce",
          "type": "uint256"
        },
        {
          "internalType": "bytes",
          "name": "_message",
          "type": "bytes"
        }
      ],
      "name": "relayMessage",
      "outputs": [],
      "stateMutability": "nonpayable",
      "type": "function"
    },
    {
      "inputs": [],
      "name": "renounceOwnership",
      "outputs": [],
      "stateMutability": "nonpayable",
      "type": "function"
    },
    {
      "inputs": [
        {
          "internalType": "address",
          "name": "_to",
          "type": "address"
        },
        {
          "internalType": "uint256",
          "name": "_value",
          "type": "uint256"
        },
        {
          "internalType": "bytes",
          "name": "_message",
          "type": "bytes"
        },
        {
          "internalType": "uint256",
          "name": "_gasLimit",
          "type": "uint256"
        },
        {
          "internalType": "address",
          "name": "",
          "type": "address"
        }
      ],
      "name": "sendMessage",
      "outputs": [],
      "stateMutability": "payable",
      "type": "function"
    },
    {
      "inputs": [
        {
          "internalType": "address",
          "name": "_to",
          "type": "address"
        },
        {
          "internalType": "uint256",
          "name": "_value",
          "type": "uint256"
        },
        {
          "internalType": "bytes",
          "name": "_message",
          "type": "bytes"
        },
        {
          "internalType": "uint256",
          "name": "_gasLimit",
          "type": "uint256"
        }
      ],
      "name": "sendMessage",
      "outputs": [],
      "stateMutability": "payable",
      "type": "function"
    },
    {
      "inputs": [
        {
          "internalType": "bool",
          "name": "_status",
          "type": "bool"
        }
      ],
      "name": "setPause",
      "outputs": [],
      "stateMutability": "nonpayable",
      "type": "function"
    },
    {
      "inputs": [
        {
          "internalType": "address",
          "name": "newOwner",
          "type": "address"
        }
      ],
      "name": "transferOwnership",
      "outputs": [],
      "stateMutability": "nonpayable",
      "type": "function"
    },
    {
      "inputs": [
        {
          "internalType": "address",
          "name": "_newFeeVault",
          "type": "address"
        }
      ],
      "name": "updateFeeVault",
      "outputs": [],
      "stateMutability": "nonpayable",
      "type": "function"
    },
    {
      "inputs": [],
      "name": "xDomainMessageSender",
      "outputs": [
        {
          "internalType": "address",
          "name": "",
          "type": "address"
        }
      ],
      "stateMutability": "view",
      "type": "function"
    },
    {
      "stateMutability": "payable",
      "type": "receive"
    }
  ],
  "bytecode": "0x60c06040523480156200001157600080fd5b50604051620015c5380380620015c5833981016040819052620000349162000186565b816001600160a01b0381166200005d5760405163a7f9319d60e01b815260040160405180910390fd5b6001600160a01b0390811660805281166200008b5760405163a7f9319d60e01b815260040160405180910390fd5b62000095620000a8565b6001600160a01b031660a05250620001be565b600054610100900460ff1615620001155760405162461bcd60e51b815260206004820152602760248201527f496e697469616c697a61626c653a20636f6e747261637420697320696e697469604482015266616c697a696e6760c81b606482015260840160405180910390fd5b60005460ff9081161462000167576000805460ff191660ff9081179091556040519081527f7f26b83ff96e1f2b6a682f133852f6798a09c465da95921460cefb38474024989060200160405180910390a15b565b80516001600160a01b03811681146200018157600080fd5b919050565b600080604083850312156200019a57600080fd5b620001a58362000169565b9150620001b56020840162000169565b90509250929050565b60805160a0516113c562000200600039600081816101820152818161081d015281816109320152610aa901526000818161024e015261049601526113c56000f3fe6080604052600436106100f75760003560e01c8063797594b01161008a578063bedb86fb11610059578063bedb86fb146102c1578063c4d66de8146102e1578063e70fc93b14610301578063f2fde38b1461033c57600080fd5b8063797594b01461023c5780638da5cb5b146102705780638ef1332e1461028e578063b2267a7b146102ae57600080fd5b80635c975abb116100c65780635c975abb146101dc5780635f7b1577146101f45780636e296e4514610207578063715018a61461022757600080fd5b806302345b501461010b5780632a6cccb2146101505780633b70c18a14610170578063478222c2146101bc57600080fd5b366101065761010461035c565b005b600080fd5b34801561011757600080fd5b5061013b610126366004610fb8565b60fc6020526000908152604090205460ff1681565b60405190151581526020015b60405180910390f35b34801561015c57600080fd5b5061010461016b366004610fed565b6103bd565b34801561017c57600080fd5b506101a47f000000000000000000000000000000000000000000000000000000000000000081565b6040516001600160a01b039091168152602001610147565b3480156101c857600080fd5b5060cb546101a4906001600160a01b031681565b3480156101e857600080fd5b5060655460ff1661013b565b61010461020236600461100f565b610427565b34801561021357600080fd5b5060c9546101a4906001600160a01b031681565b34801561023357600080fd5b5061010461047a565b34801561024857600080fd5b506101a47f000000000000000000000000000000000000000000000000000000000000000081565b34801561027c57600080fd5b506033546001600160a01b03166101a4565b34801561029a57600080fd5b506101046102a9366004611158565b61048c565b6101046102bc3660046111ca565b6105c5565b3480156102cd57600080fd5b506101046102dc366004611229565b6105df565b3480156102ed57600080fd5b506101046102fc366004610fed565b610600565b34801561030d57600080fd5b5061032e61031c366004610fb8565b60fb6020526000908152604090205481565b604051908152602001610147565b34801561034857600080fd5b50610104610357366004610fed565b610711565b6033546001600160a01b031633146103bb5760405162461bcd60e51b815260206004820181905260248201527f4f776e61626c653a2063616c6c6572206973206e6f7420746865206f776e657260448201526064015b60405180910390fd5b565b6103c561035c565b60cb80546001600160a01b038381166001600160a01b031983168117909355604080519190921680825260208201939093527f4aadc32827849f797733838c61302f7f56d2b6db28caa175eb3f7f8e5aba25f591015b60405180910390a15050565b61042f610787565b610472868686868080601f0160208091040260200160405190810160405280939291908181526020018383808284376000920191909152508892506107cd915050565b505050505050565b61048261035c565b6103bb6000610a05565b610494610787565b7f00000000000000000000000000000000000000000000000000000000000000006001600160a01b03167311110000000000000000000000000000000011101933016001600160a01b03161461052c5760405162461bcd60e51b815260206004820152601f60248201527f43616c6c6572206973206e6f74204c315363726f6c6c4d657373656e6765720060448201526064016103b2565b600061053b8686868686610a57565b8051602091820120600081815260fc90925260409091205490915060ff16156105b85760405162461bcd60e51b815260206004820152602960248201527f4d6573736167652077617320616c7265616479207375636365737366756c6c7960448201526808195e1958dd5d195960ba1b60648201526084016103b2565b6104728686868585610aa7565b6105cd610787565b6105d9848484846107cd565b50505050565b6105e761035c565b80156105f8576105f5610c95565b50565b6105f5610cef565b600054610100900460ff16158080156106205750600054600160ff909116105b8061063a5750303b15801561063a575060005460ff166001145b61069d5760405162461bcd60e51b815260206004820152602e60248201527f496e697469616c697a61626c653a20636f6e747261637420697320616c72656160448201526d191e481a5b9a5d1a585b1a5e995960921b60648201526084016103b2565b6000805460ff1916600117905580156106c0576000805461ff0019166101001790555b6106cb600080610d28565b801561070d576000805461ff0019169055604051600181527f7f26b83ff96e1f2b6a682f133852f6798a09c465da95921460cefb38474024989060200161041b565b5050565b61071961035c565b6001600160a01b03811661077e5760405162461bcd60e51b815260206004820152602660248201527f4f776e61626c653a206e6577206f776e657220697320746865207a65726f206160448201526564647265737360d01b60648201526084016103b2565b6105f581610a05565b60655460ff16156103bb5760405162461bcd60e51b815260206004820152601060248201526f14185d5cd8589b194e881c185d5cd95960821b60448201526064016103b2565b6107d5610daa565b8234146108195760405162461bcd60e51b81526020600482015260126024820152710dae6ce5cecc2d8eaca40dad2e6dac2e8c6d60731b60448201526064016103b2565b60007f00000000000000000000000000000000000000000000000000000000000000006001600160a01b03166326aad7b76040518163ffffffff1660e01b8152600401602060405180830381865afa158015610879573d6000803e3d6000fd5b505050506040513d601f19601f8201168201806040525081019061089d919061124b565b905060006108ae3387878588610a57565b8051602091820120600081815260fb9092526040909120549091501561090b5760405162461bcd60e51b81526020600482015260126024820152714475706c696361746564206d65737361676560701b60448201526064016103b2565b600081815260fb6020526040908190204290555163600a2e7760e01b8152600481018290527f00000000000000000000000000000000000000000000000000000000000000006001600160a01b03169063600a2e77906024016020604051808303816000875af1158015610983573d6000803e3d6000fd5b505050506040513d601f19601f820116820180604052508101906109a7919061124b565b506001600160a01b038616336001600160a01b03167f104371f3b442861a2a7b82a070afbbaab748bb13757bf47769e170e37809ec1e878587896040516109f194939291906112b4565b60405180910390a350506105d96001609755565b603380546001600160a01b038381166001600160a01b0319831681179093556040519116919082907f8be0079c531659141344cd1fd0a4f28419497f9722a3daafe3b4186f6b6457e090600090a35050565b60608585858585604051602401610a729594939291906112e3565b60408051601f198184030181529190526020810180516001600160e01b0316634778999760e11b179052905095945050505050565b7f00000000000000000000000000000000000000000000000000000000000000006001600160a01b0316846001600160a01b031603610b285760405162461bcd60e51b815260206004820152601c60248201527f466f7262696420746f2063616c6c206d6573736167652071756575650000000060448201526064016103b2565b610b3184610e0a565b60c9546001600160a01b0390811690861603610b885760405162461bcd60e51b815260206004820152601660248201527524b73b30b634b21036b2b9b9b0b3b29039b2b73232b960511b60448201526064016103b2565b60c980546001600160a01b0319166001600160a01b03878116919091179091556040516000918616908590610bbe908690611328565b60006040518083038185875af1925050503d8060008114610bfb576040519150601f19603f3d011682016040523d82523d6000602084013e610c00565b606091505b505060c980546001600160a01b031916600117905590508015610c6257600082815260fc6020526040808220805460ff191660011790555183917f4641df4a962071e12719d8c8c8e5ac7fc4d97b927346a3d7a335b1f7517e133c91a2610472565b60405182907f99d0e048484baa1b1540b1367cb128acd7ab2946d1ed91ec10e3c85e4bf51b8f90600090a2505050505050565b610c9d610787565b6065805460ff191660011790557f62e78cea01bee320cd4e420270b5ea74000d11b0c9f74754ebdbfc544b05a258610cd23390565b6040516001600160a01b03909116815260200160405180910390a1565b610cf7610e58565b6065805460ff191690557f5db9ee0a495bf2e6ff9c91a7834c1ba4fdd244a5e8aa4e537bd38aeae4b073aa33610cd2565b600054610100900460ff16610d4f5760405162461bcd60e51b81526004016103b290611344565b610d57610ea1565b610d5f610ed0565b610d67610eff565b60c980546001600160a01b03191660011790556001600160a01b0381161561070d5760cb80546001600160a01b0383166001600160a01b03199091161790555050565b600260975403610dfc5760405162461bcd60e51b815260206004820152601f60248201527f5265656e7472616e637947756172643a207265656e7472616e742063616c6c0060448201526064016103b2565b6002609755565b6001609755565b306001600160a01b038216036105f55760405162461bcd60e51b81526020600482015260136024820152722337b93134b2103a379031b0b6361039b2b63360691b60448201526064016103b2565b60655460ff166103bb5760405162461bcd60e51b815260206004820152601460248201527314185d5cd8589b194e881b9bdd081c185d5cd95960621b60448201526064016103b2565b600054610100900460ff16610ec85760405162461bcd60e51b81526004016103b290611344565b6103bb610f2e565b600054610100900460ff16610ef75760405162461bcd60e51b81526004016103b290611344565b6103bb610f5e565b600054610100900460ff16610f265760405162461bcd60e51b81526004016103b290611344565b6103bb610f91565b600054610100900460ff16610f555760405162461bcd60e51b81526004016103b290611344565b6103bb33610a05565b600054610100900460ff16610f855760405162461bcd60e51b81526004016103b290611344565b6065805460ff19169055565b600054610100900460ff16610e035760405162461bcd60e51b81526004016103b290611344565b600060208284031215610fca57600080fd5b5035919050565b80356001600160a01b0381168114610fe857600080fd5b919050565b600060208284031215610fff57600080fd5b61100882610fd1565b9392505050565b60008060008060008060a0878903121561102857600080fd5b61103187610fd1565b955060208701359450604087013567ffffffffffffffff8082111561105557600080fd5b818901915089601f83011261106957600080fd5b81358181111561107857600080fd5b8a602082850101111561108a57600080fd5b602083019650809550505050606087013591506110a960808801610fd1565b90509295509295509295565b634e487b7160e01b600052604160045260246000fd5b600082601f8301126110dc57600080fd5b813567ffffffffffffffff808211156110f7576110f76110b5565b604051601f8301601f19908116603f0116810190828211818310171561111f5761111f6110b5565b8160405283815286602085880101111561113857600080fd5b836020870160208301376000602085830101528094505050505092915050565b600080600080600060a0868803121561117057600080fd5b61117986610fd1565b945061118760208701610fd1565b93506040860135925060608601359150608086013567ffffffffffffffff8111156111b157600080fd5b6111bd888289016110cb565b9150509295509295909350565b600080600080608085870312156111e057600080fd5b6111e985610fd1565b935060208501359250604085013567ffffffffffffffff81111561120c57600080fd5b611218878288016110cb565b949793965093946060013593505050565b60006020828403121561123b57600080fd5b8135801515811461100857600080fd5b60006020828403121561125d57600080fd5b5051919050565b60005b8381101561127f578181015183820152602001611267565b50506000910152565b600081518084526112a0816020860160208601611264565b601f01601f19169290920160200192915050565b8481528360208201528260408201526080606082015260006112d96080830184611288565b9695505050505050565b6001600160a01b03868116825285166020820152604081018490526060810183905260a06080820181905260009061131d90830184611288565b979650505050505050565b6000825161133a818460208701611264565b9190910192915050565b6020808252602b908201527f496e697469616c697a61626c653a20636f6e7472616374206973206e6f74206960408201526a6e697469616c697a696e6760a81b60608201526080019056fea2646970667358221220bbc60df5ef5b8b773182b582a255ce4e5de91c0955f43d5ee4f65f40616be54864736f6c63430008100033",
  "linkReferences": {},
  "deployedLinkReferences": {}
}