{
  "_format": "hh-sol-artifact-1",
  "contractName": "L2GasPriceOracle",
  "sourceName": "src/L1/rollup/L2GasPriceOracle.sol",
  "abi": [
    {
      "inputs": [],
      "stateMutability": "nonpayable",
      "type": "constructor"
    },
    {
      "anonymous": false,
      "inputs": [
        {
          "indexed": false,
          "internalType": "uint8",
          "name": "version",
          "type": "uint8"
        }
      ],
      "name": "Initialized",
      "type": "event"
    },
    {
      "anonymous": false,
      "inputs": [
        {
          "indexed": false,
          "internalType": "uint256",
          "name": "txGas",
          "type": "uint256"
        },
        {
          "indexed": false,
          "internalType": "uint256",
          "name": "txGasContractCreation",
          "type": "uint256"
        },
        {
          "indexed": false,
          "internalType": "uint256",
          "name": "zeroGas",
          "type": "uint256"
        },
        {
          "indexed": false,
          "internalType": "uint256",
          "name": "nonZeroGas",
          "type": "uint256"
        }
      ],
      "name": "IntrinsicParamsUpdated",
      "type": "event"
    },
    {
      "anonymous": false,
      "inputs": [
        {
          "indexed": false,
          "internalType": "uint256",
          "name": "oldL2BaseFee",
          "type": "uint256"
        },
        {
          "indexed": false,
          "internalType": "uint256",
          "name": "newL2BaseFee",
          "type": "uint256"
        }
      ],
      "name": "L2BaseFeeUpdated",
      "type": "event"
    },
    {
      "anonymous": false,
      "inputs": [
        {
          "indexed": true,
          "internalType": "address",
          "name": "previousOwner",
          "type": "address"
        },
        {
          "indexed": true,
          "internalType": "address",
          "name": "newOwner",
          "type": "address"
        }
      ],
      "name": "OwnershipTransferred",
      "type": "event"
    },
    {
      "anonymous": false,
      "inputs": [
        {
          "indexed": false,
          "internalType": "address",
          "name": "_oldWhitelist",
          "type": "address"
        },
        {
          "indexed": false,
          "internalType": "address",
          "name": "_newWhitelist",
          "type": "address"
        }
      ],
      "name": "UpdateWhitelist",
      "type": "event"
    },
    {
      "inputs": [
        {
          "internalType": "bytes",
          "name": "_message",
          "type": "bytes"
        }
      ],
      "name": "calculateIntrinsicGasFee",
      "outputs": [
        {
          "internalType": "uint256",
          "name": "",
          "type": "uint256"
        }
      ],
      "stateMutability": "view",
      "type": "function"
    },
    {
      "inputs": [
        {
          "internalType": "uint256",
          "name": "_gasLimit",
          "type": "uint256"
        }
      ],
      "name": "estimateCrossDomainMessageFee",
      "outputs": [
        {
          "internalType": "uint256",
          "name": "",
          "type": "uint256"
        }
      ],
      "stateMutability": "view",
      "type": "function"
    },
    {
      "inputs": [
        {
          "internalType": "uint64",
          "name": "_txGas",
          "type": "uint64"
        },
        {
          "internalType": "uint64",
          "name": "_txGasContractCreation",
          "type": "uint64"
        },
        {
          "internalType": "uint64",
          "name": "_zeroGas",
          "type": "uint64"
        },
        {
          "internalType": "uint64",
          "name": "_nonZeroGas",
          "type": "uint64"
        }
      ],
      "name": "initialize",
      "outputs": [],
      "stateMutability": "nonpayable",
      "type": "function"
    },
    {
      "inputs": [],
      "name": "intrinsicParams",
      "outputs": [
        {
          "internalType": "uint64",
          "name": "txGas",
          "type": "uint64"
        },
        {
          "internalType": "uint64",
          "name": "txGasContractCreation",
          "type": "uint64"
        },
        {
          "internalType": "uint64",
          "name": "zeroGas",
          "type": "uint64"
        },
        {
          "internalType": "uint64",
          "name": "nonZeroGas",
          "type": "uint64"
        }
      ],
      "stateMutability": "view",
      "type": "function"
    },
    {
      "inputs": [],
      "name": "l2BaseFee",
      "outputs": [
        {
          "internalType": "uint256",
          "name": "",
          "type": "uint256"
        }
      ],
      "stateMutability": "view",
      "type": "function"
    },
    {
      "inputs": [],
      "name": "owner",
      "outputs": [
        {
          "internalType": "address",
          "name": "",
          "type": "address"
        }
      ],
      "stateMutability": "view",
      "type": "function"
    },
    {
      "inputs": [],
      "name": "renounceOwnership",
      "outputs": [],
      "stateMutability": "nonpayable",
      "type": "function"
    },
    {
      "inputs": [
        {
          "internalType": "uint64",
          "name": "_txGas",
          "type": "uint64"
        },
        {
          "internalType": "uint64",
          "name": "_txGasContractCreation",
          "type": "uint64"
        },
        {
          "internalType": "uint64",
          "name": "_zeroGas",
          "type": "uint64"
        },
        {
          "internalType": "uint64",
          "name": "_nonZeroGas",
          "type": "uint64"
        }
      ],
      "name": "setIntrinsicParams",
      "outputs": [],
      "stateMutability": "nonpayable",
      "type": "function"
    },
    {
      "inputs": [
        {
          "internalType": "uint256",
          "name": "_newL2BaseFee",
          "type": "uint256"
        }
      ],
      "name": "setL2BaseFee",
      "outputs": [],
      "stateMutability": "nonpayable",
      "type": "function"
    },
    {
      "inputs": [
        {
          "internalType": "address",
          "name": "newOwner",
          "type": "address"
        }
      ],
      "name": "transferOwnership",
      "outputs": [],
      "stateMutability": "nonpayable",
      "type": "function"
    },
    {
      "inputs": [
        {
          "internalType": "address",
          "name": "_newWhitelist",
          "type": "address"
        }
      ],
      "name": "updateWhitelist",
      "outputs": [],
      "stateMutability": "nonpayable",
      "type": "function"
    },
    {
      "inputs": [],
      "name": "whitelist",
      "outputs": [
        {
          "internalType": "address",
          "name": "",
          "type": "address"
        }
      ],
      "stateMutability": "view",
      "type": "function"
    }
  ],
  "bytecode": "0x608060405234801561001057600080fd5b5061001961001e565b6100dd565b600054610100900460ff161561008a5760405162461bcd60e51b815260206004820152602760248201527f496e697469616c697a61626c653a20636f6e747261637420697320696e697469604482015266616c697a696e6760c81b606482015260840160405180910390fd5b60005460ff908116146100db576000805460ff191660ff9081179091556040519081527f7f26b83ff96e1f2b6a682f133852f6798a09c465da95921460cefb38474024989060200160405180910390a15b565b610bf9806100ec6000396000f3fe608060405234801561001057600080fd5b50600436106100b45760003560e01c8063accf9a6011610071578063accf9a601461018d578063d7704bae146101a0578063d99bc80e146101c1578063e172d3a1146101d4578063e3176bd5146101e7578063f2fde38b146101f057600080fd5b80633366ff72146100b95780633d0f963e146100ce57806364431a27146100e1578063715018a61461014d5780638da5cb5b1461015557806393e59dc11461017a575b600080fd5b6100cc6100c7366004610968565b610203565b005b6100cc6100dc3660046109bc565b610329565b6067546101149067ffffffffffffffff80821691600160401b8104821691600160801b8204811691600160c01b90041684565b6040805167ffffffffffffffff958616815293851660208501529184169183019190915290911660608201526080015b60405180910390f35b6100cc610393565b6033546001600160a01b03165b6040516001600160a01b039091168152602001610144565b606654610162906001600160a01b031681565b6100cc61019b366004610968565b6103a7565b6101b36101ae3660046109ec565b6103c1565b604051908152602001610144565b6100cc6101cf3660046109ec565b6103d7565b6101b36101e2366004610a1b565b6104d4565b6101b360655481565b6100cc6101fe3660046109bc565b61059c565b600054610100900460ff16158080156102235750600054600160ff909116105b8061023d5750303b15801561023d575060005460ff166001145b6102a55760405162461bcd60e51b815260206004820152602e60248201527f496e697469616c697a61626c653a20636f6e747261637420697320616c72656160448201526d191e481a5b9a5d1a585b1a5e995960921b60648201526084015b60405180910390fd5b6000805460ff1916600117905580156102c8576000805461ff0019166101001790555b6102d0610615565b6102dc85858585610644565b8015610322576000805461ff0019169055604051600181527f7f26b83ff96e1f2b6a682f133852f6798a09c465da95921460cefb38474024989060200160405180910390a15b5050505050565b61033161086f565b606680546001600160a01b038381166001600160a01b031983168117909355604080519190921680825260208201939093527f22d1c35fe072d2e42c3c8f9bd4a0d34aa84a0101d020a62517b33fdb3174e5f791015b60405180910390a15050565b61039b61086f565b6103a560006108c9565b565b6103af61086f565b6103bb84848484610644565b50505050565b6000606554826103d19190610ae2565b92915050565b6066546001600160a01b031663efc78401336040516001600160e01b031960e084901b1681526001600160a01b039091166004820152602401602060405180830381865afa15801561042d573d6000803e3d6000fd5b505050506040513d601f19601f820116820180604052508101906104519190610b01565b6104965760405162461bcd60e51b81526020600482015260166024820152752737ba103bb434ba32b634b9ba32b21039b2b73232b960511b604482015260640161029c565b606580549082905560408051828152602081018490527f230bc8094d790356a078817d156f95cc1068e9ff6485359f6a986170f567b63b9101610387565b606754815160009167ffffffffffffffff80821692600160801b8304821692600160c01b900490911690839015610593576000805b87518110156105585787818151811061052457610524610b23565b01602001516001600160f81b03191615610546578161054281610b39565b9250505b8061055081610b39565b915050610509565b50838188516105679190610b52565b6105719190610ae2565b61057b8483610ae2565b6105859190610b65565b61058f9083610b65565b9150505b95945050505050565b6105a461086f565b6001600160a01b0381166106095760405162461bcd60e51b815260206004820152602660248201527f4f776e61626c653a206e6577206f776e657220697320746865207a65726f206160448201526564647265737360d01b606482015260840161029c565b610612816108c9565b50565b600054610100900460ff1661063c5760405162461bcd60e51b815260040161029c90610b78565b6103a561091b565b60008467ffffffffffffffff161161068e5760405162461bcd60e51b815260206004820152600d60248201526c7478476173206973207a65726f60981b604482015260640161029c565b60008267ffffffffffffffff16116106da5760405162461bcd60e51b815260206004820152600f60248201526e7a65726f476173206973207a65726f60881b604482015260640161029c565b60008167ffffffffffffffff16116107295760405162461bcd60e51b81526020600482015260126024820152716e6f6e5a65726f476173206973207a65726f60701b604482015260640161029c565b8367ffffffffffffffff168367ffffffffffffffff161161079d5760405162461bcd60e51b815260206004820152602860248201527f7478476173436f6e74726163744372656174696f6e206973206c657373207468604482015267616e20747847617360c01b606482015260840161029c565b604080516080808201835267ffffffffffffffff87811680845287821660208086018290528884168688018190529388166060968701819052606780546fffffffffffffffffffffffffffffffff19168517600160401b8502176fffffffffffffffffffffffffffffffff16600160801b87026001600160c01b031617600160c01b830217905587519384529083019190915294810191909152918201929092527f92d8a3003262a4b8ea0d2818ec49eb874ebb871df18bdaf071a0c577fdbd6854910160405180910390a150505050565b6033546001600160a01b031633146103a55760405162461bcd60e51b815260206004820181905260248201527f4f776e61626c653a2063616c6c6572206973206e6f7420746865206f776e6572604482015260640161029c565b603380546001600160a01b038381166001600160a01b0319831681179093556040519116919082907f8be0079c531659141344cd1fd0a4f28419497f9722a3daafe3b4186f6b6457e090600090a35050565b600054610100900460ff166109425760405162461bcd60e51b815260040161029c90610b78565b6103a5336108c9565b803567ffffffffffffffff8116811461096357600080fd5b919050565b6000806000806080858703121561097e57600080fd5b6109878561094b565b93506109956020860161094b565b92506109a36040860161094b565b91506109b16060860161094b565b905092959194509250565b6000602082840312156109ce57600080fd5b81356001600160a01b03811681146109e557600080fd5b9392505050565b6000602082840312156109fe57600080fd5b5035919050565b634e487b7160e01b600052604160045260246000fd5b600060208284031215610a2d57600080fd5b813567ffffffffffffffff80821115610a4557600080fd5b818401915084601f830112610a5957600080fd5b813581811115610a6b57610a6b610a05565b604051601f8201601f19908116603f01168101908382118183101715610a9357610a93610a05565b81604052828152876020848701011115610aac57600080fd5b826020860160208301376000928101602001929092525095945050505050565b634e487b7160e01b600052601160045260246000fd5b6000816000190483118215151615610afc57610afc610acc565b500290565b600060208284031215610b1357600080fd5b815180151581146109e557600080fd5b634e487b7160e01b600052603260045260246000fd5b600060018201610b4b57610b4b610acc565b5060010190565b818103818111156103d1576103d1610acc565b808201808211156103d1576103d1610acc565b6020808252602b908201527f496e697469616c697a61626c653a20636f6e7472616374206973206e6f74206960408201526a6e697469616c697a696e6760a81b60608201526080019056fea26469706673582212202b7e60afd2ee52acd7576668eb19be977d896deb747d99cef8b5374e1fe1e00364736f6c63430008100033",
  "linkReferences": {},
  "deployedLinkReferences": {}
}