{"abi":[{"type":"constructor","inputs":[{"name":"_counterpart","type":"address","internalType":"address"},{"name":"_messenger","type":"address","internalType":"address"}],"stateMutability":"nonpayable"},{"type":"function","name":"batchDepositERC1155","inputs":[{"name":"_token","type":"address","internalType":"address"},{"name":"_tokenIds","type":"uint256[]","internalType":"uint256[]"},{"name":"_amounts","type":"uint256[]","internalType":"uint256[]"},{"name":"_gasLimit","type":"uint256","internalType":"uint256"}],"outputs":[],"stateMutability":"payable"},{"type":"function","name":"batchDepositERC1155","inputs":[{"name":"_token","type":"address","internalType":"address"},{"name":"_to","type":"address","internalType":"address"},{"name":"_tokenIds","type":"uint256[]","internalType":"uint256[]"},{"name":"_amounts","type":"uint256[]","internalType":"uint256[]"},{"name":"_gasLimit","type":"uint256","internalType":"uint256"}],"outputs":[],"stateMutability":"payable"},{"type":"function","name":"counterpart","inputs":[],"outputs":[{"name":"","type":"address","internalType":"address"}],"stateMutability":"view"},{"type":"function","name":"depositERC1155","inputs":[{"name":"_token","type":"address","internalType":"address"},{"name":"_to","type":"address","internalType":"address"},{"name":"_tokenId","type":"uint256","internalType":"uint256"},{"name":"_amount","type":"uint256","internalType":"uint256"},{"name":"_gasLimit","type":"uint256","internalType":"uint256"}],"outputs":[],"stateMutability":"payable"},{"type":"function","name":"depositERC1155","inputs":[{"name":"_token","type":"address","internalType":"address"},{"name":"_tokenId","type":"uint256","internalType":"uint256"},{"name":"_amount","type":"uint256","internalType":"uint256"},{"name":"_gasLimit","type":"uint256","internalType":"uint256"}],"outputs":[],"stateMutability":"payable"},{"type":"function","name":"finalizeBatchWithdrawERC1155","inputs":[{"name":"_l1Token","type":"address","internalType":"address"},{"name":"_l2Token","type":"address","internalType":"address"},{"name":"_from","type":"address","internalType":"address"},{"name":"_to","type":"address","internalType":"address"},{"name":"_tokenIds","type":"uint256[]","internalType":"uint256[]"},{"name":"_amounts","type":"uint256[]","internalType":"uint256[]"}],"outputs":[],"stateMutability":"nonpayable"},{"type":"function","name":"finalizeWithdrawERC1155","inputs":[{"name":"_l1Token","type":"address","internalType":"address"},{"name":"_l2Token","type":"address","internalType":"address"},{"name":"_from","type":"address","internalType":"address"},{"name":"_to","type":"address","internalType":"address"},{"name":"_tokenId","type":"uint256","internalType":"uint256"},{"name":"_amount","type":"uint256","internalType":"uint256"}],"outputs":[],"stateMutability":"nonpayable"},{"type":"function","name":"initialize","inputs":[{"name":"_counterpart","type":"address","internalType":"address"},{"name":"_messenger","type":"address","internalType":"address"}],"outputs":[],"stateMutability":"nonpayable"},{"type":"function","name":"messenger","inputs":[],"outputs":[{"name":"","type":"address","internalType":"address"}],"stateMutability":"view"},{"type":"function","name":"onDropMessage","inputs":[{"name":"_message","type":"bytes","internalType":"bytes"}],"outputs":[],"stateMutability":"payable"},{"type":"function","name":"onERC1155BatchReceived","inputs":[{"name":"","type":"address","internalType":"address"},{"name":"","type":"address","internalType":"address"},{"name":"","type":"uint256[]","internalType":"uint256[]"},{"name":"","type":"uint256[]","internalType":"uint256[]"},{"name":"","type":"bytes","internalType":"bytes"}],"outputs":[{"name":"","type":"bytes4","internalType":"bytes4"}],"stateMutability":"nonpayable"},{"type":"function","name":"onERC1155Received","inputs":[{"name":"","type":"address","internalType":"address"},{"name":"","type":"address","internalType":"address"},{"name":"","type":"uint256","internalType":"uint256"},{"name":"","type":"uint256","internalType":"uint256"},{"name":"","type":"bytes","internalType":"bytes"}],"outputs":[{"name":"","type":"bytes4","internalType":"bytes4"}],"stateMutability":"nonpayable"},{"type":"function","name":"owner","inputs":[],"outputs":[{"name":"","type":"address","internalType":"address"}],"stateMutability":"view"},{"type":"function","name":"renounceOwnership","inputs":[],"outputs":[],"stateMutability":"nonpayable"},{"type":"function","name":"router","inputs":[],"outputs":[{"name":"","type":"address","internalType":"address"}],"stateMutability":"view"},{"type":"function","name":"supportsInterface","inputs":[{"name":"interfaceId","type":"bytes4","internalType":"bytes4"}],"outputs":[{"name":"","type":"bool","internalType":"bool"}],"stateMutability":"view"},{"type":"function","name":"tokenMapping","inputs":[{"name":"","type":"address","internalType":"address"}],"outputs":[{"name":"","type":"address","internalType":"address"}],"stateMutability":"view"},{"type":"function","name":"transferOwnership","inputs":[{"name":"newOwner","type":"address","internalType":"address"}],"outputs":[],"stateMutability":"nonpayable"},{"type":"function","name":"updateTokenMapping","inputs":[{"name":"_l1Token","type":"address","internalType":"address"},{"name":"_l2Token","type":"address","internalType":"address"}],"outputs":[],"stateMutability":"nonpayable"},{"type":"event","name":"BatchDepositERC1155","inputs":[{"name":"_l1Token","type":"address","indexed":true,"internalType":"address"},{"name":"_l2Token","type":"address","indexed":true,"internalType":"address"},{"name":"_from","type":"address","indexed":true,"internalType":"address"},{"name":"_to","type":"address","indexed":false,"internalType":"address"},{"name":"_tokenIds","type":"uint256[]","indexed":false,"internalType":"uint256[]"},{"name":"_amounts","type":"uint256[]","indexed":false,"internalType":"uint256[]"}],"anonymous":false},{"type":"event","name":"BatchRefundERC1155","inputs":[{"name":"token","type":"address","indexed":true,"internalType":"address"},{"name":"recipient","type":"address","indexed":true,"internalType":"address"},{"name":"tokenIds","type":"uint256[]","indexed":false,"internalType":"uint256[]"},{"name":"amounts","type":"uint256[]","indexed":false,"internalType":"uint256[]"}],"anonymous":false},{"type":"event","name":"DepositERC1155","inputs":[{"name":"_l1Token","type":"address","indexed":true,"internalType":"address"},{"name":"_l2Token","type":"address","indexed":true,"internalType":"address"},{"name":"_from","type":"address","indexed":true,"internalType":"address"},{"name":"_to","type":"address","indexed":false,"internalType":"address"},{"name":"_tokenId","type":"uint256","indexed":false,"internalType":"uint256"},{"name":"_amount","type":"uint256","indexed":false,"internalType":"uint256"}],"anonymous":false},{"type":"event","name":"FinalizeBatchWithdrawERC1155","inputs":[{"name":"_l1Token","type":"address","indexed":true,"internalType":"address"},{"name":"_l2Token","type":"address","indexed":true,"internalType":"address"},{"name":"_from","type":"address","indexed":true,"internalType":"address"},{"name":"_to","type":"address","indexed":false,"internalType":"address"},{"name":"_tokenIds","type":"uint256[]","indexed":false,"internalType":"uint256[]"},{"name":"_amounts","type":"uint256[]","indexed":false,"internalType":"uint256[]"}],"anonymous":false},{"type":"event","name":"FinalizeWithdrawERC1155","inputs":[{"name":"_l1Token","type":"address","indexed":true,"internalType":"address"},{"name":"_l2Token","type":"address","indexed":true,"internalType":"address"},{"name":"_from","type":"address","indexed":true,"internalType":"address"},{"name":"_to","type":"address","indexed":false,"internalType":"address"},{"name":"_tokenId","type":"uint256","indexed":false,"internalType":"uint256"},{"name":"_amount","type":"uint256","indexed":false,"internalType":"uint256"}],"anonymous":false},{"type":"event","name":"Initialized","inputs":[{"name":"version","type":"uint8","indexed":false,"internalType":"uint8"}],"anonymous":false},{"type":"event","name":"OwnershipTransferred","inputs":[{"name":"previousOwner","type":"address","indexed":true,"internalType":"address"},{"name":"newOwner","type":"address","indexed":true,"internalType":"address"}],"anonymous":false},{"type":"event","name":"RefundERC1155","inputs":[{"name":"token","type":"address","indexed":true,"internalType":"address"},{"name":"recipient","type":"address","indexed":true,"internalType":"address"},{"name":"tokenId","type":"uint256","indexed":false,"internalType":"uint256"},{"name":"amount","type":"uint256","indexed":false,"internalType":"uint256"}],"anonymous":false},{"type":"event","name":"UpdateTokenMapping","inputs":[{"name":"l1Token","type":"address","indexed":true,"internalType":"address"},{"name":"oldL2Token","type":"address","indexed":true,"internalType":"address"},{"name":"newL2Token","type":"address","indexed":true,"internalType":"address"}],"anonymous":false},{"type":"error","name":"ErrorCallerIsNotCounterpartGateway","inputs":[]},{"type":"error","name":"ErrorCallerIsNotMessenger","inputs":[]},{"type":"error","name":"ErrorNotInDropMessageContext","inputs":[]},{"type":"error","name":"ErrorZeroAddress","inputs":[]}],"bytecode":{"object":"0x60e06040523480156200001157600080fd5b50604051620024a2380380620024a283398101604081905262000034916200017d565b816000826001600160a01b03831615806200005657506001600160a01b038116155b15620000755760405163a7f9319d60e01b815260040160405180910390fd5b6001600160a01b0392831660805290821660a0521660c052620000976200009f565b5050620001b5565b600054610100900460ff16156200010c5760405162461bcd60e51b815260206004820152602760248201527f496e697469616c697a61626c653a20636f6e747261637420697320696e697469604482015266616c697a696e6760c81b606482015260840160405180910390fd5b60005460ff908116146200015e576000805460ff191660ff9081179091556040519081527f7f26b83ff96e1f2b6a682f133852f6798a09c465da95921460cefb38474024989060200160405180910390a15b565b80516001600160a01b03811681146200017857600080fd5b919050565b600080604083850312156200019157600080fd5b6200019c8362000160565b9150620001ac6020840162000160565b90509250929050565b60805160a05160c051612269620002396000396000818161017501528181610418015281816104600152818161091f0152818161096701528181610c3401528181610c7c0152818161122c015261156e01526000610369015260008181610229015281816109f201528181610d070152818161125b015261159d01526122696000f3fe6080604052600436106101145760003560e01c8063a901cf8a116100a0578063f2fde38b11610064578063f2fde38b14610337578063f887ea4014610357578063f92748d31461038b578063f998fe9d146103ab578063fac752eb146103be57600080fd5b8063a901cf8a14610269578063ba27f50b1461027c578063bc197c81146102b3578063c99dac9b146102f8578063f23a6e611461030b57600080fd5b80635ee8e74c116100e75780635ee8e74c146101cf578063715018a6146101e2578063730608b3146101f7578063797594b0146102175780638da5cb5b1461024b57600080fd5b806301ffc9a71461011957806314298c511461014e5780633cb747bf14610163578063485cc955146101af575b600080fd5b34801561012557600080fd5b50610139610134366004611719565b6103de565b60405190151581526020015b60405180910390f35b61016161015c36600461174a565b610415565b005b34801561016f57600080fd5b506101977f000000000000000000000000000000000000000000000000000000000000000081565b6040516001600160a01b039091168152602001610145565b3480156101bb57600080fd5b506101616101ca3660046117d1565b6107ca565b6101616101dd366004611856565b6108f1565b3480156101ee57600080fd5b50610161610908565b34801561020357600080fd5b506101616102123660046118e1565b61091c565b34801561022357600080fd5b506101977f000000000000000000000000000000000000000000000000000000000000000081565b34801561025757600080fd5b5060fb546001600160a01b0316610197565b61016161027736600461194f565b610b8c565b34801561028857600080fd5b506101976102973660046119a0565b61015f602052600090815260409020546001600160a01b031681565b3480156102bf57600080fd5b506102df6102ce366004611af4565b63bc197c8160e01b95945050505050565b6040516001600160e01b03199091168152602001610145565b610161610306366004611ba2565b610ba0565b34801561031757600080fd5b506102df610326366004611c40565b63f23a6e6160e01b95945050505050565b34801561034357600080fd5b506101616103523660046119a0565b610bb8565b34801561036357600080fd5b506101977f000000000000000000000000000000000000000000000000000000000000000081565b34801561039757600080fd5b506101616103a6366004611ca9565b610c31565b6101616103b9366004611d63565b610eb5565b3480156103ca57600080fd5b506101616103d93660046117d1565b610ec8565b60006001600160e01b03198216630271189760e51b148061040f57506301ffc9a760e01b6001600160e01b03198316145b92915050565b337f00000000000000000000000000000000000000000000000000000000000000006001600160a01b03161461045e576040516385bd908d60e01b815260040160405180910390fd5b7f00000000000000000000000000000000000000000000000000000000000000006001600160a01b0316636e296e456040518163ffffffff1660e01b8152600401602060405180830381865afa1580156104bc573d6000803e3d6000fd5b505050506040513d601f19601f820116820180604052508101906104e09190611d9e565b6001600160a01b0316736f297c61b5c92ef107ffd30cd56affe5a273e8416001600160a01b03161461052557604051630d08b8ff60e01b815260040160405180910390fd5b61052d610f5b565b34156105745760405162461bcd60e51b81526020600482015260116024820152706e6f6e7a65726f206d73672e76616c756560781b60448201526064015b60405180910390fd5b6323b2663160e11b61058a600460008486611dbb565b61059391611de5565b6001600160e01b031916036106815760008080806105b48560048189611dbb565b8101906105c191906118e1565b95509550509450509350836001600160a01b031663f242432a308585856040518563ffffffff1660e01b81526004016105fd9493929190611e15565b600060405180830381600087803b15801561061757600080fd5b505af115801561062b573d6000803e3d6000fd5b505060408051858152602081018590526001600160a01b038088169450881692507fee285671d9ac3b0e0ed40037cb6db081095aa6cd68363f3e56989dde39e0df0991015b60405180910390a3505050506107bc565b63eaa72ad960e01b610697600460008486611dbb565b6106a091611de5565b6001600160e01b031916036107815760008080806106c18560048189611dbb565b8101906106ce9190611e4d565b95509550509450509350836001600160a01b0316632eb2c2d6308585856040518563ffffffff1660e01b815260040161070a9493929190611f35565b600060405180830381600087803b15801561072457600080fd5b505af1158015610738573d6000803e3d6000fd5b50505050826001600160a01b0316846001600160a01b03167fe198c04cbd4522ed7825c7e6ab1ae33fdaf6ab3565c4a3fb4c0cf24338f306e68484604051610670929190611f90565b60405162461bcd60e51b815260206004820152601060248201526f34b73b30b634b21039b2b632b1ba37b960811b604482015260640161056b565b6107c66001609755565b5050565b600054610100900460ff16158080156107ea5750600054600160ff909116105b806108045750303b158015610804575060005460ff166001145b6108675760405162461bcd60e51b815260206004820152602e60248201527f496e697469616c697a61626c653a20636f6e747261637420697320616c72656160448201526d191e481a5b9a5d1a585b1a5e995960921b606482015260840161056b565b6000805460ff19166001179055801561088a576000805461ff0019166101001790555b610892610fbb565b61089a610fbb565b6108a683600084610fe2565b80156108ec576000805461ff0019169055604051600181527f7f26b83ff96e1f2b6a682f133852f6798a09c465da95921460cefb38474024989060200160405180910390a15b505050565b61090086338787878787610ff2565b505050505050565b610910611328565b61091a6000611382565b565b337f00000000000000000000000000000000000000000000000000000000000000006001600160a01b031614610965576040516385bd908d60e01b815260040160405180910390fd5b7f00000000000000000000000000000000000000000000000000000000000000006001600160a01b0316636e296e456040518163ffffffff1660e01b8152600401602060405180830381865afa1580156109c3573d6000803e3d6000fd5b505050506040513d601f19601f820116820180604052508101906109e79190611d9e565b6001600160a01b03167f00000000000000000000000000000000000000000000000000000000000000006001600160a01b031614610a38576040516307b140f360e51b815260040160405180910390fd5b610a40610f5b565b6001600160a01b038516610a665760405162461bcd60e51b815260040161056b90611fbe565b6001600160a01b03808716600090815261015f6020526040902054868216911614610ac75760405162461bcd60e51b81526020600482015260116024820152700d86440e8ded6cadc40dad2e6dac2e8c6d607b1b604482015260640161056b565b604051637921219560e11b81526001600160a01b0387169063f242432a90610af9903090879087908790600401611e15565b600060405180830381600087803b158015610b1357600080fd5b505af1158015610b27573d6000803e3d6000fd5b5050604080516001600160a01b0387811682526020820187905291810185905281881693508882169250908916907ffcc2841e9e72e6d610944e1b668912e92d5df94003055dbe06d615ba8d9efad49060600160405180910390a46109006001609755565b610b9985858585856113d4565b5050505050565b610baf87878787878787610ff2565b50505050505050565b610bc0611328565b6001600160a01b038116610c255760405162461bcd60e51b815260206004820152602660248201527f4f776e61626c653a206e6577206f776e657220697320746865207a65726f206160448201526564647265737360d01b606482015260840161056b565b610c2e81611382565b50565b337f00000000000000000000000000000000000000000000000000000000000000006001600160a01b031614610c7a576040516385bd908d60e01b815260040160405180910390fd5b7f00000000000000000000000000000000000000000000000000000000000000006001600160a01b0316636e296e456040518163ffffffff1660e01b8152600401602060405180830381865afa158015610cd8573d6000803e3d6000fd5b505050506040513d601f19601f82011682018060405250810190610cfc9190611d9e565b6001600160a01b03167f00000000000000000000000000000000000000000000000000000000000000006001600160a01b031614610d4d576040516307b140f360e51b815260040160405180910390fd5b610d55610f5b565b6001600160a01b038716610d7b5760405162461bcd60e51b815260040161056b90611fbe565b6001600160a01b03808916600090815261015f6020526040902054888216911614610ddc5760405162461bcd60e51b81526020600482015260116024820152700d86440e8ded6cadc40dad2e6dac2e8c6d607b1b604482015260640161056b565b604051631759616b60e11b81526001600160a01b03891690632eb2c2d690610e1290309089908990899089908990600401612027565b600060405180830381600087803b158015610e2c57600080fd5b505af1158015610e40573d6000803e3d6000fd5b50505050856001600160a01b0316876001600160a01b0316896001600160a01b03167f45294b6ad6ad2408cc3ee9a37203aa1b0480616667a97b157c52ac9294cbc2588888888888604051610e99959493929190612086565b60405180910390a4610eab6001609755565b5050505050505050565b610ec284338585856113d4565b50505050565b610ed0611328565b6001600160a01b038116610ef65760405162461bcd60e51b815260040161056b90611fbe565b6001600160a01b03808316600081815261015f602052604080822080548686166001600160a01b0319821681179092559151919094169392849290917f2069a26c43c36ffaabe0c2d19bf65e55dd03abecdc449f5cc9663491e97f709d9190a4505050565b600260975403610fad5760405162461bcd60e51b815260206004820152601f60248201527f5265656e7472616e637947756172643a207265656e7472616e742063616c6c00604482015260640161056b565b6002609755565b6001609755565b600054610100900460ff1661091a5760405162461bcd60e51b815260040161056b906120ca565b610fea611664565b6108ec611693565b610ffa610f5b565b8361103d5760405162461bcd60e51b81526020600482015260136024820152721b9bc81d1bdad95b881d1bc819195c1bdcda5d606a1b604482015260640161056b565b83821461107e5760405162461bcd60e51b815260206004820152600f60248201526e0d8cadccee8d040dad2e6dac2e8c6d608b1b604482015260640161056b565b60005b828110156110f957600084848381811061109d5761109d612115565b90506020020135116110e75760405162461bcd60e51b815260206004820152601360248201527219195c1bdcda5d081e995c9bc8185b5bdd5b9d606a1b604482015260640161056b565b806110f18161212b565b915050611081565b506001600160a01b03808816600090815261015f6020526040902054168061115f5760405162461bcd60e51b815260206004820152601960248201527837379031b7b93932b9b837b73234b733903619103a37b5b2b760391b604482015260640161056b565b604051631759616b60e11b815233906001600160a01b038a1690632eb2c2d69061119790849030908c908c908c908c90600401612027565b600060405180830381600087803b1580156111b157600080fd5b505af11580156111c5573d6000803e3d6000fd5b5050505060008983838b8b8b8b8b6040516024016111ea989796959493929190612152565b60408051601f198184030181529181526020820180516001600160e01b031663eaa72ad960e01b17905251635f7b157760e01b81529091506001600160a01b037f00000000000000000000000000000000000000000000000000000000000000001690635f7b157790349061128c907f00000000000000000000000000000000000000000000000000000000000000009060009087908b908a906004016121b1565b6000604051808303818588803b1580156112a557600080fd5b505af11580156112b9573d6000803e3d6000fd5b5050505050816001600160a01b0316836001600160a01b03168b6001600160a01b03167f743f65db61a23bc629915d35e22af5cf13478a8b3dbd154d3e5db0149509756d8c8c8c8c8c604051611313959493929190612086565b60405180910390a4505050610baf6001609755565b60fb546001600160a01b0316331461091a5760405162461bcd60e51b815260206004820181905260248201527f4f776e61626c653a2063616c6c6572206973206e6f7420746865206f776e6572604482015260640161056b565b60fb80546001600160a01b038381166001600160a01b0319831681179093556040519116919082907f8be0079c531659141344cd1fd0a4f28419497f9722a3daafe3b4186f6b6457e090600090a35050565b6113dc610f5b565b600082116114225760405162461bcd60e51b815260206004820152601360248201527219195c1bdcda5d081e995c9bc8185b5bdd5b9d606a1b604482015260640161056b565b6001600160a01b03808616600090815261015f602052604090205416806114875760405162461bcd60e51b815260206004820152601960248201527837379031b7b93932b9b837b73234b733903619103a37b5b2b760391b604482015260640161056b565b604051637921219560e11b815233906001600160a01b0388169063f242432a906114bb90849030908a908a90600401611e15565b600060405180830381600087803b1580156114d557600080fd5b505af11580156114e9573d6000803e3d6000fd5b50506040516001600160a01b03808b166024830152808616604483015280851660648301528916608482015260a4810188905260c481018790526000925060e401905060408051601f198184030181529181526020820180516001600160e01b03166323b2663160e11b17905251635f7b157760e01b81529091506001600160a01b037f00000000000000000000000000000000000000000000000000000000000000001690635f7b15779034906115ce907f00000000000000000000000000000000000000000000000000000000000000009060009087908b908a906004016121b1565b6000604051808303818588803b1580156115e757600080fd5b505af11580156115fb573d6000803e3d6000fd5b5050604080516001600160a01b038c81168252602082018c90529181018a905281871694508782169350908c1691507f7f6552b688fa94306ca59e44dd4454ff550542445a3f1cb39b8c768be6f5c08a9060600160405180910390a4505050610b996001609755565b600054610100900460ff1661168b5760405162461bcd60e51b815260040161056b906120ca565b61091a6116c2565b600054610100900460ff166116ba5760405162461bcd60e51b815260040161056b906120ca565b61091a6116e9565b600054610100900460ff16610fb45760405162461bcd60e51b815260040161056b906120ca565b600054610100900460ff166117105760405162461bcd60e51b815260040161056b906120ca565b61091a33611382565b60006020828403121561172b57600080fd5b81356001600160e01b03198116811461174357600080fd5b9392505050565b6000806020838503121561175d57600080fd5b823567ffffffffffffffff8082111561177557600080fd5b818501915085601f83011261178957600080fd5b81358181111561179857600080fd5b8660208285010111156117aa57600080fd5b60209290920196919550909350505050565b6001600160a01b0381168114610c2e57600080fd5b600080604083850312156117e457600080fd5b82356117ef816117bc565b915060208301356117ff816117bc565b809150509250929050565b60008083601f84011261181c57600080fd5b50813567ffffffffffffffff81111561183457600080fd5b6020830191508360208260051b850101111561184f57600080fd5b9250929050565b6000806000806000806080878903121561186f57600080fd5b863561187a816117bc565b9550602087013567ffffffffffffffff8082111561189757600080fd5b6118a38a838b0161180a565b909750955060408901359150808211156118bc57600080fd5b506118c989828a0161180a565b979a9699509497949695606090950135949350505050565b60008060008060008060c087890312156118fa57600080fd5b8635611905816117bc565b95506020870135611915816117bc565b94506040870135611925816117bc565b93506060870135611935816117bc565b9598949750929560808101359460a0909101359350915050565b600080600080600060a0868803121561196757600080fd5b8535611972816117bc565b94506020860135611982816117bc565b94979496505050506040830135926060810135926080909101359150565b6000602082840312156119b257600080fd5b8135611743816117bc565b634e487b7160e01b600052604160045260246000fd5b604051601f8201601f1916810167ffffffffffffffff811182821017156119fc576119fc6119bd565b604052919050565b600082601f830112611a1557600080fd5b8135602067ffffffffffffffff821115611a3157611a316119bd565b8160051b611a408282016119d3565b9283528481018201928281019087851115611a5a57600080fd5b83870192505b84831015611a7957823582529183019190830190611a60565b979650505050505050565b600082601f830112611a9557600080fd5b813567ffffffffffffffff811115611aaf57611aaf6119bd565b611ac2601f8201601f19166020016119d3565b818152846020838601011115611ad757600080fd5b816020850160208301376000918101602001919091529392505050565b600080600080600060a08688031215611b0c57600080fd5b8535611b17816117bc565b94506020860135611b27816117bc565b9350604086013567ffffffffffffffff80821115611b4457600080fd5b611b5089838a01611a04565b94506060880135915080821115611b6657600080fd5b611b7289838a01611a04565b93506080880135915080821115611b8857600080fd5b50611b9588828901611a84565b9150509295509295909350565b600080600080600080600060a0888a031215611bbd57600080fd5b8735611bc8816117bc565b96506020880135611bd8816117bc565b9550604088013567ffffffffffffffff80821115611bf557600080fd5b611c018b838c0161180a565b909750955060608a0135915080821115611c1a57600080fd5b50611c278a828b0161180a565b989b979a50959894979596608090950135949350505050565b600080600080600060a08688031215611c5857600080fd5b8535611c63816117bc565b94506020860135611c73816117bc565b93506040860135925060608601359150608086013567ffffffffffffffff811115611c9d57600080fd5b611b9588828901611a84565b60008060008060008060008060c0898b031215611cc557600080fd5b8835611cd0816117bc565b97506020890135611ce0816117bc565b96506040890135611cf0816117bc565b95506060890135611d00816117bc565b9450608089013567ffffffffffffffff80821115611d1d57600080fd5b611d298c838d0161180a565b909650945060a08b0135915080821115611d4257600080fd5b50611d4f8b828c0161180a565b999c989b5096995094979396929594505050565b60008060008060808587031215611d7957600080fd5b8435611d84816117bc565b966020860135965060408601359560600135945092505050565b600060208284031215611db057600080fd5b8151611743816117bc565b60008085851115611dcb57600080fd5b83861115611dd857600080fd5b5050820193919092039150565b6001600160e01b03198135818116916004851015611e0d5780818660040360031b1b83161692505b505092915050565b6001600160a01b0394851681529290931660208301526040820152606081019190915260a06080820181905260009082015260c00190565b60008060008060008060c08789031215611e6657600080fd5b8635611e71816117bc565b95506020870135611e81816117bc565b94506040870135611e91816117bc565b93506060870135611ea1816117bc565b9250608087013567ffffffffffffffff80821115611ebe57600080fd5b611eca8a838b01611a04565b935060a0890135915080821115611ee057600080fd5b50611eed89828a01611a04565b9150509295509295509295565b600081518084526020808501945080840160005b83811015611f2a57815187529582019590820190600101611f0e565b509495945050505050565b6001600160a01b0385811682528416602082015260a060408201819052600090611f6190830185611efa565b8281036060840152611f738185611efa565b838103608090940193909352505060008152602001949350505050565b604081526000611fa36040830185611efa565b8281036020840152611fb58185611efa565b95945050505050565b60208082526019908201527f746f6b656e20616464726573732063616e6e6f74206265203000000000000000604082015260600190565b81835260006001600160fb1b0383111561200e57600080fd5b8260051b80836020870137939093016020019392505050565b6001600160a01b0387811682528616602082015260a0604082018190526000906120549083018688611ff5565b8281036060840152612067818587611ff5565b8381036080909401939093525050600081526020019695505050505050565b6001600160a01b03861681526060602082018190526000906120ab9083018688611ff5565b82810360408401526120be818587611ff5565b98975050505050505050565b6020808252602b908201527f496e697469616c697a61626c653a20636f6e7472616374206973206e6f74206960408201526a6e697469616c697a696e6760a81b606082015260800190565b634e487b7160e01b600052603260045260246000fd5b60006001820161214b57634e487b7160e01b600052601160045260246000fd5b5060010190565b6001600160a01b038981168252888116602083015287811660408301528616606082015260c06080820181905260009061218f9083018688611ff5565b82810360a08401526121a2818587611ff5565b9b9a5050505050505050505050565b60018060a01b038616815260006020868184015260a0604084015285518060a085015260005b818110156121f35787810183015185820160c0015282016121d7565b50600060c0828601015260c0601f19601f8301168501019250505083606083015261222960808301846001600160a01b03169052565b969550505050505056fea26469706673582212207b4c3a4fbb609fde8a855dd152d3d55f90773260cebbc115932757019bdb732b64736f6c63430008100033","linkReferences":{}},"methodIdentifiers":{"batchDepositERC1155(address,address,uint256[],uint256[],uint256)":"c99dac9b","batchDepositERC1155(address,uint256[],uint256[],uint256)":"5ee8e74c","counterpart()":"797594b0","depositERC1155(address,address,uint256,uint256,uint256)":"a901cf8a","depositERC1155(address,uint256,uint256,uint256)":"f998fe9d","finalizeBatchWithdrawERC1155(address,address,address,address,uint256[],uint256[])":"f92748d3","finalizeWithdrawERC1155(address,address,address,address,uint256,uint256)":"730608b3","initialize(address,address)":"485cc955","messenger()":"3cb747bf","onDropMessage(bytes)":"14298c51","onERC1155BatchReceived(address,address,uint256[],uint256[],bytes)":"bc197c81","onERC1155Received(address,address,uint256,uint256,bytes)":"f23a6e61","owner()":"8da5cb5b","renounceOwnership()":"715018a6","router()":"f887ea40","supportsInterface(bytes4)":"01ffc9a7","tokenMapping(address)":"ba27f50b","transferOwnership(address)":"f2fde38b","updateTokenMapping(address,address)":"fac752eb"},"id":131}