{"abi":[{"type":"constructor","inputs":[{"name":"_counterpart","type":"address","internalType":"address"},{"name":"_router","type":"address","internalType":"address"},{"name":"_messenger","type":"address","internalType":"address"}],"stateMutability":"nonpayable"},{"type":"function","name":"counterpart","inputs":[],"outputs":[{"name":"","type":"address","internalType":"address"}],"stateMutability":"view"},{"type":"function","name":"depositETH","inputs":[{"name":"_amount","type":"uint256","internalType":"uint256"},{"name":"_gasLimit","type":"uint256","internalType":"uint256"}],"outputs":[],"stateMutability":"payable"},{"type":"function","name":"depositETH","inputs":[{"name":"_to","type":"address","internalType":"address"},{"name":"_amount","type":"uint256","internalType":"uint256"},{"name":"_gasLimit","type":"uint256","internalType":"uint256"}],"outputs":[],"stateMutability":"payable"},{"type":"function","name":"depositETHAndCall","inputs":[{"name":"_to","type":"address","internalType":"address"},{"name":"_amount","type":"uint256","internalType":"uint256"},{"name":"_data","type":"bytes","internalType":"bytes"},{"name":"_gasLimit","type":"uint256","internalType":"uint256"}],"outputs":[],"stateMutability":"payable"},{"type":"function","name":"finalizeWithdrawETH","inputs":[{"name":"_from","type":"address","internalType":"address"},{"name":"_to","type":"address","internalType":"address"},{"name":"_amount","type":"uint256","internalType":"uint256"},{"name":"_data","type":"bytes","internalType":"bytes"}],"outputs":[],"stateMutability":"payable"},{"type":"function","name":"initialize","inputs":[{"name":"_counterpart","type":"address","internalType":"address"},{"name":"_router","type":"address","internalType":"address"},{"name":"_messenger","type":"address","internalType":"address"}],"outputs":[],"stateMutability":"nonpayable"},{"type":"function","name":"messenger","inputs":[],"outputs":[{"name":"","type":"address","internalType":"address"}],"stateMutability":"view"},{"type":"function","name":"onDropMessage","inputs":[{"name":"_message","type":"bytes","internalType":"bytes"}],"outputs":[],"stateMutability":"payable"},{"type":"function","name":"owner","inputs":[],"outputs":[{"name":"","type":"address","internalType":"address"}],"stateMutability":"view"},{"type":"function","name":"renounceOwnership","inputs":[],"outputs":[],"stateMutability":"nonpayable"},{"type":"function","name":"router","inputs":[],"outputs":[{"name":"","type":"address","internalType":"address"}],"stateMutability":"view"},{"type":"function","name":"transferOwnership","inputs":[{"name":"newOwner","type":"address","internalType":"address"}],"outputs":[],"stateMutability":"nonpayable"},{"type":"event","name":"DepositETH","inputs":[{"name":"from","type":"address","indexed":true,"internalType":"address"},{"name":"to","type":"address","indexed":true,"internalType":"address"},{"name":"amount","type":"uint256","indexed":false,"internalType":"uint256"},{"name":"data","type":"bytes","indexed":false,"internalType":"bytes"}],"anonymous":false},{"type":"event","name":"FinalizeWithdrawETH","inputs":[{"name":"from","type":"address","indexed":true,"internalType":"address"},{"name":"to","type":"address","indexed":true,"internalType":"address"},{"name":"amount","type":"uint256","indexed":false,"internalType":"uint256"},{"name":"data","type":"bytes","indexed":false,"internalType":"bytes"}],"anonymous":false},{"type":"event","name":"Initialized","inputs":[{"name":"version","type":"uint8","indexed":false,"internalType":"uint8"}],"anonymous":false},{"type":"event","name":"OwnershipTransferred","inputs":[{"name":"previousOwner","type":"address","indexed":true,"internalType":"address"},{"name":"newOwner","type":"address","indexed":true,"internalType":"address"}],"anonymous":false},{"type":"event","name":"RefundETH","inputs":[{"name":"recipient","type":"address","indexed":true,"internalType":"address"},{"name":"amount","type":"uint256","indexed":false,"internalType":"uint256"}],"anonymous":false},{"type":"error","name":"ErrorCallerIsNotCounterpartGateway","inputs":[]},{"type":"error","name":"ErrorCallerIsNotMessenger","inputs":[]},{"type":"error","name":"ErrorNotInDropMessageContext","inputs":[]},{"type":"error","name":"ErrorZeroAddress","inputs":[]}],"bytecode":{"object":"0x60e06040523480156200001157600080fd5b50604051620016773803806200167783398101604081905262000034916200019e565b8282826001600160a01b03831615806200005557506001600160a01b038116155b15620000745760405163a7f9319d60e01b815260040160405180910390fd5b6001600160a01b0392831660805290821660a052811660c0528216620000ad5760405163a7f9319d60e01b815260040160405180910390fd5b620000b7620000c0565b505050620001e8565b600054610100900460ff16156200012d5760405162461bcd60e51b815260206004820152602760248201527f496e697469616c697a61626c653a20636f6e747261637420697320696e697469604482015266616c697a696e6760c81b606482015260840160405180910390fd5b60005460ff908116146200017f576000805460ff191660ff9081179091556040519081527f7f26b83ff96e1f2b6a682f133852f6798a09c465da95921460cefb38474024989060200160405180910390a15b565b80516001600160a01b03811681146200019957600080fd5b919050565b600080600060608486031215620001b457600080fd5b620001bf8462000181565b9250620001cf6020850162000181565b9150620001df6040850162000181565b90509250925092565b60805160a05160c0516114286200024f6000396000818160d30152818161023b0152818161028301528181610528015281816105700152610c610152600081816102160152610bbe015260008181610138015281816105fb0152610c9001526114286000f3fe6080604052600436106100a75760003560e01c80639f8420b3116100645780639f8420b31461018b578063aac476f81461019e578063c0c53b8b146101b1578063ce0b63ce146101d1578063f2fde38b146101e4578063f887ea401461020457600080fd5b806314298c51146100ac5780633cb747bf146100c1578063715018a614610111578063797594b0146101265780638da5cb5b1461015a5780638eaac8a314610178575b600080fd5b6100bf6100ba366004610e58565b610238565b005b3480156100cd57600080fd5b506100f57f000000000000000000000000000000000000000000000000000000000000000081565b6040516001600160a01b03909116815260200160405180910390f35b34801561011d57600080fd5b506100bf610511565b34801561013257600080fd5b506100f57f000000000000000000000000000000000000000000000000000000000000000081565b34801561016657600080fd5b506065546001600160a01b03166100f5565b6100bf610186366004610eaf565b610525565b6100bf610199366004610f22565b6107c6565b6100bf6101ac366004610f44565b6107ff565b3480156101bd57600080fd5b506100bf6101cc366004610fa8565b610842565b6100bf6101df366004610ff3565b610959565b3480156101f057600080fd5b506100bf6101ff366004611028565b61096a565b34801561021057600080fd5b506100f57f000000000000000000000000000000000000000000000000000000000000000081565b337f00000000000000000000000000000000000000000000000000000000000000006001600160a01b031614610281576040516385bd908d60e01b815260040160405180910390fd5b7f00000000000000000000000000000000000000000000000000000000000000006001600160a01b0316636e296e456040518163ffffffff1660e01b8152600401602060405180830381865afa1580156102df573d6000803e3d6000fd5b505050506040513d601f19601f82011682018060405250810190610303919061104c565b6001600160a01b0316736f297c61b5c92ef107ffd30cd56affe5a273e8416001600160a01b03161461034857604051630d08b8ff60e01b815260040160405180910390fd5b6103506109e3565b630465d0e960e31b610366600460008486611069565b61036f91611093565b6001600160e01b031916146103be5760405162461bcd60e51b815260206004820152601060248201526f34b73b30b634b21039b2b632b1ba37b960811b60448201526064015b60405180910390fd5b6000806103ce8360048187611069565b8101906103db9190611132565b5092505091503481146104255760405162461bcd60e51b81526020600482015260126024820152710dae6ce5cecc2d8eaca40dad2e6dac2e8c6d60731b60448201526064016103b5565b6000826001600160a01b03168260405160006040518083038185875af1925050503d8060008114610472576040519150601f19603f3d011682016040523d82523d6000602084013e610477565b606091505b50509050806104be5760405162461bcd60e51b8152602060048201526013602482015272115512081d1c985b9cd9995c8819985a5b1959606a1b60448201526064016103b5565b826001600160a01b03167f289360176646a5f99cb4b6300628426dca46b723f40db3c04449d6ed1745a0e7836040516104f991815260200190565b60405180910390a250505061050d60018055565b5050565b610519610a42565b6105236000610a9c565b565b337f00000000000000000000000000000000000000000000000000000000000000006001600160a01b03161461056e576040516385bd908d60e01b815260040160405180910390fd5b7f00000000000000000000000000000000000000000000000000000000000000006001600160a01b0316636e296e456040518163ffffffff1660e01b8152600401602060405180830381865afa1580156105cc573d6000803e3d6000fd5b505050506040513d601f19601f820116820180604052508101906105f0919061104c565b6001600160a01b03167f00000000000000000000000000000000000000000000000000000000000000006001600160a01b031614610641576040516307b140f360e51b815260040160405180910390fd5b6106496109e3565b82341461068d5760405162461bcd60e51b81526020600482015260126024820152710dae6ce5cecc2d8eaca40dad2e6dac2e8c6d60731b60448201526064016103b5565b6000846001600160a01b03168460405160006040518083038185875af1925050503d80600081146106da576040519150601f19603f3d011682016040523d82523d6000602084013e6106df565b606091505b50509050806107265760405162461bcd60e51b8152602060048201526013602482015272115512081d1c985b9cd9995c8819985a5b1959606a1b60448201526064016103b5565b6107668584848080601f016020809104026020016040519081016040528093929190818152602001838380828437600092019190915250610aee92505050565b846001600160a01b0316866001600160a01b03167f96db5d1cee1dd2760826bb56fabd9c9f6e978083e0a8b88559c741a29e9746e78686866040516107ad939291906111e1565b60405180910390a3506107bf60018055565b5050505050565b61050d338360005b6040519080825280601f01601f1916602001820160405280156107f8576020820181803683370190505b5084610b70565b6107bf858585858080601f016020809104026020016040519081016040528093929190818152602001838380828437600092019190915250879250610b70915050565b600054610100900460ff16158080156108625750600054600160ff909116105b8061087c5750303b15801561087c575060005460ff166001145b6108df5760405162461bcd60e51b815260206004820152602e60248201527f496e697469616c697a61626c653a20636f6e747261637420697320616c72656160448201526d191e481a5b9a5d1a585b1a5e995960921b60648201526084016103b5565b6000805460ff191660011790558015610902576000805461ff0019166101001790555b61090d848484610d4a565b8015610953576000805461ff0019169055604051600181527f7f26b83ff96e1f2b6a682f133852f6798a09c465da95921460cefb38474024989060200160405180910390a15b50505050565b610965838360006107ce565b505050565b610972610a42565b6001600160a01b0381166109d75760405162461bcd60e51b815260206004820152602660248201527f4f776e61626c653a206e6577206f776e657220697320746865207a65726f206160448201526564647265737360d01b60648201526084016103b5565b6109e081610a9c565b50565b600260015403610a355760405162461bcd60e51b815260206004820152601f60248201527f5265656e7472616e637947756172643a207265656e7472616e742063616c6c0060448201526064016103b5565b6002600155565b60018055565b6065546001600160a01b031633146105235760405162461bcd60e51b815260206004820181905260248201527f4f776e61626c653a2063616c6c6572206973206e6f7420746865206f776e657260448201526064016103b5565b606580546001600160a01b038381166001600160a01b0319831681179093556040519116919082907f8be0079c531659141344cd1fd0a4f28419497f9722a3daafe3b4186f6b6457e090600090a35050565b60008151118015610b0957506000826001600160a01b03163b115b1561050d5760405163109b953160e01b81526001600160a01b0383169063109b953190610b3a908490600401611267565b600060405180830381600087803b158015610b5457600080fd5b505af1158015610b68573d6000803e3d6000fd5b505050505050565b610b786109e3565b60008311610bbb5760405162461bcd60e51b815260206004820152601060248201526f0c8cae0dee6d2e840f4cae4de40cae8d60831b60448201526064016103b5565b337f00000000000000000000000000000000000000000000000000000000000000006001600160a01b0316819003610c065782806020019051810190610c01919061127a565b935090505b600081868686604051602401610c1f9493929190611307565b60408051601f198184030181529181526020820180516001600160e01b0316630465d0e960e31b17905251635f7b157760e01b81529091506001600160a01b037f00000000000000000000000000000000000000000000000000000000000000001690635f7b1577903490610cc0907f0000000000000000000000000000000000000000000000000000000000000000908a9087908a908a90600401611344565b6000604051808303818588803b158015610cd957600080fd5b505af1158015610ced573d6000803e3d6000fd5b5050505050856001600160a01b0316826001600160a01b03167f6670de856ec8bf5cb2b7e957c5dc24759716056f79d97ea5e7c939ca0ba5a6758787604051610d37929190611386565b60405180910390a3505061095360018055565b610d52610d5a565b610965610d89565b600054610100900460ff16610d815760405162461bcd60e51b81526004016103b5906113a7565b610523610db8565b600054610100900460ff16610db05760405162461bcd60e51b81526004016103b5906113a7565b610523610ddf565b600054610100900460ff16610a3c5760405162461bcd60e51b81526004016103b5906113a7565b600054610100900460ff16610e065760405162461bcd60e51b81526004016103b5906113a7565b61052333610a9c565b60008083601f840112610e2157600080fd5b50813567ffffffffffffffff811115610e3957600080fd5b602083019150836020828501011115610e5157600080fd5b9250929050565b60008060208385031215610e6b57600080fd5b823567ffffffffffffffff811115610e8257600080fd5b610e8e85828601610e0f565b90969095509350505050565b6001600160a01b03811681146109e057600080fd5b600080600080600060808688031215610ec757600080fd5b8535610ed281610e9a565b94506020860135610ee281610e9a565b935060408601359250606086013567ffffffffffffffff811115610f0557600080fd5b610f1188828901610e0f565b969995985093965092949392505050565b60008060408385031215610f3557600080fd5b50508035926020909101359150565b600080600080600060808688031215610f5c57600080fd5b8535610f6781610e9a565b945060208601359350604086013567ffffffffffffffff811115610f8a57600080fd5b610f9688828901610e0f565b96999598509660600135949350505050565b600080600060608486031215610fbd57600080fd5b8335610fc881610e9a565b92506020840135610fd881610e9a565b91506040840135610fe881610e9a565b809150509250925092565b60008060006060848603121561100857600080fd5b833561101381610e9a565b95602085013595506040909401359392505050565b60006020828403121561103a57600080fd5b813561104581610e9a565b9392505050565b60006020828403121561105e57600080fd5b815161104581610e9a565b6000808585111561107957600080fd5b8386111561108657600080fd5b5050820193919092039150565b6001600160e01b031981358181169160048510156110bb5780818660040360031b1b83161692505b505092915050565b634e487b7160e01b600052604160045260246000fd5b604051601f8201601f1916810167ffffffffffffffff81118282101715611102576111026110c3565b604052919050565b600067ffffffffffffffff821115611124576111246110c3565b50601f01601f191660200190565b6000806000806080858703121561114857600080fd5b843561115381610e9a565b9350602085013561116381610e9a565b925060408501359150606085013567ffffffffffffffff81111561118657600080fd5b8501601f8101871361119757600080fd5b80356111aa6111a58261110a565b6110d9565b8181528860208385010111156111bf57600080fd5b8160208401602083013760006020838301015280935050505092959194509250565b83815260406020820152816040820152818360608301376000818301606090810191909152601f909201601f1916010192915050565b60005b8381101561123257818101518382015260200161121a565b50506000910152565b60008151808452611253816020860160208601611217565b601f01601f19169290920160200192915050565b602081526000611045602083018461123b565b6000806040838503121561128d57600080fd5b825161129881610e9a565b602084015190925067ffffffffffffffff8111156112b557600080fd5b8301601f810185136112c657600080fd5b80516112d46111a58261110a565b8181528660208385010111156112e957600080fd5b6112fa826020830160208601611217565b8093505050509250929050565b6001600160a01b038581168252841660208201526040810183905260806060820181905260009061133a9083018461123b565b9695505050505050565b600060018060a01b03808816835286602084015260a0604084015261136c60a084018761123b565b606084019590955292909216608090910152509392505050565b82815260406020820152600061139f604083018461123b565b949350505050565b6020808252602b908201527f496e697469616c697a61626c653a20636f6e7472616374206973206e6f74206960408201526a6e697469616c697a696e6760a81b60608201526080019056fea264697066735822122068291dae7f4de5c4e1535fb674661e56172aa763053473814f7720a325078feb64736f6c63430008100033","linkReferences":{}},"methodIdentifiers":{"counterpart()":"797594b0","depositETH(address,uint256,uint256)":"ce0b63ce","depositETH(uint256,uint256)":"9f8420b3","depositETHAndCall(address,uint256,bytes,uint256)":"aac476f8","finalizeWithdrawETH(address,address,uint256,bytes)":"8eaac8a3","initialize(address,address,address)":"c0c53b8b","messenger()":"3cb747bf","onDropMessage(bytes)":"14298c51","owner()":"8da5cb5b","renounceOwnership()":"715018a6","router()":"f887ea40","transferOwnership(address)":"f2fde38b"},"id":134}