{"abi":[{"type":"constructor","inputs":[],"stateMutability":"nonpayable"},{"type":"function","name":"ERC20Gateway","inputs":[{"name":"","type":"address","internalType":"address"}],"outputs":[{"name":"","type":"address","internalType":"address"}],"stateMutability":"view"},{"type":"function","name":"defaultERC20Gateway","inputs":[],"outputs":[{"name":"","type":"address","internalType":"address"}],"stateMutability":"view"},{"type":"function","name":"depositERC20","inputs":[{"name":"_token","type":"address","internalType":"address"},{"name":"_amount","type":"uint256","internalType":"uint256"},{"name":"_gasLimit","type":"uint256","internalType":"uint256"}],"outputs":[],"stateMutability":"payable"},{"type":"function","name":"depositERC20","inputs":[{"name":"_token","type":"address","internalType":"address"},{"name":"_to","type":"address","internalType":"address"},{"name":"_amount","type":"uint256","internalType":"uint256"},{"name":"_gasLimit","type":"uint256","internalType":"uint256"}],"outputs":[],"stateMutability":"payable"},{"type":"function","name":"depositERC20AndCall","inputs":[{"name":"_token","type":"address","internalType":"address"},{"name":"_to","type":"address","internalType":"address"},{"name":"_amount","type":"uint256","internalType":"uint256"},{"name":"_data","type":"bytes","internalType":"bytes"},{"name":"_gasLimit","type":"uint256","internalType":"uint256"}],"outputs":[],"stateMutability":"payable"},{"type":"function","name":"depositETH","inputs":[{"name":"_amount","type":"uint256","internalType":"uint256"},{"name":"_gasLimit","type":"uint256","internalType":"uint256"}],"outputs":[],"stateMutability":"payable"},{"type":"function","name":"depositETH","inputs":[{"name":"_to","type":"address","internalType":"address"},{"name":"_amount","type":"uint256","internalType":"uint256"},{"name":"_gasLimit","type":"uint256","internalType":"uint256"}],"outputs":[],"stateMutability":"payable"},{"type":"function","name":"depositETHAndCall","inputs":[{"name":"_to","type":"address","internalType":"address"},{"name":"_amount","type":"uint256","internalType":"uint256"},{"name":"_data","type":"bytes","internalType":"bytes"},{"name":"_gasLimit","type":"uint256","internalType":"uint256"}],"outputs":[],"stateMutability":"payable"},{"type":"function","name":"ethGateway","inputs":[],"outputs":[{"name":"","type":"address","internalType":"address"}],"stateMutability":"view"},{"type":"function","name":"finalizeWithdrawERC20","inputs":[{"name":"","type":"address","internalType":"address"},{"name":"","type":"address","internalType":"address"},{"name":"","type":"address","internalType":"address"},{"name":"","type":"address","internalType":"address"},{"name":"","type":"uint256","internalType":"uint256"},{"name":"","type":"bytes","internalType":"bytes"}],"outputs":[],"stateMutability":"payable"},{"type":"function","name":"finalizeWithdrawETH","inputs":[{"name":"","type":"address","internalType":"address"},{"name":"","type":"address","internalType":"address"},{"name":"","type":"uint256","internalType":"uint256"},{"name":"","type":"bytes","internalType":"bytes"}],"outputs":[],"stateMutability":"payable"},{"type":"function","name":"gatewayInContext","inputs":[],"outputs":[{"name":"","type":"address","internalType":"address"}],"stateMutability":"view"},{"type":"function","name":"getERC20Gateway","inputs":[{"name":"_token","type":"address","internalType":"address"}],"outputs":[{"name":"","type":"address","internalType":"address"}],"stateMutability":"view"},{"type":"function","name":"getL2ERC20Address","inputs":[{"name":"_l1Address","type":"address","internalType":"address"}],"outputs":[{"name":"","type":"address","internalType":"address"}],"stateMutability":"view"},{"type":"function","name":"initialize","inputs":[{"name":"_ethGateway","type":"address","internalType":"address"},{"name":"_defaultERC20Gateway","type":"address","internalType":"address"}],"outputs":[],"stateMutability":"nonpayable"},{"type":"function","name":"owner","inputs":[],"outputs":[{"name":"","type":"address","internalType":"address"}],"stateMutability":"view"},{"type":"function","name":"renounceOwnership","inputs":[],"outputs":[],"stateMutability":"nonpayable"},{"type":"function","name":"requestERC20","inputs":[{"name":"_sender","type":"address","internalType":"address"},{"name":"_token","type":"address","internalType":"address"},{"name":"_amount","type":"uint256","internalType":"uint256"}],"outputs":[{"name":"","type":"uint256","internalType":"uint256"}],"stateMutability":"nonpayable"},{"type":"function","name":"setDefaultERC20Gateway","inputs":[{"name":"_newDefaultERC20Gateway","type":"address","internalType":"address"}],"outputs":[],"stateMutability":"nonpayable"},{"type":"function","name":"setERC20Gateway","inputs":[{"name":"_tokens","type":"address[]","internalType":"address[]"},{"name":"_gateways","type":"address[]","internalType":"address[]"}],"outputs":[],"stateMutability":"nonpayable"},{"type":"function","name":"setETHGateway","inputs":[{"name":"_newEthGateway","type":"address","internalType":"address"}],"outputs":[],"stateMutability":"nonpayable"},{"type":"function","name":"transferOwnership","inputs":[{"name":"newOwner","type":"address","internalType":"address"}],"outputs":[],"stateMutability":"nonpayable"},{"type":"event","name":"DepositERC20","inputs":[{"name":"l1Token","type":"address","indexed":true,"internalType":"address"},{"name":"l2Token","type":"address","indexed":true,"internalType":"address"},{"name":"from","type":"address","indexed":true,"internalType":"address"},{"name":"to","type":"address","indexed":false,"internalType":"address"},{"name":"amount","type":"uint256","indexed":false,"internalType":"uint256"},{"name":"data","type":"bytes","indexed":false,"internalType":"bytes"}],"anonymous":false},{"type":"event","name":"DepositETH","inputs":[{"name":"from","type":"address","indexed":true,"internalType":"address"},{"name":"to","type":"address","indexed":true,"internalType":"address"},{"name":"amount","type":"uint256","indexed":false,"internalType":"uint256"},{"name":"data","type":"bytes","indexed":false,"internalType":"bytes"}],"anonymous":false},{"type":"event","name":"FinalizeWithdrawERC20","inputs":[{"name":"l1Token","type":"address","indexed":true,"internalType":"address"},{"name":"l2Token","type":"address","indexed":true,"internalType":"address"},{"name":"from","type":"address","indexed":true,"internalType":"address"},{"name":"to","type":"address","indexed":false,"internalType":"address"},{"name":"amount","type":"uint256","indexed":false,"internalType":"uint256"},{"name":"data","type":"bytes","indexed":false,"internalType":"bytes"}],"anonymous":false},{"type":"event","name":"FinalizeWithdrawETH","inputs":[{"name":"from","type":"address","indexed":true,"internalType":"address"},{"name":"to","type":"address","indexed":true,"internalType":"address"},{"name":"amount","type":"uint256","indexed":false,"internalType":"uint256"},{"name":"data","type":"bytes","indexed":false,"internalType":"bytes"}],"anonymous":false},{"type":"event","name":"Initialized","inputs":[{"name":"version","type":"uint8","indexed":false,"internalType":"uint8"}],"anonymous":false},{"type":"event","name":"OwnershipTransferred","inputs":[{"name":"previousOwner","type":"address","indexed":true,"internalType":"address"},{"name":"newOwner","type":"address","indexed":true,"internalType":"address"}],"anonymous":false},{"type":"event","name":"RefundERC20","inputs":[{"name":"token","type":"address","indexed":true,"internalType":"address"},{"name":"recipient","type":"address","indexed":true,"internalType":"address"},{"name":"amount","type":"uint256","indexed":false,"internalType":"uint256"}],"anonymous":false},{"type":"event","name":"RefundETH","inputs":[{"name":"recipient","type":"address","indexed":true,"internalType":"address"},{"name":"amount","type":"uint256","indexed":false,"internalType":"uint256"}],"anonymous":false},{"type":"event","name":"SetDefaultERC20Gateway","inputs":[{"name":"oldDefaultERC20Gateway","type":"address","indexed":true,"internalType":"address"},{"name":"newDefaultERC20Gateway","type":"address","indexed":true,"internalType":"address"}],"anonymous":false},{"type":"event","name":"SetERC20Gateway","inputs":[{"name":"token","type":"address","indexed":true,"internalType":"address"},{"name":"oldGateway","type":"address","indexed":true,"internalType":"address"},{"name":"newGateway","type":"address","indexed":true,"internalType":"address"}],"anonymous":false},{"type":"event","name":"SetETHGateway","inputs":[{"name":"oldETHGateway","type":"address","indexed":true,"internalType":"address"},{"name":"newEthGateway","type":"address","indexed":true,"internalType":"address"}],"anonymous":false}],"bytecode":{"object":"0x608060405234801561001057600080fd5b5061001961001e565b6100dd565b600054610100900460ff161561008a5760405162461bcd60e51b815260206004820152602760248201527f496e697469616c697a61626c653a20636f6e747261637420697320696e697469604482015266616c697a696e6760c81b606482015260840160405180910390fd5b60005460ff908116146100db576000805460ff191660ff9081179091556040519081527f7f26b83ff96e1f2b6a682f133852f6798a09c465da95921460cefb38474024989060200160405180910390a15b565b611961806100ec6000396000f3fe6080604052600436106101355760003560e01c80638c00ce73116100ab578063c52a3bbc1161006f578063c52a3bbc1461030f578063c676ad291461033d578063ce0b63ce1461035d578063ce8c3e0614610370578063f219fa6614610390578063f2fde38b146103a357600080fd5b80638c00ce731461029d5780638da5cb5b146102bd5780638eaac8a3146102db5780639f8420b3146102e9578063aac476f8146102fc57600080fd5b8063485cc955116100fd578063485cc955146101df5780635dfd5b9a146101ff578063635c86371461021f578063705b05b81461023f578063715018a61461027557806384bd13b01461028a57600080fd5b80630aea8c261461013a57806321425ee01461014f5780633a9a7b20146101625780633d1d31c71461019f57806343c66741146101bf575b600080fd5b61014d6101483660046112d1565b6103c3565b005b61014d61015d366004611345565b610532565b34801561016e57600080fd5b50606854610182906001600160a01b031681565b6040516001600160a01b0390911681526020015b60405180910390f35b3480156101ab57600080fd5b5061014d6101ba36600461137a565b610571565b3480156101cb57600080fd5b506101826101da36600461137a565b6105cb565b3480156101eb57600080fd5b5061014d6101fa366004611397565b610601565b34801561020b57600080fd5b5061014d61021a36600461137a565b6107c5565b34801561022b57600080fd5b5061014d61023a36600461144e565b61081f565b34801561024b57600080fd5b5061018261025a36600461137a565b6067602052600090815260409020546001600160a01b031681565b34801561028157600080fd5b5061014d6109d7565b61014d6102983660046114fb565b6109eb565b3480156102a957600080fd5b50606554610182906001600160a01b031681565b3480156102c957600080fd5b506033546001600160a01b0316610182565b61014d610298366004611593565b61014d6102f7366004611606565b610a2c565b61014d61030a366004611628565b610a69565b34801561031b57600080fd5b5061032f61032a366004611689565b610b9c565b604051908152602001610196565b34801561034957600080fd5b5061018261035836600461137a565b610d0d565b61014d61036b366004611345565b610da3565b34801561037c57600080fd5b50606654610182906001600160a01b031681565b61014d61039e3660046116ca565b610daf565b3480156103af57600080fd5b5061014d6103be36600461137a565b610dc2565b6068546001600160a01b0316156104175760405162461bcd60e51b815260206004820152601360248201527213db9b1e481b9bdd081a5b8818dbdb9d195e1d606a1b60448201526064015b60405180910390fd5b6000610422866105cb565b90506001600160a01b0381166104715760405162461bcd60e51b81526020600482015260146024820152736e6f206761746577617920617661696c61626c6560601b604482015260640161040e565b606880546001600160a01b0319166001600160a01b038316179055600033846040516020016104a1929190611760565b60408051601f1981840301815290829052630575461360e11b825291506001600160a01b03831690630aea8c269034906104e7908b908b908b9088908b90600401611784565b6000604051808303818588803b15801561050057600080fd5b505af1158015610514573d6000803e3d6000fd5b5050606880546001600160a01b031916905550505050505050505050565b61056c83338460005b6040519080825280601f01601f191660200182016040528015610565576020820181803683370190505b50856103c3565b505050565b610579610e3b565b606580546001600160a01b038381166001600160a01b0319831681179093556040519116919082907fa1bfcc6dd729ad197a1180f44d5c12bcc630943df0874b9ed53da23165621b6a90600090a35050565b6001600160a01b03808216600090815260676020526040812054909116806105fb57506066546001600160a01b03165b92915050565b600054610100900460ff16158080156106215750600054600160ff909116105b8061063b5750303b15801561063b575060005460ff166001145b61069e5760405162461bcd60e51b815260206004820152602e60248201527f496e697469616c697a61626c653a20636f6e747261637420697320616c72656160448201526d191e481a5b9a5d1a585b1a5e995960921b606482015260840161040e565b6000805460ff1916600117905580156106c1576000805461ff0019166101001790555b6106c9610e95565b6001600160a01b0382161561072257606680546001600160a01b0319166001600160a01b0384169081179091556040516000907f2904fcae71038f87b116fd2875871e153722cabddd71de1b77473de263cd74d1908290a35b6001600160a01b0383161561077b57606580546001600160a01b0319166001600160a01b0385169081179091556040516000907fa1bfcc6dd729ad197a1180f44d5c12bcc630943df0874b9ed53da23165621b6a908290a35b801561056c576000805461ff0019169055604051600181527f7f26b83ff96e1f2b6a682f133852f6798a09c465da95921460cefb38474024989060200160405180910390a1505050565b6107cd610e3b565b606680546001600160a01b038381166001600160a01b0319831681179093556040519116919082907f2904fcae71038f87b116fd2875871e153722cabddd71de1b77473de263cd74d190600090a35050565b610827610e3b565b805182511461086a5760405162461bcd60e51b815260206004820152600f60248201526e0d8cadccee8d040dad2e6dac2e8c6d608b1b604482015260640161040e565b60005b825181101561056c5760006067600085848151811061088e5761088e6117c9565b60200260200101516001600160a01b03166001600160a01b0316815260200190815260200160002060009054906101000a90046001600160a01b031690508282815181106108de576108de6117c9565b6020026020010151606760008685815181106108fc576108fc6117c9565b60200260200101516001600160a01b03166001600160a01b0316815260200190815260200160002060006101000a8154816001600160a01b0302191690836001600160a01b0316021790555082828151811061095a5761095a6117c9565b60200260200101516001600160a01b0316816001600160a01b0316858481518110610987576109876117c9565b60200260200101516001600160a01b03167f0ead4808404683f66d413d788a768219ea9785c97889221193103841a5841eaf60405160405180910390a450806109cf816117f5565b91505061086d565b6109df610e3b565b6109e96000610ec4565b565b60405162461bcd60e51b81526020600482015260166024820152751cda1bdd5b19081b995d995c8818994818d85b1b195960521b604482015260640161040e565b610a65338360005b6040519080825280601f01601f191660200182016040528015610a5e576020820181803683370190505b5084610a69565b5050565b6068546001600160a01b031615610ab85760405162461bcd60e51b815260206004820152601360248201527213db9b1e481b9bdd081a5b8818dbdb9d195e1d606a1b604482015260640161040e565b6065546001600160a01b031680610b095760405162461bcd60e51b8152602060048201526015602482015274657468206761746577617920617661696c61626c6560581b604482015260640161040e565b60003384604051602001610b1e929190611760565b60408051601f19818403018152908290526315588edf60e31b825291506001600160a01b0383169063aac476f8903490610b62908a908a9087908a9060040161180e565b6000604051808303818588803b158015610b7b57600080fd5b505af1158015610b8f573d6000803e3d6000fd5b5050505050505050505050565b6068546000906001600160a01b0316336001600160a01b031614610c025760405162461bcd60e51b815260206004820152601760248201527f4f6e6c7920696e206465706f73697420636f6e74657874000000000000000000604482015260640161040e565b6000336040516370a0823160e01b81526001600160a01b0380831660048301529192506000918616906370a0823190602401602060405180830381865afa158015610c51573d6000803e3d6000fd5b505050506040513d601f19601f82011682018060405250810190610c759190611846565b9050610c8c6001600160a01b038616878487610f16565b6040516370a0823160e01b81526001600160a01b0383811660048301528291908716906370a0823190602401602060405180830381865afa158015610cd5573d6000803e3d6000fd5b505050506040513d601f19601f82011682018060405250810190610cf99190611846565b610d03919061185f565b9695505050505050565b600080610d19836105cb565b90506001600160a01b038116610d325750600092915050565b60405163c676ad2960e01b81526001600160a01b03848116600483015282169063c676ad2990602401602060405180830381865afa158015610d78573d6000803e3d6000fd5b505050506040513d601f19601f82011682018060405250810190610d9c9190611872565b9392505050565b61056c83836000610a34565b610dbc848484600061053b565b50505050565b610dca610e3b565b6001600160a01b038116610e2f5760405162461bcd60e51b815260206004820152602660248201527f4f776e61626c653a206e6577206f776e657220697320746865207a65726f206160448201526564647265737360d01b606482015260840161040e565b610e3881610ec4565b50565b6033546001600160a01b031633146109e95760405162461bcd60e51b815260206004820181905260248201527f4f776e61626c653a2063616c6c6572206973206e6f7420746865206f776e6572604482015260640161040e565b600054610100900460ff16610ebc5760405162461bcd60e51b815260040161040e9061188f565b6109e9610f70565b603380546001600160a01b038381166001600160a01b0319831681179093556040519116919082907f8be0079c531659141344cd1fd0a4f28419497f9722a3daafe3b4186f6b6457e090600090a35050565b604080516001600160a01b0385811660248301528416604482015260648082018490528251808303909101815260849091019091526020810180516001600160e01b03166323b872dd60e01b179052610dbc908590610fa0565b600054610100900460ff16610f975760405162461bcd60e51b815260040161040e9061188f565b6109e933610ec4565b6000610ff5826040518060400160405280602081526020017f5361666545524332303a206c6f772d6c6576656c2063616c6c206661696c6564815250856001600160a01b03166110759092919063ffffffff16565b905080516000148061101657508080602001905181019061101691906118da565b61056c5760405162461bcd60e51b815260206004820152602a60248201527f5361666545524332303a204552433230206f7065726174696f6e20646964206e6044820152691bdd081cdd58d8d9595960b21b606482015260840161040e565b6060611084848460008561108c565b949350505050565b6060824710156110ed5760405162461bcd60e51b815260206004820152602660248201527f416464726573733a20696e73756666696369656e742062616c616e636520666f6044820152651c8818d85b1b60d21b606482015260840161040e565b600080866001600160a01b0316858760405161110991906118fc565b60006040518083038185875af1925050503d8060008114611146576040519150601f19603f3d011682016040523d82523d6000602084013e61114b565b606091505b509150915061115c87838387611167565b979650505050505050565b606083156111d65782516000036111cf576001600160a01b0385163b6111cf5760405162461bcd60e51b815260206004820152601d60248201527f416464726573733a2063616c6c20746f206e6f6e2d636f6e7472616374000000604482015260640161040e565b5081611084565b61108483838151156111eb5781518083602001fd5b8060405162461bcd60e51b815260040161040e9190611918565b6001600160a01b0381168114610e3857600080fd5b634e487b7160e01b600052604160045260246000fd5b604051601f8201601f1916810167ffffffffffffffff811182821017156112595761125961121a565b604052919050565b600082601f83011261127257600080fd5b813567ffffffffffffffff81111561128c5761128c61121a565b61129f601f8201601f1916602001611230565b8181528460208386010111156112b457600080fd5b816020850160208301376000918101602001919091529392505050565b600080600080600060a086880312156112e957600080fd5b85356112f481611205565b9450602086013561130481611205565b935060408601359250606086013567ffffffffffffffff81111561132757600080fd5b61133388828901611261565b95989497509295608001359392505050565b60008060006060848603121561135a57600080fd5b833561136581611205565b95602085013595506040909401359392505050565b60006020828403121561138c57600080fd5b8135610d9c81611205565b600080604083850312156113aa57600080fd5b82356113b581611205565b915060208301356113c581611205565b809150509250929050565b600082601f8301126113e157600080fd5b8135602067ffffffffffffffff8211156113fd576113fd61121a565b8160051b61140c828201611230565b928352848101820192828101908785111561142657600080fd5b83870192505b8483101561115c57823561143f81611205565b8252918301919083019061142c565b6000806040838503121561146157600080fd5b823567ffffffffffffffff8082111561147957600080fd5b611485868387016113d0565b9350602085013591508082111561149b57600080fd5b506114a8858286016113d0565b9150509250929050565b60008083601f8401126114c457600080fd5b50813567ffffffffffffffff8111156114dc57600080fd5b6020830191508360208285010111156114f457600080fd5b9250929050565b600080600080600080600060c0888a03121561151657600080fd5b873561152181611205565b9650602088013561153181611205565b9550604088013561154181611205565b9450606088013561155181611205565b93506080880135925060a088013567ffffffffffffffff81111561157457600080fd5b6115808a828b016114b2565b989b979a50959850939692959293505050565b6000806000806000608086880312156115ab57600080fd5b85356115b681611205565b945060208601356115c681611205565b935060408601359250606086013567ffffffffffffffff8111156115e957600080fd5b6115f5888289016114b2565b969995985093965092949392505050565b6000806040838503121561161957600080fd5b50508035926020909101359150565b6000806000806080858703121561163e57600080fd5b843561164981611205565b935060208501359250604085013567ffffffffffffffff81111561166c57600080fd5b61167887828801611261565b949793965093946060013593505050565b60008060006060848603121561169e57600080fd5b83356116a981611205565b925060208401356116b981611205565b929592945050506040919091013590565b600080600080608085870312156116e057600080fd5b84356116eb81611205565b935060208501356116fb81611205565b93969395505050506040820135916060013590565b60005b8381101561172b578181015183820152602001611713565b50506000910152565b6000815180845261174c816020860160208601611710565b601f01601f19169290920160200192915050565b6001600160a01b038316815260406020820181905260009061108490830184611734565b6001600160a01b038681168252851660208201526040810184905260a0606082018190526000906117b790830185611734565b90508260808301529695505050505050565b634e487b7160e01b600052603260045260246000fd5b634e487b7160e01b600052601160045260246000fd5b600060018201611807576118076117df565b5060010190565b60018060a01b03851681528360208201526080604082015260006118356080830185611734565b905082606083015295945050505050565b60006020828403121561185857600080fd5b5051919050565b818103818111156105fb576105fb6117df565b60006020828403121561188457600080fd5b8151610d9c81611205565b6020808252602b908201527f496e697469616c697a61626c653a20636f6e7472616374206973206e6f74206960408201526a6e697469616c697a696e6760a81b606082015260800190565b6000602082840312156118ec57600080fd5b81518015158114610d9c57600080fd5b6000825161190e818460208701611710565b9190910192915050565b602081526000610d9c602083018461173456fea264697066735822122055d58eef76c9e89fb35a312a75699398049b3abad2bc8882d283b033091a2b7964736f6c63430008100033","linkReferences":{}},"methodIdentifiers":{"ERC20Gateway(address)":"705b05b8","defaultERC20Gateway()":"ce8c3e06","depositERC20(address,address,uint256,uint256)":"f219fa66","depositERC20(address,uint256,uint256)":"21425ee0","depositERC20AndCall(address,address,uint256,bytes,uint256)":"0aea8c26","depositETH(address,uint256,uint256)":"ce0b63ce","depositETH(uint256,uint256)":"9f8420b3","depositETHAndCall(address,uint256,bytes,uint256)":"aac476f8","ethGateway()":"8c00ce73","finalizeWithdrawERC20(address,address,address,address,uint256,bytes)":"84bd13b0","finalizeWithdrawETH(address,address,uint256,bytes)":"8eaac8a3","gatewayInContext()":"3a9a7b20","getERC20Gateway(address)":"43c66741","getL2ERC20Address(address)":"c676ad29","initialize(address,address)":"485cc955","owner()":"8da5cb5b","renounceOwnership()":"715018a6","requestERC20(address,address,uint256)":"c52a3bbc","setDefaultERC20Gateway(address)":"5dfd5b9a","setERC20Gateway(address[],address[])":"635c8637","setETHGateway(address)":"3d1d31c7","transferOwnership(address)":"f2fde38b"},"id":135}