{"abi":[{"type":"constructor","inputs":[{"name":"_WETH","type":"address","internalType":"address"},{"name":"_l2WETH","type":"address","internalType":"address"},{"name":"_counterpart","type":"address","internalType":"address"},{"name":"_router","type":"address","internalType":"address"},{"name":"_messenger","type":"address","internalType":"address"}],"stateMutability":"nonpayable"},{"type":"receive","stateMutability":"payable"},{"type":"function","name":"WETH","inputs":[],"outputs":[{"name":"","type":"address","internalType":"address"}],"stateMutability":"view"},{"type":"function","name":"counterpart","inputs":[],"outputs":[{"name":"","type":"address","internalType":"address"}],"stateMutability":"view"},{"type":"function","name":"depositERC20","inputs":[{"name":"_token","type":"address","internalType":"address"},{"name":"_amount","type":"uint256","internalType":"uint256"},{"name":"_gasLimit","type":"uint256","internalType":"uint256"}],"outputs":[],"stateMutability":"payable"},{"type":"function","name":"depositERC20","inputs":[{"name":"_token","type":"address","internalType":"address"},{"name":"_to","type":"address","internalType":"address"},{"name":"_amount","type":"uint256","internalType":"uint256"},{"name":"_gasLimit","type":"uint256","internalType":"uint256"}],"outputs":[],"stateMutability":"payable"},{"type":"function","name":"depositERC20AndCall","inputs":[{"name":"_token","type":"address","internalType":"address"},{"name":"_to","type":"address","internalType":"address"},{"name":"_amount","type":"uint256","internalType":"uint256"},{"name":"_data","type":"bytes","internalType":"bytes"},{"name":"_gasLimit","type":"uint256","internalType":"uint256"}],"outputs":[],"stateMutability":"payable"},{"type":"function","name":"finalizeWithdrawERC20","inputs":[{"name":"_l1Token","type":"address","internalType":"address"},{"name":"_l2Token","type":"address","internalType":"address"},{"name":"_from","type":"address","internalType":"address"},{"name":"_to","type":"address","internalType":"address"},{"name":"_amount","type":"uint256","internalType":"uint256"},{"name":"_data","type":"bytes","internalType":"bytes"}],"outputs":[],"stateMutability":"payable"},{"type":"function","name":"getL2ERC20Address","inputs":[{"name":"","type":"address","internalType":"address"}],"outputs":[{"name":"","type":"address","internalType":"address"}],"stateMutability":"view"},{"type":"function","name":"initialize","inputs":[{"name":"_counterpart","type":"address","internalType":"address"},{"name":"_router","type":"address","internalType":"address"},{"name":"_messenger","type":"address","internalType":"address"}],"outputs":[],"stateMutability":"nonpayable"},{"type":"function","name":"l2WETH","inputs":[],"outputs":[{"name":"","type":"address","internalType":"address"}],"stateMutability":"view"},{"type":"function","name":"messenger","inputs":[],"outputs":[{"name":"","type":"address","internalType":"address"}],"stateMutability":"view"},{"type":"function","name":"onDropMessage","inputs":[{"name":"_message","type":"bytes","internalType":"bytes"}],"outputs":[],"stateMutability":"payable"},{"type":"function","name":"owner","inputs":[],"outputs":[{"name":"","type":"address","internalType":"address"}],"stateMutability":"view"},{"type":"function","name":"renounceOwnership","inputs":[],"outputs":[],"stateMutability":"nonpayable"},{"type":"function","name":"router","inputs":[],"outputs":[{"name":"","type":"address","internalType":"address"}],"stateMutability":"view"},{"type":"function","name":"transferOwnership","inputs":[{"name":"newOwner","type":"address","internalType":"address"}],"outputs":[],"stateMutability":"nonpayable"},{"type":"event","name":"DepositERC20","inputs":[{"name":"l1Token","type":"address","indexed":true,"internalType":"address"},{"name":"l2Token","type":"address","indexed":true,"internalType":"address"},{"name":"from","type":"address","indexed":true,"internalType":"address"},{"name":"to","type":"address","indexed":false,"internalType":"address"},{"name":"amount","type":"uint256","indexed":false,"internalType":"uint256"},{"name":"data","type":"bytes","indexed":false,"internalType":"bytes"}],"anonymous":false},{"type":"event","name":"FinalizeWithdrawERC20","inputs":[{"name":"l1Token","type":"address","indexed":true,"internalType":"address"},{"name":"l2Token","type":"address","indexed":true,"internalType":"address"},{"name":"from","type":"address","indexed":true,"internalType":"address"},{"name":"to","type":"address","indexed":false,"internalType":"address"},{"name":"amount","type":"uint256","indexed":false,"internalType":"uint256"},{"name":"data","type":"bytes","indexed":false,"internalType":"bytes"}],"anonymous":false},{"type":"event","name":"Initialized","inputs":[{"name":"version","type":"uint8","indexed":false,"internalType":"uint8"}],"anonymous":false},{"type":"event","name":"OwnershipTransferred","inputs":[{"name":"previousOwner","type":"address","indexed":true,"internalType":"address"},{"name":"newOwner","type":"address","indexed":true,"internalType":"address"}],"anonymous":false},{"type":"event","name":"RefundERC20","inputs":[{"name":"token","type":"address","indexed":true,"internalType":"address"},{"name":"recipient","type":"address","indexed":true,"internalType":"address"},{"name":"amount","type":"uint256","indexed":false,"internalType":"uint256"}],"anonymous":false},{"type":"error","name":"ErrorCallerIsNotCounterpartGateway","inputs":[]},{"type":"error","name":"ErrorCallerIsNotMessenger","inputs":[]},{"type":"error","name":"ErrorNotInDropMessageContext","inputs":[]},{"type":"error","name":"ErrorZeroAddress","inputs":[]}],"bytecode":{"object":"0x6101206040523480156200001257600080fd5b5060405162002105380380620021058339810160408190526200003591620001da565b8282826001600160a01b03831615806200005657506001600160a01b038116155b15620000755760405163a7f9319d60e01b815260040160405180910390fd5b6001600160a01b0392831660805290821660a052811660c05285161580620000a457506001600160a01b038416155b80620000b757506001600160a01b038216155b15620000d65760405163a7f9319d60e01b815260040160405180910390fd5b620000e0620000fc565b5050506001600160a01b03918216610100521660e0526200024a565b600054610100900460ff1615620001695760405162461bcd60e51b815260206004820152602760248201527f496e697469616c697a61626c653a20636f6e747261637420697320696e697469604482015266616c697a696e6760c81b606482015260840160405180910390fd5b60005460ff90811614620001bb576000805460ff191660ff9081179091556040519081527f7f26b83ff96e1f2b6a682f133852f6798a09c465da95921460cefb38474024989060200160405180910390a15b565b80516001600160a01b0381168114620001d557600080fd5b919050565b600080600080600060a08688031215620001f357600080fd5b620001fe86620001bd565b94506200020e60208701620001bd565b93506200021e60408701620001bd565b92506200022e60608701620001bd565b91506200023e60808701620001bd565b90509295509295909350565b60805160a05160c05160e05161010051611e07620002fe6000396000818160f4015281816102aa015281816109ff01528181610cdc0152610f000152600081816102580152818161030a01528181610ae901528181610c090152610f750152600081816101ac015281816103aa015281816103f201528181610621015281816106690152610b570152600081816103710152611124015260008181610211015281816106f40152610b880152611e076000f3fe6080604052600436106100ec5760003560e01c8063885586871161008a578063c676ad2911610059578063c676ad29146102ec578063f219fa661461032c578063f2fde38b1461033f578063f887ea401461035f57600080fd5b806388558687146102465780638da5cb5b1461027a578063ad5c464814610298578063c0c53b8b146102cc57600080fd5b80633cb747bf116100c65780633cb747bf1461019a578063715018a6146101ea578063797594b0146101ff57806384bd13b01461023357600080fd5b80630aea8c261461016157806314298c511461017457806321425ee01461018757600080fd5b3661015c57337f00000000000000000000000000000000000000000000000000000000000000006001600160a01b03161461015a5760405162461bcd60e51b81526020600482015260096024820152680dedcd8f240ae8aa8960bb1b60448201526064015b60405180910390fd5b005b600080fd5b61015a61016f36600461176c565b610393565b61015a610182366004611829565b6103a7565b61015a61019536600461186b565b6105cb565b3480156101a657600080fd5b506101ce7f000000000000000000000000000000000000000000000000000000000000000081565b6040516001600160a01b03909116815260200160405180910390f35b3480156101f657600080fd5b5061015a61060a565b34801561020b57600080fd5b506101ce7f000000000000000000000000000000000000000000000000000000000000000081565b61015a6102413660046118a0565b61061e565b34801561025257600080fd5b506101ce7f000000000000000000000000000000000000000000000000000000000000000081565b34801561028657600080fd5b506065546001600160a01b03166101ce565b3480156102a457600080fd5b506101ce7f000000000000000000000000000000000000000000000000000000000000000081565b3480156102d857600080fd5b5061015a6102e7366004611938565b610812565b3480156102f857600080fd5b506101ce610307366004611983565b507f000000000000000000000000000000000000000000000000000000000000000090565b61015a61033a3660046119a7565b610929565b34801561034b57600080fd5b5061015a61035a366004611983565b610936565b34801561036b57600080fd5b506101ce7f000000000000000000000000000000000000000000000000000000000000000081565b6103a085858585856109af565b5050505050565b337f00000000000000000000000000000000000000000000000000000000000000006001600160a01b0316146103f0576040516385bd908d60e01b815260040160405180910390fd5b7f00000000000000000000000000000000000000000000000000000000000000006001600160a01b0316636e296e456040518163ffffffff1660e01b8152600401602060405180830381865afa15801561044e573d6000803e3d6000fd5b505050506040513d601f19601f8201168201806040525081019061047291906119ed565b6001600160a01b0316736f297c61b5c92ef107ffd30cd56affe5a273e8416001600160a01b0316146104b757604051630d08b8ff60e01b815260040160405180910390fd5b6104bf610c81565b638431f5c160e01b6104d5600460008486611a0a565b6104de91611a34565b6001600160e01b031916146105285760405162461bcd60e51b815260206004820152601060248201526f34b73b30b634b21039b2b632b1ba37b960811b6044820152606401610151565b600080806105398460048188611a0a565b8101906105469190611a64565b50945050935050925061055a838383610cda565b61056e6001600160a01b0384168383610de9565b816001600160a01b0316836001600160a01b03167fdbdf8eb487847e4c0f22847f5dac07f2d3690f96f581a6ae4b102769917645a8836040516105b391815260200190565b60405180910390a35050506105c760018055565b5050565b61060583338460005b6040519080825280601f01601f1916602001820160405280156105fe576020820181803683370190505b50856109af565b505050565b610612610e52565b61061c6000610eac565b565b337f00000000000000000000000000000000000000000000000000000000000000006001600160a01b031614610667576040516385bd908d60e01b815260040160405180910390fd5b7f00000000000000000000000000000000000000000000000000000000000000006001600160a01b0316636e296e456040518163ffffffff1660e01b8152600401602060405180830381865afa1580156106c5573d6000803e3d6000fd5b505050506040513d601f19601f820116820180604052508101906106e991906119ed565b6001600160a01b03167f00000000000000000000000000000000000000000000000000000000000000006001600160a01b03161461073a576040516307b140f360e51b815260040160405180910390fd5b610742610c81565b61075187878787878787610efe565b6107656001600160a01b0388168585610de9565b6107a58483838080601f01602080910402602001604051908101604052809392919081815260200183838082843760009201919091525061108992505050565b846001600160a01b0316866001600160a01b0316886001600160a01b03167fc6f985873b37805705f6bce756dce3d1ff4b603e298d506288cce499926846a7878787876040516107f89493929190611af4565b60405180910390a461080960018055565b50505050505050565b600054610100900460ff16158080156108325750600054600160ff909116105b8061084c5750303b15801561084c575060005460ff166001145b6108af5760405162461bcd60e51b815260206004820152602e60248201527f496e697469616c697a61626c653a20636f6e747261637420697320616c72656160448201526d191e481a5b9a5d1a585b1a5e995960921b6064820152608401610151565b6000805460ff1916600117905580156108d2576000805461ff0019166101001790555b6108dd84848461110b565b8015610923576000805461ff0019169055604051600181527f7f26b83ff96e1f2b6a682f133852f6798a09c465da95921460cefb38474024989060200160405180910390a15b50505050565b61092384848460006105d4565b61093e610e52565b6001600160a01b0381166109a35760405162461bcd60e51b815260206004820152602660248201527f4f776e61626c653a206e6577206f776e657220697320746865207a65726f206160448201526564647265737360d01b6064820152608401610151565b6109ac81610eac565b50565b6109b7610c81565b600083116109fd5760405162461bcd60e51b815260206004820152601360248201527219195c1bdcda5d081e995c9bc8185b5bdd5b9d606a1b6044820152606401610151565b7f00000000000000000000000000000000000000000000000000000000000000006001600160a01b0316856001600160a01b031614610a755760405162461bcd60e51b81526020600482015260146024820152731bdb9b1e4815d15512081a5cc8185b1b1bddd95960621b6044820152606401610151565b6000610a8286858561111b565b604051632e1a7d4d60e01b81526004810183905291965094509091506001600160a01b03871690632e1a7d4d90602401600060405180830381600087803b158015610acc57600080fd5b505af1158015610ae0573d6000803e3d6000fd5b505050506000867f000000000000000000000000000000000000000000000000000000000000000083888888604051602401610b2196959493929190611b8c565b60408051601f198184030181529190526020810180516001600160e01b0316638431f5c160e01b17905290506001600160a01b037f000000000000000000000000000000000000000000000000000000000000000016635f7b1577610b863488611bf1565b7f0000000000000000000000000000000000000000000000000000000000000000888588886040518763ffffffff1660e01b8152600401610bcb959493929190611c0a565b6000604051808303818588803b158015610be457600080fd5b505af1158015610bf8573d6000803e3d6000fd5b5050505050816001600160a01b03167f00000000000000000000000000000000000000000000000000000000000000006001600160a01b0316886001600160a01b03167f31cd3b976e4d654022bf95c68a2ce53f1d5d94afabe0454d2832208eeb40af25898989604051610c6e93929190611c4c565b60405180910390a450506103a060018055565b600260015403610cd35760405162461bcd60e51b815260206004820152601f60248201527f5265656e7472616e637947756172643a207265656e7472616e742063616c6c006044820152606401610151565b6002600155565b7f00000000000000000000000000000000000000000000000000000000000000006001600160a01b0316836001600160a01b031614610d4c5760405162461bcd60e51b815260206004820152600e60248201526d0e8ded6cadc40dcdee840ae8aa8960931b6044820152606401610151565b348114610d905760405162461bcd60e51b81526020600482015260126024820152710dae6ce5cecc2d8eaca40dad2e6dac2e8c6d60731b6044820152606401610151565b826001600160a01b031663d0e30db0826040518263ffffffff1660e01b81526004016000604051808303818588803b158015610dcb57600080fd5b505af1158015610ddf573d6000803e3d6000fd5b5050505050505050565b6040516001600160a01b03831660248201526044810182905261060590849063a9059cbb60e01b906064015b60408051601f198184030181529190526020810180516001600160e01b03166001600160e01b031990931692909217909152611340565b60018055565b6065546001600160a01b0316331461061c5760405162461bcd60e51b815260206004820181905260248201527f4f776e61626c653a2063616c6c6572206973206e6f7420746865206f776e65726044820152606401610151565b606580546001600160a01b038381166001600160a01b0319831681179093556040519116919082907f8be0079c531659141344cd1fd0a4f28419497f9722a3daafe3b4186f6b6457e090600090a35050565b7f00000000000000000000000000000000000000000000000000000000000000006001600160a01b0316876001600160a01b031614610f735760405162461bcd60e51b81526020600482015260116024820152700d86240e8ded6cadc40dcdee840ae8aa89607b1b6044820152606401610151565b7f00000000000000000000000000000000000000000000000000000000000000006001600160a01b0316866001600160a01b031614610fe85760405162461bcd60e51b81526020600482015260116024820152700d86440e8ded6cadc40dcdee840ae8aa89607b1b6044820152606401610151565b34831461102c5760405162461bcd60e51b81526020600482015260126024820152710dae6ce5cecc2d8eaca40dad2e6dac2e8c6d60731b6044820152606401610151565b866001600160a01b031663d0e30db0846040518263ffffffff1660e01b81526004016000604051808303818588803b15801561106757600080fd5b505af115801561107b573d6000803e3d6000fd5b505050505050505050505050565b600081511180156110a457506000826001600160a01b03163b115b156105c75760405163109b953160e01b81526001600160a01b0383169063109b9531906110d5908490600401611c7c565b600060405180830381600087803b1580156110ef57600080fd5b505af1158015611103573d6000803e3d6000fd5b505050505050565b611113611415565b610605611444565b600080606033807f00000000000000000000000000000000000000000000000000000000000000006001600160a01b03168190036111ef57858060200190518101906111679190611c8f565b60405163314a8eef60e21b81526001600160a01b0380841660048301528b81166024830152604482018b905291985091925083169063c52a3bbc906064016020604051808303816000875af11580156111c4573d6000803e3d6000fd5b505050506040513d601f19601f820116820180604052508101906111e89190611d1c565b96506112ed565b6040516370a0823160e01b81523060048201526000906001600160a01b038a16906370a0823190602401602060405180830381865afa158015611236573d6000803e3d6000fd5b505050506040513d601f19601f8201168201806040525081019061125a9190611d1c565b90506112716001600160a01b038a1683308b611473565b6040516370a0823160e01b81523060048201526000906001600160a01b038b16906370a0823190602401602060405180830381865afa1580156112b8573d6000803e3d6000fd5b505050506040513d601f19601f820116820180604052508101906112dc9190611d1c565b90506112e88282611d35565b985050505b600087116113335760405162461bcd60e51b815260206004820152601360248201527219195c1bdcda5d081e995c9bc8185b5bdd5b9d606a1b6044820152606401610151565b9795965093949350505050565b6000611395826040518060400160405280602081526020017f5361666545524332303a206c6f772d6c6576656c2063616c6c206661696c6564815250856001600160a01b03166114ab9092919063ffffffff16565b90508051600014806113b65750808060200190518101906113b69190611d48565b6106055760405162461bcd60e51b815260206004820152602a60248201527f5361666545524332303a204552433230206f7065726174696f6e20646964206e6044820152691bdd081cdd58d8d9595960b21b6064820152608401610151565b600054610100900460ff1661143c5760405162461bcd60e51b815260040161015190611d6a565b61061c6114c2565b600054610100900460ff1661146b5760405162461bcd60e51b815260040161015190611d6a565b61061c6114e9565b6040516001600160a01b03808516602483015283166044820152606481018290526109239085906323b872dd60e01b90608401610e15565b60606114ba8484600085611519565b949350505050565b600054610100900460ff16610e4c5760405162461bcd60e51b815260040161015190611d6a565b600054610100900460ff166115105760405162461bcd60e51b815260040161015190611d6a565b61061c33610eac565b60608247101561157a5760405162461bcd60e51b815260206004820152602660248201527f416464726573733a20696e73756666696369656e742062616c616e636520666f6044820152651c8818d85b1b60d21b6064820152608401610151565b600080866001600160a01b031685876040516115969190611db5565b60006040518083038185875af1925050503d80600081146115d3576040519150601f19603f3d011682016040523d82523d6000602084013e6115d8565b606091505b50915091506115e9878383876115f4565b979650505050505050565b6060831561166357825160000361165c576001600160a01b0385163b61165c5760405162461bcd60e51b815260206004820152601d60248201527f416464726573733a2063616c6c20746f206e6f6e2d636f6e74726163740000006044820152606401610151565b50816114ba565b6114ba83838151156116785781518083602001fd5b8060405162461bcd60e51b81526004016101519190611c7c565b6001600160a01b03811681146109ac57600080fd5b634e487b7160e01b600052604160045260246000fd5b604051601f8201601f1916810167ffffffffffffffff811182821017156116e6576116e66116a7565b604052919050565b600067ffffffffffffffff821115611708576117086116a7565b50601f01601f191660200190565b600082601f83011261172757600080fd5b813561173a611735826116ee565b6116bd565b81815284602083860101111561174f57600080fd5b816020850160208301376000918101602001919091529392505050565b600080600080600060a0868803121561178457600080fd5b853561178f81611692565b9450602086013561179f81611692565b935060408601359250606086013567ffffffffffffffff8111156117c257600080fd5b6117ce88828901611716565b95989497509295608001359392505050565b60008083601f8401126117f257600080fd5b50813567ffffffffffffffff81111561180a57600080fd5b60208301915083602082850101111561182257600080fd5b9250929050565b6000806020838503121561183c57600080fd5b823567ffffffffffffffff81111561185357600080fd5b61185f858286016117e0565b90969095509350505050565b60008060006060848603121561188057600080fd5b833561188b81611692565b95602085013595506040909401359392505050565b600080600080600080600060c0888a0312156118bb57600080fd5b87356118c681611692565b965060208801356118d681611692565b955060408801356118e681611692565b945060608801356118f681611692565b93506080880135925060a088013567ffffffffffffffff81111561191957600080fd5b6119258a828b016117e0565b989b979a50959850939692959293505050565b60008060006060848603121561194d57600080fd5b833561195881611692565b9250602084013561196881611692565b9150604084013561197881611692565b809150509250925092565b60006020828403121561199557600080fd5b81356119a081611692565b9392505050565b600080600080608085870312156119bd57600080fd5b84356119c881611692565b935060208501356119d881611692565b93969395505050506040820135916060013590565b6000602082840312156119ff57600080fd5b81516119a081611692565b60008085851115611a1a57600080fd5b83861115611a2757600080fd5b5050820193919092039150565b6001600160e01b03198135818116916004851015611a5c5780818660040360031b1b83161692505b505092915050565b60008060008060008060c08789031215611a7d57600080fd5b8635611a8881611692565b95506020870135611a9881611692565b94506040870135611aa881611692565b93506060870135611ab881611692565b92506080870135915060a087013567ffffffffffffffff811115611adb57600080fd5b611ae789828a01611716565b9150509295509295509295565b6001600160a01b0385168152602081018490526060604082018190528101829052818360808301376000818301608090810191909152601f909201601f191601019392505050565b60005b83811015611b57578181015183820152602001611b3f565b50506000910152565b60008151808452611b78816020860160208601611b3c565b601f01601f19169290920160200192915050565b6001600160a01b03878116825286811660208301528581166040830152841660608201526080810183905260c060a08201819052600090611bcf90830184611b60565b98975050505050505050565b634e487b7160e01b600052601160045260246000fd5b80820180821115611c0457611c04611bdb565b92915050565b600060018060a01b03808816835286602084015260a06040840152611c3260a0840187611b60565b606084019590955292909216608090910152509392505050565b60018060a01b0384168152826020820152606060408201526000611c736060830184611b60565b95945050505050565b6020815260006119a06020830184611b60565b60008060408385031215611ca257600080fd5b8251611cad81611692565b602084015190925067ffffffffffffffff811115611cca57600080fd5b8301601f81018513611cdb57600080fd5b8051611ce9611735826116ee565b818152866020838501011115611cfe57600080fd5b611d0f826020830160208601611b3c565b8093505050509250929050565b600060208284031215611d2e57600080fd5b5051919050565b81810381811115611c0457611c04611bdb565b600060208284031215611d5a57600080fd5b815180151581146119a057600080fd5b6020808252602b908201527f496e697469616c697a61626c653a20636f6e7472616374206973206e6f74206960408201526a6e697469616c697a696e6760a81b606082015260800190565b60008251611dc7818460208701611b3c565b919091019291505056fea26469706673582212203518c7c0d765f4231d2ccd6efab04c3cbb15e113cdfc15476dfe3ea016b481bf64736f6c63430008100033","linkReferences":{}},"methodIdentifiers":{"WETH()":"ad5c4648","counterpart()":"797594b0","depositERC20(address,address,uint256,uint256)":"f219fa66","depositERC20(address,uint256,uint256)":"21425ee0","depositERC20AndCall(address,address,uint256,bytes,uint256)":"0aea8c26","finalizeWithdrawERC20(address,address,address,address,uint256,bytes)":"84bd13b0","getL2ERC20Address(address)":"c676ad29","initialize(address,address,address)":"c0c53b8b","l2WETH()":"88558687","messenger()":"3cb747bf","onDropMessage(bytes)":"14298c51","owner()":"8da5cb5b","renounceOwnership()":"715018a6","router()":"f887ea40","transferOwnership(address)":"f2fde38b"},"id":137}