{"abi":[{"type":"constructor","inputs":[{"name":"_counterpart","type":"address","internalType":"address"},{"name":"_router","type":"address","internalType":"address"},{"name":"_messenger","type":"address","internalType":"address"}],"stateMutability":"nonpayable"},{"type":"function","name":"counterpart","inputs":[],"outputs":[{"name":"","type":"address","internalType":"address"}],"stateMutability":"view"},{"type":"function","name":"finalizeDepositERC20","inputs":[{"name":"_l1Token","type":"address","internalType":"address"},{"name":"_l2Token","type":"address","internalType":"address"},{"name":"_from","type":"address","internalType":"address"},{"name":"_to","type":"address","internalType":"address"},{"name":"_amount","type":"uint256","internalType":"uint256"},{"name":"_data","type":"bytes","internalType":"bytes"}],"outputs":[],"stateMutability":"payable"},{"type":"function","name":"getL1ERC20Address","inputs":[{"name":"_l2Token","type":"address","internalType":"address"}],"outputs":[{"name":"","type":"address","internalType":"address"}],"stateMutability":"view"},{"type":"function","name":"getL2ERC20Address","inputs":[{"name":"","type":"address","internalType":"address"}],"outputs":[{"name":"","type":"address","internalType":"address"}],"stateMutability":"pure"},{"type":"function","name":"initialize","inputs":[{"name":"_counterpart","type":"address","internalType":"address"},{"name":"_router","type":"address","internalType":"address"},{"name":"_messenger","type":"address","internalType":"address"}],"outputs":[],"stateMutability":"nonpayable"},{"type":"function","name":"messenger","inputs":[],"outputs":[{"name":"","type":"address","internalType":"address"}],"stateMutability":"view"},{"type":"function","name":"owner","inputs":[],"outputs":[{"name":"","type":"address","internalType":"address"}],"stateMutability":"view"},{"type":"function","name":"renounceOwnership","inputs":[],"outputs":[],"stateMutability":"nonpayable"},{"type":"function","name":"router","inputs":[],"outputs":[{"name":"","type":"address","internalType":"address"}],"stateMutability":"view"},{"type":"function","name":"tokenMapping","inputs":[{"name":"","type":"address","internalType":"address"}],"outputs":[{"name":"","type":"address","internalType":"address"}],"stateMutability":"view"},{"type":"function","name":"transferOwnership","inputs":[{"name":"newOwner","type":"address","internalType":"address"}],"outputs":[],"stateMutability":"nonpayable"},{"type":"function","name":"updateTokenMapping","inputs":[{"name":"_l2Token","type":"address","internalType":"address"},{"name":"_l1Token","type":"address","internalType":"address"}],"outputs":[],"stateMutability":"nonpayable"},{"type":"function","name":"withdrawERC20","inputs":[{"name":"_token","type":"address","internalType":"address"},{"name":"_amount","type":"uint256","internalType":"uint256"},{"name":"_gasLimit","type":"uint256","internalType":"uint256"}],"outputs":[],"stateMutability":"payable"},{"type":"function","name":"withdrawERC20","inputs":[{"name":"_token","type":"address","internalType":"address"},{"name":"_to","type":"address","internalType":"address"},{"name":"_amount","type":"uint256","internalType":"uint256"},{"name":"_gasLimit","type":"uint256","internalType":"uint256"}],"outputs":[],"stateMutability":"payable"},{"type":"function","name":"withdrawERC20AndCall","inputs":[{"name":"_token","type":"address","internalType":"address"},{"name":"_to","type":"address","internalType":"address"},{"name":"_amount","type":"uint256","internalType":"uint256"},{"name":"_data","type":"bytes","internalType":"bytes"},{"name":"_gasLimit","type":"uint256","internalType":"uint256"}],"outputs":[],"stateMutability":"payable"},{"type":"event","name":"FinalizeDepositERC20","inputs":[{"name":"l1Token","type":"address","indexed":true,"internalType":"address"},{"name":"l2Token","type":"address","indexed":true,"internalType":"address"},{"name":"from","type":"address","indexed":true,"internalType":"address"},{"name":"to","type":"address","indexed":false,"internalType":"address"},{"name":"amount","type":"uint256","indexed":false,"internalType":"uint256"},{"name":"data","type":"bytes","indexed":false,"internalType":"bytes"}],"anonymous":false},{"type":"event","name":"Initialized","inputs":[{"name":"version","type":"uint8","indexed":false,"internalType":"uint8"}],"anonymous":false},{"type":"event","name":"OwnershipTransferred","inputs":[{"name":"previousOwner","type":"address","indexed":true,"internalType":"address"},{"name":"newOwner","type":"address","indexed":true,"internalType":"address"}],"anonymous":false},{"type":"event","name":"UpdateTokenMapping","inputs":[{"name":"l2Token","type":"address","indexed":true,"internalType":"address"},{"name":"oldL1Token","type":"address","indexed":true,"internalType":"address"},{"name":"newL1Token","type":"address","indexed":true,"internalType":"address"}],"anonymous":false},{"type":"event","name":"WithdrawERC20","inputs":[{"name":"l1Token","type":"address","indexed":true,"internalType":"address"},{"name":"l2Token","type":"address","indexed":true,"internalType":"address"},{"name":"from","type":"address","indexed":true,"internalType":"address"},{"name":"to","type":"address","indexed":false,"internalType":"address"},{"name":"amount","type":"uint256","indexed":false,"internalType":"uint256"},{"name":"data","type":"bytes","indexed":false,"internalType":"bytes"}],"anonymous":false},{"type":"error","name":"ErrorCallerIsNotCounterpartGateway","inputs":[]},{"type":"error","name":"ErrorCallerIsNotMessenger","inputs":[]},{"type":"error","name":"ErrorNotInDropMessageContext","inputs":[]},{"type":"error","name":"ErrorZeroAddress","inputs":[]}],"bytecode":{"object":"0x60e06040523480156200001157600080fd5b50604051620016363803806200163683398101604081905262000034916200019e565b8282826001600160a01b03831615806200005557506001600160a01b038116155b15620000745760405163a7f9319d60e01b815260040160405180910390fd5b6001600160a01b0392831660805290821660a052811660c0528216620000ad5760405163a7f9319d60e01b815260040160405180910390fd5b620000b7620000c0565b505050620001e8565b600054610100900460ff16156200012d5760405162461bcd60e51b815260206004820152602760248201527f496e697469616c697a61626c653a20636f6e747261637420697320696e697469604482015266616c697a696e6760c81b606482015260840160405180910390fd5b60005460ff908116146200017f576000805460ff191660ff9081179091556040519081527f7f26b83ff96e1f2b6a682f133852f6798a09c465da95921460cefb38474024989060200160405180910390a15b565b80516001600160a01b03811681146200019957600080fd5b919050565b600080600060608486031215620001b457600080fd5b620001bf8462000181565b9250620001cf6020850162000181565b9150620001df6040850162000181565b90509250925092565b60805160a05160c0516113f5620002416000396000818160ff015281816103b7015281816103ff0152610b3e0152600081816102d30152610a350152600081816101c50152818161048a0152610b6d01526113f56000f3fe6080604052600436106100e85760003560e01c80638da5cb5b1161008a578063c676ad2911610059578063c676ad2914610281578063f2fde38b146102a1578063f887ea40146102c1578063fac752eb146102f557600080fd5b80638da5cb5b146101fa578063a93a4af914610218578063ba27f50b1461022b578063c0c53b8b1461026157600080fd5b80636c07ea43116100c65780636c07ea431461018b578063715018a61461019e578063797594b0146101b35780638431f5c1146101e757600080fd5b80633cb747bf146100ed57806354bbd59c1461013d578063575361b614610176575b600080fd5b3480156100f957600080fd5b506101217f000000000000000000000000000000000000000000000000000000000000000081565b6040516001600160a01b03909116815260200160405180910390f35b34801561014957600080fd5b50610121610158366004610e9d565b6001600160a01b03908116600090815260fb60205260409020541690565b610189610184366004610f0a565b610315565b005b610189610199366004610f85565b610361565b3480156101aa57600080fd5b506101896103a0565b3480156101bf57600080fd5b506101217f000000000000000000000000000000000000000000000000000000000000000081565b6101896101f5366004610fba565b6103b4565b34801561020657600080fd5b506065546001600160a01b0316610121565b610189610226366004611052565b6106e0565b34801561023757600080fd5b50610121610246366004610e9d565b60fb602052600090815260409020546001600160a01b031681565b34801561026d57600080fd5b5061018961027c366004611098565b6106f3565b34801561028d57600080fd5b5061012161029c366004610e9d565b610809565b3480156102ad57600080fd5b506101896102bc366004610e9d565b610844565b3480156102cd57600080fd5b506101217f000000000000000000000000000000000000000000000000000000000000000081565b34801561030157600080fd5b506101896103103660046110e3565b6108bd565b61035986868686868080601f01602080910402602001604051908101604052809392919081815260200183838082843760009201919091525088925061097b915050565b505050505050565b61039b83338460005b6040519080825280601f01601f191660200182016040528015610394576020820181803683370190505b508561097b565b505050565b6103a8610c3a565b6103b26000610c94565b565b337f00000000000000000000000000000000000000000000000000000000000000006001600160a01b0316146103fd576040516385bd908d60e01b815260040160405180910390fd5b7f00000000000000000000000000000000000000000000000000000000000000006001600160a01b0316636e296e456040518163ffffffff1660e01b8152600401602060405180830381865afa15801561045b573d6000803e3d6000fd5b505050506040513d601f19601f8201168201806040525081019061047f9190611132565b6001600160a01b03167f00000000000000000000000000000000000000000000000000000000000000006001600160a01b0316146104d0576040516307b140f360e51b815260040160405180910390fd5b6104d8610ce6565b341561051f5760405162461bcd60e51b81526020600482015260116024820152706e6f6e7a65726f206d73672e76616c756560781b60448201526064015b60405180910390fd5b6001600160a01b0387166105715760405162461bcd60e51b81526020600482015260196024820152780746f6b656e20616464726573732063616e6e6f74206265203603c1b6044820152606401610516565b6001600160a01b03808716600090815260fb60205260409020548882169116146105d15760405162461bcd60e51b81526020600482015260116024820152700d86240e8ded6cadc40dad2e6dac2e8c6d607b1b6044820152606401610516565b6040516340c10f1960e01b81526001600160a01b038581166004830152602482018590528716906340c10f1990604401600060405180830381600087803b15801561061b57600080fd5b505af115801561062f573d6000803e3d6000fd5b505050506106738483838080601f016020809104026020016040519081016040528093929190818152602001838380828437600092019190915250610d3f92505050565b846001600160a01b0316866001600160a01b0316886001600160a01b03167f165ba69f6ab40c50cade6f65431801e5f9c7d7830b7545391920db039133ba34878787876040516106c6949392919061114f565b60405180910390a46106d760018055565b50505050505050565b6106ed848484600061036a565b50505050565b600054610100900460ff16158080156107135750600054600160ff909116105b8061072d5750303b15801561072d575060005460ff166001145b6107905760405162461bcd60e51b815260206004820152602e60248201527f496e697469616c697a61626c653a20636f6e747261637420697320616c72656160448201526d191e481a5b9a5d1a585b1a5e995960921b6064820152608401610516565b6000805460ff1916600117905580156107b3576000805461ff0019166101001790555b6107be848484610dc3565b80156106ed576000805461ff0019169055604051600181527f7f26b83ff96e1f2b6a682f133852f6798a09c465da95921460cefb38474024989060200160405180910390a150505050565b60405162461bcd60e51b815260206004820152600d60248201526c1d5b9a5b5c1b195b595b9d1959609a1b6044820152600090606401610516565b61084c610c3a565b6001600160a01b0381166108b15760405162461bcd60e51b815260206004820152602660248201527f4f776e61626c653a206e6577206f776e657220697320746865207a65726f206160448201526564647265737360d01b6064820152608401610516565b6108ba81610c94565b50565b6108c5610c3a565b6001600160a01b0381166109175760405162461bcd60e51b81526020600482015260196024820152780746f6b656e20616464726573732063616e6e6f74206265203603c1b6044820152606401610516565b6001600160a01b03808316600081815260fb602052604080822080548686166001600160a01b0319821681179092559151919094169392849290917f2069a26c43c36ffaabe0c2d19bf65e55dd03abecdc449f5cc9663491e97f709d9190a4505050565b610983610ce6565b6001600160a01b03808616600090815260fb602052604090205416806109eb5760405162461bcd60e51b815260206004820152601960248201527f6e6f20636f72726573706f6e64696e67206c3120746f6b656e000000000000006044820152606401610516565b60008411610a325760405162461bcd60e51b81526020600482015260146024820152731dda5d1a191c985dc81e995c9bc8185b5bdd5b9d60621b6044820152606401610516565b337f00000000000000000000000000000000000000000000000000000000000000006001600160a01b0316819003610a7d5783806020019051810190610a7891906111bb565b945090505b604051632770a7eb60e21b81526001600160a01b03828116600483015260248201879052881690639dc29fac90604401600060405180830381600087803b158015610ac757600080fd5b505af1158015610adb573d6000803e3d6000fd5b505050506000828883898989604051602401610afc969594939291906112aa565b60408051601f198184030181529181526020820180516001600160e01b031663084bd13b60e41b1790525163b2267a7b60e01b81529091506001600160a01b037f0000000000000000000000000000000000000000000000000000000000000000169063b2267a7b903490610b9c907f00000000000000000000000000000000000000000000000000000000000000009060009087908b906004016112f9565b6000604051808303818588803b158015610bb557600080fd5b505af1158015610bc9573d6000803e3d6000fd5b5050505050816001600160a01b0316886001600160a01b0316846001600160a01b03167fd8d3a3f4ab95694bef40475997598bcf8acd3ed9617a4c1013795429414c27e88a8a8a604051610c1f93929190611331565b60405180910390a4505050610c3360018055565b5050505050565b6065546001600160a01b031633146103b25760405162461bcd60e51b815260206004820181905260248201527f4f776e61626c653a2063616c6c6572206973206e6f7420746865206f776e65726044820152606401610516565b606580546001600160a01b038381166001600160a01b0319831681179093556040519116919082907f8be0079c531659141344cd1fd0a4f28419497f9722a3daafe3b4186f6b6457e090600090a35050565b600260015403610d385760405162461bcd60e51b815260206004820152601f60248201527f5265656e7472616e637947756172643a207265656e7472616e742063616c6c006044820152606401610516565b6002600155565b60008151118015610d5a57506000826001600160a01b03163b115b15610db95760405163109b953160e01b81526001600160a01b0383169063109b953190610d8b908490600401611361565b600060405180830381600087803b158015610da557600080fd5b505af1158015610359573d6000803e3d6000fd5b5050565b60018055565b610dcb610dd3565b61039b610e02565b600054610100900460ff16610dfa5760405162461bcd60e51b815260040161051690611374565b6103b2610e31565b600054610100900460ff16610e295760405162461bcd60e51b815260040161051690611374565b6103b2610e58565b600054610100900460ff16610dbd5760405162461bcd60e51b815260040161051690611374565b600054610100900460ff16610e7f5760405162461bcd60e51b815260040161051690611374565b6103b233610c94565b6001600160a01b03811681146108ba57600080fd5b600060208284031215610eaf57600080fd5b8135610eba81610e88565b9392505050565b60008083601f840112610ed357600080fd5b50813567ffffffffffffffff811115610eeb57600080fd5b602083019150836020828501011115610f0357600080fd5b9250929050565b60008060008060008060a08789031215610f2357600080fd5b8635610f2e81610e88565b95506020870135610f3e81610e88565b945060408701359350606087013567ffffffffffffffff811115610f6157600080fd5b610f6d89828a01610ec1565b979a9699509497949695608090950135949350505050565b600080600060608486031215610f9a57600080fd5b8335610fa581610e88565b95602085013595506040909401359392505050565b600080600080600080600060c0888a031215610fd557600080fd5b8735610fe081610e88565b96506020880135610ff081610e88565b9550604088013561100081610e88565b9450606088013561101081610e88565b93506080880135925060a088013567ffffffffffffffff81111561103357600080fd5b61103f8a828b01610ec1565b989b979a50959850939692959293505050565b6000806000806080858703121561106857600080fd5b843561107381610e88565b9350602085013561108381610e88565b93969395505050506040820135916060013590565b6000806000606084860312156110ad57600080fd5b83356110b881610e88565b925060208401356110c881610e88565b915060408401356110d881610e88565b809150509250925092565b600080604083850312156110f657600080fd5b823561110181610e88565b9150602083013561111181610e88565b809150509250929050565b634e487b7160e01b600052604160045260246000fd5b60006020828403121561114457600080fd5b8151610eba81610e88565b6001600160a01b0385168152602081018490526060604082018190528101829052818360808301376000818301608090810191909152601f909201601f191601019392505050565b60005b838110156111b257818101518382015260200161119a565b50506000910152565b600080604083850312156111ce57600080fd5b82516111d981610e88565b602084015190925067ffffffffffffffff808211156111f757600080fd5b818501915085601f83011261120b57600080fd5b81518181111561121d5761121d61111c565b604051601f8201601f19908116603f011681019083821181831017156112455761124561111c565b8160405282815288602084870101111561125e57600080fd5b61126f836020830160208801611197565b80955050505050509250929050565b60008151808452611296816020860160208601611197565b601f01601f19169290920160200192915050565b6001600160a01b03878116825286811660208301528581166040830152841660608201526080810183905260c060a082018190526000906112ed9083018461127e565b98975050505050505050565b60018060a01b0385168152836020820152608060408201526000611320608083018561127e565b905082606083015295945050505050565b60018060a01b0384168152826020820152606060408201526000611358606083018461127e565b95945050505050565b602081526000610eba602083018461127e565b6020808252602b908201527f496e697469616c697a61626c653a20636f6e7472616374206973206e6f74206960408201526a6e697469616c697a696e6760a81b60608201526080019056fea2646970667358221220e4abbb135d851b2b41dbd7d4bdbc991f7965c60ff2bd8a67be7b81609c93c02564736f6c63430008100033","linkReferences":{}},"methodIdentifiers":{"counterpart()":"797594b0","finalizeDepositERC20(address,address,address,address,uint256,bytes)":"8431f5c1","getL1ERC20Address(address)":"54bbd59c","getL2ERC20Address(address)":"c676ad29","initialize(address,address,address)":"c0c53b8b","messenger()":"3cb747bf","owner()":"8da5cb5b","renounceOwnership()":"715018a6","router()":"f887ea40","tokenMapping(address)":"ba27f50b","transferOwnership(address)":"f2fde38b","updateTokenMapping(address,address)":"fac752eb","withdrawERC20(address,address,uint256,uint256)":"a93a4af9","withdrawERC20(address,uint256,uint256)":"6c07ea43","withdrawERC20AndCall(address,address,uint256,bytes,uint256)":"575361b6"},"id":157}