{"abi":[{"type":"constructor","inputs":[{"name":"_counterpart","type":"address","internalType":"address"},{"name":"_messenger","type":"address","internalType":"address"}],"stateMutability":"nonpayable"},{"type":"function","name":"batchWithdrawERC721","inputs":[{"name":"_token","type":"address","internalType":"address"},{"name":"_tokenIds","type":"uint256[]","internalType":"uint256[]"},{"name":"_gasLimit","type":"uint256","internalType":"uint256"}],"outputs":[],"stateMutability":"payable"},{"type":"function","name":"batchWithdrawERC721","inputs":[{"name":"_token","type":"address","internalType":"address"},{"name":"_to","type":"address","internalType":"address"},{"name":"_tokenIds","type":"uint256[]","internalType":"uint256[]"},{"name":"_gasLimit","type":"uint256","internalType":"uint256"}],"outputs":[],"stateMutability":"payable"},{"type":"function","name":"counterpart","inputs":[],"outputs":[{"name":"","type":"address","internalType":"address"}],"stateMutability":"view"},{"type":"function","name":"finalizeBatchDepositERC721","inputs":[{"name":"_l1Token","type":"address","internalType":"address"},{"name":"_l2Token","type":"address","internalType":"address"},{"name":"_from","type":"address","internalType":"address"},{"name":"_to","type":"address","internalType":"address"},{"name":"_tokenIds","type":"uint256[]","internalType":"uint256[]"}],"outputs":[],"stateMutability":"nonpayable"},{"type":"function","name":"finalizeDepositERC721","inputs":[{"name":"_l1Token","type":"address","internalType":"address"},{"name":"_l2Token","type":"address","internalType":"address"},{"name":"_from","type":"address","internalType":"address"},{"name":"_to","type":"address","internalType":"address"},{"name":"_tokenId","type":"uint256","internalType":"uint256"}],"outputs":[],"stateMutability":"nonpayable"},{"type":"function","name":"initialize","inputs":[{"name":"_counterpart","type":"address","internalType":"address"},{"name":"_messenger","type":"address","internalType":"address"}],"outputs":[],"stateMutability":"nonpayable"},{"type":"function","name":"messenger","inputs":[],"outputs":[{"name":"","type":"address","internalType":"address"}],"stateMutability":"view"},{"type":"function","name":"onERC721Received","inputs":[{"name":"","type":"address","internalType":"address"},{"name":"","type":"address","internalType":"address"},{"name":"","type":"uint256","internalType":"uint256"},{"name":"","type":"bytes","internalType":"bytes"}],"outputs":[{"name":"","type":"bytes4","internalType":"bytes4"}],"stateMutability":"nonpayable"},{"type":"function","name":"owner","inputs":[],"outputs":[{"name":"","type":"address","internalType":"address"}],"stateMutability":"view"},{"type":"function","name":"renounceOwnership","inputs":[],"outputs":[],"stateMutability":"nonpayable"},{"type":"function","name":"router","inputs":[],"outputs":[{"name":"","type":"address","internalType":"address"}],"stateMutability":"view"},{"type":"function","name":"tokenMapping","inputs":[{"name":"","type":"address","internalType":"address"}],"outputs":[{"name":"","type":"address","internalType":"address"}],"stateMutability":"view"},{"type":"function","name":"transferOwnership","inputs":[{"name":"newOwner","type":"address","internalType":"address"}],"outputs":[],"stateMutability":"nonpayable"},{"type":"function","name":"updateTokenMapping","inputs":[{"name":"_l2Token","type":"address","internalType":"address"},{"name":"_l1Token","type":"address","internalType":"address"}],"outputs":[],"stateMutability":"nonpayable"},{"type":"function","name":"withdrawERC721","inputs":[{"name":"_token","type":"address","internalType":"address"},{"name":"_tokenId","type":"uint256","internalType":"uint256"},{"name":"_gasLimit","type":"uint256","internalType":"uint256"}],"outputs":[],"stateMutability":"payable"},{"type":"function","name":"withdrawERC721","inputs":[{"name":"_token","type":"address","internalType":"address"},{"name":"_to","type":"address","internalType":"address"},{"name":"_tokenId","type":"uint256","internalType":"uint256"},{"name":"_gasLimit","type":"uint256","internalType":"uint256"}],"outputs":[],"stateMutability":"payable"},{"type":"event","name":"BatchWithdrawERC721","inputs":[{"name":"l1Token","type":"address","indexed":true,"internalType":"address"},{"name":"l2Token","type":"address","indexed":true,"internalType":"address"},{"name":"from","type":"address","indexed":true,"internalType":"address"},{"name":"to","type":"address","indexed":false,"internalType":"address"},{"name":"tokenIds","type":"uint256[]","indexed":false,"internalType":"uint256[]"}],"anonymous":false},{"type":"event","name":"FinalizeBatchDepositERC721","inputs":[{"name":"l1Token","type":"address","indexed":true,"internalType":"address"},{"name":"l2Token","type":"address","indexed":true,"internalType":"address"},{"name":"from","type":"address","indexed":true,"internalType":"address"},{"name":"to","type":"address","indexed":false,"internalType":"address"},{"name":"tokenIds","type":"uint256[]","indexed":false,"internalType":"uint256[]"}],"anonymous":false},{"type":"event","name":"FinalizeDepositERC721","inputs":[{"name":"l1Token","type":"address","indexed":true,"internalType":"address"},{"name":"l2Token","type":"address","indexed":true,"internalType":"address"},{"name":"from","type":"address","indexed":true,"internalType":"address"},{"name":"to","type":"address","indexed":false,"internalType":"address"},{"name":"tokenId","type":"uint256","indexed":false,"internalType":"uint256"}],"anonymous":false},{"type":"event","name":"Initialized","inputs":[{"name":"version","type":"uint8","indexed":false,"internalType":"uint8"}],"anonymous":false},{"type":"event","name":"OwnershipTransferred","inputs":[{"name":"previousOwner","type":"address","indexed":true,"internalType":"address"},{"name":"newOwner","type":"address","indexed":true,"internalType":"address"}],"anonymous":false},{"type":"event","name":"UpdateTokenMapping","inputs":[{"name":"l2Token","type":"address","indexed":true,"internalType":"address"},{"name":"oldL1Token","type":"address","indexed":true,"internalType":"address"},{"name":"newL1Token","type":"address","indexed":true,"internalType":"address"}],"anonymous":false},{"type":"event","name":"WithdrawERC721","inputs":[{"name":"l1Token","type":"address","indexed":true,"internalType":"address"},{"name":"l2Token","type":"address","indexed":true,"internalType":"address"},{"name":"from","type":"address","indexed":true,"internalType":"address"},{"name":"to","type":"address","indexed":false,"internalType":"address"},{"name":"tokenId","type":"uint256","indexed":false,"internalType":"uint256"}],"anonymous":false},{"type":"error","name":"ErrorCallerIsNotCounterpartGateway","inputs":[]},{"type":"error","name":"ErrorCallerIsNotMessenger","inputs":[]},{"type":"error","name":"ErrorNotInDropMessageContext","inputs":[]},{"type":"error","name":"ErrorZeroAddress","inputs":[]}],"bytecode":{"object":"0x60e06040523480156200001157600080fd5b5060405162001b7d38038062001b7d83398101604081905262000034916200017d565b816000826001600160a01b03831615806200005657506001600160a01b038116155b15620000755760405163a7f9319d60e01b815260040160405180910390fd5b6001600160a01b0392831660805290821660a0521660c052620000976200009f565b5050620001b5565b600054610100900460ff16156200010c5760405162461bcd60e51b815260206004820152602760248201527f496e697469616c697a61626c653a20636f6e747261637420697320696e697469604482015266616c697a696e6760c81b606482015260840160405180910390fd5b60005460ff908116146200015e576000805460ff191660ff9081179091556040519081527f7f26b83ff96e1f2b6a682f133852f6798a09c465da95921460cefb38474024989060200160405180910390a15b565b80516001600160a01b03811681146200017857600080fd5b919050565b600080604083850312156200019157600080fd5b6200019c8362000160565b9150620001ac6020840162000160565b90509250929050565b60805160a05160c0516119526200022b60003960008181610168015281816104aa015281816104f2015281816108000152818161084801528181610ce80152611053015260006102ea0152600081816101fc0152818161057d015281816108d301528181610d17015261108201526119526000f3fe6080604052600436106100f35760003560e01c8063982b151f1161008a578063f2fde38b11610059578063f2fde38b146102b8578063f887ea40146102d8578063f8c3cf251461030c578063fac752eb1461032c57600080fd5b8063982b151f1461023c578063aa4c11581461025c578063ba27f50b1461026f578063ee5a8db2146102a557600080fd5b8063485cc955116100c6578063485cc955146101b5578063715018a6146101d5578063797594b0146101ea5780638da5cb5b1461021e57600080fd5b8063150b7a02146100f85780632a491247146101415780633cb747bf1461015657806346aa3411146101a2575b600080fd5b34801561010457600080fd5b5061012361011336600461136c565b630a85bd0160e11b949350505050565b6040516001600160e01b031990911681526020015b60405180910390f35b61015461014f36600461144c565b61034c565b005b34801561016257600080fd5b5061018a7f000000000000000000000000000000000000000000000000000000000000000081565b6040516001600160a01b039091168152602001610138565b6101546101b03660046114cd565b61035d565b3480156101c157600080fd5b506101546101d0366004611529565b610370565b3480156101e157600080fd5b50610154610493565b3480156101f657600080fd5b5061018a7f000000000000000000000000000000000000000000000000000000000000000081565b34801561022a57600080fd5b506097546001600160a01b031661018a565b34801561024857600080fd5b50610154610257366004611562565b6104a7565b61015461026a3660046115f0565b610764565b34801561027b57600080fd5b5061018a61028a36600461165d565b60fb602052600090815260409020546001600160a01b031681565b6101546102b3366004611681565b610778565b3480156102c457600080fd5b506101546102d336600461165d565b610784565b3480156102e457600080fd5b5061018a7f000000000000000000000000000000000000000000000000000000000000000081565b34801561031857600080fd5b506101546103273660046116c7565b6107fd565b34801561033857600080fd5b50610154610347366004611529565b610a61565b61035883338484610af3565b505050565b61036a8433858585610dd3565b50505050565b600054610100900460ff16158080156103905750600054600160ff909116105b806103aa5750303b1580156103aa575060005460ff166001145b6104125760405162461bcd60e51b815260206004820152602e60248201527f496e697469616c697a61626c653a20636f6e747261637420697320616c72656160448201526d191e481a5b9a5d1a585b1a5e995960921b60648201526084015b60405180910390fd5b6000805460ff191660011790558015610435576000805461ff0019166101001790555b61043d611149565b61044983600084611170565b8015610358576000805461ff0019169055604051600181527f7f26b83ff96e1f2b6a682f133852f6798a09c465da95921460cefb38474024989060200160405180910390a1505050565b61049b611180565b6104a560006111da565b565b337f00000000000000000000000000000000000000000000000000000000000000006001600160a01b0316146104f0576040516385bd908d60e01b815260040160405180910390fd5b7f00000000000000000000000000000000000000000000000000000000000000006001600160a01b0316636e296e456040518163ffffffff1660e01b8152600401602060405180830381865afa15801561054e573d6000803e3d6000fd5b505050506040513d601f19601f82011682018060405250810190610572919061172b565b6001600160a01b03167f00000000000000000000000000000000000000000000000000000000000000006001600160a01b0316146105c3576040516307b140f360e51b815260040160405180910390fd5b6105cb61122c565b6001600160a01b0386166105f15760405162461bcd60e51b815260040161040990611748565b6001600160a01b03808616600090815260fb60205260409020548782169116146106515760405162461bcd60e51b81526020600482015260116024820152700d86440e8ded6cadc40dad2e6dac2e8c6d607b1b6044820152606401610409565b60005b818110156106f857856001600160a01b03166340c10f198585858581811061067e5761067e61177f565b6040516001600160e01b031960e087901b1681526001600160a01b0390941660048501526020029190910135602483015250604401600060405180830381600087803b1580156106cd57600080fd5b505af11580156106e1573d6000803e3d6000fd5b5050505080806106f090611795565b915050610654565b50836001600160a01b0316856001600160a01b0316876001600160a01b03167fafa88b850da44ca05b319e813873eac8d08e7c041d2d9b3072db0f087e3cd29e86868660405161074a939291906117ee565b60405180910390a461075c6001603355565b505050505050565b6107718585858585610dd3565b5050505050565b61036a84848484610af3565b61078c611180565b6001600160a01b0381166107f15760405162461bcd60e51b815260206004820152602660248201527f4f776e61626c653a206e6577206f776e657220697320746865207a65726f206160448201526564647265737360d01b6064820152608401610409565b6107fa816111da565b50565b337f00000000000000000000000000000000000000000000000000000000000000006001600160a01b031614610846576040516385bd908d60e01b815260040160405180910390fd5b7f00000000000000000000000000000000000000000000000000000000000000006001600160a01b0316636e296e456040518163ffffffff1660e01b8152600401602060405180830381865afa1580156108a4573d6000803e3d6000fd5b505050506040513d601f19601f820116820180604052508101906108c8919061172b565b6001600160a01b03167f00000000000000000000000000000000000000000000000000000000000000006001600160a01b031614610919576040516307b140f360e51b815260040160405180910390fd5b61092161122c565b6001600160a01b0385166109475760405162461bcd60e51b815260040161040990611748565b6001600160a01b03808516600090815260fb60205260409020548682169116146109a75760405162461bcd60e51b81526020600482015260116024820152700d86440e8ded6cadc40dad2e6dac2e8c6d607b1b6044820152606401610409565b6040516340c10f1960e01b81526001600160a01b038381166004830152602482018390528516906340c10f1990604401600060405180830381600087803b1580156109f157600080fd5b505af1158015610a05573d6000803e3d6000fd5b5050604080516001600160a01b03868116825260208201869052808816945088811693508916917fc655ec1de34d98630aa4572239414f926d6b3d07653dde093a6df97377e31b41910160405180910390a46107716001603355565b610a69611180565b6001600160a01b038116610a8f5760405162461bcd60e51b815260040161040990611748565b6001600160a01b03808316600081815260fb602052604080822080548686166001600160a01b0319821681179092559151919094169392849290917f2069a26c43c36ffaabe0c2d19bf65e55dd03abecdc449f5cc9663491e97f709d9190a4505050565b610afb61122c565b6001600160a01b03808516600090815260fb60205260409020541680610b5f5760405162461bcd60e51b815260206004820152601960248201527837379031b7b93932b9b837b73234b733903618903a37b5b2b760391b6044820152606401610409565b6040516331a9108f60e11b815260048101849052339081906001600160a01b03881690636352211e90602401602060405180830381865afa158015610ba8573d6000803e3d6000fd5b505050506040513d601f19601f82011682018060405250810190610bcc919061172b565b6001600160a01b031614610c145760405162461bcd60e51b815260206004820152600f60248201526e1d1bdad95b881b9bdd081bdddb9959608a1b6044820152606401610409565b604051630852cd8d60e31b8152600481018590526001600160a01b038716906342966c6890602401600060405180830381600087803b158015610c5657600080fd5b505af1158015610c6a573d6000803e3d6000fd5b50506040516001600160a01b038086166024830152808a16604483015280851660648301528816608482015260a481018790526000925060c401905060408051601f198184030181529181526020820180516001600160e01b0316633581ad3760e21b1790525163b2267a7b60e01b81529091506001600160a01b037f0000000000000000000000000000000000000000000000000000000000000000169063b2267a7b903490610d46907f00000000000000000000000000000000000000000000000000000000000000009060009087908b9060040161181c565b6000604051808303818588803b158015610d5f57600080fd5b505af1158015610d73573d6000803e3d6000fd5b5050604080516001600160a01b038b81168252602082018b905280881695508c81169450881692507fe9e85cf0c862dd491ecda3c9a230e12ada8956472028ebde4fdc4f8e2d77bcda910160405180910390a450505061036a6001603355565b610ddb61122c565b81610e1f5760405162461bcd60e51b81526020600482015260146024820152736e6f20746f6b656e20746f20776974686472617760601b6044820152606401610409565b6001600160a01b03808616600090815260fb60205260409020541680610e835760405162461bcd60e51b815260206004820152601960248201527837379031b7b93932b9b837b73234b733903618903a37b5b2b760391b6044820152606401610409565b3360005b84811015610ff357816001600160a01b0316886001600160a01b0316636352211e888885818110610eba57610eba61177f565b905060200201356040518263ffffffff1660e01b8152600401610edf91815260200190565b602060405180830381865afa158015610efc573d6000803e3d6000fd5b505050506040513d601f19601f82011682018060405250810190610f20919061172b565b6001600160a01b031614610f685760405162461bcd60e51b815260206004820152600f60248201526e1d1bdad95b881b9bdd081bdddb9959608a1b6044820152606401610409565b876001600160a01b03166342966c68878784818110610f8957610f8961177f565b905060200201356040518263ffffffff1660e01b8152600401610fae91815260200190565b600060405180830381600087803b158015610fc857600080fd5b505af1158015610fdc573d6000803e3d6000fd5b505050508080610feb90611795565b915050610e87565b50600082888389898960405160240161101196959493929190611888565b60408051601f198184030181529181526020820180516001600160e01b0316639f0a68b360e01b1790525163b2267a7b60e01b81529091506001600160a01b037f0000000000000000000000000000000000000000000000000000000000000000169063b2267a7b9034906110b1907f00000000000000000000000000000000000000000000000000000000000000009060009087908b9060040161181c565b6000604051808303818588803b1580156110ca57600080fd5b505af11580156110de573d6000803e3d6000fd5b5050505050816001600160a01b0316886001600160a01b0316846001600160a01b03167fbdb7b5cec70093e3ce49b258071951d245c0871c006fd9327778c69d0e9f244d8a8a8a604051611134939291906117ee565b60405180910390a45050506107716001603355565b600054610100900460ff166104a55760405162461bcd60e51b8152600401610409906118d1565b61117861128c565b6103586112bb565b6097546001600160a01b031633146104a55760405162461bcd60e51b815260206004820181905260248201527f4f776e61626c653a2063616c6c6572206973206e6f7420746865206f776e65726044820152606401610409565b609780546001600160a01b038381166001600160a01b0319831681179093556040519116919082907f8be0079c531659141344cd1fd0a4f28419497f9722a3daafe3b4186f6b6457e090600090a35050565b60026033540361127e5760405162461bcd60e51b815260206004820152601f60248201527f5265656e7472616e637947756172643a207265656e7472616e742063616c6c006044820152606401610409565b6002603355565b6001603355565b600054610100900460ff166112b35760405162461bcd60e51b8152600401610409906118d1565b6104a56112ea565b600054610100900460ff166112e25760405162461bcd60e51b8152600401610409906118d1565b6104a5611311565b600054610100900460ff166112855760405162461bcd60e51b8152600401610409906118d1565b600054610100900460ff166113385760405162461bcd60e51b8152600401610409906118d1565b6104a5336111da565b6001600160a01b03811681146107fa57600080fd5b634e487b7160e01b600052604160045260246000fd5b6000806000806080858703121561138257600080fd5b843561138d81611341565b9350602085013561139d81611341565b925060408501359150606085013567ffffffffffffffff808211156113c157600080fd5b818701915087601f8301126113d557600080fd5b8135818111156113e7576113e7611356565b604051601f8201601f19908116603f0116810190838211818310171561140f5761140f611356565b816040528281528a602084870101111561142857600080fd5b82602086016020830137600060208483010152809550505050505092959194509250565b60008060006060848603121561146157600080fd5b833561146c81611341565b95602085013595506040909401359392505050565b60008083601f84011261149357600080fd5b50813567ffffffffffffffff8111156114ab57600080fd5b6020830191508360208260051b85010111156114c657600080fd5b9250929050565b600080600080606085870312156114e357600080fd5b84356114ee81611341565b9350602085013567ffffffffffffffff81111561150a57600080fd5b61151687828801611481565b9598909750949560400135949350505050565b6000806040838503121561153c57600080fd5b823561154781611341565b9150602083013561155781611341565b809150509250929050565b60008060008060008060a0878903121561157b57600080fd5b863561158681611341565b9550602087013561159681611341565b945060408701356115a681611341565b935060608701356115b681611341565b9250608087013567ffffffffffffffff8111156115d257600080fd5b6115de89828a01611481565b979a9699509497509295939492505050565b60008060008060006080868803121561160857600080fd5b853561161381611341565b9450602086013561162381611341565b9350604086013567ffffffffffffffff81111561163f57600080fd5b61164b88828901611481565b96999598509660600135949350505050565b60006020828403121561166f57600080fd5b813561167a81611341565b9392505050565b6000806000806080858703121561169757600080fd5b84356116a281611341565b935060208501356116b281611341565b93969395505050506040820135916060013590565b600080600080600060a086880312156116df57600080fd5b85356116ea81611341565b945060208601356116fa81611341565b9350604086013561170a81611341565b9250606086013561171a81611341565b949793965091946080013592915050565b60006020828403121561173d57600080fd5b815161167a81611341565b60208082526019908201527f746f6b656e20616464726573732063616e6e6f74206265203000000000000000604082015260600190565b634e487b7160e01b600052603260045260246000fd5b6000600182016117b557634e487b7160e01b600052601160045260246000fd5b5060010190565b81835260006001600160fb1b038311156117d557600080fd5b8260051b80836020870137939093016020019392505050565b6001600160a01b038416815260406020820181905260009061181390830184866117bc565b95945050505050565b60018060a01b038516815260006020858184015260806040840152845180608085015260005b8181101561185e5786810183015185820160a001528201611842565b50600060a0828601015260a0601f19601f8301168501019250505082606083015295945050505050565b6001600160a01b038781168252868116602083015285811660408301528416606082015260a0608082018190526000906118c590830184866117bc565b98975050505050505050565b6020808252602b908201527f496e697469616c697a61626c653a20636f6e7472616374206973206e6f74206960408201526a6e697469616c697a696e6760a81b60608201526080019056fea2646970667358221220dccd918b6c8db7df2796b7832213b579149f2595b41968dfdb30146b75b1bb1d64736f6c63430008100033","linkReferences":{}},"methodIdentifiers":{"batchWithdrawERC721(address,address,uint256[],uint256)":"aa4c1158","batchWithdrawERC721(address,uint256[],uint256)":"46aa3411","counterpart()":"797594b0","finalizeBatchDepositERC721(address,address,address,address,uint256[])":"982b151f","finalizeDepositERC721(address,address,address,address,uint256)":"f8c3cf25","initialize(address,address)":"485cc955","messenger()":"3cb747bf","onERC721Received(address,address,uint256,bytes)":"150b7a02","owner()":"8da5cb5b","renounceOwnership()":"715018a6","router()":"f887ea40","tokenMapping(address)":"ba27f50b","transferOwnership(address)":"f2fde38b","updateTokenMapping(address,address)":"fac752eb","withdrawERC721(address,address,uint256,uint256)":"ee5a8db2","withdrawERC721(address,uint256,uint256)":"2a491247"},"id":160}