{"abi":[{"type":"constructor","inputs":[{"name":"_counterpart","type":"address","internalType":"address"},{"name":"_messenger","type":"address","internalType":"address"}],"stateMutability":"nonpayable"},{"type":"function","name":"batchWithdrawERC1155","inputs":[{"name":"_token","type":"address","internalType":"address"},{"name":"_tokenIds","type":"uint256[]","internalType":"uint256[]"},{"name":"_amounts","type":"uint256[]","internalType":"uint256[]"},{"name":"_gasLimit","type":"uint256","internalType":"uint256"}],"outputs":[],"stateMutability":"payable"},{"type":"function","name":"batchWithdrawERC1155","inputs":[{"name":"_token","type":"address","internalType":"address"},{"name":"_to","type":"address","internalType":"address"},{"name":"_tokenIds","type":"uint256[]","internalType":"uint256[]"},{"name":"_amounts","type":"uint256[]","internalType":"uint256[]"},{"name":"_gasLimit","type":"uint256","internalType":"uint256"}],"outputs":[],"stateMutability":"payable"},{"type":"function","name":"counterpart","inputs":[],"outputs":[{"name":"","type":"address","internalType":"address"}],"stateMutability":"view"},{"type":"function","name":"finalizeBatchDepositERC1155","inputs":[{"name":"_l1Token","type":"address","internalType":"address"},{"name":"_l2Token","type":"address","internalType":"address"},{"name":"_from","type":"address","internalType":"address"},{"name":"_to","type":"address","internalType":"address"},{"name":"_tokenIds","type":"uint256[]","internalType":"uint256[]"},{"name":"_amounts","type":"uint256[]","internalType":"uint256[]"}],"outputs":[],"stateMutability":"nonpayable"},{"type":"function","name":"finalizeDepositERC1155","inputs":[{"name":"_l1Token","type":"address","internalType":"address"},{"name":"_l2Token","type":"address","internalType":"address"},{"name":"_from","type":"address","internalType":"address"},{"name":"_to","type":"address","internalType":"address"},{"name":"_tokenId","type":"uint256","internalType":"uint256"},{"name":"_amount","type":"uint256","internalType":"uint256"}],"outputs":[],"stateMutability":"nonpayable"},{"type":"function","name":"initialize","inputs":[{"name":"_counterpart","type":"address","internalType":"address"},{"name":"_messenger","type":"address","internalType":"address"}],"outputs":[],"stateMutability":"nonpayable"},{"type":"function","name":"messenger","inputs":[],"outputs":[{"name":"","type":"address","internalType":"address"}],"stateMutability":"view"},{"type":"function","name":"onERC1155BatchReceived","inputs":[{"name":"","type":"address","internalType":"address"},{"name":"","type":"address","internalType":"address"},{"name":"","type":"uint256[]","internalType":"uint256[]"},{"name":"","type":"uint256[]","internalType":"uint256[]"},{"name":"","type":"bytes","internalType":"bytes"}],"outputs":[{"name":"","type":"bytes4","internalType":"bytes4"}],"stateMutability":"nonpayable"},{"type":"function","name":"onERC1155Received","inputs":[{"name":"","type":"address","internalType":"address"},{"name":"","type":"address","internalType":"address"},{"name":"","type":"uint256","internalType":"uint256"},{"name":"","type":"uint256","internalType":"uint256"},{"name":"","type":"bytes","internalType":"bytes"}],"outputs":[{"name":"","type":"bytes4","internalType":"bytes4"}],"stateMutability":"nonpayable"},{"type":"function","name":"owner","inputs":[],"outputs":[{"name":"","type":"address","internalType":"address"}],"stateMutability":"view"},{"type":"function","name":"renounceOwnership","inputs":[],"outputs":[],"stateMutability":"nonpayable"},{"type":"function","name":"router","inputs":[],"outputs":[{"name":"","type":"address","internalType":"address"}],"stateMutability":"view"},{"type":"function","name":"supportsInterface","inputs":[{"name":"interfaceId","type":"bytes4","internalType":"bytes4"}],"outputs":[{"name":"","type":"bool","internalType":"bool"}],"stateMutability":"view"},{"type":"function","name":"tokenMapping","inputs":[{"name":"","type":"address","internalType":"address"}],"outputs":[{"name":"","type":"address","internalType":"address"}],"stateMutability":"view"},{"type":"function","name":"transferOwnership","inputs":[{"name":"newOwner","type":"address","internalType":"address"}],"outputs":[],"stateMutability":"nonpayable"},{"type":"function","name":"updateTokenMapping","inputs":[{"name":"_l2Token","type":"address","internalType":"address"},{"name":"_l1Token","type":"address","internalType":"address"}],"outputs":[],"stateMutability":"nonpayable"},{"type":"function","name":"withdrawERC1155","inputs":[{"name":"_token","type":"address","internalType":"address"},{"name":"_tokenId","type":"uint256","internalType":"uint256"},{"name":"_amount","type":"uint256","internalType":"uint256"},{"name":"_gasLimit","type":"uint256","internalType":"uint256"}],"outputs":[],"stateMutability":"payable"},{"type":"function","name":"withdrawERC1155","inputs":[{"name":"_token","type":"address","internalType":"address"},{"name":"_to","type":"address","internalType":"address"},{"name":"_tokenId","type":"uint256","internalType":"uint256"},{"name":"_amount","type":"uint256","internalType":"uint256"},{"name":"_gasLimit","type":"uint256","internalType":"uint256"}],"outputs":[],"stateMutability":"payable"},{"type":"event","name":"BatchWithdrawERC1155","inputs":[{"name":"l1Token","type":"address","indexed":true,"internalType":"address"},{"name":"l2Token","type":"address","indexed":true,"internalType":"address"},{"name":"from","type":"address","indexed":true,"internalType":"address"},{"name":"to","type":"address","indexed":false,"internalType":"address"},{"name":"tokenIds","type":"uint256[]","indexed":false,"internalType":"uint256[]"},{"name":"amounts","type":"uint256[]","indexed":false,"internalType":"uint256[]"}],"anonymous":false},{"type":"event","name":"FinalizeBatchDepositERC1155","inputs":[{"name":"l1Token","type":"address","indexed":true,"internalType":"address"},{"name":"l2Token","type":"address","indexed":true,"internalType":"address"},{"name":"from","type":"address","indexed":true,"internalType":"address"},{"name":"to","type":"address","indexed":false,"internalType":"address"},{"name":"tokenIds","type":"uint256[]","indexed":false,"internalType":"uint256[]"},{"name":"amounts","type":"uint256[]","indexed":false,"internalType":"uint256[]"}],"anonymous":false},{"type":"event","name":"FinalizeDepositERC1155","inputs":[{"name":"l1Token","type":"address","indexed":true,"internalType":"address"},{"name":"l2Token","type":"address","indexed":true,"internalType":"address"},{"name":"from","type":"address","indexed":true,"internalType":"address"},{"name":"to","type":"address","indexed":false,"internalType":"address"},{"name":"tokenId","type":"uint256","indexed":false,"internalType":"uint256"},{"name":"amount","type":"uint256","indexed":false,"internalType":"uint256"}],"anonymous":false},{"type":"event","name":"Initialized","inputs":[{"name":"version","type":"uint8","indexed":false,"internalType":"uint8"}],"anonymous":false},{"type":"event","name":"OwnershipTransferred","inputs":[{"name":"previousOwner","type":"address","indexed":true,"internalType":"address"},{"name":"newOwner","type":"address","indexed":true,"internalType":"address"}],"anonymous":false},{"type":"event","name":"UpdateTokenMapping","inputs":[{"name":"l2Token","type":"address","indexed":true,"internalType":"address"},{"name":"oldL1Token","type":"address","indexed":true,"internalType":"address"},{"name":"newL1Token","type":"address","indexed":true,"internalType":"address"}],"anonymous":false},{"type":"event","name":"WithdrawERC1155","inputs":[{"name":"l1Token","type":"address","indexed":true,"internalType":"address"},{"name":"l2Token","type":"address","indexed":true,"internalType":"address"},{"name":"from","type":"address","indexed":true,"internalType":"address"},{"name":"to","type":"address","indexed":false,"internalType":"address"},{"name":"tokenId","type":"uint256","indexed":false,"internalType":"uint256"},{"name":"amount","type":"uint256","indexed":false,"internalType":"uint256"}],"anonymous":false},{"type":"error","name":"ErrorCallerIsNotCounterpartGateway","inputs":[]},{"type":"error","name":"ErrorCallerIsNotMessenger","inputs":[]},{"type":"error","name":"ErrorNotInDropMessageContext","inputs":[]},{"type":"error","name":"ErrorZeroAddress","inputs":[]}],"bytecode":{"object":"0x60e06040523480156200001157600080fd5b5060405162001e4e38038062001e4e83398101604081905262000034916200017d565b816000826001600160a01b03831615806200005657506001600160a01b038116155b15620000755760405163a7f9319d60e01b815260040160405180910390fd5b6001600160a01b0392831660805290821660a0521660c052620000976200009f565b5050620001b5565b600054610100900460ff16156200010c5760405162461bcd60e51b815260206004820152602760248201527f496e697469616c697a61626c653a20636f6e747261637420697320696e697469604482015266616c697a696e6760c81b606482015260840160405180910390fd5b60005460ff908116146200015e576000805460ff191660ff9081179091556040519081527f7f26b83ff96e1f2b6a682f133852f6798a09c465da95921460cefb38474024989060200160405180910390a15b565b80516001600160a01b03811681146200017857600080fd5b919050565b600080604083850312156200019157600080fd5b6200019c8362000160565b9150620001ac6020840162000160565b90509250929050565b60805160a05160c051611c236200022b6000396000818161017d0152818161042101528181610469015281816108170152818161085f01528181610d47015261110c0152600061037e015260008181610231015281816104f4015281816108ea01528181610d76015261113b0152611c236000f3fe6080604052600436106101095760003560e01c80638c23d5b211610095578063eaa72ad911610064578063eaa72ad914610300578063f23a6e6114610320578063f2fde38b1461034c578063f887ea401461036c578063fac752eb146103a057600080fd5b80638c23d5b2146102535780638da5cb5b14610266578063ba27f50b14610284578063bc197c81146102bb57600080fd5b80634764cc62116100dc5780634764cc62146101b7578063485cc955146101d757806348de03de146101f7578063715018a61461020a578063797594b01461021f57600080fd5b806301ffc9a71461010e5780630f2da0801461014357806321fedfc9146101585780633cb747bf1461016b575b600080fd5b34801561011a57600080fd5b5061012e610129366004611367565b6103c0565b60405190151581526020015b60405180910390f35b6101566101513660046113ad565b6103f7565b005b6101566101663660046113e8565b61040a565b34801561017757600080fd5b5061019f7f000000000000000000000000000000000000000000000000000000000000000081565b6040516001600160a01b03909116815260200161013a565b3480156101c357600080fd5b506101566101d2366004611439565b61041e565b3480156101e357600080fd5b506101566101f23660046114a7565b6106b2565b61015661020536600461152c565b6107d9565b34801561021657600080fd5b506101566107e8565b34801561022b57600080fd5b5061019f7f000000000000000000000000000000000000000000000000000000000000000081565b6101566102613660046115b7565b6107fc565b34801561027257600080fd5b5060fb546001600160a01b031661019f565b34801561029057600080fd5b5061019f61029f366004611655565b61015f602052600090815260409020546001600160a01b031681565b3480156102c757600080fd5b506102e76102d63660046117a9565b63bc197c8160e01b95945050505050565b6040516001600160e01b0319909116815260200161013a565b34801561030c57600080fd5b5061015661031b366004611857565b610814565b34801561032c57600080fd5b506102e761033b366004611911565b63f23a6e6160e01b95945050505050565b34801561035857600080fd5b50610156610367366004611655565b610a96565b34801561037857600080fd5b5061019f7f000000000000000000000000000000000000000000000000000000000000000081565b3480156103ac57600080fd5b506101566103bb3660046114a7565b610b0f565b60006001600160e01b03198216630271189760e51b14806103f157506301ffc9a760e01b6001600160e01b03198316145b92915050565b6104048433858585610ba2565b50505050565b6104178585858585610ba2565b5050505050565b337f00000000000000000000000000000000000000000000000000000000000000006001600160a01b031614610467576040516385bd908d60e01b815260040160405180910390fd5b7f00000000000000000000000000000000000000000000000000000000000000006001600160a01b0316636e296e456040518163ffffffff1660e01b8152600401602060405180830381865afa1580156104c5573d6000803e3d6000fd5b505050506040513d601f19601f820116820180604052508101906104e9919061197a565b6001600160a01b03167f00000000000000000000000000000000000000000000000000000000000000006001600160a01b03161461053a576040516307b140f360e51b815260040160405180910390fd5b610542610e3b565b6001600160a01b0386166105715760405162461bcd60e51b815260040161056890611997565b60405180910390fd5b6001600160a01b03808616600090815261015f60205260409020548782169116146105d25760405162461bcd60e51b81526020600482015260116024820152700d86440e8ded6cadc40dad2e6dac2e8c6d607b1b6044820152606401610568565b60405163731133e960e01b81526001600160a01b0384811660048301526024820184905260448201839052608060648301526000608483015286169063731133e99060a401600060405180830381600087803b15801561063157600080fd5b505af1158015610645573d6000803e3d6000fd5b5050604080516001600160a01b0387811682526020820187905291810185905281881693508882169250908916907f5399dc7b86d085e50a28946dbc213966bb7a7ac78d312aedd6018c791ad6cef99060600160405180910390a46106aa6001609755565b505050505050565b600054610100900460ff16158080156106d25750600054600160ff909116105b806106ec5750303b1580156106ec575060005460ff166001145b61074f5760405162461bcd60e51b815260206004820152602e60248201527f496e697469616c697a61626c653a20636f6e747261637420697320616c72656160448201526d191e481a5b9a5d1a585b1a5e995960921b6064820152608401610568565b6000805460ff191660011790558015610772576000805461ff0019166101001790555b61077a610e9b565b610782610e9b565b61078e83600084610ec2565b80156107d4576000805461ff0019169055604051600181527f7f26b83ff96e1f2b6a682f133852f6798a09c465da95921460cefb38474024989060200160405180910390a15b505050565b6106aa86338787878787610ed2565b6107f0611206565b6107fa6000611260565b565b61080b87878787878787610ed2565b50505050505050565b337f00000000000000000000000000000000000000000000000000000000000000006001600160a01b03161461085d576040516385bd908d60e01b815260040160405180910390fd5b7f00000000000000000000000000000000000000000000000000000000000000006001600160a01b0316636e296e456040518163ffffffff1660e01b8152600401602060405180830381865afa1580156108bb573d6000803e3d6000fd5b505050506040513d601f19601f820116820180604052508101906108df919061197a565b6001600160a01b03167f00000000000000000000000000000000000000000000000000000000000000006001600160a01b031614610930576040516307b140f360e51b815260040160405180910390fd5b610938610e3b565b6001600160a01b03881661095e5760405162461bcd60e51b815260040161056890611997565b6001600160a01b03808816600090815261015f60205260409020548982169116146109bf5760405162461bcd60e51b81526020600482015260116024820152700d86440e8ded6cadc40dad2e6dac2e8c6d607b1b6044820152606401610568565b604051635a455c5b60e11b81526001600160a01b0388169063b48ab8b6906109f39088908890889088908890600401611a00565b600060405180830381600087803b158015610a0d57600080fd5b505af1158015610a21573d6000803e3d6000fd5b50505050856001600160a01b0316876001600160a01b0316896001600160a01b03167ff07745bfeb45fb1184165136e9148689adf57ba578a5b90dde949f26066b77568888888888604051610a7a959493929190611a56565b60405180910390a4610a8c6001609755565b5050505050505050565b610a9e611206565b6001600160a01b038116610b035760405162461bcd60e51b815260206004820152602660248201527f4f776e61626c653a206e6577206f776e657220697320746865207a65726f206160448201526564647265737360d01b6064820152608401610568565b610b0c81611260565b50565b610b17611206565b6001600160a01b038116610b3d5760405162461bcd60e51b815260040161056890611997565b6001600160a01b03808316600081815261015f602052604080822080548686166001600160a01b0319821681179092559151919094169392849290917f2069a26c43c36ffaabe0c2d19bf65e55dd03abecdc449f5cc9663491e97f709d9190a4505050565b610baa610e3b565b60008211610bf15760405162461bcd60e51b81526020600482015260146024820152731dda5d1a191c985dc81e995c9bc8185b5bdd5b9d60621b6044820152606401610568565b6001600160a01b03808616600090815261015f60205260409020541680610c565760405162461bcd60e51b815260206004820152601960248201527837379031b7b93932b9b837b73234b733903618903a37b5b2b760391b6044820152606401610568565b600033604051637a94c56560e11b81526001600160a01b03808316600483015260248201889052604482018790529192509088169063f5298aca90606401600060405180830381600087803b158015610cae57600080fd5b505af1158015610cc2573d6000803e3d6000fd5b50506040516001600160a01b038086166024830152808b16604483015280851660648301528916608482015260a4810188905260c481018790526000925060e401905060408051601f198184030181529181526020820180516001600160e01b031663730608b360e01b1790525163b2267a7b60e01b81529091506001600160a01b037f0000000000000000000000000000000000000000000000000000000000000000169063b2267a7b903490610da5907f00000000000000000000000000000000000000000000000000000000000000009060009087908b90600401611a9a565b6000604051808303818588803b158015610dbe57600080fd5b505af1158015610dd2573d6000803e3d6000fd5b5050604080516001600160a01b038c81168252602082018c90529181018a905281871694508c8216935090871691507f1f9dcda7fce6f73a13055f044ffecaed2032a7a844e0a37a3eb8bbb17488d01a9060600160405180910390a45050506104176001609755565b600260975403610e8d5760405162461bcd60e51b815260206004820152601f60248201527f5265656e7472616e637947756172643a207265656e7472616e742063616c6c006044820152606401610568565b6002609755565b6001609755565b600054610100900460ff166107fa5760405162461bcd60e51b815260040161056890611b06565b610eca6112b2565b6107d46112e1565b610eda610e3b565b83610f1e5760405162461bcd60e51b81526020600482015260146024820152736e6f20746f6b656e20746f20776974686472617760601b6044820152606401610568565b838214610f5f5760405162461bcd60e51b815260206004820152600f60248201526e0d8cadccee8d040dad2e6dac2e8c6d608b1b6044820152606401610568565b60005b82811015610fdb576000848483818110610f7e57610f7e611b51565b9050602002013511610fc95760405162461bcd60e51b81526020600482015260146024820152731dda5d1a191c985dc81e995c9bc8185b5bdd5b9d60621b6044820152606401610568565b80610fd381611b67565b915050610f62565b506001600160a01b03808816600090815261015f602052604090205416806110415760405162461bcd60e51b815260206004820152601960248201527837379031b7b93932b9b837b73234b733903618903a37b5b2b760391b6044820152606401610568565b604051637b75893d60e11b815233906001600160a01b038a169063f6eb127a906110779084908b908b908b908b90600401611a56565b600060405180830381600087803b15801561109157600080fd5b505af11580156110a5573d6000803e3d6000fd5b505050506000828a838b8b8b8b8b6040516024016110ca989796959493929190611b8e565b60408051601f198184030181529181526020820180516001600160e01b031663f92748d360e01b1790525163b2267a7b60e01b81529091506001600160a01b037f0000000000000000000000000000000000000000000000000000000000000000169063b2267a7b90349061116a907f00000000000000000000000000000000000000000000000000000000000000009060009087908b90600401611a9a565b6000604051808303818588803b15801561118357600080fd5b505af1158015611197573d6000803e3d6000fd5b5050505050816001600160a01b03168a6001600160a01b0316846001600160a01b03167f5d2d5d4cdbf7b115e43f0b9986644dd8b9514b10be6a019ab6a4a87f122909708c8c8c8c8c6040516111f1959493929190611a56565b60405180910390a450505061080b6001609755565b60fb546001600160a01b031633146107fa5760405162461bcd60e51b815260206004820181905260248201527f4f776e61626c653a2063616c6c6572206973206e6f7420746865206f776e65726044820152606401610568565b60fb80546001600160a01b038381166001600160a01b0319831681179093556040519116919082907f8be0079c531659141344cd1fd0a4f28419497f9722a3daafe3b4186f6b6457e090600090a35050565b600054610100900460ff166112d95760405162461bcd60e51b815260040161056890611b06565b6107fa611310565b600054610100900460ff166113085760405162461bcd60e51b815260040161056890611b06565b6107fa611337565b600054610100900460ff16610e945760405162461bcd60e51b815260040161056890611b06565b600054610100900460ff1661135e5760405162461bcd60e51b815260040161056890611b06565b6107fa33611260565b60006020828403121561137957600080fd5b81356001600160e01b03198116811461139157600080fd5b9392505050565b6001600160a01b0381168114610b0c57600080fd5b600080600080608085870312156113c357600080fd5b84356113ce81611398565b966020860135965060408601359560600135945092505050565b600080600080600060a0868803121561140057600080fd5b853561140b81611398565b9450602086013561141b81611398565b94979496505050506040830135926060810135926080909101359150565b60008060008060008060c0878903121561145257600080fd5b863561145d81611398565b9550602087013561146d81611398565b9450604087013561147d81611398565b9350606087013561148d81611398565b9598949750929560808101359460a0909101359350915050565b600080604083850312156114ba57600080fd5b82356114c581611398565b915060208301356114d581611398565b809150509250929050565b60008083601f8401126114f257600080fd5b50813567ffffffffffffffff81111561150a57600080fd5b6020830191508360208260051b850101111561152557600080fd5b9250929050565b6000806000806000806080878903121561154557600080fd5b863561155081611398565b9550602087013567ffffffffffffffff8082111561156d57600080fd5b6115798a838b016114e0565b9097509550604089013591508082111561159257600080fd5b5061159f89828a016114e0565b979a9699509497949695606090950135949350505050565b600080600080600080600060a0888a0312156115d257600080fd5b87356115dd81611398565b965060208801356115ed81611398565b9550604088013567ffffffffffffffff8082111561160a57600080fd5b6116168b838c016114e0565b909750955060608a013591508082111561162f57600080fd5b5061163c8a828b016114e0565b989b979a50959894979596608090950135949350505050565b60006020828403121561166757600080fd5b813561139181611398565b634e487b7160e01b600052604160045260246000fd5b604051601f8201601f1916810167ffffffffffffffff811182821017156116b1576116b1611672565b604052919050565b600082601f8301126116ca57600080fd5b8135602067ffffffffffffffff8211156116e6576116e6611672565b8160051b6116f5828201611688565b928352848101820192828101908785111561170f57600080fd5b83870192505b8483101561172e57823582529183019190830190611715565b979650505050505050565b600082601f83011261174a57600080fd5b813567ffffffffffffffff81111561176457611764611672565b611777601f8201601f1916602001611688565b81815284602083860101111561178c57600080fd5b816020850160208301376000918101602001919091529392505050565b600080600080600060a086880312156117c157600080fd5b85356117cc81611398565b945060208601356117dc81611398565b9350604086013567ffffffffffffffff808211156117f957600080fd5b61180589838a016116b9565b9450606088013591508082111561181b57600080fd5b61182789838a016116b9565b9350608088013591508082111561183d57600080fd5b5061184a88828901611739565b9150509295509295909350565b60008060008060008060008060c0898b03121561187357600080fd5b883561187e81611398565b9750602089013561188e81611398565b9650604089013561189e81611398565b955060608901356118ae81611398565b9450608089013567ffffffffffffffff808211156118cb57600080fd5b6118d78c838d016114e0565b909650945060a08b01359150808211156118f057600080fd5b506118fd8b828c016114e0565b999c989b5096995094979396929594505050565b600080600080600060a0868803121561192957600080fd5b853561193481611398565b9450602086013561194481611398565b93506040860135925060608601359150608086013567ffffffffffffffff81111561196e57600080fd5b61184a88828901611739565b60006020828403121561198c57600080fd5b815161139181611398565b60208082526019908201527f746f6b656e20616464726573732063616e6e6f74206265203000000000000000604082015260600190565b81835260006001600160fb1b038311156119e757600080fd5b8260051b80836020870137939093016020019392505050565b6001600160a01b0386168152608060208201819052600090611a2590830186886119ce565b8281036040840152611a388185876119ce565b83810360609094019390935250506000815260200195945050505050565b6001600160a01b0386168152606060208201819052600090611a7b90830186886119ce565b8281036040840152611a8e8185876119ce565b98975050505050505050565b60018060a01b038516815260006020858184015260806040840152845180608085015260005b81811015611adc5786810183015185820160a001528201611ac0565b50600060a0828601015260a0601f19601f8301168501019250505082606083015295945050505050565b6020808252602b908201527f496e697469616c697a61626c653a20636f6e7472616374206973206e6f74206960408201526a6e697469616c697a696e6760a81b606082015260800190565b634e487b7160e01b600052603260045260246000fd5b600060018201611b8757634e487b7160e01b600052601160045260246000fd5b5060010190565b6001600160a01b038981168252888116602083015287811660408301528616606082015260c060808201819052600090611bcb90830186886119ce565b82810360a0840152611bde8185876119ce565b9b9a505050505050505050505056fea264697066735822122048430b0fc60322d363ec87b6d235f84a4632729413133693f4ebccb0a807545d64736f6c63430008100033","linkReferences":{}},"methodIdentifiers":{"batchWithdrawERC1155(address,address,uint256[],uint256[],uint256)":"8c23d5b2","batchWithdrawERC1155(address,uint256[],uint256[],uint256)":"48de03de","counterpart()":"797594b0","finalizeBatchDepositERC1155(address,address,address,address,uint256[],uint256[])":"eaa72ad9","finalizeDepositERC1155(address,address,address,address,uint256,uint256)":"4764cc62","initialize(address,address)":"485cc955","messenger()":"3cb747bf","onERC1155BatchReceived(address,address,uint256[],uint256[],bytes)":"bc197c81","onERC1155Received(address,address,uint256,uint256,bytes)":"f23a6e61","owner()":"8da5cb5b","renounceOwnership()":"715018a6","router()":"f887ea40","supportsInterface(bytes4)":"01ffc9a7","tokenMapping(address)":"ba27f50b","transferOwnership(address)":"f2fde38b","updateTokenMapping(address,address)":"fac752eb","withdrawERC1155(address,address,uint256,uint256,uint256)":"21fedfc9","withdrawERC1155(address,uint256,uint256,uint256)":"0f2da080"},"id":158}