{"abi":[{"type":"constructor","inputs":[{"name":"_counterpart","type":"address","internalType":"address"},{"name":"_router","type":"address","internalType":"address"},{"name":"_messenger","type":"address","internalType":"address"}],"stateMutability":"nonpayable"},{"type":"function","name":"counterpart","inputs":[],"outputs":[{"name":"","type":"address","internalType":"address"}],"stateMutability":"view"},{"type":"function","name":"finalizeDepositETH","inputs":[{"name":"_from","type":"address","internalType":"address"},{"name":"_to","type":"address","internalType":"address"},{"name":"_amount","type":"uint256","internalType":"uint256"},{"name":"_data","type":"bytes","internalType":"bytes"}],"outputs":[],"stateMutability":"payable"},{"type":"function","name":"initialize","inputs":[{"name":"_counterpart","type":"address","internalType":"address"},{"name":"_router","type":"address","internalType":"address"},{"name":"_messenger","type":"address","internalType":"address"}],"outputs":[],"stateMutability":"nonpayable"},{"type":"function","name":"messenger","inputs":[],"outputs":[{"name":"","type":"address","internalType":"address"}],"stateMutability":"view"},{"type":"function","name":"owner","inputs":[],"outputs":[{"name":"","type":"address","internalType":"address"}],"stateMutability":"view"},{"type":"function","name":"renounceOwnership","inputs":[],"outputs":[],"stateMutability":"nonpayable"},{"type":"function","name":"router","inputs":[],"outputs":[{"name":"","type":"address","internalType":"address"}],"stateMutability":"view"},{"type":"function","name":"transferOwnership","inputs":[{"name":"newOwner","type":"address","internalType":"address"}],"outputs":[],"stateMutability":"nonpayable"},{"type":"function","name":"withdrawETH","inputs":[{"name":"_to","type":"address","internalType":"address"},{"name":"_amount","type":"uint256","internalType":"uint256"},{"name":"_gasLimit","type":"uint256","internalType":"uint256"}],"outputs":[],"stateMutability":"payable"},{"type":"function","name":"withdrawETH","inputs":[{"name":"_amount","type":"uint256","internalType":"uint256"},{"name":"_gasLimit","type":"uint256","internalType":"uint256"}],"outputs":[],"stateMutability":"payable"},{"type":"function","name":"withdrawETHAndCall","inputs":[{"name":"_to","type":"address","internalType":"address"},{"name":"_amount","type":"uint256","internalType":"uint256"},{"name":"_data","type":"bytes","internalType":"bytes"},{"name":"_gasLimit","type":"uint256","internalType":"uint256"}],"outputs":[],"stateMutability":"payable"},{"type":"event","name":"FinalizeDepositETH","inputs":[{"name":"from","type":"address","indexed":true,"internalType":"address"},{"name":"to","type":"address","indexed":true,"internalType":"address"},{"name":"amount","type":"uint256","indexed":false,"internalType":"uint256"},{"name":"data","type":"bytes","indexed":false,"internalType":"bytes"}],"anonymous":false},{"type":"event","name":"Initialized","inputs":[{"name":"version","type":"uint8","indexed":false,"internalType":"uint8"}],"anonymous":false},{"type":"event","name":"OwnershipTransferred","inputs":[{"name":"previousOwner","type":"address","indexed":true,"internalType":"address"},{"name":"newOwner","type":"address","indexed":true,"internalType":"address"}],"anonymous":false},{"type":"event","name":"WithdrawETH","inputs":[{"name":"from","type":"address","indexed":true,"internalType":"address"},{"name":"to","type":"address","indexed":true,"internalType":"address"},{"name":"amount","type":"uint256","indexed":false,"internalType":"uint256"},{"name":"data","type":"bytes","indexed":false,"internalType":"bytes"}],"anonymous":false},{"type":"error","name":"ErrorCallerIsNotCounterpartGateway","inputs":[]},{"type":"error","name":"ErrorCallerIsNotMessenger","inputs":[]},{"type":"error","name":"ErrorNotInDropMessageContext","inputs":[]},{"type":"error","name":"ErrorZeroAddress","inputs":[]}],"bytecode":{"object":"0x60e06040523480156200001157600080fd5b50604051620012163803806200121683398101604081905262000034916200019e565b8282826001600160a01b03831615806200005557506001600160a01b038116155b15620000745760405163a7f9319d60e01b815260040160405180910390fd5b6001600160a01b0392831660805290821660a052811660c0528216620000ad5760405163a7f9319d60e01b815260040160405180910390fd5b620000b7620000c0565b505050620001e8565b600054610100900460ff16156200012d5760405162461bcd60e51b815260206004820152602760248201527f496e697469616c697a61626c653a20636f6e747261637420697320696e697469604482015266616c697a696e6760c81b606482015260840160405180910390fd5b60005460ff908116146200017f576000805460ff191660ff9081179091556040519081527f7f26b83ff96e1f2b6a682f133852f6798a09c465da95921460cefb38474024989060200160405180910390a15b565b80516001600160a01b03811681146200019957600080fd5b919050565b600080600060608486031215620001b457600080fd5b620001bf8462000181565b9250620001cf6020850162000181565b9150620001df6040850162000181565b90509250925092565b60805160a05160c051610fd5620002416000396000818160db0152818161021d0152818161026501526108960152600081816101f801526107f3015260008181610153015281816102f001526108c50152610fd56000f3fe60806040526004361061009c5760003560e01c8063797594b011610064578063797594b0146101415780638da5cb5b14610175578063c0c53b8b14610193578063c7cdea37146101b3578063f2fde38b146101c6578063f887ea40146101e657600080fd5b8063232e8748146100a15780632fcc29fa146100b65780633cb747bf146100c95780636dc2418314610119578063715018a61461012c575b600080fd5b6100b46100af366004610b03565b61021a565b005b6100b46100c4366004610ba2565b6104c0565b3480156100d557600080fd5b506100fd7f000000000000000000000000000000000000000000000000000000000000000081565b6040516001600160a01b03909116815260200160405180910390f35b6100b4610127366004610c46565b6104fe565b34801561013857600080fd5b506100b4610510565b34801561014d57600080fd5b506100fd7f000000000000000000000000000000000000000000000000000000000000000081565b34801561018157600080fd5b506065546001600160a01b03166100fd565b34801561019f57600080fd5b506100b46101ae366004610cea565b610524565b6100b46101c1366004610d35565b61063a565b3480156101d257600080fd5b506100b46101e1366004610d57565b61064a565b3480156101f257600080fd5b506100fd7f000000000000000000000000000000000000000000000000000000000000000081565b337f00000000000000000000000000000000000000000000000000000000000000006001600160a01b031614610263576040516385bd908d60e01b815260040160405180910390fd5b7f00000000000000000000000000000000000000000000000000000000000000006001600160a01b0316636e296e456040518163ffffffff1660e01b8152600401602060405180830381865afa1580156102c1573d6000803e3d6000fd5b505050506040513d601f19601f820116820180604052508101906102e59190610d7b565b6001600160a01b03167f00000000000000000000000000000000000000000000000000000000000000006001600160a01b031614610336576040516307b140f360e51b815260040160405180910390fd5b61033e6106c3565b8234146103875760405162461bcd60e51b81526020600482015260126024820152710dae6ce5cecc2d8eaca40dad2e6dac2e8c6d60731b60448201526064015b60405180910390fd5b6000846001600160a01b03168460405160006040518083038185875af1925050503d80600081146103d4576040519150601f19603f3d011682016040523d82523d6000602084013e6103d9565b606091505b50509050806104205760405162461bcd60e51b8152602060048201526013602482015272115512081d1c985b9cd9995c8819985a5b1959606a1b604482015260640161037e565b6104608584848080601f01602080910402602001604051908101604052809392919081815260200183838082843760009201919091525061071c92505050565b846001600160a01b0316866001600160a01b03167f9e86c356e14e24e26e3ce769bf8b87de38e0faa0ed0ca946fa09659aa606bd2d8686866040516104a793929190610d98565b60405180910390a3506104b960018055565b5050505050565b6104f9838360005b6040519080825280601f01601f1916602001820160405280156104f2576020820181803683370190505b50846107a4565b505050565b61050a848484846107a4565b50505050565b61051861097d565b61052260006109d7565b565b600054610100900460ff16158080156105445750600054600160ff909116105b8061055e5750303b15801561055e575060005460ff166001145b6105c15760405162461bcd60e51b815260206004820152602e60248201527f496e697469616c697a61626c653a20636f6e747261637420697320616c72656160448201526d191e481a5b9a5d1a585b1a5e995960921b606482015260840161037e565b6000805460ff1916600117905580156105e4576000805461ff0019166101001790555b6105ef848484610a29565b801561050a576000805461ff0019169055604051600181527f7f26b83ff96e1f2b6a682f133852f6798a09c465da95921460cefb38474024989060200160405180910390a150505050565b610646338360006104c8565b5050565b61065261097d565b6001600160a01b0381166106b75760405162461bcd60e51b815260206004820152602660248201527f4f776e61626c653a206e6577206f776e657220697320746865207a65726f206160448201526564647265737360d01b606482015260840161037e565b6106c0816109d7565b50565b6002600154036107155760405162461bcd60e51b815260206004820152601f60248201527f5265656e7472616e637947756172643a207265656e7472616e742063616c6c00604482015260640161037e565b6002600155565b6000815111801561073757506000826001600160a01b03163b115b156106465760405163109b953160e01b81526001600160a01b0383169063109b953190610768908490600401610e1e565b600060405180830381600087803b15801561078257600080fd5b505af1158015610796573d6000803e3d6000fd5b505050505050565b60018055565b6107ac6106c3565b600034116107f05760405162461bcd60e51b81526020600482015260116024820152700eed2e8d0c8e4c2ee40f4cae4de40cae8d607b1b604482015260640161037e565b337f00000000000000000000000000000000000000000000000000000000000000006001600160a01b031681900361083b57828060200190518101906108369190610e31565b935090505b6000818686866040516024016108549493929190610ebe565b60408051601f198184030181529181526020820180516001600160e01b0316638eaac8a360e01b1790525163b2267a7b60e01b81529091506001600160a01b037f0000000000000000000000000000000000000000000000000000000000000000169063b2267a7b9034906108f3907f0000000000000000000000000000000000000000000000000000000000000000908a9087908a90600401610efb565b6000604051808303818588803b15801561090c57600080fd5b505af1158015610920573d6000803e3d6000fd5b5050505050856001600160a01b0316826001600160a01b03167fd8ed6eaa9a7a8980d7901e911fde6686810b989d3082182d1d3a3df6306ce20e878760405161096a929190610f33565b60405180910390a3505061050a60018055565b6065546001600160a01b031633146105225760405162461bcd60e51b815260206004820181905260248201527f4f776e61626c653a2063616c6c6572206973206e6f7420746865206f776e6572604482015260640161037e565b606580546001600160a01b038381166001600160a01b0319831681179093556040519116919082907f8be0079c531659141344cd1fd0a4f28419497f9722a3daafe3b4186f6b6457e090600090a35050565b610a31610a39565b6104f9610a68565b600054610100900460ff16610a605760405162461bcd60e51b815260040161037e90610f54565b610522610a97565b600054610100900460ff16610a8f5760405162461bcd60e51b815260040161037e90610f54565b610522610abe565b600054610100900460ff1661079e5760405162461bcd60e51b815260040161037e90610f54565b600054610100900460ff16610ae55760405162461bcd60e51b815260040161037e90610f54565b610522336109d7565b6001600160a01b03811681146106c057600080fd5b600080600080600060808688031215610b1b57600080fd5b8535610b2681610aee565b94506020860135610b3681610aee565b935060408601359250606086013567ffffffffffffffff80821115610b5a57600080fd5b818801915088601f830112610b6e57600080fd5b813581811115610b7d57600080fd5b896020828501011115610b8f57600080fd5b9699959850939650602001949392505050565b600080600060608486031215610bb757600080fd5b8335610bc281610aee565b95602085013595506040909401359392505050565b634e487b7160e01b600052604160045260246000fd5b604051601f8201601f1916810167ffffffffffffffff81118282101715610c1657610c16610bd7565b604052919050565b600067ffffffffffffffff821115610c3857610c38610bd7565b50601f01601f191660200190565b60008060008060808587031215610c5c57600080fd5b8435610c6781610aee565b935060208501359250604085013567ffffffffffffffff811115610c8a57600080fd5b8501601f81018713610c9b57600080fd5b8035610cae610ca982610c1e565b610bed565b818152886020838501011115610cc357600080fd5b81602084016020830137600091810160200191909152949793965093946060013593505050565b600080600060608486031215610cff57600080fd5b8335610d0a81610aee565b92506020840135610d1a81610aee565b91506040840135610d2a81610aee565b809150509250925092565b60008060408385031215610d4857600080fd5b50508035926020909101359150565b600060208284031215610d6957600080fd5b8135610d7481610aee565b9392505050565b600060208284031215610d8d57600080fd5b8151610d7481610aee565b83815260406020820152816040820152818360608301376000818301606090810191909152601f909201601f1916010192915050565b60005b83811015610de9578181015183820152602001610dd1565b50506000910152565b60008151808452610e0a816020860160208601610dce565b601f01601f19169290920160200192915050565b602081526000610d746020830184610df2565b60008060408385031215610e4457600080fd5b8251610e4f81610aee565b602084015190925067ffffffffffffffff811115610e6c57600080fd5b8301601f81018513610e7d57600080fd5b8051610e8b610ca982610c1e565b818152866020838501011115610ea057600080fd5b610eb1826020830160208601610dce565b8093505050509250929050565b6001600160a01b0385811682528416602082015260408101839052608060608201819052600090610ef190830184610df2565b9695505050505050565b60018060a01b0385168152836020820152608060408201526000610f226080830185610df2565b905082606083015295945050505050565b828152604060208201526000610f4c6040830184610df2565b949350505050565b6020808252602b908201527f496e697469616c697a61626c653a20636f6e7472616374206973206e6f74206960408201526a6e697469616c697a696e6760a81b60608201526080019056fea264697066735822122090e9b42ef291796b31d87b6393462cfef9563ac350de9e28c4f192572262235d64736f6c63430008100033","linkReferences":{}},"methodIdentifiers":{"counterpart()":"797594b0","finalizeDepositETH(address,address,uint256,bytes)":"232e8748","initialize(address,address,address)":"c0c53b8b","messenger()":"3cb747bf","owner()":"8da5cb5b","renounceOwnership()":"715018a6","router()":"f887ea40","transferOwnership(address)":"f2fde38b","withdrawETH(address,uint256,uint256)":"2fcc29fa","withdrawETH(uint256,uint256)":"c7cdea37","withdrawETHAndCall(address,uint256,bytes,uint256)":"6dc24183"},"id":161}