{"abi":[{"type":"constructor","inputs":[],"stateMutability":"nonpayable"},{"type":"function","name":"ERC20Gateway","inputs":[{"name":"","type":"address","internalType":"address"}],"outputs":[{"name":"","type":"address","internalType":"address"}],"stateMutability":"view"},{"type":"function","name":"defaultERC20Gateway","inputs":[],"outputs":[{"name":"","type":"address","internalType":"address"}],"stateMutability":"view"},{"type":"function","name":"ethGateway","inputs":[],"outputs":[{"name":"","type":"address","internalType":"address"}],"stateMutability":"view"},{"type":"function","name":"finalizeDepositERC20","inputs":[{"name":"","type":"address","internalType":"address"},{"name":"","type":"address","internalType":"address"},{"name":"","type":"address","internalType":"address"},{"name":"","type":"address","internalType":"address"},{"name":"","type":"uint256","internalType":"uint256"},{"name":"","type":"bytes","internalType":"bytes"}],"outputs":[],"stateMutability":"payable"},{"type":"function","name":"finalizeDepositETH","inputs":[{"name":"","type":"address","internalType":"address"},{"name":"","type":"address","internalType":"address"},{"name":"","type":"uint256","internalType":"uint256"},{"name":"","type":"bytes","internalType":"bytes"}],"outputs":[],"stateMutability":"payable"},{"type":"function","name":"getERC20Gateway","inputs":[{"name":"_token","type":"address","internalType":"address"}],"outputs":[{"name":"","type":"address","internalType":"address"}],"stateMutability":"view"},{"type":"function","name":"getL1ERC20Address","inputs":[{"name":"_l2Address","type":"address","internalType":"address"}],"outputs":[{"name":"","type":"address","internalType":"address"}],"stateMutability":"view"},{"type":"function","name":"getL2ERC20Address","inputs":[{"name":"","type":"address","internalType":"address"}],"outputs":[{"name":"","type":"address","internalType":"address"}],"stateMutability":"pure"},{"type":"function","name":"initialize","inputs":[{"name":"_ethGateway","type":"address","internalType":"address"},{"name":"_defaultERC20Gateway","type":"address","internalType":"address"}],"outputs":[],"stateMutability":"nonpayable"},{"type":"function","name":"owner","inputs":[],"outputs":[{"name":"","type":"address","internalType":"address"}],"stateMutability":"view"},{"type":"function","name":"renounceOwnership","inputs":[],"outputs":[],"stateMutability":"nonpayable"},{"type":"function","name":"setDefaultERC20Gateway","inputs":[{"name":"_newDefaultERC20Gateway","type":"address","internalType":"address"}],"outputs":[],"stateMutability":"nonpayable"},{"type":"function","name":"setERC20Gateway","inputs":[{"name":"_tokens","type":"address[]","internalType":"address[]"},{"name":"_gateways","type":"address[]","internalType":"address[]"}],"outputs":[],"stateMutability":"nonpayable"},{"type":"function","name":"setETHGateway","inputs":[{"name":"_newEthGateway","type":"address","internalType":"address"}],"outputs":[],"stateMutability":"nonpayable"},{"type":"function","name":"transferOwnership","inputs":[{"name":"newOwner","type":"address","internalType":"address"}],"outputs":[],"stateMutability":"nonpayable"},{"type":"function","name":"withdrawERC20","inputs":[{"name":"_token","type":"address","internalType":"address"},{"name":"_amount","type":"uint256","internalType":"uint256"},{"name":"_gasLimit","type":"uint256","internalType":"uint256"}],"outputs":[],"stateMutability":"payable"},{"type":"function","name":"withdrawERC20","inputs":[{"name":"_token","type":"address","internalType":"address"},{"name":"_to","type":"address","internalType":"address"},{"name":"_amount","type":"uint256","internalType":"uint256"},{"name":"_gasLimit","type":"uint256","internalType":"uint256"}],"outputs":[],"stateMutability":"payable"},{"type":"function","name":"withdrawERC20AndCall","inputs":[{"name":"_token","type":"address","internalType":"address"},{"name":"_to","type":"address","internalType":"address"},{"name":"_amount","type":"uint256","internalType":"uint256"},{"name":"_data","type":"bytes","internalType":"bytes"},{"name":"_gasLimit","type":"uint256","internalType":"uint256"}],"outputs":[],"stateMutability":"payable"},{"type":"function","name":"withdrawETH","inputs":[{"name":"_to","type":"address","internalType":"address"},{"name":"_amount","type":"uint256","internalType":"uint256"},{"name":"_gasLimit","type":"uint256","internalType":"uint256"}],"outputs":[],"stateMutability":"payable"},{"type":"function","name":"withdrawETH","inputs":[{"name":"_amount","type":"uint256","internalType":"uint256"},{"name":"_gasLimit","type":"uint256","internalType":"uint256"}],"outputs":[],"stateMutability":"payable"},{"type":"function","name":"withdrawETHAndCall","inputs":[{"name":"_to","type":"address","internalType":"address"},{"name":"_amount","type":"uint256","internalType":"uint256"},{"name":"_data","type":"bytes","internalType":"bytes"},{"name":"_gasLimit","type":"uint256","internalType":"uint256"}],"outputs":[],"stateMutability":"payable"},{"type":"event","name":"FinalizeDepositERC20","inputs":[{"name":"l1Token","type":"address","indexed":true,"internalType":"address"},{"name":"l2Token","type":"address","indexed":true,"internalType":"address"},{"name":"from","type":"address","indexed":true,"internalType":"address"},{"name":"to","type":"address","indexed":false,"internalType":"address"},{"name":"amount","type":"uint256","indexed":false,"internalType":"uint256"},{"name":"data","type":"bytes","indexed":false,"internalType":"bytes"}],"anonymous":false},{"type":"event","name":"FinalizeDepositETH","inputs":[{"name":"from","type":"address","indexed":true,"internalType":"address"},{"name":"to","type":"address","indexed":true,"internalType":"address"},{"name":"amount","type":"uint256","indexed":false,"internalType":"uint256"},{"name":"data","type":"bytes","indexed":false,"internalType":"bytes"}],"anonymous":false},{"type":"event","name":"Initialized","inputs":[{"name":"version","type":"uint8","indexed":false,"internalType":"uint8"}],"anonymous":false},{"type":"event","name":"OwnershipTransferred","inputs":[{"name":"previousOwner","type":"address","indexed":true,"internalType":"address"},{"name":"newOwner","type":"address","indexed":true,"internalType":"address"}],"anonymous":false},{"type":"event","name":"SetDefaultERC20Gateway","inputs":[{"name":"oldDefaultERC20Gateway","type":"address","indexed":true,"internalType":"address"},{"name":"newDefaultERC20Gateway","type":"address","indexed":true,"internalType":"address"}],"anonymous":false},{"type":"event","name":"SetERC20Gateway","inputs":[{"name":"token","type":"address","indexed":true,"internalType":"address"},{"name":"oldGateway","type":"address","indexed":true,"internalType":"address"},{"name":"newGateway","type":"address","indexed":true,"internalType":"address"}],"anonymous":false},{"type":"event","name":"SetETHGateway","inputs":[{"name":"oldETHGateway","type":"address","indexed":true,"internalType":"address"},{"name":"newEthGateway","type":"address","indexed":true,"internalType":"address"}],"anonymous":false},{"type":"event","name":"WithdrawERC20","inputs":[{"name":"l1Token","type":"address","indexed":true,"internalType":"address"},{"name":"l2Token","type":"address","indexed":true,"internalType":"address"},{"name":"from","type":"address","indexed":true,"internalType":"address"},{"name":"to","type":"address","indexed":false,"internalType":"address"},{"name":"amount","type":"uint256","indexed":false,"internalType":"uint256"},{"name":"data","type":"bytes","indexed":false,"internalType":"bytes"}],"anonymous":false},{"type":"event","name":"WithdrawETH","inputs":[{"name":"from","type":"address","indexed":true,"internalType":"address"},{"name":"to","type":"address","indexed":true,"internalType":"address"},{"name":"amount","type":"uint256","indexed":false,"internalType":"uint256"},{"name":"data","type":"bytes","indexed":false,"internalType":"bytes"}],"anonymous":false}],"bytecode":{"object":"0x608060405234801561001057600080fd5b5061001961001e565b6100dd565b600054610100900460ff161561008a5760405162461bcd60e51b815260206004820152602760248201527f496e697469616c697a61626c653a20636f6e747261637420697320696e697469604482015266616c697a696e6760c81b606482015260840160405180910390fd5b60005460ff908116146100db576000805460ff191660ff9081179091556040519081527f7f26b83ff96e1f2b6a682f133852f6798a09c465da95921460cefb38474024989060200160405180910390a15b565b6113aa806100ec6000396000f3fe60806040526004361061012a5760003560e01c80636dc24183116100ab5780638da5cb5b1161006f5780638da5cb5b146102e5578063a93a4af914610303578063c676ad2914610316578063c7cdea3714610336578063ce8c3e0614610349578063f2fde38b1461036957600080fd5b80636dc2418314610259578063705b05b81461026c578063715018a6146102a25780638431f5c1146102b75780638c00ce73146102c557600080fd5b806354bbd59c116100f257806354bbd59c146101d3578063575361b6146101f35780635dfd5b9a14610206578063635c8637146102265780636c07ea431461024657600080fd5b8063232e87481461012f5780632fcc29fa146101445780633d1d31c71461015757806343c6674114610177578063485cc955146101b3575b600080fd5b61014261013d366004610d69565b610389565b005b610142610152366004610ddc565b6103cf565b34801561016357600080fd5b50610142610172366004610e11565b61040d565b34801561018357600080fd5b50610197610192366004610e11565b610467565b6040516001600160a01b03909116815260200160405180910390f35b3480156101bf57600080fd5b506101426101ce366004610e2e565b61049d565b3480156101df57600080fd5b506101976101ee366004610e11565b610661565b610142610201366004610f1e565b6106f7565b34801561021257600080fd5b50610142610221366004610e11565b6107e7565b34801561023257600080fd5b5061014261024136600461101b565b610841565b610142610254366004610ddc565b6109f9565b61014261026736600461107f565b610a33565b34801561027857600080fd5b50610197610287366004610e11565b6067602052600090815260409020546001600160a01b031681565b3480156102ae57600080fd5b50610142610b17565b61014261013d3660046110e0565b3480156102d157600080fd5b50606554610197906001600160a01b031681565b3480156102f157600080fd5b506033546001600160a01b0316610197565b610142610311366004611178565b610b2b565b34801561032257600080fd5b50610197610331366004610e11565b610b3e565b6101426103443660046111be565b610b77565b34801561035557600080fd5b50606654610197906001600160a01b031681565b34801561037557600080fd5b50610142610384366004610e11565b610b87565b60405162461bcd60e51b81526020600482015260166024820152751cda1bdd5b19081b995d995c8818994818d85b1b195960521b60448201526064015b60405180910390fd5b610408838360005b6040519080825280601f01601f191660200182016040528015610401576020820181803683370190505b5084610a33565b505050565b610415610c00565b606580546001600160a01b038381166001600160a01b0319831681179093556040519116919082907fa1bfcc6dd729ad197a1180f44d5c12bcc630943df0874b9ed53da23165621b6a90600090a35050565b6001600160a01b038082166000908152606760205260408120549091168061049757506066546001600160a01b03165b92915050565b600054610100900460ff16158080156104bd5750600054600160ff909116105b806104d75750303b1580156104d7575060005460ff166001145b61053a5760405162461bcd60e51b815260206004820152602e60248201527f496e697469616c697a61626c653a20636f6e747261637420697320616c72656160448201526d191e481a5b9a5d1a585b1a5e995960921b60648201526084016103c6565b6000805460ff19166001179055801561055d576000805461ff0019166101001790555b610565610c5a565b6001600160a01b038216156105be57606680546001600160a01b0319166001600160a01b0384169081179091556040516000907f2904fcae71038f87b116fd2875871e153722cabddd71de1b77473de263cd74d1908290a35b6001600160a01b0383161561061757606580546001600160a01b0319166001600160a01b0385169081179091556040516000907fa1bfcc6dd729ad197a1180f44d5c12bcc630943df0874b9ed53da23165621b6a908290a35b8015610408576000805461ff0019169055604051600181527f7f26b83ff96e1f2b6a682f133852f6798a09c465da95921460cefb38474024989060200160405180910390a1505050565b60008061066d83610467565b90506001600160a01b0381166106865750600092915050565b60405163152ef56760e21b81526001600160a01b0384811660048301528216906354bbd59c90602401602060405180830381865afa1580156106cc573d6000803e3d6000fd5b505050506040513d601f19601f820116820180604052508101906106f091906111e0565b9392505050565b600061070286610467565b90506001600160a01b0381166107515760405162461bcd60e51b81526020600482015260146024820152736e6f206761746577617920617661696c61626c6560601b60448201526064016103c6565b60003384604051602001610766929190611243565b60408051601f1981840301815290829052632ba9b0db60e11b825291506001600160a01b0383169063575361b69034906107ac908b908b908b9088908b9060040161126f565b6000604051808303818588803b1580156107c557600080fd5b505af11580156107d9573d6000803e3d6000fd5b505050505050505050505050565b6107ef610c00565b606680546001600160a01b038381166001600160a01b0319831681179093556040519116919082907f2904fcae71038f87b116fd2875871e153722cabddd71de1b77473de263cd74d190600090a35050565b610849610c00565b805182511461088c5760405162461bcd60e51b815260206004820152600f60248201526e0d8cadccee8d040dad2e6dac2e8c6d608b1b60448201526064016103c6565b60005b8251811015610408576000606760008584815181106108b0576108b06112b4565b60200260200101516001600160a01b03166001600160a01b0316815260200190815260200160002060009054906101000a90046001600160a01b03169050828281518110610900576109006112b4565b60200260200101516067600086858151811061091e5761091e6112b4565b60200260200101516001600160a01b03166001600160a01b0316815260200190815260200160002060006101000a8154816001600160a01b0302191690836001600160a01b0316021790555082828151811061097c5761097c6112b4565b60200260200101516001600160a01b0316816001600160a01b03168584815181106109a9576109a96112b4565b60200260200101516001600160a01b03167f0ead4808404683f66d413d788a768219ea9785c97889221193103841a5841eaf60405160405180910390a450806109f1816112ca565b91505061088f565b61040883338460005b6040519080825280601f01601f191660200182016040528015610a2c576020820181803683370190505b50856106f7565b6065546001600160a01b031680610a845760405162461bcd60e51b8152602060048201526015602482015274657468206761746577617920617661696c61626c6560581b60448201526064016103c6565b60003384604051602001610a99929190611243565b60408051601f1981840301815290829052636dc2418360e01b825291506001600160a01b03831690636dc24183903490610add908a908a9087908a906004016112f1565b6000604051808303818588803b158015610af657600080fd5b505af1158015610b0a573d6000803e3d6000fd5b5050505050505050505050565b610b1f610c00565b610b296000610c89565b565b610b388484846000610a02565b50505050565b60405162461bcd60e51b815260206004820152600b60248201526a1d5b9cdd5c1c1bdc9d195960aa1b60448201526000906064016103c6565b610b83338360006103d7565b5050565b610b8f610c00565b6001600160a01b038116610bf45760405162461bcd60e51b815260206004820152602660248201527f4f776e61626c653a206e6577206f776e657220697320746865207a65726f206160448201526564647265737360d01b60648201526084016103c6565b610bfd81610c89565b50565b6033546001600160a01b03163314610b295760405162461bcd60e51b815260206004820181905260248201527f4f776e61626c653a2063616c6c6572206973206e6f7420746865206f776e657260448201526064016103c6565b600054610100900460ff16610c815760405162461bcd60e51b81526004016103c690611329565b610b29610cdb565b603380546001600160a01b038381166001600160a01b0319831681179093556040519116919082907f8be0079c531659141344cd1fd0a4f28419497f9722a3daafe3b4186f6b6457e090600090a35050565b600054610100900460ff16610d025760405162461bcd60e51b81526004016103c690611329565b610b2933610c89565b6001600160a01b0381168114610bfd57600080fd5b60008083601f840112610d3257600080fd5b50813567ffffffffffffffff811115610d4a57600080fd5b602083019150836020828501011115610d6257600080fd5b9250929050565b600080600080600060808688031215610d8157600080fd5b8535610d8c81610d0b565b94506020860135610d9c81610d0b565b935060408601359250606086013567ffffffffffffffff811115610dbf57600080fd5b610dcb88828901610d20565b969995985093965092949392505050565b600080600060608486031215610df157600080fd5b8335610dfc81610d0b565b95602085013595506040909401359392505050565b600060208284031215610e2357600080fd5b81356106f081610d0b565b60008060408385031215610e4157600080fd5b8235610e4c81610d0b565b91506020830135610e5c81610d0b565b809150509250929050565b634e487b7160e01b600052604160045260246000fd5b604051601f8201601f1916810167ffffffffffffffff81118282101715610ea657610ea6610e67565b604052919050565b600082601f830112610ebf57600080fd5b813567ffffffffffffffff811115610ed957610ed9610e67565b610eec601f8201601f1916602001610e7d565b818152846020838601011115610f0157600080fd5b816020850160208301376000918101602001919091529392505050565b600080600080600060a08688031215610f3657600080fd5b8535610f4181610d0b565b94506020860135610f5181610d0b565b935060408601359250606086013567ffffffffffffffff811115610f7457600080fd5b610f8088828901610eae565b95989497509295608001359392505050565b600082601f830112610fa357600080fd5b8135602067ffffffffffffffff821115610fbf57610fbf610e67565b8160051b610fce828201610e7d565b9283528481018201928281019087851115610fe857600080fd5b83870192505b8483101561101057823561100181610d0b565b82529183019190830190610fee565b979650505050505050565b6000806040838503121561102e57600080fd5b823567ffffffffffffffff8082111561104657600080fd5b61105286838701610f92565b9350602085013591508082111561106857600080fd5b5061107585828601610f92565b9150509250929050565b6000806000806080858703121561109557600080fd5b84356110a081610d0b565b935060208501359250604085013567ffffffffffffffff8111156110c357600080fd5b6110cf87828801610eae565b949793965093946060013593505050565b600080600080600080600060c0888a0312156110fb57600080fd5b873561110681610d0b565b9650602088013561111681610d0b565b9550604088013561112681610d0b565b9450606088013561113681610d0b565b93506080880135925060a088013567ffffffffffffffff81111561115957600080fd5b6111658a828b01610d20565b989b979a50959850939692959293505050565b6000806000806080858703121561118e57600080fd5b843561119981610d0b565b935060208501356111a981610d0b565b93969395505050506040820135916060013590565b600080604083850312156111d157600080fd5b50508035926020909101359150565b6000602082840312156111f257600080fd5b81516106f081610d0b565b6000815180845260005b8181101561122357602081850181015186830182015201611207565b506000602082860101526020601f19601f83011685010191505092915050565b6001600160a01b0383168152604060208201819052600090611267908301846111fd565b949350505050565b6001600160a01b038681168252851660208201526040810184905260a0606082018190526000906112a2908301856111fd565b90508260808301529695505050505050565b634e487b7160e01b600052603260045260246000fd5b6000600182016112ea57634e487b7160e01b600052601160045260246000fd5b5060010190565b60018060a01b038516815283602082015260806040820152600061131860808301856111fd565b905082606083015295945050505050565b6020808252602b908201527f496e697469616c697a61626c653a20636f6e7472616374206973206e6f74206960408201526a6e697469616c697a696e6760a81b60608201526080019056fea264697066735822122082646769a2e549f0eb1ab5e454fa0728d7f1d4802bedccadeb86c3812e7aab8764736f6c63430008100033","linkReferences":{}},"methodIdentifiers":{"ERC20Gateway(address)":"705b05b8","defaultERC20Gateway()":"ce8c3e06","ethGateway()":"8c00ce73","finalizeDepositERC20(address,address,address,address,uint256,bytes)":"8431f5c1","finalizeDepositETH(address,address,uint256,bytes)":"232e8748","getERC20Gateway(address)":"43c66741","getL1ERC20Address(address)":"54bbd59c","getL2ERC20Address(address)":"c676ad29","initialize(address,address)":"485cc955","owner()":"8da5cb5b","renounceOwnership()":"715018a6","setDefaultERC20Gateway(address)":"5dfd5b9a","setERC20Gateway(address[],address[])":"635c8637","setETHGateway(address)":"3d1d31c7","transferOwnership(address)":"f2fde38b","withdrawERC20(address,address,uint256,uint256)":"a93a4af9","withdrawERC20(address,uint256,uint256)":"6c07ea43","withdrawERC20AndCall(address,address,uint256,bytes,uint256)":"575361b6","withdrawETH(address,uint256,uint256)":"2fcc29fa","withdrawETH(uint256,uint256)":"c7cdea37","withdrawETHAndCall(address,uint256,bytes,uint256)":"6dc24183"},"id":162}