{"abi":[{"type":"constructor","inputs":[{"name":"_owner","type":"address","internalType":"address"}],"stateMutability":"nonpayable"},{"type":"function","name":"appendMessage","inputs":[{"name":"_messageHash","type":"bytes32","internalType":"bytes32"}],"outputs":[{"name":"","type":"bytes32","internalType":"bytes32"}],"stateMutability":"nonpayable"},{"type":"function","name":"branches","inputs":[{"name":"","type":"uint256","internalType":"uint256"}],"outputs":[{"name":"","type":"bytes32","internalType":"bytes32"}],"stateMutability":"view"},{"type":"function","name":"initialize","inputs":[{"name":"_messenger","type":"address","internalType":"address"}],"outputs":[],"stateMutability":"nonpayable"},{"type":"function","name":"messageRoot","inputs":[],"outputs":[{"name":"","type":"bytes32","internalType":"bytes32"}],"stateMutability":"view"},{"type":"function","name":"messenger","inputs":[],"outputs":[{"name":"","type":"address","internalType":"address"}],"stateMutability":"view"},{"type":"function","name":"nextMessageIndex","inputs":[],"outputs":[{"name":"","type":"uint256","internalType":"uint256"}],"stateMutability":"view"},{"type":"function","name":"owner","inputs":[],"outputs":[{"name":"","type":"address","internalType":"address"}],"stateMutability":"view"},{"type":"function","name":"renounceOwnership","inputs":[],"outputs":[],"stateMutability":"nonpayable"},{"type":"function","name":"transferOwnership","inputs":[{"name":"_newOwner","type":"address","internalType":"address"}],"outputs":[],"stateMutability":"nonpayable"},{"type":"event","name":"AppendMessage","inputs":[{"name":"index","type":"uint256","indexed":false,"internalType":"uint256"},{"name":"messageHash","type":"bytes32","indexed":false,"internalType":"bytes32"}],"anonymous":false},{"type":"event","name":"OwnershipTransferred","inputs":[{"name":"_oldOwner","type":"address","indexed":true,"internalType":"address"},{"name":"_newOwner","type":"address","indexed":true,"internalType":"address"}],"anonymous":false}],"bytecode":{"object":"0x608060405234801561001057600080fd5b5060405161074f38038061074f83398101604081905261002f91610090565b6100388161003e565b506100c0565b605280546001600160a01b038381166001600160a01b0319831681179093556040519116919082907f8be0079c531659141344cd1fd0a4f28419497f9722a3daafe3b4186f6b6457e090600090a35050565b6000602082840312156100a257600080fd5b81516001600160a01b03811681146100b957600080fd5b9392505050565b610680806100cf6000396000f3fe608060405234801561001057600080fd5b50600436106100935760003560e01c806383cc76601161006657806383cc7660146100fc5780638da5cb5b1461010f578063c4d66de814610122578063d4b9f4fa14610135578063f2fde38b1461013e57600080fd5b806326aad7b7146100985780633cb747bf146100b4578063600a2e77146100df578063715018a6146100f2575b600080fd5b6100a160015481565b6040519081526020015b60405180910390f35b6053546100c7906001600160a01b031681565b6040516001600160a01b0390911681526020016100ab565b6100a16100ed36600461054a565b610151565b6100fa6101f6565b005b6100a161010a36600461054a565b61022c565b6052546100c7906001600160a01b031681565b6100fa610130366004610563565b610243565b6100a160005481565b6100fa61014c366004610563565b6102db565b6053546000906001600160a01b031633146101a45760405162461bcd60e51b815260206004820152600e60248201526d37b7363c9036b2b9b9b2b733b2b960911b60448201526064015b60405180910390fd5b6000806101b084610367565b60408051838152602081018890529294509092507ffaa617c2d8ce12c62637dbce76efcc18dae60574aa95709bdcedce7e76071693910160405180910390a19392505050565b6052546001600160a01b031633146102205760405162461bcd60e51b815260040161019b90610593565b61022a6000610486565b565b602a816028811061023c57600080fd5b0154905081565b6052546001600160a01b0316331461026d5760405162461bcd60e51b815260040161019b90610593565b600154156102b15760405162461bcd60e51b815260206004820152601160248201527063616e6e6f7420696e697469616c697a6560781b604482015260640161019b565b6102b96104d8565b605380546001600160a01b0319166001600160a01b0392909216919091179055565b6052546001600160a01b031633146103055760405162461bcd60e51b815260040161019b90610593565b6001600160a01b03811661035b5760405162461bcd60e51b815260206004820152601d60248201527f6e6577206f776e657220697320746865207a65726f2061646472657373000000604482015260640161019b565b61036481610486565b50565b60035460009081906103bb5760405162461bcd60e51b815260206004820152601a60248201527f63616c6c206265666f726520696e697469616c697a6174696f6e000000000000604482015260640161019b565b6001548360005b8215610456576103d36002846105e0565b60000361041f5781602a82602881106103ee576103ee6105ca565b01556104188260028360288110610407576104076105ca565b015460009182526020526040902090565b915061044a565b610447602a8260288110610435576104356105ca565b01548360009182526020526040902090565b91505b600192831c92016103c2565b81602a826028811061046a5761046a6105ca565b0155506000819055600180548082019091559590945092505050565b605280546001600160a01b038381166001600160a01b0319831681179093556040519116919082907f8be0079c531659141344cd1fd0a4f28419497f9722a3daafe3b4186f6b6457e090600090a35050565b60005b60286104e8826001610618565b10156103645761051960028260288110610504576105046105ca565b015460028360288110610407576104076105ca565b6002610526836001610618565b60288110610536576105366105ca565b01558061054281610631565b9150506104db565b60006020828403121561055c57600080fd5b5035919050565b60006020828403121561057557600080fd5b81356001600160a01b038116811461058c57600080fd5b9392505050565b60208082526017908201527f63616c6c6572206973206e6f7420746865206f776e6572000000000000000000604082015260600190565b634e487b7160e01b600052603260045260246000fd5b6000826105fd57634e487b7160e01b600052601260045260246000fd5b500690565b634e487b7160e01b600052601160045260246000fd5b8082018082111561062b5761062b610602565b92915050565b60006001820161064357610643610602565b506001019056fea26469706673582212208fb1cb9933bb17dd0a7c17de7c890919b08d2fd7eb2bede7b41caa32709b30b564736f6c63430008100033","linkReferences":{}},"methodIdentifiers":{"appendMessage(bytes32)":"600a2e77","branches(uint256)":"83cc7660","initialize(address)":"c4d66de8","messageRoot()":"d4b9f4fa","messenger()":"3cb747bf","nextMessageIndex()":"26aad7b7","owner()":"8da5cb5b","renounceOwnership()":"715018a6","transferOwnership(address)":"f2fde38b"},"id":171}