{"abi":[{"type":"constructor","inputs":[{"name":"_owner","type":"address","internalType":"address"},{"name":"_recipient","type":"address","internalType":"address"},{"name":"_minWithdrawalAmount","type":"uint256","internalType":"uint256"}],"stateMutability":"nonpayable"},{"type":"receive","stateMutability":"payable"},{"type":"function","name":"messenger","inputs":[],"outputs":[{"name":"","type":"address","internalType":"address"}],"stateMutability":"view"},{"type":"function","name":"minWithdrawAmount","inputs":[],"outputs":[{"name":"","type":"uint256","internalType":"uint256"}],"stateMutability":"view"},{"type":"function","name":"owner","inputs":[],"outputs":[{"name":"","type":"address","internalType":"address"}],"stateMutability":"view"},{"type":"function","name":"recipient","inputs":[],"outputs":[{"name":"","type":"address","internalType":"address"}],"stateMutability":"view"},{"type":"function","name":"renounceOwnership","inputs":[],"outputs":[],"stateMutability":"nonpayable"},{"type":"function","name":"totalProcessed","inputs":[],"outputs":[{"name":"","type":"uint256","internalType":"uint256"}],"stateMutability":"view"},{"type":"function","name":"transferOwnership","inputs":[{"name":"_newOwner","type":"address","internalType":"address"}],"outputs":[],"stateMutability":"nonpayable"},{"type":"function","name":"updateMessenger","inputs":[{"name":"_newMessenger","type":"address","internalType":"address"}],"outputs":[],"stateMutability":"nonpayable"},{"type":"function","name":"updateMinWithdrawAmount","inputs":[{"name":"_newMinWithdrawAmount","type":"uint256","internalType":"uint256"}],"outputs":[],"stateMutability":"nonpayable"},{"type":"function","name":"updateRecipient","inputs":[{"name":"_newRecipient","type":"address","internalType":"address"}],"outputs":[],"stateMutability":"nonpayable"},{"type":"function","name":"withdraw","inputs":[{"name":"_value","type":"uint256","internalType":"uint256"}],"outputs":[],"stateMutability":"nonpayable"},{"type":"function","name":"withdraw","inputs":[],"outputs":[],"stateMutability":"nonpayable"},{"type":"event","name":"OwnershipTransferred","inputs":[{"name":"_oldOwner","type":"address","indexed":true,"internalType":"address"},{"name":"_newOwner","type":"address","indexed":true,"internalType":"address"}],"anonymous":false},{"type":"event","name":"UpdateMessenger","inputs":[{"name":"oldMessenger","type":"address","indexed":true,"internalType":"address"},{"name":"newMessenger","type":"address","indexed":true,"internalType":"address"}],"anonymous":false},{"type":"event","name":"UpdateMinWithdrawAmount","inputs":[{"name":"oldMinWithdrawAmount","type":"uint256","indexed":false,"internalType":"uint256"},{"name":"newMinWithdrawAmount","type":"uint256","indexed":false,"internalType":"uint256"}],"anonymous":false},{"type":"event","name":"UpdateRecipient","inputs":[{"name":"oldRecipient","type":"address","indexed":true,"internalType":"address"},{"name":"newRecipient","type":"address","indexed":true,"internalType":"address"}],"anonymous":false},{"type":"event","name":"Withdrawal","inputs":[{"name":"value","type":"uint256","indexed":false,"internalType":"uint256"},{"name":"to","type":"address","indexed":false,"internalType":"address"},{"name":"from","type":"address","indexed":false,"internalType":"address"}],"anonymous":false}],"bytecode":{"object":"0x608060405234801561001057600080fd5b506040516108bc3803806108bc83398101604081905261002f916100cd565b61003883610061565b600155600380546001600160a01b0319166001600160a01b039290921691909117905550610109565b600080546001600160a01b038381166001600160a01b0319831681178455604051919092169283917f8be0079c531659141344cd1fd0a4f28419497f9722a3daafe3b4186f6b6457e09190a35050565b80516001600160a01b03811681146100c857600080fd5b919050565b6000806000606084860312156100e257600080fd5b6100eb846100b1565b92506100f9602085016100b1565b9150604084015190509250925092565b6107a4806101186000396000f3fe6080604052600436106100ab5760003560e01c806384411d651161006457806384411d65146101845780638da5cb5b1461019a5780639e7adc79146101ba578063f2fde38b146101da578063feec756c146101fa578063ff4f35461461021a57600080fd5b80632e1a7d4d146100b75780633cb747bf146100d95780633ccfd60b14610116578063457e1a491461012b57806366d003ac1461014f578063715018a61461016f57600080fd5b366100b257005b600080fd5b3480156100c357600080fd5b506100d76100d2366004610682565b61023a565b005b3480156100e557600080fd5b506002546100f9906001600160a01b031681565b6040516001600160a01b0390911681526020015b60405180910390f35b34801561012257600080fd5b506100d76103ff565b34801561013757600080fd5b5061014160015481565b60405190815260200161010d565b34801561015b57600080fd5b506003546100f9906001600160a01b031681565b34801561017b57600080fd5b506100d761040c565b34801561019057600080fd5b5061014160045481565b3480156101a657600080fd5b506000546100f9906001600160a01b031681565b3480156101c657600080fd5b506100d76101d536600461069b565b610442565b3480156101e657600080fd5b506100d76101f536600461069b565b6104be565b34801561020657600080fd5b506100d761021536600461069b565b610547565b34801561022657600080fd5b506100d7610235366004610682565b6105c3565b6001548110156102ca5760405162461bcd60e51b815260206004820152604a60248201527f4665655661756c743a207769746864726177616c20616d6f756e74206d75737460448201527f2062652067726561746572207468616e206d696e696d756d20776974686472616064820152691dd85b08185b5bdd5b9d60b21b608482015260a4015b60405180910390fd5b478082111561032e5760405162461bcd60e51b815260206004820152602a60248201527f4665655661756c743a20696e73756666696369656e742062616c616e636520746044820152696f20776974686472617760b01b60648201526084016102c1565b6004805483019055600354604080518481526001600160a01b0390921660208301523382820152517fc8a211cc64b6ed1b50595a9fcb1932b6d1e5a6e8ef15b60e5b1f988ea9086bba9181900360600190a1600254600354604080516020810182526000808252915163b2267a7b60e01b81526001600160a01b039485169463b2267a7b9488946103c99491909216928592906004016106cb565b6000604051808303818588803b1580156103e257600080fd5b505af11580156103f6573d6000803e3d6000fd5b50505050505050565b476104098161023a565b50565b6000546001600160a01b031633146104365760405162461bcd60e51b81526004016102c190610737565b6104406000610632565b565b6000546001600160a01b0316331461046c5760405162461bcd60e51b81526004016102c190610737565b600280546001600160a01b038381166001600160a01b0319831681179093556040519116919082907f1c928c417a10a21c3cddad148c5dba5d710e4b1442d6d8a36de345935ad8461290600090a35050565b6000546001600160a01b031633146104e85760405162461bcd60e51b81526004016102c190610737565b6001600160a01b03811661053e5760405162461bcd60e51b815260206004820152601d60248201527f6e6577206f776e657220697320746865207a65726f206164647265737300000060448201526064016102c1565b61040981610632565b6000546001600160a01b031633146105715760405162461bcd60e51b81526004016102c190610737565b600380546001600160a01b038381166001600160a01b0319831681179093556040519116919082907f7e1e96961a397c8aa26162fe259cc837afc95e33aad4945ddc61c18dabb7a6ad90600090a35050565b6000546001600160a01b031633146105ed5760405162461bcd60e51b81526004016102c190610737565b600180549082905560408051828152602081018490527f0d3c80219fe57713b9f9c83d1e51426792d0c14d8e330e65b102571816140965910160405180910390a15050565b600080546001600160a01b038381166001600160a01b0319831681178455604051919092169283917f8be0079c531659141344cd1fd0a4f28419497f9722a3daafe3b4186f6b6457e09190a35050565b60006020828403121561069457600080fd5b5035919050565b6000602082840312156106ad57600080fd5b81356001600160a01b03811681146106c457600080fd5b9392505050565b60018060a01b038516815260006020858184015260806040840152845180608085015260005b8181101561070d5786810183015185820160a0015282016106f1565b50600060a0828601015260a0601f19601f8301168501019250505082606083015295945050505050565b60208082526017908201527f63616c6c6572206973206e6f7420746865206f776e657200000000000000000060408201526060019056fea2646970667358221220c49b9b7d22ac243514f8aaa4deea994a7c8079b80ccb7a2a1f1bf418e38b4d9664736f6c63430008100033","linkReferences":{}},"methodIdentifiers":{"messenger()":"3cb747bf","minWithdrawAmount()":"457e1a49","owner()":"8da5cb5b","recipient()":"66d003ac","renounceOwnership()":"715018a6","totalProcessed()":"84411d65","transferOwnership(address)":"f2fde38b","updateMessenger(address)":"9e7adc79","updateMinWithdrawAmount(uint256)":"ff4f3546","updateRecipient(address)":"feec756c","withdraw()":"3ccfd60b","withdraw(uint256)":"2e1a7d4d"},"id":172}