{"abi":[{"type":"constructor","inputs":[{"name":"_WETH","type":"address","internalType":"address"},{"name":"_l1WETH","type":"address","internalType":"address"},{"name":"_counterpart","type":"address","internalType":"address"},{"name":"_router","type":"address","internalType":"address"},{"name":"_messenger","type":"address","internalType":"address"}],"stateMutability":"nonpayable"},{"type":"receive","stateMutability":"payable"},{"type":"function","name":"WETH","inputs":[],"outputs":[{"name":"","type":"address","internalType":"address"}],"stateMutability":"view"},{"type":"function","name":"counterpart","inputs":[],"outputs":[{"name":"","type":"address","internalType":"address"}],"stateMutability":"view"},{"type":"function","name":"finalizeDepositERC20","inputs":[{"name":"_l1Token","type":"address","internalType":"address"},{"name":"_l2Token","type":"address","internalType":"address"},{"name":"_from","type":"address","internalType":"address"},{"name":"_to","type":"address","internalType":"address"},{"name":"_amount","type":"uint256","internalType":"uint256"},{"name":"_data","type":"bytes","internalType":"bytes"}],"outputs":[],"stateMutability":"payable"},{"type":"function","name":"getL1ERC20Address","inputs":[{"name":"","type":"address","internalType":"address"}],"outputs":[{"name":"","type":"address","internalType":"address"}],"stateMutability":"view"},{"type":"function","name":"getL2ERC20Address","inputs":[{"name":"","type":"address","internalType":"address"}],"outputs":[{"name":"","type":"address","internalType":"address"}],"stateMutability":"view"},{"type":"function","name":"initialize","inputs":[{"name":"_counterpart","type":"address","internalType":"address"},{"name":"_router","type":"address","internalType":"address"},{"name":"_messenger","type":"address","internalType":"address"}],"outputs":[],"stateMutability":"nonpayable"},{"type":"function","name":"l1WETH","inputs":[],"outputs":[{"name":"","type":"address","internalType":"address"}],"stateMutability":"view"},{"type":"function","name":"messenger","inputs":[],"outputs":[{"name":"","type":"address","internalType":"address"}],"stateMutability":"view"},{"type":"function","name":"owner","inputs":[],"outputs":[{"name":"","type":"address","internalType":"address"}],"stateMutability":"view"},{"type":"function","name":"renounceOwnership","inputs":[],"outputs":[],"stateMutability":"nonpayable"},{"type":"function","name":"router","inputs":[],"outputs":[{"name":"","type":"address","internalType":"address"}],"stateMutability":"view"},{"type":"function","name":"transferOwnership","inputs":[{"name":"newOwner","type":"address","internalType":"address"}],"outputs":[],"stateMutability":"nonpayable"},{"type":"function","name":"withdrawERC20","inputs":[{"name":"_token","type":"address","internalType":"address"},{"name":"_amount","type":"uint256","internalType":"uint256"},{"name":"_gasLimit","type":"uint256","internalType":"uint256"}],"outputs":[],"stateMutability":"payable"},{"type":"function","name":"withdrawERC20","inputs":[{"name":"_token","type":"address","internalType":"address"},{"name":"_to","type":"address","internalType":"address"},{"name":"_amount","type":"uint256","internalType":"uint256"},{"name":"_gasLimit","type":"uint256","internalType":"uint256"}],"outputs":[],"stateMutability":"payable"},{"type":"function","name":"withdrawERC20AndCall","inputs":[{"name":"_token","type":"address","internalType":"address"},{"name":"_to","type":"address","internalType":"address"},{"name":"_amount","type":"uint256","internalType":"uint256"},{"name":"_data","type":"bytes","internalType":"bytes"},{"name":"_gasLimit","type":"uint256","internalType":"uint256"}],"outputs":[],"stateMutability":"payable"},{"type":"event","name":"FinalizeDepositERC20","inputs":[{"name":"l1Token","type":"address","indexed":true,"internalType":"address"},{"name":"l2Token","type":"address","indexed":true,"internalType":"address"},{"name":"from","type":"address","indexed":true,"internalType":"address"},{"name":"to","type":"address","indexed":false,"internalType":"address"},{"name":"amount","type":"uint256","indexed":false,"internalType":"uint256"},{"name":"data","type":"bytes","indexed":false,"internalType":"bytes"}],"anonymous":false},{"type":"event","name":"Initialized","inputs":[{"name":"version","type":"uint8","indexed":false,"internalType":"uint8"}],"anonymous":false},{"type":"event","name":"OwnershipTransferred","inputs":[{"name":"previousOwner","type":"address","indexed":true,"internalType":"address"},{"name":"newOwner","type":"address","indexed":true,"internalType":"address"}],"anonymous":false},{"type":"event","name":"WithdrawERC20","inputs":[{"name":"l1Token","type":"address","indexed":true,"internalType":"address"},{"name":"l2Token","type":"address","indexed":true,"internalType":"address"},{"name":"from","type":"address","indexed":true,"internalType":"address"},{"name":"to","type":"address","indexed":false,"internalType":"address"},{"name":"amount","type":"uint256","indexed":false,"internalType":"uint256"},{"name":"data","type":"bytes","indexed":false,"internalType":"bytes"}],"anonymous":false},{"type":"error","name":"ErrorCallerIsNotCounterpartGateway","inputs":[]},{"type":"error","name":"ErrorCallerIsNotMessenger","inputs":[]},{"type":"error","name":"ErrorNotInDropMessageContext","inputs":[]},{"type":"error","name":"ErrorZeroAddress","inputs":[]}],"bytecode":{"object":"0x6101206040523480156200001257600080fd5b5060405162001a4138038062001a418339810160408190526200003591620001da565b8282826001600160a01b03831615806200005657506001600160a01b038116155b15620000755760405163a7f9319d60e01b815260040160405180910390fd5b6001600160a01b0392831660805290821660a052811660c05285161580620000a457506001600160a01b038416155b80620000b757506001600160a01b038216155b15620000d65760405163a7f9319d60e01b815260040160405180910390fd5b620000e0620000fc565b5050506001600160a01b03918216610100521660e0526200024a565b600054610100900460ff1615620001695760405162461bcd60e51b815260206004820152602760248201527f496e697469616c697a61626c653a20636f6e747261637420697320696e697469604482015266616c697a696e6760c81b606482015260840160405180910390fd5b60005460ff90811614620001bb576000805460ff191660ff9081179091556040519081527f7f26b83ff96e1f2b6a682f133852f6798a09c465da95921460cefb38474024989060200160405180910390a15b565b80516001600160a01b0381168114620001d557600080fd5b919050565b600080600080600060a08688031215620001f357600080fd5b620001fe86620001bd565b94506200020e60208701620001bd565b93506200021e60408701620001bd565b92506200022e60608701620001bd565b91506200023e60808701620001bd565b90509295509295909350565b60805160a05160c05160e05161010051611758620002e96000396000818160f4015281816102b60152818161034a015281816105fa01526109bb0152600081816101cf015281816102ea015281816105850152610aee01526000818161017301528181610462015281816104aa0152610b6101526000818161039e0152610a3401526000818161023e015281816105350152610b9201526117586000f3fe6080604052600436106100ec5760003560e01c80638da5cb5b1161008a578063c0c53b8b11610059578063c0c53b8b1461030c578063c676ad291461032c578063f2fde38b1461036c578063f887ea401461038c57600080fd5b80638da5cb5b14610273578063a93a4af914610291578063ad5c4648146102a4578063b32d8c65146102d857600080fd5b80636c07ea43116100c65780636c07ea4314610204578063715018a614610217578063797594b01461022c5780638431f5c11461026057600080fd5b80633cb747bf1461016157806354bbd59c146101b1578063575361b6146101f157600080fd5b3661015c57337f00000000000000000000000000000000000000000000000000000000000000006001600160a01b03161461015a5760405162461bcd60e51b81526020600482015260096024820152680dedcd8f240ae8aa8960bb1b60448201526064015b60405180910390fd5b005b600080fd5b34801561016d57600080fd5b506101957f000000000000000000000000000000000000000000000000000000000000000081565b6040516001600160a01b03909116815260200160405180910390f35b3480156101bd57600080fd5b506101956101cc3660046111d4565b507f000000000000000000000000000000000000000000000000000000000000000090565b61015a6101ff366004611241565b6103c0565b61015a6102123660046112bc565b61040c565b34801561022357600080fd5b5061015a61044b565b34801561023857600080fd5b506101957f000000000000000000000000000000000000000000000000000000000000000081565b61015a61026e3660046112f1565b61045f565b34801561027f57600080fd5b506065546001600160a01b0316610195565b61015a61029f366004611389565b6107c8565b3480156102b057600080fd5b506101957f000000000000000000000000000000000000000000000000000000000000000081565b3480156102e457600080fd5b506101957f000000000000000000000000000000000000000000000000000000000000000081565b34801561031857600080fd5b5061015a6103273660046113cf565b6107db565b34801561033857600080fd5b506101956103473660046111d4565b507f000000000000000000000000000000000000000000000000000000000000000090565b34801561037857600080fd5b5061015a6103873660046111d4565b6108f1565b34801561039857600080fd5b506101957f000000000000000000000000000000000000000000000000000000000000000081565b61040486868686868080601f01602080910402602001604051908101604052809392919081815260200183838082843760009201919091525088925061096a915050565b505050505050565b61044683338460005b6040519080825280601f01601f19166020018201604052801561043f576020820181803683370190505b508561096a565b505050565b610453610c71565b61045d6000610ccb565b565b337f00000000000000000000000000000000000000000000000000000000000000006001600160a01b0316146104a8576040516385bd908d60e01b815260040160405180910390fd5b7f00000000000000000000000000000000000000000000000000000000000000006001600160a01b0316636e296e456040518163ffffffff1660e01b8152600401602060405180830381865afa158015610506573d6000803e3d6000fd5b505050506040513d601f19601f8201168201806040525081019061052a9190611430565b6001600160a01b03167f00000000000000000000000000000000000000000000000000000000000000006001600160a01b03161461057b576040516307b140f360e51b815260040160405180910390fd5b610583610d1d565b7f00000000000000000000000000000000000000000000000000000000000000006001600160a01b0316876001600160a01b0316146105f85760405162461bcd60e51b81526020600482015260116024820152700d86240e8ded6cadc40dcdee840ae8aa89607b1b6044820152606401610151565b7f00000000000000000000000000000000000000000000000000000000000000006001600160a01b0316866001600160a01b03161461066d5760405162461bcd60e51b81526020600482015260116024820152700d86440e8ded6cadc40dcdee840ae8aa89607b1b6044820152606401610151565b3483146106b15760405162461bcd60e51b81526020600482015260126024820152710dae6ce5cecc2d8eaca40dad2e6dac2e8c6d60731b6044820152606401610151565b856001600160a01b031663d0e30db0846040518263ffffffff1660e01b81526004016000604051808303818588803b1580156106ec57600080fd5b505af1158015610700573d6000803e3d6000fd5b5061071b935050506001600160a01b03881690508585610d76565b61075b8483838080601f016020809104026020016040519081016040528093929190818152602001838380828437600092019190915250610dd992505050565b846001600160a01b0316866001600160a01b0316886001600160a01b03167f165ba69f6ab40c50cade6f65431801e5f9c7d7830b7545391920db039133ba34878787876040516107ae949392919061144d565b60405180910390a46107bf60018055565b50505050505050565b6107d58484846000610415565b50505050565b600054610100900460ff16158080156107fb5750600054600160ff909116105b806108155750303b158015610815575060005460ff166001145b6108785760405162461bcd60e51b815260206004820152602e60248201527f496e697469616c697a61626c653a20636f6e747261637420697320616c72656160448201526d191e481a5b9a5d1a585b1a5e995960921b6064820152608401610151565b6000805460ff19166001179055801561089b576000805461ff0019166101001790555b6108a6848484610e5d565b80156107d5576000805461ff0019169055604051600181527f7f26b83ff96e1f2b6a682f133852f6798a09c465da95921460cefb38474024989060200160405180910390a150505050565b6108f9610c71565b6001600160a01b03811661095e5760405162461bcd60e51b815260206004820152602660248201527f4f776e61626c653a206e6577206f776e657220697320746865207a65726f206160448201526564647265737360d01b6064820152608401610151565b61096781610ccb565b50565b610972610d1d565b600083116109b95760405162461bcd60e51b81526020600482015260146024820152731dda5d1a191c985dc81e995c9bc8185b5bdd5b9d60621b6044820152606401610151565b7f00000000000000000000000000000000000000000000000000000000000000006001600160a01b0316856001600160a01b031614610a315760405162461bcd60e51b81526020600482015260146024820152731bdb9b1e4815d15512081a5cc8185b1b1bddd95960621b6044820152606401610151565b337f00000000000000000000000000000000000000000000000000000000000000006001600160a01b0316819003610a7c5782806020019051810190610a7791906114b9565b935090505b610a916001600160a01b038716823087610e6d565b604051632e1a7d4d60e01b8152600481018590526001600160a01b03871690632e1a7d4d90602401600060405180830381600087803b158015610ad357600080fd5b505af1158015610ae7573d6000803e3d6000fd5b50506040517f0000000000000000000000000000000000000000000000000000000000000000925060009150610b2b9083908a9086908b908b908b906024016115a8565b60408051601f198184030181529190526020810180516001600160e01b031663084bd13b60e41b17905290506001600160a01b037f00000000000000000000000000000000000000000000000000000000000000001663b2267a7b610b9034896115f7565b7f00000000000000000000000000000000000000000000000000000000000000008985896040518663ffffffff1660e01b8152600401610bd3949392919061161e565b6000604051808303818588803b158015610bec57600080fd5b505af1158015610c00573d6000803e3d6000fd5b5050505050826001600160a01b0316886001600160a01b0316836001600160a01b03167fd8d3a3f4ab95694bef40475997598bcf8acd3ed9617a4c1013795429414c27e88a8a8a604051610c5693929190611656565b60405180910390a4505050610c6a60018055565b5050505050565b6065546001600160a01b0316331461045d5760405162461bcd60e51b815260206004820181905260248201527f4f776e61626c653a2063616c6c6572206973206e6f7420746865206f776e65726044820152606401610151565b606580546001600160a01b038381166001600160a01b0319831681179093556040519116919082907f8be0079c531659141344cd1fd0a4f28419497f9722a3daafe3b4186f6b6457e090600090a35050565b600260015403610d6f5760405162461bcd60e51b815260206004820152601f60248201527f5265656e7472616e637947756172643a207265656e7472616e742063616c6c006044820152606401610151565b6002600155565b6040516001600160a01b03831660248201526044810182905261044690849063a9059cbb60e01b906064015b60408051601f198184030181529190526020810180516001600160e01b03166001600160e01b031990931692909217909152610ea5565b60008151118015610df457506000826001600160a01b03163b115b15610e535760405163109b953160e01b81526001600160a01b0383169063109b953190610e25908490600401611686565b600060405180830381600087803b158015610e3f57600080fd5b505af1158015610404573d6000803e3d6000fd5b5050565b60018055565b610e65610f7a565b610446610fa9565b6040516001600160a01b03808516602483015283166044820152606481018290526107d59085906323b872dd60e01b90608401610da2565b6000610efa826040518060400160405280602081526020017f5361666545524332303a206c6f772d6c6576656c2063616c6c206661696c6564815250856001600160a01b0316610fd89092919063ffffffff16565b9050805160001480610f1b575080806020019051810190610f1b9190611699565b6104465760405162461bcd60e51b815260206004820152602a60248201527f5361666545524332303a204552433230206f7065726174696f6e20646964206e6044820152691bdd081cdd58d8d9595960b21b6064820152608401610151565b600054610100900460ff16610fa15760405162461bcd60e51b8152600401610151906116bb565b61045d610fef565b600054610100900460ff16610fd05760405162461bcd60e51b8152600401610151906116bb565b61045d611016565b6060610fe78484600085611046565b949350505050565b600054610100900460ff16610e575760405162461bcd60e51b8152600401610151906116bb565b600054610100900460ff1661103d5760405162461bcd60e51b8152600401610151906116bb565b61045d33610ccb565b6060824710156110a75760405162461bcd60e51b815260206004820152602660248201527f416464726573733a20696e73756666696369656e742062616c616e636520666f6044820152651c8818d85b1b60d21b6064820152608401610151565b600080866001600160a01b031685876040516110c39190611706565b60006040518083038185875af1925050503d8060008114611100576040519150601f19603f3d011682016040523d82523d6000602084013e611105565b606091505b509150915061111687838387611121565b979650505050505050565b60608315611190578251600003611189576001600160a01b0385163b6111895760405162461bcd60e51b815260206004820152601d60248201527f416464726573733a2063616c6c20746f206e6f6e2d636f6e74726163740000006044820152606401610151565b5081610fe7565b610fe783838151156111a55781518083602001fd5b8060405162461bcd60e51b81526004016101519190611686565b6001600160a01b038116811461096757600080fd5b6000602082840312156111e657600080fd5b81356111f1816111bf565b9392505050565b60008083601f84011261120a57600080fd5b50813567ffffffffffffffff81111561122257600080fd5b60208301915083602082850101111561123a57600080fd5b9250929050565b60008060008060008060a0878903121561125a57600080fd5b8635611265816111bf565b95506020870135611275816111bf565b945060408701359350606087013567ffffffffffffffff81111561129857600080fd5b6112a489828a016111f8565b979a9699509497949695608090950135949350505050565b6000806000606084860312156112d157600080fd5b83356112dc816111bf565b95602085013595506040909401359392505050565b600080600080600080600060c0888a03121561130c57600080fd5b8735611317816111bf565b96506020880135611327816111bf565b95506040880135611337816111bf565b94506060880135611347816111bf565b93506080880135925060a088013567ffffffffffffffff81111561136a57600080fd5b6113768a828b016111f8565b989b979a50959850939692959293505050565b6000806000806080858703121561139f57600080fd5b84356113aa816111bf565b935060208501356113ba816111bf565b93969395505050506040820135916060013590565b6000806000606084860312156113e457600080fd5b83356113ef816111bf565b925060208401356113ff816111bf565b9150604084013561140f816111bf565b809150509250925092565b634e487b7160e01b600052604160045260246000fd5b60006020828403121561144257600080fd5b81516111f1816111bf565b6001600160a01b0385168152602081018490526060604082018190528101829052818360808301376000818301608090810191909152601f909201601f191601019392505050565b60005b838110156114b0578181015183820152602001611498565b50506000910152565b600080604083850312156114cc57600080fd5b82516114d7816111bf565b602084015190925067ffffffffffffffff808211156114f557600080fd5b818501915085601f83011261150957600080fd5b81518181111561151b5761151b61141a565b604051601f8201601f19908116603f011681019083821181831017156115435761154361141a565b8160405282815288602084870101111561155c57600080fd5b61156d836020830160208801611495565b80955050505050509250929050565b60008151808452611594816020860160208601611495565b601f01601f19169290920160200192915050565b6001600160a01b03878116825286811660208301528581166040830152841660608201526080810183905260c060a082018190526000906115eb9083018461157c565b98975050505050505050565b8082018082111561161857634e487b7160e01b600052601160045260246000fd5b92915050565b60018060a01b0385168152836020820152608060408201526000611645608083018561157c565b905082606083015295945050505050565b60018060a01b038416815282602082015260606040820152600061167d606083018461157c565b95945050505050565b6020815260006111f1602083018461157c565b6000602082840312156116ab57600080fd5b815180151581146111f157600080fd5b6020808252602b908201527f496e697469616c697a61626c653a20636f6e7472616374206973206e6f74206960408201526a6e697469616c697a696e6760a81b606082015260800190565b60008251611718818460208701611495565b919091019291505056fea26469706673582212205916d6428b2a7cae4955d559816ccabe92e67f078480cdc4dab31ae7d039d34864736f6c63430008100033","linkReferences":{}},"methodIdentifiers":{"WETH()":"ad5c4648","counterpart()":"797594b0","finalizeDepositERC20(address,address,address,address,uint256,bytes)":"8431f5c1","getL1ERC20Address(address)":"54bbd59c","getL2ERC20Address(address)":"c676ad29","initialize(address,address,address)":"c0c53b8b","l1WETH()":"b32d8c65","messenger()":"3cb747bf","owner()":"8da5cb5b","renounceOwnership()":"715018a6","router()":"f887ea40","transferOwnership(address)":"f2fde38b","withdrawERC20(address,address,uint256,uint256)":"a93a4af9","withdrawERC20(address,uint256,uint256)":"6c07ea43","withdrawERC20AndCall(address,address,uint256,bytes,uint256)":"575361b6"},"id":164}