{"abi":[{"type":"constructor","inputs":[{"name":"_chainId","type":"uint64","internalType":"uint64"},{"name":"_messageQueue","type":"address","internalType":"address"},{"name":"_verifier","type":"address","internalType":"address"}],"stateMutability":"nonpayable"},{"type":"function","name":"addProver","inputs":[{"name":"_account","type":"address","internalType":"address"}],"outputs":[],"stateMutability":"nonpayable"},{"type":"function","name":"addSequencer","inputs":[{"name":"_account","type":"address","internalType":"address"}],"outputs":[],"stateMutability":"nonpayable"},{"type":"function","name":"commitBatch","inputs":[{"name":"_version","type":"uint8","internalType":"uint8"},{"name":"_parentBatchHeader","type":"bytes","internalType":"bytes"},{"name":"_chunks","type":"bytes[]","internalType":"bytes[]"},{"name":"_skippedL1MessageBitmap","type":"bytes","internalType":"bytes"}],"outputs":[],"stateMutability":"nonpayable"},{"type":"function","name":"committedBatches","inputs":[{"name":"","type":"uint256","internalType":"uint256"}],"outputs":[{"name":"","type":"bytes32","internalType":"bytes32"}],"stateMutability":"view"},{"type":"function","name":"finalizeBatchWithProof","inputs":[{"name":"_batchHeader","type":"bytes","internalType":"bytes"},{"name":"_prevStateRoot","type":"bytes32","internalType":"bytes32"},{"name":"_postStateRoot","type":"bytes32","internalType":"bytes32"},{"name":"_withdrawRoot","type":"bytes32","internalType":"bytes32"},{"name":"_aggrProof","type":"bytes","internalType":"bytes"}],"outputs":[],"stateMutability":"nonpayable"},{"type":"function","name":"finalizedStateRoots","inputs":[{"name":"","type":"uint256","internalType":"uint256"}],"outputs":[{"name":"","type":"bytes32","internalType":"bytes32"}],"stateMutability":"view"},{"type":"function","name":"importGenesisBatch","inputs":[{"name":"_batchHeader","type":"bytes","internalType":"bytes"},{"name":"_stateRoot","type":"bytes32","internalType":"bytes32"}],"outputs":[],"stateMutability":"nonpayable"},{"type":"function","name":"initialize","inputs":[{"name":"_messageQueue","type":"address","internalType":"address"},{"name":"_verifier","type":"address","internalType":"address"},{"name":"_maxNumTxInChunk","type":"uint256","internalType":"uint256"}],"outputs":[],"stateMutability":"nonpayable"},{"type":"function","name":"isBatchFinalized","inputs":[{"name":"_batchIndex","type":"uint256","internalType":"uint256"}],"outputs":[{"name":"","type":"bool","internalType":"bool"}],"stateMutability":"view"},{"type":"function","name":"isProver","inputs":[{"name":"","type":"address","internalType":"address"}],"outputs":[{"name":"","type":"bool","internalType":"bool"}],"stateMutability":"view"},{"type":"function","name":"isSequencer","inputs":[{"name":"","type":"address","internalType":"address"}],"outputs":[{"name":"","type":"bool","internalType":"bool"}],"stateMutability":"view"},{"type":"function","name":"lastFinalizedBatchIndex","inputs":[],"outputs":[{"name":"","type":"uint256","internalType":"uint256"}],"stateMutability":"view"},{"type":"function","name":"layer2ChainId","inputs":[],"outputs":[{"name":"","type":"uint64","internalType":"uint64"}],"stateMutability":"view"},{"type":"function","name":"maxNumTxInChunk","inputs":[],"outputs":[{"name":"","type":"uint256","internalType":"uint256"}],"stateMutability":"view"},{"type":"function","name":"messageQueue","inputs":[],"outputs":[{"name":"","type":"address","internalType":"address"}],"stateMutability":"view"},{"type":"function","name":"owner","inputs":[],"outputs":[{"name":"","type":"address","internalType":"address"}],"stateMutability":"view"},{"type":"function","name":"paused","inputs":[],"outputs":[{"name":"","type":"bool","internalType":"bool"}],"stateMutability":"view"},{"type":"function","name":"removeProver","inputs":[{"name":"_account","type":"address","internalType":"address"}],"outputs":[],"stateMutability":"nonpayable"},{"type":"function","name":"removeSequencer","inputs":[{"name":"_account","type":"address","internalType":"address"}],"outputs":[],"stateMutability":"nonpayable"},{"type":"function","name":"renounceOwnership","inputs":[],"outputs":[],"stateMutability":"nonpayable"},{"type":"function","name":"revertBatch","inputs":[{"name":"_batchHeader","type":"bytes","internalType":"bytes"},{"name":"_count","type":"uint256","internalType":"uint256"}],"outputs":[],"stateMutability":"nonpayable"},{"type":"function","name":"setPause","inputs":[{"name":"_status","type":"bool","internalType":"bool"}],"outputs":[],"stateMutability":"nonpayable"},{"type":"function","name":"transferOwnership","inputs":[{"name":"newOwner","type":"address","internalType":"address"}],"outputs":[],"stateMutability":"nonpayable"},{"type":"function","name":"updateMaxNumTxInChunk","inputs":[{"name":"_maxNumTxInChunk","type":"uint256","internalType":"uint256"}],"outputs":[],"stateMutability":"nonpayable"},{"type":"function","name":"verifier","inputs":[],"outputs":[{"name":"","type":"address","internalType":"address"}],"stateMutability":"view"},{"type":"function","name":"withdrawRoots","inputs":[{"name":"","type":"uint256","internalType":"uint256"}],"outputs":[{"name":"","type":"bytes32","internalType":"bytes32"}],"stateMutability":"view"},{"type":"event","name":"CommitBatch","inputs":[{"name":"batchIndex","type":"uint256","indexed":true,"internalType":"uint256"},{"name":"batchHash","type":"bytes32","indexed":true,"internalType":"bytes32"}],"anonymous":false},{"type":"event","name":"FinalizeBatch","inputs":[{"name":"batchIndex","type":"uint256","indexed":true,"internalType":"uint256"},{"name":"batchHash","type":"bytes32","indexed":true,"internalType":"bytes32"},{"name":"stateRoot","type":"bytes32","indexed":false,"internalType":"bytes32"},{"name":"withdrawRoot","type":"bytes32","indexed":false,"internalType":"bytes32"}],"anonymous":false},{"type":"event","name":"Initialized","inputs":[{"name":"version","type":"uint8","indexed":false,"internalType":"uint8"}],"anonymous":false},{"type":"event","name":"OwnershipTransferred","inputs":[{"name":"previousOwner","type":"address","indexed":true,"internalType":"address"},{"name":"newOwner","type":"address","indexed":true,"internalType":"address"}],"anonymous":false},{"type":"event","name":"Paused","inputs":[{"name":"account","type":"address","indexed":false,"internalType":"address"}],"anonymous":false},{"type":"event","name":"RevertBatch","inputs":[{"name":"batchIndex","type":"uint256","indexed":true,"internalType":"uint256"},{"name":"batchHash","type":"bytes32","indexed":true,"internalType":"bytes32"}],"anonymous":false},{"type":"event","name":"Unpaused","inputs":[{"name":"account","type":"address","indexed":false,"internalType":"address"}],"anonymous":false},{"type":"event","name":"UpdateMaxNumTxInChunk","inputs":[{"name":"oldMaxNumTxInChunk","type":"uint256","indexed":false,"internalType":"uint256"},{"name":"newMaxNumTxInChunk","type":"uint256","indexed":false,"internalType":"uint256"}],"anonymous":false},{"type":"event","name":"UpdateProver","inputs":[{"name":"account","type":"address","indexed":true,"internalType":"address"},{"name":"status","type":"bool","indexed":false,"internalType":"bool"}],"anonymous":false},{"type":"event","name":"UpdateSequencer","inputs":[{"name":"account","type":"address","indexed":true,"internalType":"address"},{"name":"status","type":"bool","indexed":false,"internalType":"bool"}],"anonymous":false},{"type":"error","name":"ErrorZeroAddress","inputs":[]}],"bytecode":{"object":"0x60e06040523480156200001157600080fd5b50604051620024843803806200248483398101604081905262000034916200017f565b6001600160a01b03821615806200005257506001600160a01b038116155b15620000715760405163a7f9319d60e01b815260040160405180910390fd5b6200007b620000a1565b6001600160401b039092166080526001600160a01b0390811660a0521660c052620001d6565b600054610100900460ff16156200010e5760405162461bcd60e51b815260206004820152602760248201527f496e697469616c697a61626c653a20636f6e747261637420697320696e697469604482015266616c697a696e6760c81b606482015260840160405180910390fd5b60005460ff9081161462000160576000805460ff191660ff9081179091556040519081527f7f26b83ff96e1f2b6a682f133852f6798a09c465da95921460cefb38474024989060200160405180910390a15b565b80516001600160a01b03811681146200017a57600080fd5b919050565b6000806000606084860312156200019557600080fd5b83516001600160401b0381168114620001ad57600080fd5b9250620001bd6020850162000162565b9150620001cd6040850162000162565b90509250925092565b60805160a05160c05161226262000222600039600081816102de0152610ec501526000818161033001528181610faf0152611b5d0152600081816101980152610e4c01526122626000f3fe608060405234801561001057600080fd5b506004361061018e5760003560e01c80633b70c18a116100de5780638a33623111610097578063bedb86fb11610071578063bedb86fb146103e5578063ea5f084f146103f8578063ef6602ba14610418578063f2fde38b1461042157600080fd5b80638a336231146103ae5780638da5cb5b146103c1578063b571d3dd146103d257600080fd5b80633b70c18a1461032b5780633fdeecb2146103525780635c975abb146103655780636989ca7c146103705780636d46e98714610383578063715018a6146103a657600080fd5b80631794bb3c1161014b5780632362f03e116101255780632362f03e146102995780632571098d146102b95780632b7ac3f3146102d957806331fa742d1461031857600080fd5b80631794bb3c146102605780631d49e457146102735780631e2283021461028657600080fd5b806303c7f4af14610193578063059def61146101d85780630a245924146101ef57806310d4458314610222578063116a1f42146102375780631325aca01461024d575b600080fd5b6101ba7f000000000000000000000000000000000000000000000000000000000000000081565b60405167ffffffffffffffff90911681526020015b60405180910390f35b6101e1609c5481565b6040519081526020016101cf565b6102126101fd366004611d42565b609b6020526000908152604090205460ff1681565b60405190151581526020016101cf565b610235610230366004611dad565b610434565b005b610212610245366004611df9565b609c54101590565b61023561025b366004611e59565b61063d565b61023561026e366004611ff1565b610990565b610235610281366004611d42565b610b13565b610235610294366004611df9565b610bbb565b6101e16102a7366004611df9565b609d6020526000908152604090205481565b6101e16102c7366004611df9565b609e6020526000908152604090205481565b6103007f000000000000000000000000000000000000000000000000000000000000000081565b6040516001600160a01b0390911681526020016101cf565b61023561032636600461202d565b610c08565b6103007f000000000000000000000000000000000000000000000000000000000000000081565b610235610360366004611dad565b6110e5565b60655460ff16610212565b61023561037e366004611d42565b611387565b610212610391366004611d42565b609a6020526000908152604090205460ff1681565b6102356113de565b6102356103bc366004611d42565b6113f2565b6033546001600160a01b0316610300565b6102356103e0366004611d42565b611493565b6102356103f33660046120ba565b6114ea565b6101e1610406366004611df9565b609f6020526000908152604090205481565b6101e160975481565b61023561042f366004611d42565b61150b565b61043c611581565b600081116104895760405162461bcd60e51b8152602060048201526015602482015274636f756e74206d757374206265206e6f6e7a65726f60581b60448201526064015b60405180910390fd5b60008061049685856115db565b9150915060006104aa836001015160c01c90565b6000818152609d602052604090205490915082146105015760405162461bcd60e51b81526020600482015260146024820152730d2dcc6dee4e4cac6e840c4c2e8c6d040d0c2e6d60631b6044820152606401610480565b6000609d8161051087856120f2565b815260200190815260200160002054146105785760405162461bcd60e51b8152602060048201526024808201527f726576657274696e67206d7573742073746172742066726f6d2074686520656e60448201526364696e6760e01b6064820152608401610480565b609c5481116105d35760405162461bcd60e51b815260206004820152602160248201527f63616e206f6e6c792072657665727420756e66696e616c697a656420626174636044820152600d60fb1b6064820152608401610480565b5b8315610635576000818152609d602052604080822082905551839183917ecae2739091badfd91c373f0a16cede691e0cd25bb80cff77dd5caeb47101469190a36001016000818152609d6020526040902054600019909401939150816105d4575b505050505050565b336000908152609a602052604090205460ff166106935760405162461bcd60e51b815260206004820152601460248201527331b0b63632b9103737ba1039b2b8bab2b731b2b960611b6044820152606401610480565b61069b6115f8565b60ff8616156106de5760405162461bcd60e51b815260206004820152600f60248201526e34b73b30b634b2103b32b939b4b7b760891b6044820152606401610480565b82518061071e5760405162461bcd60e51b815260206004820152600e60248201526d626174636820697320656d70747960901b6044820152606401610480565b60008061072b88886115db565b91509150600061073f836001015160c01c90565b90506000610751846011015160c01c90565b6000838152609d602052604090205490915083146107b15760405162461bcd60e51b815260206004820152601b60248201527f696e636f727265637420706172656e74206261746368206861736800000000006044820152606401610480565b609d60006107c08460016120f2565b81526020810191909152604001600020541561081e5760405162461bcd60e51b815260206004820152601760248201527f626174636820616c726561647920636f6d6d69747465640000000000000000006044820152606401610480565b604080516020870281019091526000805b87811015610883576000610860848d848151811061084f5761084f612105565b602002602001015185888f8f61163e565b94850194602094909401939290920191508061087b8161211b565b91505061082f565b508761010060ff830104602002146108d35760405162461bcd60e51b81526020600482015260136024820152720eee4dedcce40c4d2e8dac2e040d8cadccee8d606b1b6044820152606401610480565b600060208802808185032091505060405196506001850194506108f9878f60ff1661189f565b60c085811b600189015282811b600989015284901b6011880152601987018190526039870186905261092c878b8b6118a6565b60006109428861093d8c60596120f2565b902090565b6000878152609d602052604080822083905551919250829188917f2c32d4ae151744d0bf0b9464a3e897a1d17ed2f1af71f7c9a75f12ce0d28238f91a3505050505050505050505050505050565b600054610100900460ff16158080156109b05750600054600160ff909116105b806109ca5750303b1580156109ca575060005460ff166001145b610a2d5760405162461bcd60e51b815260206004820152602e60248201527f496e697469616c697a61626c653a20636f6e747261637420697320616c72656160448201526d191e481a5b9a5d1a585b1a5e995960921b6064820152608401610480565b6000805460ff191660011790558015610a50576000805461ff0019166101001790555b610a586118b2565b6097829055609980546001600160a01b038581166001600160a01b03199283161790925560988054928716929091169190911790556040805160008152602081018490527f6d0f49971e462a2f78a25906f145cb29cd5e7bd01ebf681ac8f58cb814e5877a910160405180910390a18015610b0d576000805461ff0019169055604051600181527f7f26b83ff96e1f2b6a682f133852f6798a09c465da95921460cefb38474024989060200160405180910390a15b50505050565b610b1b611581565b6001600160a01b0381163b15610b5d5760405162461bcd60e51b81526020600482015260076024820152666e6f7420454f4160c81b6044820152606401610480565b6001600160a01b0381166000818152609b6020908152604091829020805460ff1916600190811790915591519182527f967f99d5d403870e4356ff46556df3a6b6ba1f50146639aaedfb9f248eb8661e91015b60405180910390a250565b610bc3611581565b609780549082905560408051828152602081018490527f6d0f49971e462a2f78a25906f145cb29cd5e7bd01ebf681ac8f58cb814e5877a910160405180910390a15050565b336000908152609b602052604090205460ff16610c5b5760405162461bcd60e51b815260206004820152601160248201527031b0b63632b9103737ba10383937bb32b960791b6044820152606401610480565b610c636115f8565b84610cb05760405162461bcd60e51b815260206004820152601b60248201527f70726576696f757320737461746520726f6f74206973207a65726f00000000006044820152606401610480565b83610cf65760405162461bcd60e51b81526020600482015260166024820152756e657720737461746520726f6f74206973207a65726f60501b6044820152606401610480565b600080610d0389896115db565b915091506000610d14836019015190565b90506000610d26846001015160c01c90565b6000818152609d60205260409020549091508314610d7d5760405162461bcd60e51b81526020600482015260146024820152730d2dcc6dee4e4cac6e840c4c2e8c6d040d0c2e6d60631b6044820152606401610480565b88609e6000610d8d600185612134565b81526020019081526020016000205414610de95760405162461bcd60e51b815260206004820152601d60248201527f696e636f72726563742070726576696f757320737461746520726f6f740000006044820152606401610480565b6000818152609e602052604090205415610e3e5760405162461bcd60e51b815260206004820152601660248201527518985d18da08185b1c9958591e481d995c9a599a595960521b6044820152606401610480565b6040516001600160c01b03197f000000000000000000000000000000000000000000000000000000000000000060c01b166020820152602881018a905260488101899052606881018890526088810183905260009060a80160408051601f1981840301815290829052805160209091012063cc780aa160e01b825291506001600160a01b037f0000000000000000000000000000000000000000000000000000000000000000169063cc780aa190610f009085908b908b908790600401612147565b60006040518083038186803b158015610f1857600080fd5b505afa158015610f2c573d6000803e3d6000fd5b5050505081609c5460010114610f7c5760405162461bcd60e51b81526020600482015260156024820152740d2dcc6dee4e4cac6e840c4c2e8c6d040d2dcc8caf605b1b6044820152606401610480565b609c8290556000828152609e602090815260408083208c9055609f9091529020889055600985015160c01c8015611099577f0000000000000000000000000000000000000000000000000000000000000000600082610fdf896011015160c01c90565b03905060005b8381101561109557610100818503811115610fff57508084035b60006110158b6101008504602002016059015190565b604051632afb09e760e11b81526004810186905260248101849052604481018290529091506001600160a01b038616906355f613ce90606401600060405180830381600087803b15801561106857600080fd5b505af115801561107c573d6000803e3d6000fd5b5050505061010084019350505061010081019050610fe5565b5050505b604080518b8152602081018b9052869185917f26ba82f907317eedc97d0cbef23de76a43dd6edb563bdb6e9407645b950a7a2d910160405180910390a350505050505050505050505050565b806111245760405162461bcd60e51b815260206004820152600f60248201526e1e995c9bc81cdd185d19481c9bdbdd608a1b6044820152606401610480565b60008052609e6020527fedae58bba15aea52a58242ef195db2cc4de2b75de265dbb0d58482df22a9597854156111955760405162461bcd60e51b815260206004820152601660248201527511d95b995cda5cc818985d18da081a5b5c1bdc9d195960521b6044820152606401610480565b6000806111a285856115db565b9150915060006111b6836011015160c01c90565b600984015160c01c600185015160c01c855160f81c0101019050801561121e5760405162461bcd60e51b815260206004820152601760248201527f6e6f7420616c6c206669656c647320617265207a65726f0000000000000000006044820152606401610480565b50600061122c836019015190565b0361126a5760405162461bcd60e51b815260206004820152600e60248201526d0f4cae4de40c8c2e8c240d0c2e6d60931b6044820152606401610480565b6000611277836039015190565b146112c45760405162461bcd60e51b815260206004820152601960248201527f6e6f6e7a65726f20706172656e742062617463682068617368000000000000006044820152606401610480565b60008080527fc5dc36ae4e7617e4c4d23ddfcde33c79e9ed64c300aed766a9288a6b9b31f63d829055609e6020527fedae58bba15aea52a58242ef195db2cc4de2b75de265dbb0d58482df22a959788490556040518291907f2c32d4ae151744d0bf0b9464a3e897a1d17ed2f1af71f7c9a75f12ce0d28238f908290a360408051848152600060208201819052839290917f26ba82f907317eedc97d0cbef23de76a43dd6edb563bdb6e9407645b950a7a2d910160405180910390a35050505050565b61138f611581565b6001600160a01b0381166000818152609a60209081526040808320805460ff19169055519182527f631cb110fbe6a87fba5414d6b2cff02264480535cd1f5abdbc4fa638bc0b56929101610bb0565b6113e6611581565b6113f060006118e1565b565b6113fa611581565b6001600160a01b0381163b1561143c5760405162461bcd60e51b81526020600482015260076024820152666e6f7420454f4160c81b6044820152606401610480565b6001600160a01b0381166000818152609a6020908152604091829020805460ff1916600190811790915591519182527f631cb110fbe6a87fba5414d6b2cff02264480535cd1f5abdbc4fa638bc0b56929101610bb0565b61149b611581565b6001600160a01b0381166000818152609b60209081526040808320805460ff19169055519182527f967f99d5d403870e4356ff46556df3a6b6ba1f50146639aaedfb9f248eb8661e9101610bb0565b6114f2611581565b801561150357611500611933565b50565b61150061198d565b611513611581565b6001600160a01b0381166115785760405162461bcd60e51b815260206004820152602660248201527f4f776e61626c653a206e6577206f776e657220697320746865207a65726f206160448201526564647265737360d01b6064820152608401610480565b611500816118e1565b6033546001600160a01b031633146113f05760405162461bcd60e51b815260206004820181905260248201527f4f776e61626c653a2063616c6c6572206973206e6f7420746865206f776e65726044820152606401610480565b60008060006115ea85856119c6565b812090969095509350505050565b60655460ff16156113f05760405162461bcd60e51b815260206004820152601060248201526f14185d5cd8589b194e881c185d5cd95960821b6044820152606401610480565b60405185516000916020880191819060218a0190859061165f908690611a95565b90506000805b828110156116c157603c81028701600181015186526021015165ffffffffffff19166020860152603a8501945060006116a2856038015160f01c90565b603c9590950194929092019150806116b98161211b565b915050611665565b5060200283016040526001850191508260006116e28784603c020160010190565b90505b82156117c85760006116fb85603a015160f01c90565b905061170b86828f8f8f8f611b4a565b9550600061171d866038015160f01c90565b90508181101561176f5760405162461bcd60e51b815260206004820152601d60248201527f6e756d20747873206c657373207468616e206e756d204c31206d7367730000006044820152606401610480565b815b818110156117a657835160e01c60048086018290208a526020909901989401909301928061179e8161211b565b915050611771565b50509b8c019b9a8b019a9790970196603c9390930192600019909201916116e5565b60975460206117d78488612134565b6117e19190612187565b111561182f5760405162461bcd60e51b815260206004820152601960248201527f746f6f206d616e792074787320696e206f6e65206368756e6b000000000000006044820152606401610480565b8c5161183b8883612134565b146118885760405162461bcd60e51b815260206004820152601e60248201527f696e636f6d706c657465206c32207472616e73616374696f6e206461746100006044820152606401610480565b5050505081900390208852505b9695505050505050565b8082535050565b80826059850137505050565b600054610100900460ff166118d95760405162461bcd60e51b8152600401610480906121a9565b6113f0611cad565b603380546001600160a01b038381166001600160a01b0319831681179093556040519116919082907f8be0079c531659141344cd1fd0a4f28419497f9722a3daafe3b4186f6b6457e090600090a35050565b61193b6115f8565b6065805460ff191660011790557f62e78cea01bee320cd4e420270b5ea74000d11b0c9f74754ebdbfc544b05a2586119703390565b6040516001600160a01b03909116815260200160405180910390a1565b611995611cdd565b6065805460ff191690557f5db9ee0a495bf2e6ff9c91a7834c1ba4fdd244a5e8aa4e537bd38aeae4b073aa33611970565b6000816059811015611a1a5760405162461bcd60e51b815260206004820152601d60248201527f626174636820686561646572206c656e67746820746f6f20736d616c6c0000006044820152606401610480565b6040519150808483378082016040526000611a39836009015160c01c90565b905061010060ff8201046020026059018214611a8d5760405162461bcd60e51b81526020600482015260136024820152720eee4dedcce40c4d2e8dac2e040d8cadccee8d606b1b6044820152606401610480565b509250929050565b6000611aa2835160f81c90565b905060008111611ae85760405162461bcd60e51b81526020600482015260116024820152706e6f20626c6f636b20696e206368756e6b60781b6044820152606401610480565b611af3603c826121f4565b611afe9060016120f2565b821015611b445760405162461bcd60e51b81526020600482015260146024820152730d2dcecc2d8d2c840c6d0eadcd640d8cadccee8d60631b6044820152606401610480565b92915050565b600085600003611b5b575085611895565b7f0000000000000000000000000000000000000000000000000000000000000000600080805b89811015611c425760ff89169150600889901c811580611b9f575082155b15611bae578060200288013593505b600184841c16600003611c315760405163ae453cd560e01b8152600481018a90526000906001600160a01b0387169063ae453cd590602401602060405180830381865afa158015611c03573d6000803e3d6000fd5b505050506040513d601f19601f82011682018060405250810190611c279190612213565b8d52506020909b019a5b506001988901989788019701611b81565b505060ff60001988011681811c60011615611c9f5760405162461bcd60e51b815260206004820152601b60248201527f63616e6e6f7420736b6970206c617374204c31206d65737361676500000000006044820152606401610480565b509798975050505050505050565b600054610100900460ff16611cd45760405162461bcd60e51b8152600401610480906121a9565b6113f0336118e1565b60655460ff166113f05760405162461bcd60e51b815260206004820152601460248201527314185d5cd8589b194e881b9bdd081c185d5cd95960621b6044820152606401610480565b80356001600160a01b0381168114611d3d57600080fd5b919050565b600060208284031215611d5457600080fd5b611d5d82611d26565b9392505050565b60008083601f840112611d7657600080fd5b50813567ffffffffffffffff811115611d8e57600080fd5b602083019150836020828501011115611da657600080fd5b9250929050565b600080600060408486031215611dc257600080fd5b833567ffffffffffffffff811115611dd957600080fd5b611de586828701611d64565b909790965060209590950135949350505050565b600060208284031215611e0b57600080fd5b5035919050565b634e487b7160e01b600052604160045260246000fd5b604051601f8201601f1916810167ffffffffffffffff81118282101715611e5157611e51611e12565b604052919050565b60008060008060008060808789031215611e7257600080fd5b863560ff811614611e8257600080fd5b8635955067ffffffffffffffff8060208901351115611ea057600080fd5b611eb08960208a01358a01611d64565b90965094506040880135811015611ec657600080fd5b6040880135880189601f820112611edc57600080fd5b8181351115611eed57611eed611e12565b611efd6020823560051b01611e28565b81358082526020808301929160051b8401018c1015611f1b57600080fd5b602083015b6020843560051b850101811015611fb9578481351115611f3f57600080fd5b803584018d603f820112611f5257600080fd5b602081013586811115611f6757611f67611e12565b611f7a601f8201601f1916602001611e28565b8181528f6040838501011115611f8f57600080fd5b81604084016020830137600060208383010152808652505050602083019250602081019050611f20565b50955050506060880135811015611fcf57600080fd5b50611fe08860608901358901611d64565b969995985093965091949293915050565b60008060006060848603121561200657600080fd5b61200f84611d26565b925061201d60208501611d26565b9150604084013590509250925092565b600080600080600080600060a0888a03121561204857600080fd5b873567ffffffffffffffff8082111561206057600080fd5b61206c8b838c01611d64565b909950975060208a0135965060408a0135955060608a0135945060808a013591508082111561209a57600080fd5b506120a78a828b01611d64565b989b979a50959850939692959293505050565b6000602082840312156120cc57600080fd5b81358015158114611d5d57600080fd5b634e487b7160e01b600052601160045260246000fd5b80820180821115611b4457611b446120dc565b634e487b7160e01b600052603260045260246000fd5b60006001820161212d5761212d6120dc565b5060010190565b81810381811115611b4457611b446120dc565b848152606060208201528260608201528284608083013760006080848301015260006080601f19601f860116830101905082604083015295945050505050565b6000826121a457634e487b7160e01b600052601260045260246000fd5b500490565b6020808252602b908201527f496e697469616c697a61626c653a20636f6e7472616374206973206e6f74206960408201526a6e697469616c697a696e6760a81b606082015260800190565b600081600019048311821515161561220e5761220e6120dc565b500290565b60006020828403121561222557600080fd5b505191905056fea26469706673582212205bd2dd08e127bc27d5fafef1daa75a2ca96b2e3f5ae360555238fcda34dc55ad64736f6c63430008100033","linkReferences":{}},"methodIdentifiers":{"addProver(address)":"1d49e457","addSequencer(address)":"8a336231","commitBatch(uint8,bytes,bytes[],bytes)":"1325aca0","committedBatches(uint256)":"2362f03e","finalizeBatchWithProof(bytes,bytes32,bytes32,bytes32,bytes)":"31fa742d","finalizedStateRoots(uint256)":"2571098d","importGenesisBatch(bytes,bytes32)":"3fdeecb2","initialize(address,address,uint256)":"1794bb3c","isBatchFinalized(uint256)":"116a1f42","isProver(address)":"0a245924","isSequencer(address)":"6d46e987","lastFinalizedBatchIndex()":"059def61","layer2ChainId()":"03c7f4af","maxNumTxInChunk()":"ef6602ba","messageQueue()":"3b70c18a","owner()":"8da5cb5b","paused()":"5c975abb","removeProver(address)":"b571d3dd","removeSequencer(address)":"6989ca7c","renounceOwnership()":"715018a6","revertBatch(bytes,uint256)":"10d44583","setPause(bool)":"bedb86fb","transferOwnership(address)":"f2fde38b","updateMaxNumTxInChunk(uint256)":"1e228302","verifier()":"2b7ac3f3","withdrawRoots(uint256)":"ea5f084f"},"id":148}