{"abi":[{"type":"constructor","inputs":[{"name":"_owner","type":"address","internalType":"address"}],"stateMutability":"nonpayable"},{"type":"function","name":"isSenderAllowed","inputs":[{"name":"_sender","type":"address","internalType":"address"}],"outputs":[{"name":"","type":"bool","internalType":"bool"}],"stateMutability":"view"},{"type":"function","name":"owner","inputs":[],"outputs":[{"name":"","type":"address","internalType":"address"}],"stateMutability":"view"},{"type":"function","name":"renounceOwnership","inputs":[],"outputs":[],"stateMutability":"nonpayable"},{"type":"function","name":"transferOwnership","inputs":[{"name":"_newOwner","type":"address","internalType":"address"}],"outputs":[],"stateMutability":"nonpayable"},{"type":"function","name":"updateWhitelistStatus","inputs":[{"name":"_accounts","type":"address[]","internalType":"address[]"},{"name":"_status","type":"bool","internalType":"bool"}],"outputs":[],"stateMutability":"nonpayable"},{"type":"event","name":"OwnershipTransferred","inputs":[{"name":"_oldOwner","type":"address","indexed":true,"internalType":"address"},{"name":"_newOwner","type":"address","indexed":true,"internalType":"address"}],"anonymous":false},{"type":"event","name":"WhitelistStatusChanged","inputs":[{"name":"_account","type":"address","indexed":true,"internalType":"address"},{"name":"_status","type":"bool","indexed":false,"internalType":"bool"}],"anonymous":false}],"bytecode":{"object":"0x608060405234801561001057600080fd5b506040516105c63803806105c683398101604081905261002f9161008e565b6100388161003e565b506100be565b600080546001600160a01b038381166001600160a01b0319831681178455604051919092169283917f8be0079c531659141344cd1fd0a4f28419497f9722a3daafe3b4186f6b6457e09190a35050565b6000602082840312156100a057600080fd5b81516001600160a01b03811681146100b757600080fd5b9392505050565b6104f9806100cd6000396000f3fe608060405234801561001057600080fd5b50600436106100575760003560e01c8063715018a61461005c57806379586dd7146100665780638da5cb5b14610079578063efc78401146100a9578063f2fde38b146100e5575b600080fd5b6100646100f8565b005b610064610074366004610356565b610137565b60005461008c906001600160a01b031681565b6040516001600160a01b0390911681526020015b60405180910390f35b6100d56100b736600461042d565b6001600160a01b031660009081526001602052604090205460ff1690565b60405190151581526020016100a0565b6100646100f336600461042d565b610238565b6000546001600160a01b0316331461012b5760405162461bcd60e51b81526004016101229061044f565b60405180910390fd5b61013560006102c4565b565b6000546001600160a01b031633146101615760405162461bcd60e51b81526004016101229061044f565b60005b825181101561023357816001600085848151811061018457610184610486565b60200260200101516001600160a01b03166001600160a01b0316815260200190815260200160002060006101000a81548160ff0219169083151502179055508281815181106101d5576101d5610486565b60200260200101516001600160a01b03167f8daaf060c3306c38e068a75c054bf96ecd85a3db1252712c4d93632744c42e0d83604051610219911515815260200190565b60405180910390a28061022b8161049c565b915050610164565b505050565b6000546001600160a01b031633146102625760405162461bcd60e51b81526004016101229061044f565b6001600160a01b0381166102b85760405162461bcd60e51b815260206004820152601d60248201527f6e6577206f776e657220697320746865207a65726f20616464726573730000006044820152606401610122565b6102c1816102c4565b50565b600080546001600160a01b038381166001600160a01b0319831681178455604051919092169283917f8be0079c531659141344cd1fd0a4f28419497f9722a3daafe3b4186f6b6457e09190a35050565b634e487b7160e01b600052604160045260246000fd5b80356001600160a01b038116811461034157600080fd5b919050565b8035801515811461034157600080fd5b6000806040838503121561036957600080fd5b823567ffffffffffffffff8082111561038157600080fd5b818501915085601f83011261039557600080fd5b81356020828211156103a9576103a9610314565b8160051b604051601f19603f830116810181811086821117156103ce576103ce610314565b6040529283528183019350848101820192898411156103ec57600080fd5b948201945b83861015610411576104028661032a565b855294820194938201936103f1565b96506104209050878201610346565b9450505050509250929050565b60006020828403121561043f57600080fd5b6104488261032a565b9392505050565b60208082526017908201527f63616c6c6572206973206e6f7420746865206f776e6572000000000000000000604082015260600190565b634e487b7160e01b600052603260045260246000fd5b6000600182016104bc57634e487b7160e01b600052601160045260246000fd5b506001019056fea26469706673582212203414b076e92b618bd7c3437159d7bceb2acc3a5c82f51f383465512d9c52e97064736f6c63430008100033","linkReferences":{}},"methodIdentifiers":{"isSenderAllowed(address)":"efc78401","owner()":"8da5cb5b","renounceOwnership()":"715018a6","transferOwnership(address)":"f2fde38b","updateWhitelistStatus(address[],bool)":"79586dd7"},"id":173}