{
  "_format": "hh-sol-artifact-1",
  "contractName": "L2USDCGatewayCCTP",
  "sourceName": "src/L2/gateways/usdc/draft-L2USDCGatewayCCTP.sol",
  "abi": [
    {
      "inputs": [
        {
          "internalType": "address",
          "name": "_l1USDC",
          "type": "address"
        },
        {
          "internalType": "address",
          "name": "_l2USDC",
          "type": "address"
        },
        {
          "internalType": "uint32",
          "name": "_destinationDomain",
          "type": "uint32"
        },
        {
          "internalType": "address",
          "name": "_counterpart",
          "type": "address"
        },
        {
          "internalType": "address",
          "name": "_router",
          "type": "address"
        },
        {
          "internalType": "address",
          "name": "_messenger",
          "type": "address"
        }
      ],
      "stateMutability": "nonpayable",
      "type": "constructor"
    },
    {
      "inputs": [],
      "name": "ErrorCallerIsNotCounterpartGateway",
      "type": "error"
    },
    {
      "inputs": [],
      "name": "ErrorCallerIsNotMessenger",
      "type": "error"
    },
    {
      "inputs": [],
      "name": "ErrorNotInDropMessageContext",
      "type": "error"
    },
    {
      "inputs": [],
      "name": "ErrorZeroAddress",
      "type": "error"
    },
    {
      "anonymous": false,
      "inputs": [
        {
          "indexed": true,
          "internalType": "address",
          "name": "l1Token",
          "type": "address"
        },
        {
          "indexed": true,
          "internalType": "address",
          "name": "l2Token",
          "type": "address"
        },
        {
          "indexed": true,
          "internalType": "address",
          "name": "from",
          "type": "address"
        },
        {
          "indexed": false,
          "internalType": "address",
          "name": "to",
          "type": "address"
        },
        {
          "indexed": false,
          "internalType": "uint256",
          "name": "amount",
          "type": "uint256"
        },
        {
          "indexed": false,
          "internalType": "bytes",
          "name": "data",
          "type": "bytes"
        }
      ],
      "name": "FinalizeDepositERC20",
      "type": "event"
    },
    {
      "anonymous": false,
      "inputs": [
        {
          "indexed": false,
          "internalType": "uint8",
          "name": "version",
          "type": "uint8"
        }
      ],
      "name": "Initialized",
      "type": "event"
    },
    {
      "anonymous": false,
      "inputs": [
        {
          "indexed": true,
          "internalType": "address",
          "name": "previousOwner",
          "type": "address"
        },
        {
          "indexed": true,
          "internalType": "address",
          "name": "newOwner",
          "type": "address"
        }
      ],
      "name": "OwnershipTransferred",
      "type": "event"
    },
    {
      "anonymous": false,
      "inputs": [
        {
          "indexed": true,
          "internalType": "address",
          "name": "l1Token",
          "type": "address"
        },
        {
          "indexed": true,
          "internalType": "address",
          "name": "l2Token",
          "type": "address"
        },
        {
          "indexed": true,
          "internalType": "address",
          "name": "from",
          "type": "address"
        },
        {
          "indexed": false,
          "internalType": "address",
          "name": "to",
          "type": "address"
        },
        {
          "indexed": false,
          "internalType": "uint256",
          "name": "amount",
          "type": "uint256"
        },
        {
          "indexed": false,
          "internalType": "bytes",
          "name": "data",
          "type": "bytes"
        }
      ],
      "name": "WithdrawERC20",
      "type": "event"
    },
    {
      "inputs": [],
      "name": "cctpMessenger",
      "outputs": [
        {
          "internalType": "address",
          "name": "",
          "type": "address"
        }
      ],
      "stateMutability": "view",
      "type": "function"
    },
    {
      "inputs": [],
      "name": "cctpTransmitter",
      "outputs": [
        {
          "internalType": "address",
          "name": "",
          "type": "address"
        }
      ],
      "stateMutability": "view",
      "type": "function"
    },
    {
      "inputs": [
        {
          "internalType": "uint256",
          "name": "_nonce",
          "type": "uint256"
        },
        {
          "internalType": "bytes",
          "name": "_cctpMessage",
          "type": "bytes"
        },
        {
          "internalType": "bytes",
          "name": "_cctpSignature",
          "type": "bytes"
        }
      ],
      "name": "claimUSDC",
      "outputs": [],
      "stateMutability": "nonpayable",
      "type": "function"
    },
    {
      "inputs": [],
      "name": "counterpart",
      "outputs": [
        {
          "internalType": "address",
          "name": "",
          "type": "address"
        }
      ],
      "stateMutability": "view",
      "type": "function"
    },
    {
      "inputs": [],
      "name": "destinationDomain",
      "outputs": [
        {
          "internalType": "uint32",
          "name": "",
          "type": "uint32"
        }
      ],
      "stateMutability": "view",
      "type": "function"
    },
    {
      "inputs": [
        {
          "internalType": "address",
          "name": "_l1Token",
          "type": "address"
        },
        {
          "internalType": "address",
          "name": "_l2Token",
          "type": "address"
        },
        {
          "internalType": "address",
          "name": "_from",
          "type": "address"
        },
        {
          "internalType": "address",
          "name": "_to",
          "type": "address"
        },
        {
          "internalType": "uint256",
          "name": "_amount",
          "type": "uint256"
        },
        {
          "internalType": "bytes",
          "name": "_data",
          "type": "bytes"
        }
      ],
      "name": "finalizeDepositERC20",
      "outputs": [],
      "stateMutability": "payable",
      "type": "function"
    },
    {
      "inputs": [
        {
          "internalType": "address",
          "name": "",
          "type": "address"
        }
      ],
      "name": "getL1ERC20Address",
      "outputs": [
        {
          "internalType": "address",
          "name": "",
          "type": "address"
        }
      ],
      "stateMutability": "view",
      "type": "function"
    },
    {
      "inputs": [
        {
          "internalType": "address",
          "name": "",
          "type": "address"
        }
      ],
      "name": "getL2ERC20Address",
      "outputs": [
        {
          "internalType": "address",
          "name": "",
          "type": "address"
        }
      ],
      "stateMutability": "view",
      "type": "function"
    },
    {
      "inputs": [
        {
          "internalType": "address",
          "name": "_counterpart",
          "type": "address"
        },
        {
          "internalType": "address",
          "name": "_router",
          "type": "address"
        },
        {
          "internalType": "address",
          "name": "_messenger",
          "type": "address"
        },
        {
          "internalType": "address",
          "name": "_cctpMessenger",
          "type": "address"
        },
        {
          "internalType": "address",
          "name": "_cctpTransmitter",
          "type": "address"
        }
      ],
      "name": "initialize",
      "outputs": [],
      "stateMutability": "nonpayable",
      "type": "function"
    },
    {
      "inputs": [],
      "name": "l1USDC",
      "outputs": [
        {
          "internalType": "address",
          "name": "",
          "type": "address"
        }
      ],
      "stateMutability": "view",
      "type": "function"
    },
    {
      "inputs": [],
      "name": "l2USDC",
      "outputs": [
        {
          "internalType": "address",
          "name": "",
          "type": "address"
        }
      ],
      "stateMutability": "view",
      "type": "function"
    },
    {
      "inputs": [],
      "name": "messenger",
      "outputs": [
        {
          "internalType": "address",
          "name": "",
          "type": "address"
        }
      ],
      "stateMutability": "view",
      "type": "function"
    },
    {
      "inputs": [],
      "name": "owner",
      "outputs": [
        {
          "internalType": "address",
          "name": "",
          "type": "address"
        }
      ],
      "stateMutability": "view",
      "type": "function"
    },
    {
      "inputs": [],
      "name": "renounceOwnership",
      "outputs": [],
      "stateMutability": "nonpayable",
      "type": "function"
    },
    {
      "inputs": [],
      "name": "router",
      "outputs": [
        {
          "internalType": "address",
          "name": "",
          "type": "address"
        }
      ],
      "stateMutability": "view",
      "type": "function"
    },
    {
      "inputs": [
        {
          "internalType": "uint256",
          "name": "",
          "type": "uint256"
        }
      ],
      "name": "status",
      "outputs": [
        {
          "internalType": "enum CCTPGatewayBase.CCTPMessageStatus",
          "name": "",
          "type": "uint8"
        }
      ],
      "stateMutability": "view",
      "type": "function"
    },
    {
      "inputs": [
        {
          "internalType": "address",
          "name": "newOwner",
          "type": "address"
        }
      ],
      "name": "transferOwnership",
      "outputs": [],
      "stateMutability": "nonpayable",
      "type": "function"
    },
    {
      "inputs": [
        {
          "internalType": "address",
          "name": "_messenger",
          "type": "address"
        },
        {
          "internalType": "address",
          "name": "_transmitter",
          "type": "address"
        }
      ],
      "name": "updateCCTPContracts",
      "outputs": [],
      "stateMutability": "nonpayable",
      "type": "function"
    },
    {
      "inputs": [
        {
          "internalType": "address",
          "name": "_token",
          "type": "address"
        },
        {
          "internalType": "uint256",
          "name": "_amount",
          "type": "uint256"
        },
        {
          "internalType": "uint256",
          "name": "_gasLimit",
          "type": "uint256"
        }
      ],
      "name": "withdrawERC20",
      "outputs": [],
      "stateMutability": "payable",
      "type": "function"
    },
    {
      "inputs": [
        {
          "internalType": "address",
          "name": "_token",
          "type": "address"
        },
        {
          "internalType": "address",
          "name": "_to",
          "type": "address"
        },
        {
          "internalType": "uint256",
          "name": "_amount",
          "type": "uint256"
        },
        {
          "internalType": "uint256",
          "name": "_gasLimit",
          "type": "uint256"
        }
      ],
      "name": "withdrawERC20",
      "outputs": [],
      "stateMutability": "payable",
      "type": "function"
    },
    {
      "inputs": [
        {
          "internalType": "address",
          "name": "_token",
          "type": "address"
        },
        {
          "internalType": "address",
          "name": "_to",
          "type": "address"
        },
        {
          "internalType": "uint256",
          "name": "_amount",
          "type": "uint256"
        },
        {
          "internalType": "bytes",
          "name": "_data",
          "type": "bytes"
        },
        {
          "internalType": "uint256",
          "name": "_gasLimit",
          "type": "uint256"
        }
      ],
      "name": "withdrawERC20AndCall",
      "outputs": [],
      "stateMutability": "payable",
      "type": "function"
    }
  ],
  "bytecode": "0x6101406040523480156200001257600080fd5b5060405162001e4838038062001e488339810160408190526200003591620001bc565b8585858585856001600160a01b03831615806200005957506001600160a01b038116155b15620000785760405163a7f9319d60e01b815260040160405180910390fd5b6001600160a01b0392831660805290821660a052811660c05292831660e0529082166101005263ffffffff16610120528216620000c85760405163a7f9319d60e01b815260040160405180910390fd5b620000d2620000de565b50505050505062000247565b600054610100900460ff16156200014b5760405162461bcd60e51b815260206004820152602760248201527f496e697469616c697a61626c653a20636f6e747261637420697320696e697469604482015266616c697a696e6760c81b606482015260840160405180910390fd5b60005460ff908116146200019d576000805460ff191660ff9081179091556040519081527f7f26b83ff96e1f2b6a682f133852f6798a09c465da95921460cefb38474024989060200160405180910390a15b565b80516001600160a01b0381168114620001b757600080fd5b919050565b60008060008060008060c08789031215620001d657600080fd5b620001e1876200019f565b9550620001f1602088016200019f565b9450604087015163ffffffff811681146200020b57600080fd5b93506200021b606088016200019f565b92506200022b608088016200019f565b91506200023b60a088016200019f565b90509295509295509295565b60805160a05160c05160e0516101005161012051611b4f620002f9600039600081816101630152610d3c0152600081816101b101528181610401015281816108610152610c4801526000818161029a015281816103ae015281816107ec0152610e0001526000818161021d0152818161068f015281816106d70152610eb00152600081816104550152610cc10152600081816103090152818161076201528181610d790152610edf0152611b4f6000f3fe60806040526004361061012a5760003560e01c8063797594b0116100ab578063a6f736691161006f578063a6f736691461039c578063a93a4af9146103d0578063c676ad29146103e3578063f2fde38b14610423578063f887ea4014610443578063fe462e4d1461047757600080fd5b8063797594b0146102f75780637ad8649f1461032b5780638431f5c11461034b5780638da5cb5b1461035e578063944280561461037c57600080fd5b806342d21ef7116100f257806342d21ef71461023f57806354bbd59c1461027c578063575361b6146102bc5780636c07ea43146102cf578063715018a6146102e257600080fd5b80631459457a1461012f5780632858c55a1461015157806329e96f9e1461019f5780633a4beec8146101eb5780633cb747bf1461020b575b600080fd5b34801561013b57600080fd5b5061014f61014a3660046113df565b610497565b005b34801561015d57600080fd5b506101857f000000000000000000000000000000000000000000000000000000000000000081565b60405163ffffffff90911681526020015b60405180910390f35b3480156101ab57600080fd5b506101d37f000000000000000000000000000000000000000000000000000000000000000081565b6040516001600160a01b039091168152602001610196565b3480156101f757600080fd5b5060c9546101d3906001600160a01b031681565b34801561021757600080fd5b506101d37f000000000000000000000000000000000000000000000000000000000000000081565b34801561024b57600080fd5b5061026f61025a366004611450565b60cb6020526000908152604090205460ff1681565b604051610196919061147f565b34801561028857600080fd5b506101d36102973660046114a7565b507f000000000000000000000000000000000000000000000000000000000000000090565b61014f6102ca366004611514565b6105bf565b61014f6102dd36600461158f565b610603565b3480156102ee57600080fd5b5061014f610642565b34801561030357600080fd5b506101d37f000000000000000000000000000000000000000000000000000000000000000081565b34801561033757600080fd5b5061014f6103463660046115c4565b610656565b61014f61035936600461166c565b61068c565b34801561036a57600080fd5b506065546001600160a01b03166101d3565b34801561038857600080fd5b5060ca546101d3906001600160a01b031681565b3480156103a857600080fd5b506101d37f000000000000000000000000000000000000000000000000000000000000000081565b61014f6103de36600461173f565b6109c2565b3480156103ef57600080fd5b506101d36103fe3660046114a7565b507f000000000000000000000000000000000000000000000000000000000000000090565b34801561042f57600080fd5b5061014f61043e3660046114a7565b6109d5565b34801561044f57600080fd5b506101d37f000000000000000000000000000000000000000000000000000000000000000081565b34801561048357600080fd5b5061014f610492366004611785565b610a4e565b600054610100900460ff16158080156104b75750600054600160ff909116105b806104d15750303b1580156104d1575060005460ff166001145b6105395760405162461bcd60e51b815260206004820152602e60248201527f496e697469616c697a61626c653a20636f6e747261637420697320616c72656160448201526d191e481a5b9a5d1a585b1a5e995960921b60648201526084015b60405180910390fd5b6000805460ff19166001179055801561055c576000805461ff0019166101001790555b610567868686610bef565b610571838361065e565b80156105b7576000805461ff0019169055604051600181527f7f26b83ff96e1f2b6a682f133852f6798a09c465da95921460cefb38474024989060200160405180910390a15b505050505050565b6105b786868686868080601f016020809104026020016040519081016040528093929190818152602001838380828437600092019190915250889250610bff915050565b61063d83338460005b6040519080825280601f01601f191660200182016040528015610636576020820181803683370190505b5085610bff565b505050565b61064a610fa4565b6106546000610ffe565b565b61065e610fa4565b60c980546001600160a01b039384166001600160a01b03199182161790915560ca8054929093169116179055565b337f00000000000000000000000000000000000000000000000000000000000000006001600160a01b0316146106d5576040516385bd908d60e01b815260040160405180910390fd5b7f00000000000000000000000000000000000000000000000000000000000000006001600160a01b0316636e296e456040518163ffffffff1660e01b8152600401602060405180830381865afa158015610733573d6000803e3d6000fd5b505050506040513d601f19601f8201168201806040525081019061075791906117ff565b6001600160a01b03167f00000000000000000000000000000000000000000000000000000000000000006001600160a01b0316146107a8576040516307b140f360e51b815260040160405180910390fd5b34156107ea5760405162461bcd60e51b81526020600482015260116024820152706e6f6e7a65726f206d73672e76616c756560781b6044820152606401610530565b7f00000000000000000000000000000000000000000000000000000000000000006001600160a01b0316866001600160a01b03161461085f5760405162461bcd60e51b81526020600482015260116024820152706c3120746f6b656e206e6f74205553444360781b6044820152606401610530565b7f00000000000000000000000000000000000000000000000000000000000000006001600160a01b0316856001600160a01b0316146108d45760405162461bcd60e51b81526020600482015260116024820152706c3220746f6b656e206e6f74205553444360781b6044820152606401610530565b6000818060200190518101906108ea9190611885565b9250905060008082815260cb602052604090205460ff16600281111561091257610912611469565b146109515760405162461bcd60e51b815260206004820152600f60248201526e1b595cdcd859d9481c995b185e5959608a1b6044820152606401610530565b600081815260cb602052604090819020805460ff19166001179055516001600160a01b0380871691888216918a16907f165ba69f6ab40c50cade6f65431801e5f9c7d7830b7545391920db039133ba34906109b1908990899089906118f8565b60405180910390a450505050505050565b6109cf848484600061060c565b50505050565b6109dd610fa4565b6001600160a01b038116610a425760405162461bcd60e51b815260206004820152602660248201527f4f776e61626c653a206e6577206f776e657220697320746865207a65726f206160448201526564647265737360d01b6064820152608401610530565b610a4b81610ffe565b50565b833560601c67ffffffffffffffff16858114610a9d5760405162461bcd60e51b815260206004820152600e60248201526d0dcdedcc6ca40dad2e6dac2e8c6d60931b6044820152606401610530565b6001600087815260cb602052604090205460ff166002811115610ac257610ac2611469565b14610b055760405162461bcd60e51b81526020600482015260136024820152721b595cdcd859d9481b9bdd081c995b185e5959606a1b6044820152606401610530565b60ca54604051630afd9fa560e31b81526000916001600160a01b0316906357ecfd2890610b3c908990899089908990600401611951565b6020604051808303816000875af1158015610b5b573d6000803e3d6000fd5b505050506040513d601f19601f82011682018060405250810190610b7f9190611978565b905080610bce5760405162461bcd60e51b815260206004820152601760248201527f63616c6c207472616e736d6974746572206661696c65640000000000000000006044820152606401610530565b5050506000938452505060cb6020525060409020805460ff19166002179055565b610bf7611050565b61063d61107f565b60008311610c465760405162461bcd60e51b81526020600482015260146024820152731dda5d1a191c985dc81e995c9bc8185b5bdd5b9d60621b6044820152606401610530565b7f00000000000000000000000000000000000000000000000000000000000000006001600160a01b0316856001600160a01b031614610cbe5760405162461bcd60e51b81526020600482015260146024820152731bdb9b1e481554d110c81a5cc8185b1b1bddd95960621b6044820152606401610530565b337f00000000000000000000000000000000000000000000000000000000000000006001600160a01b0316819003610d095782806020019051810190610d04919061199a565b935090505b610d1e6001600160a01b0387168230876110ae565b60c954604051637c2b6edb60e11b81526004810186905263ffffffff7f00000000000000000000000000000000000000000000000000000000000000001660248201526001600160a01b0387811660448301523060648301527f000000000000000000000000000000000000000000000000000000000000000081166084830152600092169063f856ddb69060a4016020604051808303816000875af1158015610dcc573d6000803e3d6000fd5b505050506040513d601f19601f82011682018060405250810190610df091906119d5565b67ffffffffffffffff16905060007f0000000000000000000000000000000000000000000000000000000000000000905060006384bd13b060e01b828a868b8b888c604051602001610e439291906119ff565b60408051601f1981840301815290829052610e65969594939291602401611a18565b60408051601f198184030181529181526020820180516001600160e01b03166001600160e01b031990941693909317909252905163b2267a7b60e01b81529091506001600160a01b037f0000000000000000000000000000000000000000000000000000000000000000169063b2267a7b903490610f0e907f00000000000000000000000000000000000000000000000000000000000000009060009087908c90600401611a67565b6000604051808303818588803b158015610f2757600080fd5b505af1158015610f3b573d6000803e3d6000fd5b5050505050836001600160a01b0316896001600160a01b0316836001600160a01b03167fd8d3a3f4ab95694bef40475997598bcf8acd3ed9617a4c1013795429414c27e88b8b8b604051610f91939291906118f8565b60405180910390a4505050505050505050565b6065546001600160a01b031633146106545760405162461bcd60e51b815260206004820181905260248201527f4f776e61626c653a2063616c6c6572206973206e6f7420746865206f776e65726044820152606401610530565b606580546001600160a01b038381166001600160a01b0319831681179093556040519116919082907f8be0079c531659141344cd1fd0a4f28419497f9722a3daafe3b4186f6b6457e090600090a35050565b600054610100900460ff166110775760405162461bcd60e51b815260040161053090611a9f565b610654611108565b600054610100900460ff166110a65760405162461bcd60e51b815260040161053090611a9f565b610654611135565b604080516001600160a01b0385811660248301528416604482015260648082018490528251808303909101815260849091019091526020810180516001600160e01b03166323b872dd60e01b1790526109cf908590611165565b600054610100900460ff1661112f5760405162461bcd60e51b815260040161053090611a9f565b60018055565b600054610100900460ff1661115c5760405162461bcd60e51b815260040161053090611a9f565b61065433610ffe565b60006111ba826040518060400160405280602081526020017f5361666545524332303a206c6f772d6c6576656c2063616c6c206661696c6564815250856001600160a01b031661123a9092919063ffffffff16565b90508051600014806111db5750808060200190518101906111db9190611978565b61063d5760405162461bcd60e51b815260206004820152602a60248201527f5361666545524332303a204552433230206f7065726174696f6e20646964206e6044820152691bdd081cdd58d8d9595960b21b6064820152608401610530565b60606112498484600085611251565b949350505050565b6060824710156112b25760405162461bcd60e51b815260206004820152602660248201527f416464726573733a20696e73756666696369656e742062616c616e636520666f6044820152651c8818d85b1b60d21b6064820152608401610530565b600080866001600160a01b031685876040516112ce9190611aea565b60006040518083038185875af1925050503d806000811461130b576040519150601f19603f3d011682016040523d82523d6000602084013e611310565b606091505b50915091506113218783838761132c565b979650505050505050565b6060831561139b578251600003611394576001600160a01b0385163b6113945760405162461bcd60e51b815260206004820152601d60248201527f416464726573733a2063616c6c20746f206e6f6e2d636f6e74726163740000006044820152606401610530565b5081611249565b61124983838151156113b05781518083602001fd5b8060405162461bcd60e51b81526004016105309190611b06565b6001600160a01b0381168114610a4b57600080fd5b600080600080600060a086880312156113f757600080fd5b8535611402816113ca565b94506020860135611412816113ca565b93506040860135611422816113ca565b92506060860135611432816113ca565b91506080860135611442816113ca565b809150509295509295909350565b60006020828403121561146257600080fd5b5035919050565b634e487b7160e01b600052602160045260246000fd5b60208101600383106114a157634e487b7160e01b600052602160045260246000fd5b91905290565b6000602082840312156114b957600080fd5b81356114c4816113ca565b9392505050565b60008083601f8401126114dd57600080fd5b50813567ffffffffffffffff8111156114f557600080fd5b60208301915083602082850101111561150d57600080fd5b9250929050565b60008060008060008060a0878903121561152d57600080fd5b8635611538816113ca565b95506020870135611548816113ca565b945060408701359350606087013567ffffffffffffffff81111561156b57600080fd5b61157789828a016114cb565b979a9699509497949695608090950135949350505050565b6000806000606084860312156115a457600080fd5b83356115af816113ca565b95602085013595506040909401359392505050565b600080604083850312156115d757600080fd5b82356115e2816113ca565b915060208301356115f2816113ca565b809150509250929050565b634e487b7160e01b600052604160045260246000fd5b604051601f8201601f1916810167ffffffffffffffff8111828210171561163c5761163c6115fd565b604052919050565b600067ffffffffffffffff82111561165e5761165e6115fd565b50601f01601f191660200190565b60008060008060008060c0878903121561168557600080fd5b8635611690816113ca565b955060208701356116a0816113ca565b945060408701356116b0816113ca565b935060608701356116c0816113ca565b92506080870135915060a087013567ffffffffffffffff8111156116e357600080fd5b8701601f810189136116f457600080fd5b803561170761170282611644565b611613565b8181528a602083850101111561171c57600080fd5b816020840160208301376000602083830101528093505050509295509295509295565b6000806000806080858703121561175557600080fd5b8435611760816113ca565b93506020850135611770816113ca565b93969395505050506040820135916060013590565b60008060008060006060868803121561179d57600080fd5b85359450602086013567ffffffffffffffff808211156117bc57600080fd5b6117c889838a016114cb565b909650945060408801359150808211156117e157600080fd5b506117ee888289016114cb565b969995985093965092949392505050565b60006020828403121561181157600080fd5b81516114c4816113ca565b60005b8381101561183757818101518382015260200161181f565b50506000910152565b600082601f83011261185157600080fd5b815161185f61170282611644565b81815284602083860101111561187457600080fd5b61124982602083016020870161181c565b6000806040838503121561189857600080fd5b82519150602083015167ffffffffffffffff8111156118b657600080fd5b6118c285828601611840565b9150509250929050565b600081518084526118e481602086016020860161181c565b601f01601f19169290920160200192915050565b60018060a01b038416815282602082015260606040820152600061191f60608301846118cc565b95945050505050565b81835281816020850137506000828201602090810191909152601f909101601f19169091010190565b604081526000611965604083018688611928565b8281036020840152611321818587611928565b60006020828403121561198a57600080fd5b815180151581146114c457600080fd5b600080604083850312156119ad57600080fd5b82516119b8816113ca565b602084015190925067ffffffffffffffff8111156118b657600080fd5b6000602082840312156119e757600080fd5b815167ffffffffffffffff811681146114c457600080fd5b82815260406020820152600061124960408301846118cc565b6001600160a01b03878116825286811660208301528581166040830152841660608201526080810183905260c060a08201819052600090611a5b908301846118cc565b98975050505050505050565b60018060a01b0385168152836020820152608060408201526000611a8e60808301856118cc565b905082606083015295945050505050565b6020808252602b908201527f496e697469616c697a61626c653a20636f6e7472616374206973206e6f74206960408201526a6e697469616c697a696e6760a81b606082015260800190565b60008251611afc81846020870161181c565b9190910192915050565b6020815260006114c460208301846118cc56fea264697066735822122001b26540e205d8367e7489fa846a9e0da766330c027ae7aadecae58e8df8894964736f6c63430008100033",
  "linkReferences": {},
  "deployedLinkReferences": {}
}