{
  "_format": "hh-sol-artifact-1",
  "contractName": "GasSwap",
  "sourceName": "src/gas-swap/GasSwap.sol",
  "abi": [
    {
      "inputs": [
        {
          "internalType": "address",
          "name": "trustedForwarder",
          "type": "address"
        }
      ],
      "stateMutability": "nonpayable",
      "type": "constructor"
    },
    {
      "anonymous": false,
      "inputs": [
        {
          "indexed": true,
          "internalType": "address",
          "name": "previousOwner",
          "type": "address"
        },
        {
          "indexed": true,
          "internalType": "address",
          "name": "newOwner",
          "type": "address"
        }
      ],
      "name": "OwnershipTransferred",
      "type": "event"
    },
    {
      "anonymous": false,
      "inputs": [
        {
          "indexed": false,
          "internalType": "address",
          "name": "target",
          "type": "address"
        },
        {
          "indexed": false,
          "internalType": "bool",
          "name": "status",
          "type": "bool"
        }
      ],
      "name": "UpdateApprovedTarget",
      "type": "event"
    },
    {
      "anonymous": false,
      "inputs": [
        {
          "indexed": false,
          "internalType": "uint256",
          "name": "feeRatio",
          "type": "uint256"
        }
      ],
      "name": "UpdateFeeRatio",
      "type": "event"
    },
    {
      "inputs": [
        {
          "internalType": "address",
          "name": "",
          "type": "address"
        }
      ],
      "name": "approvedTargets",
      "outputs": [
        {
          "internalType": "bool",
          "name": "",
          "type": "bool"
        }
      ],
      "stateMutability": "view",
      "type": "function"
    },
    {
      "inputs": [],
      "name": "feeRatio",
      "outputs": [
        {
          "internalType": "uint256",
          "name": "",
          "type": "uint256"
        }
      ],
      "stateMutability": "view",
      "type": "function"
    },
    {
      "inputs": [
        {
          "internalType": "address",
          "name": "forwarder",
          "type": "address"
        }
      ],
      "name": "isTrustedForwarder",
      "outputs": [
        {
          "internalType": "bool",
          "name": "",
          "type": "bool"
        }
      ],
      "stateMutability": "view",
      "type": "function"
    },
    {
      "inputs": [],
      "name": "owner",
      "outputs": [
        {
          "internalType": "address",
          "name": "",
          "type": "address"
        }
      ],
      "stateMutability": "view",
      "type": "function"
    },
    {
      "inputs": [],
      "name": "renounceOwnership",
      "outputs": [],
      "stateMutability": "nonpayable",
      "type": "function"
    },
    {
      "inputs": [
        {
          "components": [
            {
              "internalType": "address",
              "name": "token",
              "type": "address"
            },
            {
              "internalType": "uint256",
              "name": "value",
              "type": "uint256"
            },
            {
              "internalType": "uint256",
              "name": "deadline",
              "type": "uint256"
            },
            {
              "internalType": "uint8",
              "name": "v",
              "type": "uint8"
            },
            {
              "internalType": "bytes32",
              "name": "r",
              "type": "bytes32"
            },
            {
              "internalType": "bytes32",
              "name": "s",
              "type": "bytes32"
            }
          ],
          "internalType": "struct GasSwap.PermitData",
          "name": "_permit",
          "type": "tuple"
        },
        {
          "components": [
            {
              "internalType": "address",
              "name": "target",
              "type": "address"
            },
            {
              "internalType": "bytes",
              "name": "data",
              "type": "bytes"
            },
            {
              "internalType": "uint256",
              "name": "minOutput",
              "type": "uint256"
            }
          ],
          "internalType": "struct GasSwap.SwapData",
          "name": "_swap",
          "type": "tuple"
        }
      ],
      "name": "swap",
      "outputs": [],
      "stateMutability": "nonpayable",
      "type": "function"
    },
    {
      "inputs": [
        {
          "internalType": "address",
          "name": "newOwner",
          "type": "address"
        }
      ],
      "name": "transferOwnership",
      "outputs": [],
      "stateMutability": "nonpayable",
      "type": "function"
    },
    {
      "inputs": [
        {
          "internalType": "address",
          "name": "_target",
          "type": "address"
        },
        {
          "internalType": "bool",
          "name": "_status",
          "type": "bool"
        }
      ],
      "name": "updateApprovedTarget",
      "outputs": [],
      "stateMutability": "nonpayable",
      "type": "function"
    },
    {
      "inputs": [
        {
          "internalType": "uint256",
          "name": "_feeRatio",
          "type": "uint256"
        }
      ],
      "name": "updateFeeRatio",
      "outputs": [],
      "stateMutability": "nonpayable",
      "type": "function"
    },
    {
      "inputs": [
        {
          "internalType": "address",
          "name": "_token",
          "type": "address"
        },
        {
          "internalType": "uint256",
          "name": "_amount",
          "type": "uint256"
        }
      ],
      "name": "withdraw",
      "outputs": [],
      "stateMutability": "nonpayable",
      "type": "function"
    },
    {
      "stateMutability": "payable",
      "type": "receive"
    }
  ],
  "bytecode": "0x60a06040523480156200001157600080fd5b506040516200169b3803806200169b833981016040819052620000349162000117565b6001600160a01b038116608052620000556200004f62000060565b6200007c565b506001805562000149565b600062000077620000cc60201b620008571760201c565b905090565b600080546001600160a01b038381166001600160a01b0319831681178455604051919092169283917f8be0079c531659141344cd1fd0a4f28419497f9722a3daafe3b4186f6b6457e09190a35050565b6080516000906001600160a01b031633148015620000eb575060143610155b15620000fe575060131936013560601c90565b620000776200011360201b620008ae1760201c565b3390565b6000602082840312156200012a57600080fd5b81516001600160a01b03811681146200014257600080fd5b9392505050565b60805161152f6200016c60003960008181610129015261085b015261152f6000f3fe6080604052600436106100955760003560e01c80638da5cb5b116100595780638da5cb5b1461017e5780639779d1a6146101a6578063a1264200146101d6578063f2fde38b146101f6578063f3fef3a31461021657600080fd5b80633ee31b4e146100a157806341744dd4146100c357806355ebc363146100ec578063572b6c051461010c578063715018a61461016957600080fd5b3661009c57005b600080fd5b3480156100ad57600080fd5b506100c16100bc3660046111da565b610236565b005b3480156100cf57600080fd5b506100d960035481565b6040519081526020015b60405180910390f35b3480156100f857600080fd5b506100c1610107366004611283565b610645565b34801561011857600080fd5b5061015961012736600461129c565b7f00000000000000000000000000000000000000000000000000000000000000006001600160a01b0390811691161490565b60405190151581526020016100e3565b34801561017557600080fd5b506100c1610688565b34801561018a57600080fd5b506000546040516001600160a01b0390911681526020016100e3565b3480156101b257600080fd5b506101596101c136600461129c565b60026020526000908152604090205460ff1681565b3480156101e257600080fd5b506100c16101f13660046112cc565b61069c565b34801561020257600080fd5b506100c161021136600461129c565b610707565b34801561022257600080fd5b506100c1610231366004611303565b610780565b61023e6108b2565b80516001600160a01b031660009081526002602052604090205460ff166102a25760405162461bcd60e51b81526020600482015260136024820152721d185c99d95d081b9bdd08185c1c1c9bdd9959606a1b60448201526064015b60405180910390fd5b60006102ac61090b565b602084015160408501516060860151608087015160a088015188519596506102e5956001600160a01b0316948794309491939092610915565b82516040516370a0823160e01b81523060048201526000916001600160a01b0316906370a0823190602401602060405180830381865afa15801561032d573d6000803e3d6000fd5b505050506040513d601f19601f82011682018060405250810190610351919061132d565b60208501518551919250610372916001600160a01b03169084903090610aeb565b8251845161038d916001600160a01b03909116906000610b5c565b8251602085015185516103ab926001600160a01b0390911691610b5c565b600047905060008085600001516001600160a01b031686602001516040516103d3919061136a565b6000604051808303816000865af19150503d8060008114610410576040519150601f19603f3d011682016040523d82523d6000602084013e610415565b606091505b5091509150816104526040518060400160405280600d81526020016c039bbb0b8103330b4b632b21d1609d1b81525061044d84610c71565b610cd6565b906104705760405162461bcd60e51b81526004016102999190611386565b5061047b83476113cf565b92506000670de0b6b3a76400006003548561049691906113e2565b6104a09190611401565b90506104ac81856113cf565b935086604001518410156105025760405162461bcd60e51b815260206004820152601a60248201527f696e73756666696369656e74206f757470757420616d6f756e740000000000006044820152606401610299565b6040516001600160a01b038716908590600081818185875af1925050503d806000811461054b576040519150601f19603f3d011682016040523d82523d6000602084013e610550565b606091505b505080935050826105995760405162461bcd60e51b81526020600482015260136024820152721d1c985b9cd9995c881155120819985a5b1959606a1b6044820152606401610299565b87516040516370a0823160e01b815230600482015260009187916001600160a01b03909116906370a0823190602401602060405180830381865afa1580156105e5573d6000803e3d6000fd5b505050506040513d601f19601f82011682018060405250810190610609919061132d565b61061391906113cf565b90508015610631578851610631906001600160a01b03168883610d02565b5050505050505061064160018055565b5050565b61064d610d32565b60038190556040518181527f31ad9f6da86c476e18d1ff796824ea26102bada11d6c4b6bfb2ae8b5cd827c2c9060200160405180910390a150565b610690610d32565b61069a6000610dab565b565b6106a4610d32565b6001600160a01b038216600081815260026020908152604091829020805460ff19168515159081179091558251938452908301527fa1e88c8082484c6925f1c8f1e1f1c572c10bbea32d32263467c47c8a63812860910160405180910390a15050565b61070f610d32565b6001600160a01b0381166107745760405162461bcd60e51b815260206004820152602660248201527f4f776e61626c653a206e6577206f776e657220697320746865207a65726f206160448201526564647265737360d01b6064820152608401610299565b61077d81610dab565b50565b610788610d32565b6001600160a01b03821661083b5760006107a061090b565b6001600160a01b03168260405160006040518083038185875af1925050503d80600081146107ea576040519150601f19603f3d011682016040523d82523d6000602084013e6107ef565b606091505b50509050806108365760405162461bcd60e51b8152602060048201526013602482015272115512081d1c985b9cd9995c8819985a5b1959606a1b6044820152606401610299565b505050565b61064161084661090b565b6001600160a01b0384169083610d02565b60007f00000000000000000000000000000000000000000000000000000000000000006001600160a01b031633148015610892575060143610155b156108a4575060131936013560601c90565b503390565b905090565b3390565b6002600154036109045760405162461bcd60e51b815260206004820152601f60248201527f5265656e7472616e637947756172643a207265656e7472616e742063616c6c006044820152606401610299565b6002600155565b60006108a9610857565b604051623f675f60e91b81526001600160a01b038881166004830152600091908a1690637ecebe0090602401602060405180830381865afa15801561095e573d6000803e3d6000fd5b505050506040513d601f19601f82011682018060405250810190610982919061132d565b60405163d505accf60e01b81526001600160a01b038a811660048301528981166024830152604482018990526064820188905260ff8716608483015260a4820186905260c48201859052919250908a169063d505accf9060e401600060405180830381600087803b1580156109f657600080fd5b505af1158015610a0a573d6000803e3d6000fd5b5050604051623f675f60e91b81526001600160a01b038b81166004830152600093508c169150637ecebe0090602401602060405180830381865afa158015610a56573d6000803e3d6000fd5b505050506040513d601f19601f82011682018060405250810190610a7a919061132d565b9050610a87826001611423565b8114610adf5760405162461bcd60e51b815260206004820152602160248201527f5361666545524332303a207065726d697420646964206e6f74207375636365656044820152601960fa1b6064820152608401610299565b50505050505050505050565b6040516001600160a01b0380851660248301528316604482015260648101829052610b569085906323b872dd60e01b906084015b60408051601f198184030181529190526020810180516001600160e01b03166001600160e01b031990931692909217909152610dfb565b50505050565b801580610bd65750604051636eb1769f60e11b81523060048201526001600160a01b03838116602483015284169063dd62ed3e90604401602060405180830381865afa158015610bb0573d6000803e3d6000fd5b505050506040513d601f19601f82011682018060405250810190610bd4919061132d565b155b610c415760405162461bcd60e51b815260206004820152603660248201527f5361666545524332303a20617070726f76652066726f6d206e6f6e2d7a65726f60448201527520746f206e6f6e2d7a65726f20616c6c6f77616e636560501b6064820152608401610299565b6040516001600160a01b03831660248201526044810182905261083690849063095ea7b360e01b90606401610b1f565b6060604482511015610cb657505060408051808201909152601d81527f5472616e73616374696f6e2072657665727465642073696c656e746c79000000602082015290565b60048201915081806020019051810190610cd09190611436565b92915050565b60608282604051602001610ceb9291906114ad565b604051602081830303815290604052905092915050565b6040516001600160a01b03831660248201526044810182905261083690849063a9059cbb60e01b90606401610b1f565b610d3a61090b565b6001600160a01b0316610d556000546001600160a01b031690565b6001600160a01b03161461069a5760405162461bcd60e51b815260206004820181905260248201527f4f776e61626c653a2063616c6c6572206973206e6f7420746865206f776e65726044820152606401610299565b600080546001600160a01b038381166001600160a01b0319831681178455604051919092169283917f8be0079c531659141344cd1fd0a4f28419497f9722a3daafe3b4186f6b6457e09190a35050565b6000610e50826040518060400160405280602081526020017f5361666545524332303a206c6f772d6c6576656c2063616c6c206661696c6564815250856001600160a01b0316610ed09092919063ffffffff16565b9050805160001480610e71575080806020019051810190610e7191906114dc565b6108365760405162461bcd60e51b815260206004820152602a60248201527f5361666545524332303a204552433230206f7065726174696f6e20646964206e6044820152691bdd081cdd58d8d9595960b21b6064820152608401610299565b6060610edf8484600085610ee7565b949350505050565b606082471015610f485760405162461bcd60e51b815260206004820152602660248201527f416464726573733a20696e73756666696369656e742062616c616e636520666f6044820152651c8818d85b1b60d21b6064820152608401610299565b600080866001600160a01b03168587604051610f64919061136a565b60006040518083038185875af1925050503d8060008114610fa1576040519150601f19603f3d011682016040523d82523d6000602084013e610fa6565b606091505b5091509150610fb787838387610fc2565b979650505050505050565b6060831561103157825160000361102a576001600160a01b0385163b61102a5760405162461bcd60e51b815260206004820152601d60248201527f416464726573733a2063616c6c20746f206e6f6e2d636f6e74726163740000006044820152606401610299565b5081610edf565b610edf83838151156110465781518083602001fd5b8060405162461bcd60e51b81526004016102999190611386565b634e487b7160e01b600052604160045260246000fd5b6040516060810167ffffffffffffffff8111828210171561109957611099611060565b60405290565b60405160c0810167ffffffffffffffff8111828210171561109957611099611060565b604051601f8201601f1916810167ffffffffffffffff811182821017156110eb576110eb611060565b604052919050565b80356001600160a01b038116811461110a57600080fd5b919050565b600067ffffffffffffffff82111561112957611129611060565b50601f01601f191660200190565b60006060828403121561114957600080fd5b611151611076565b905061115c826110f3565b815260208083013567ffffffffffffffff81111561117957600080fd5b8301601f8101851361118a57600080fd5b803561119d6111988261110f565b6110c2565b81815286848385010111156111b157600080fd5b818484018583013760008483830101528084860152505050506040820135604082015292915050565b60008082840360e08112156111ee57600080fd5b60c08112156111fc57600080fd5b5061120561109f565b61120e846110f3565b81526020840135602082015260408401356040820152606084013560ff8116811461123857600080fd5b60608201526080848101359082015260a08085013590820152915060c083013567ffffffffffffffff81111561126d57600080fd5b61127985828601611137565b9150509250929050565b60006020828403121561129557600080fd5b5035919050565b6000602082840312156112ae57600080fd5b6112b7826110f3565b9392505050565b801515811461077d57600080fd5b600080604083850312156112df57600080fd5b6112e8836110f3565b915060208301356112f8816112be565b809150509250929050565b6000806040838503121561131657600080fd5b61131f836110f3565b946020939093013593505050565b60006020828403121561133f57600080fd5b5051919050565b60005b83811015611361578181015183820152602001611349565b50506000910152565b6000825161137c818460208701611346565b9190910192915050565b60208152600082518060208401526113a5816040850160208701611346565b601f01601f19169190910160400192915050565b634e487b7160e01b600052601160045260246000fd5b81810381811115610cd057610cd06113b9565b60008160001904831182151516156113fc576113fc6113b9565b500290565b60008261141e57634e487b7160e01b600052601260045260246000fd5b500490565b80820180821115610cd057610cd06113b9565b60006020828403121561144857600080fd5b815167ffffffffffffffff81111561145f57600080fd5b8201601f8101841361147057600080fd5b805161147e6111988261110f565b81815285602083850101111561149357600080fd5b6114a4826020830160208601611346565b95945050505050565b600083516114bf818460208801611346565b8351908301906114d3818360208801611346565b01949350505050565b6000602082840312156114ee57600080fd5b81516112b7816112be56fea264697066735822122075d427bf78f602e24db7a48ea0ce4ca457fac85096fab1662273eb1f4f2ea1ba64736f6c63430008100033",
  "linkReferences": {},
  "deployedLinkReferences": {}
}