{
  "_format": "hh-sol-artifact-1",
  "contractName": "MinimalForwarder",
  "sourceName": "@openzeppelin/contracts/metatx/MinimalForwarder.sol",
  "abi": [
    {
      "inputs": [],
      "stateMutability": "nonpayable",
      "type": "constructor"
    },
    {
      "inputs": [],
      "name": "InvalidShortString",
      "type": "error"
    },
    {
      "inputs": [
        {
          "internalType": "string",
          "name": "str",
          "type": "string"
        }
      ],
      "name": "StringTooLong",
      "type": "error"
    },
    {
      "anonymous": false,
      "inputs": [],
      "name": "EIP712DomainChanged",
      "type": "event"
    },
    {
      "inputs": [],
      "name": "eip712Domain",
      "outputs": [
        {
          "internalType": "bytes1",
          "name": "fields",
          "type": "bytes1"
        },
        {
          "internalType": "string",
          "name": "name",
          "type": "string"
        },
        {
          "internalType": "string",
          "name": "version",
          "type": "string"
        },
        {
          "internalType": "uint256",
          "name": "chainId",
          "type": "uint256"
        },
        {
          "internalType": "address",
          "name": "verifyingContract",
          "type": "address"
        },
        {
          "internalType": "bytes32",
          "name": "salt",
          "type": "bytes32"
        },
        {
          "internalType": "uint256[]",
          "name": "extensions",
          "type": "uint256[]"
        }
      ],
      "stateMutability": "view",
      "type": "function"
    },
    {
      "inputs": [
        {
          "components": [
            {
              "internalType": "address",
              "name": "from",
              "type": "address"
            },
            {
              "internalType": "address",
              "name": "to",
              "type": "address"
            },
            {
              "internalType": "uint256",
              "name": "value",
              "type": "uint256"
            },
            {
              "internalType": "uint256",
              "name": "gas",
              "type": "uint256"
            },
            {
              "internalType": "uint256",
              "name": "nonce",
              "type": "uint256"
            },
            {
              "internalType": "bytes",
              "name": "data",
              "type": "bytes"
            }
          ],
          "internalType": "struct MinimalForwarder.ForwardRequest",
          "name": "req",
          "type": "tuple"
        },
        {
          "internalType": "bytes",
          "name": "signature",
          "type": "bytes"
        }
      ],
      "name": "execute",
      "outputs": [
        {
          "internalType": "bool",
          "name": "",
          "type": "bool"
        },
        {
          "internalType": "bytes",
          "name": "",
          "type": "bytes"
        }
      ],
      "stateMutability": "payable",
      "type": "function"
    },
    {
      "inputs": [
        {
          "internalType": "address",
          "name": "from",
          "type": "address"
        }
      ],
      "name": "getNonce",
      "outputs": [
        {
          "internalType": "uint256",
          "name": "",
          "type": "uint256"
        }
      ],
      "stateMutability": "view",
      "type": "function"
    },
    {
      "inputs": [
        {
          "components": [
            {
              "internalType": "address",
              "name": "from",
              "type": "address"
            },
            {
              "internalType": "address",
              "name": "to",
              "type": "address"
            },
            {
              "internalType": "uint256",
              "name": "value",
              "type": "uint256"
            },
            {
              "internalType": "uint256",
              "name": "gas",
              "type": "uint256"
            },
            {
              "internalType": "uint256",
              "name": "nonce",
              "type": "uint256"
            },
            {
              "internalType": "bytes",
              "name": "data",
              "type": "bytes"
            }
          ],
          "internalType": "struct MinimalForwarder.ForwardRequest",
          "name": "req",
          "type": "tuple"
        },
        {
          "internalType": "bytes",
          "name": "signature",
          "type": "bytes"
        }
      ],
      "name": "verify",
      "outputs": [
        {
          "internalType": "bool",
          "name": "",
          "type": "bool"
        }
      ],
      "stateMutability": "view",
      "type": "function"
    }
  ],
  "bytecode": "0x6101606040523480156200001257600080fd5b506040518060400160405280601081526020016f26b4b734b6b0b62337b93bb0b93232b960811b81525060405180604001604052806005815260200164302e302e3160d81b815250620000756000836200012f60201b620004a71790919060201c565b61012052620000928160016200012f602090811b620004a717901c565b61014052815160208084019190912060e052815190820120610100524660a0526200012060e05161010051604080517f8b73c3c69bb8fe3d512ecc4cf759cc79239f7b179b0ffacaa9a75d522b39400f60208201529081019290925260608201524660808201523060a082015260009060c00160405160208183030381529060405280519060200120905090565b60805250503060c052620003b4565b60006020835110156200014f5762000147836200017f565b905062000179565b826200016683620001cb60201b620004da1760201c565b9062000173908262000273565b5060ff90505b92915050565b600080829050601f81511115620001b6578260405163305a27a960e01b8152600401620001ad91906200033f565b60405180910390fd5b8051620001c3826200038f565b179392505050565b90565b634e487b7160e01b600052604160045260246000fd5b600181811c90821680620001f957607f821691505b6020821081036200021a57634e487b7160e01b600052602260045260246000fd5b50919050565b601f8211156200026e57600081815260208120601f850160051c81016020861015620002495750805b601f850160051c820191505b818110156200026a5782815560010162000255565b5050505b505050565b81516001600160401b038111156200028f576200028f620001ce565b620002a781620002a08454620001e4565b8462000220565b602080601f831160018114620002df5760008415620002c65750858301515b600019600386901b1c1916600185901b1785556200026a565b600085815260208120601f198616915b828110156200031057888601518255948401946001909101908401620002ef565b50858210156200032f5787850151600019600388901b60f8161c191681555b5050505050600190811b01905550565b600060208083528351808285015260005b818110156200036e5785810183015185820160400152820162000350565b506000604082860101526040601f19601f8301168501019250505092915050565b805160208083015191908110156200021a5760001960209190910360031b1b16919050565b60805160a05160c05160e051610100516101205161014051610e936200040f60003960006102d8015260006102ae01526000610729015260006107010152600061065c01526000610686015260006106b00152610e936000f3fe60806040526004361061003f5760003560e01c80632d0335ab1461004457806347153f821461008d57806384b0196e146100ae578063bf5d3bdb146100d6575b600080fd5b34801561005057600080fd5b5061007a61005f3660046109fd565b6001600160a01b031660009081526002602052604090205490565b6040519081526020015b60405180910390f35b6100a061009b366004610a2d565b610106565b604051610084929190610b1c565b3480156100ba57600080fd5b506100c36102a0565b6040516100849796959493929190610b3f565b3480156100e257600080fd5b506100f66100f1366004610a2d565b610328565b6040519015158152602001610084565b60006060610115858585610328565b6101815760405162461bcd60e51b815260206004820152603260248201527f4d696e696d616c466f727761726465723a207369676e617475726520646f6573604482015271081b9bdd081b585d18da081c995c5d595cdd60721b60648201526084015b60405180910390fd5b61019060808601356001610bd5565b600260006101a160208901896109fd565b6001600160a01b03166001600160a01b03168152602001908152602001600020819055506000808660200160208101906101db91906109fd565b6001600160a01b0316606088013560408901356101fb60a08b018b610bf6565b61020860208d018d6109fd565b60405160200161021a93929190610c3d565b60408051601f198184030181529082905261023491610c63565b600060405180830381858888f193505050503d8060008114610272576040519150601f19603f3d011682016040523d82523d6000602084013e610277565b606091505b50909250905061028c603f6060890135610c7f565b5a1161029457fe5b90969095509350505050565b6000606080828080836102d37f0000000000000000000000000000000000000000000000000000000000000000836104dd565b6102fe7f000000000000000000000000000000000000000000000000000000000000000060016104dd565b60408051600080825260208201909252600f60f81b9b939a50919850469750309650945092509050565b60008061043b84848080601f01602080910402602001604051908101604052809392919081815260200183838082843760009201919091525061043592507fdd8f4b70b0f4393e889bd39128a30628a78b61816a9eb8199759e7a349657e489150610398905060208a018a6109fd565b6103a860408b0160208c016109fd565b60408b013560608c013560808d01356103c460a08f018f610bf6565b6040516103d2929190610cb7565b6040805191829003822060208301989098526001600160a01b0396871690820152949093166060850152608084019190915260a083015260c082015260e08101919091526101000160405160208183030381529060405280519060200120610581565b906105ae565b905060808501356002600061045360208901896109fd565b6001600160a01b03166001600160a01b031681526020019081526020016000205414801561049e575061048960208601866109fd565b6001600160a01b0316816001600160a01b0316145b95945050505050565b60006020835110156104c3576104bc836105d2565b90506104d4565b816104ce8482610d50565b5060ff90505b92915050565b90565b606060ff83146104f0576104bc83610610565b8180546104fc90610cc7565b80601f016020809104026020016040519081016040528092919081815260200182805461052890610cc7565b80156105755780601f1061054a57610100808354040283529160200191610575565b820191906000526020600020905b81548152906001019060200180831161055857829003601f168201915b505050505090506104d4565b60006104d461058e61064f565b8360405161190160f01b8152600281019290925260228201526042902090565b60008060006105bd858561077f565b915091506105ca816107c4565b509392505050565b600080829050601f815111156105fd578260405163305a27a960e01b81526004016101789190610e10565b805161060882610e23565b179392505050565b6060600061061d83610911565b604080516020808252818301909252919250600091906020820181803683375050509182525060208101929092525090565b6000306001600160a01b037f0000000000000000000000000000000000000000000000000000000000000000161480156106a857507f000000000000000000000000000000000000000000000000000000000000000046145b156106d257507f000000000000000000000000000000000000000000000000000000000000000090565b61077a604080517f8b73c3c69bb8fe3d512ecc4cf759cc79239f7b179b0ffacaa9a75d522b39400f60208201527f0000000000000000000000000000000000000000000000000000000000000000918101919091527f000000000000000000000000000000000000000000000000000000000000000060608201524660808201523060a082015260009060c00160405160208183030381529060405280519060200120905090565b905090565b60008082516041036107b55760208301516040840151606085015160001a6107a987828585610939565b945094505050506107bd565b506000905060025b9250929050565b60008160048111156107d8576107d8610e47565b036107e05750565b60018160048111156107f4576107f4610e47565b036108415760405162461bcd60e51b815260206004820152601860248201527f45434453413a20696e76616c6964207369676e617475726500000000000000006044820152606401610178565b600281600481111561085557610855610e47565b036108a25760405162461bcd60e51b815260206004820152601f60248201527f45434453413a20696e76616c6964207369676e6174757265206c656e677468006044820152606401610178565b60038160048111156108b6576108b6610e47565b0361090e5760405162461bcd60e51b815260206004820152602260248201527f45434453413a20696e76616c6964207369676e6174757265202773272076616c604482015261756560f01b6064820152608401610178565b50565b600060ff8216601f8111156104d457604051632cd44ac360e21b815260040160405180910390fd5b6000807f7fffffffffffffffffffffffffffffff5d576e7357a4501ddfe92f46681b20a083111561097057506000905060036109f4565b6040805160008082526020820180845289905260ff881692820192909252606081018690526080810185905260019060a0016020604051602081039080840390855afa1580156109c4573d6000803e3d6000fd5b5050604051601f1901519150506001600160a01b0381166109ed576000600192509250506109f4565b9150600090505b94509492505050565b600060208284031215610a0f57600080fd5b81356001600160a01b0381168114610a2657600080fd5b9392505050565b600080600060408486031215610a4257600080fd5b833567ffffffffffffffff80821115610a5a57600080fd5b9085019060c08288031215610a6e57600080fd5b90935060208501359080821115610a8457600080fd5b818601915086601f830112610a9857600080fd5b813581811115610aa757600080fd5b876020828501011115610ab957600080fd5b6020830194508093505050509250925092565b60005b83811015610ae7578181015183820152602001610acf565b50506000910152565b60008151808452610b08816020860160208601610acc565b601f01601f19169290920160200192915050565b8215158152604060208201526000610b376040830184610af0565b949350505050565b60ff60f81b881681526000602060e081840152610b5f60e084018a610af0565b8381036040850152610b71818a610af0565b606085018990526001600160a01b038816608086015260a0850187905284810360c0860152855180825283870192509083019060005b81811015610bc357835183529284019291840191600101610ba7565b50909c9b505050505050505050505050565b808201808211156104d457634e487b7160e01b600052601160045260246000fd5b6000808335601e19843603018112610c0d57600080fd5b83018035915067ffffffffffffffff821115610c2857600080fd5b6020019150368190038213156107bd57600080fd5b8284823760609190911b6bffffffffffffffffffffffff19169101908152601401919050565b60008251610c75818460208701610acc565b9190910192915050565b600082610c9c57634e487b7160e01b600052601260045260246000fd5b500490565b634e487b7160e01b600052604160045260246000fd5b8183823760009101908152919050565b600181811c90821680610cdb57607f821691505b602082108103610cfb57634e487b7160e01b600052602260045260246000fd5b50919050565b601f821115610d4b57600081815260208120601f850160051c81016020861015610d285750805b601f850160051c820191505b81811015610d4757828155600101610d34565b5050505b505050565b815167ffffffffffffffff811115610d6a57610d6a610ca1565b610d7e81610d788454610cc7565b84610d01565b602080601f831160018114610db35760008415610d9b5750858301515b600019600386901b1c1916600185901b178555610d47565b600085815260208120601f198616915b82811015610de257888601518255948401946001909101908401610dc3565b5085821015610e005787850151600019600388901b60f8161c191681555b5050505050600190811b01905550565b602081526000610a266020830184610af0565b80516020808301519190811015610cfb5760001960209190910360031b1b16919050565b634e487b7160e01b600052602160045260246000fdfea264697066735822122015aa640a9ac888638649c163a8ad8a9a014d0245dc5d7c710dcad53271a69d2864736f6c63430008100033",
  "linkReferences": {},
  "deployedLinkReferences": {}
}