{
  "_format": "hh-sol-artifact-1",
  "contractName": "L2WstETHToken",
  "sourceName": "src/lido/L2WstETHToken.sol",
  "abi": [
    {
      "anonymous": false,
      "inputs": [
        {
          "indexed": true,
          "internalType": "address",
          "name": "owner",
          "type": "address"
        },
        {
          "indexed": true,
          "internalType": "address",
          "name": "spender",
          "type": "address"
        },
        {
          "indexed": false,
          "internalType": "uint256",
          "name": "value",
          "type": "uint256"
        }
      ],
      "name": "Approval",
      "type": "event"
    },
    {
      "anonymous": false,
      "inputs": [],
      "name": "EIP712DomainChanged",
      "type": "event"
    },
    {
      "anonymous": false,
      "inputs": [
        {
          "indexed": false,
          "internalType": "uint8",
          "name": "version",
          "type": "uint8"
        }
      ],
      "name": "Initialized",
      "type": "event"
    },
    {
      "anonymous": false,
      "inputs": [
        {
          "indexed": true,
          "internalType": "address",
          "name": "from",
          "type": "address"
        },
        {
          "indexed": true,
          "internalType": "address",
          "name": "to",
          "type": "address"
        },
        {
          "indexed": false,
          "internalType": "uint256",
          "name": "value",
          "type": "uint256"
        }
      ],
      "name": "Transfer",
      "type": "event"
    },
    {
      "inputs": [],
      "name": "DOMAIN_SEPARATOR",
      "outputs": [
        {
          "internalType": "bytes32",
          "name": "",
          "type": "bytes32"
        }
      ],
      "stateMutability": "view",
      "type": "function"
    },
    {
      "inputs": [
        {
          "internalType": "address",
          "name": "owner",
          "type": "address"
        },
        {
          "internalType": "address",
          "name": "spender",
          "type": "address"
        }
      ],
      "name": "allowance",
      "outputs": [
        {
          "internalType": "uint256",
          "name": "",
          "type": "uint256"
        }
      ],
      "stateMutability": "view",
      "type": "function"
    },
    {
      "inputs": [
        {
          "internalType": "address",
          "name": "spender",
          "type": "address"
        },
        {
          "internalType": "uint256",
          "name": "amount",
          "type": "uint256"
        }
      ],
      "name": "approve",
      "outputs": [
        {
          "internalType": "bool",
          "name": "",
          "type": "bool"
        }
      ],
      "stateMutability": "nonpayable",
      "type": "function"
    },
    {
      "inputs": [
        {
          "internalType": "address",
          "name": "account",
          "type": "address"
        }
      ],
      "name": "balanceOf",
      "outputs": [
        {
          "internalType": "uint256",
          "name": "",
          "type": "uint256"
        }
      ],
      "stateMutability": "view",
      "type": "function"
    },
    {
      "inputs": [
        {
          "internalType": "address",
          "name": "_from",
          "type": "address"
        },
        {
          "internalType": "uint256",
          "name": "_amount",
          "type": "uint256"
        }
      ],
      "name": "burn",
      "outputs": [],
      "stateMutability": "nonpayable",
      "type": "function"
    },
    {
      "inputs": [],
      "name": "counterpart",
      "outputs": [
        {
          "internalType": "address",
          "name": "",
          "type": "address"
        }
      ],
      "stateMutability": "view",
      "type": "function"
    },
    {
      "inputs": [],
      "name": "decimals",
      "outputs": [
        {
          "internalType": "uint8",
          "name": "",
          "type": "uint8"
        }
      ],
      "stateMutability": "view",
      "type": "function"
    },
    {
      "inputs": [
        {
          "internalType": "address",
          "name": "spender",
          "type": "address"
        },
        {
          "internalType": "uint256",
          "name": "subtractedValue",
          "type": "uint256"
        }
      ],
      "name": "decreaseAllowance",
      "outputs": [
        {
          "internalType": "bool",
          "name": "",
          "type": "bool"
        }
      ],
      "stateMutability": "nonpayable",
      "type": "function"
    },
    {
      "inputs": [],
      "name": "eip712Domain",
      "outputs": [
        {
          "internalType": "bytes1",
          "name": "fields",
          "type": "bytes1"
        },
        {
          "internalType": "string",
          "name": "name",
          "type": "string"
        },
        {
          "internalType": "string",
          "name": "version",
          "type": "string"
        },
        {
          "internalType": "uint256",
          "name": "chainId",
          "type": "uint256"
        },
        {
          "internalType": "address",
          "name": "verifyingContract",
          "type": "address"
        },
        {
          "internalType": "bytes32",
          "name": "salt",
          "type": "bytes32"
        },
        {
          "internalType": "uint256[]",
          "name": "extensions",
          "type": "uint256[]"
        }
      ],
      "stateMutability": "view",
      "type": "function"
    },
    {
      "inputs": [],
      "name": "gateway",
      "outputs": [
        {
          "internalType": "address",
          "name": "",
          "type": "address"
        }
      ],
      "stateMutability": "view",
      "type": "function"
    },
    {
      "inputs": [
        {
          "internalType": "address",
          "name": "spender",
          "type": "address"
        },
        {
          "internalType": "uint256",
          "name": "addedValue",
          "type": "uint256"
        }
      ],
      "name": "increaseAllowance",
      "outputs": [
        {
          "internalType": "bool",
          "name": "",
          "type": "bool"
        }
      ],
      "stateMutability": "nonpayable",
      "type": "function"
    },
    {
      "inputs": [
        {
          "internalType": "string",
          "name": "_name",
          "type": "string"
        },
        {
          "internalType": "string",
          "name": "_symbol",
          "type": "string"
        },
        {
          "internalType": "uint8",
          "name": "_decimals",
          "type": "uint8"
        },
        {
          "internalType": "address",
          "name": "_gateway",
          "type": "address"
        },
        {
          "internalType": "address",
          "name": "_counterpart",
          "type": "address"
        }
      ],
      "name": "initialize",
      "outputs": [],
      "stateMutability": "nonpayable",
      "type": "function"
    },
    {
      "inputs": [
        {
          "internalType": "address",
          "name": "_to",
          "type": "address"
        },
        {
          "internalType": "uint256",
          "name": "_amount",
          "type": "uint256"
        }
      ],
      "name": "mint",
      "outputs": [],
      "stateMutability": "nonpayable",
      "type": "function"
    },
    {
      "inputs": [],
      "name": "name",
      "outputs": [
        {
          "internalType": "string",
          "name": "",
          "type": "string"
        }
      ],
      "stateMutability": "view",
      "type": "function"
    },
    {
      "inputs": [
        {
          "internalType": "address",
          "name": "owner",
          "type": "address"
        }
      ],
      "name": "nonces",
      "outputs": [
        {
          "internalType": "uint256",
          "name": "",
          "type": "uint256"
        }
      ],
      "stateMutability": "view",
      "type": "function"
    },
    {
      "inputs": [
        {
          "internalType": "address",
          "name": "owner",
          "type": "address"
        },
        {
          "internalType": "address",
          "name": "spender",
          "type": "address"
        },
        {
          "internalType": "uint256",
          "name": "value",
          "type": "uint256"
        },
        {
          "internalType": "uint256",
          "name": "deadline",
          "type": "uint256"
        },
        {
          "internalType": "uint8",
          "name": "v",
          "type": "uint8"
        },
        {
          "internalType": "bytes32",
          "name": "r",
          "type": "bytes32"
        },
        {
          "internalType": "bytes32",
          "name": "s",
          "type": "bytes32"
        }
      ],
      "name": "permit",
      "outputs": [],
      "stateMutability": "nonpayable",
      "type": "function"
    },
    {
      "inputs": [],
      "name": "symbol",
      "outputs": [
        {
          "internalType": "string",
          "name": "",
          "type": "string"
        }
      ],
      "stateMutability": "view",
      "type": "function"
    },
    {
      "inputs": [],
      "name": "totalSupply",
      "outputs": [
        {
          "internalType": "uint256",
          "name": "",
          "type": "uint256"
        }
      ],
      "stateMutability": "view",
      "type": "function"
    },
    {
      "inputs": [
        {
          "internalType": "address",
          "name": "to",
          "type": "address"
        },
        {
          "internalType": "uint256",
          "name": "amount",
          "type": "uint256"
        }
      ],
      "name": "transfer",
      "outputs": [
        {
          "internalType": "bool",
          "name": "",
          "type": "bool"
        }
      ],
      "stateMutability": "nonpayable",
      "type": "function"
    },
    {
      "inputs": [
        {
          "internalType": "address",
          "name": "receiver",
          "type": "address"
        },
        {
          "internalType": "uint256",
          "name": "amount",
          "type": "uint256"
        },
        {
          "internalType": "bytes",
          "name": "data",
          "type": "bytes"
        }
      ],
      "name": "transferAndCall",
      "outputs": [
        {
          "internalType": "bool",
          "name": "success",
          "type": "bool"
        }
      ],
      "stateMutability": "nonpayable",
      "type": "function"
    },
    {
      "inputs": [
        {
          "internalType": "address",
          "name": "from",
          "type": "address"
        },
        {
          "internalType": "address",
          "name": "to",
          "type": "address"
        },
        {
          "internalType": "uint256",
          "name": "amount",
          "type": "uint256"
        }
      ],
      "name": "transferFrom",
      "outputs": [
        {
          "internalType": "bool",
          "name": "",
          "type": "bool"
        }
      ],
      "stateMutability": "nonpayable",
      "type": "function"
    }
  ],
  "bytecode": "0x608060405234801561001057600080fd5b5061001961001e565b6100dd565b600054610100900460ff161561008a5760405162461bcd60e51b815260206004820152602760248201527f496e697469616c697a61626c653a20636f6e747261637420697320696e697469604482015266616c697a696e6760c81b606482015260840160405180910390fd5b60005460ff908116146100db576000805460ff191660ff9081179091556040519081527f7f26b83ff96e1f2b6a682f133852f6798a09c465da95921460cefb38474024989060200160405180910390a15b565b611a92806100ec6000396000f3fe608060405234801561001057600080fd5b50600436106101375760003560e01c806370a08231116100b85780639dc29fac1161007c5780639dc29fac146102a1578063a457c2d7146102b4578063a9059cbb146102c7578063c820f146146102da578063d505accf146102ed578063dd62ed3e1461030057600080fd5b806370a082311461022f578063797594b0146102585780637ecebe001461026b57806384b0196e1461027e57806395d89b411461029957600080fd5b8063313ce567116100ff578063313ce567146101cd5780633644e515146101ec57806339509351146101f45780634000aea01461020757806340c10f191461021a57600080fd5b806306fdde031461013c578063095ea7b31461015a578063116191b61461017d57806318160ddd146101a857806323b872dd146101ba575b600080fd5b610144610313565b604051610151919061145f565b60405180910390f35b61016d610168366004611495565b6103a5565b6040519015158152602001610151565b60cc54610190906001600160a01b031681565b6040516001600160a01b039091168152602001610151565b6035545b604051908152602001610151565b61016d6101c83660046114bf565b6103bf565b60cd54600160a01b900460ff1660405160ff9091168152602001610151565b6101ac6103e3565b61016d610202366004611495565b6103f2565b61016d6102153660046114fb565b610414565b61022d610228366004611495565b610472565b005b6101ac61023d366004611582565b6001600160a01b031660009081526033602052604090205490565b60cd54610190906001600160a01b031681565b6101ac610279366004611582565b6104ce565b6102866104ec565b604051610151979695949392919061159d565b61014461058a565b61022d6102af366004611495565b610599565b61016d6102c2366004611495565b6105ec565b61016d6102d5366004611495565b610667565b61022d6102e83660046116e7565b610675565b61022d6102fb36600461177d565b6107dd565b6101ac61030e3660046117e7565b610960565b6060603680546103229061181a565b80601f016020809104026020016040519081016040528092919081815260200182805461034e9061181a565b801561039b5780601f106103705761010080835404028352916020019161039b565b820191906000526020600020905b81548152906001019060200180831161037e57829003601f168201915b5050505050905090565b6000336103b381858561098b565b60019150505b92915050565b6000336103cd858285610ab0565b6103d8858585610b2a565b506001949350505050565b60006103ed610cd5565b905090565b6000336103b38185856104058383610960565b61040f919061184e565b61098b565b60006104208585610667565b506001600160a01b0385163b156103d8576103d8858585858080601f016020809104026020016040519081016040528093929190818152602001838380828437600092019190915250610cdf92505050565b60cc546001600160a01b031633146104c05760405162461bcd60e51b815260206004820152600c60248201526b4f6e6c79204761746577617960a01b60448201526064015b60405180910390fd5b6104ca8282610d49565b5050565b6001600160a01b0381166000908152609960205260408120546103b9565b6000606080600080600060606065546000801b14801561050c5750606654155b6105505760405162461bcd60e51b81526020600482015260156024820152741152540dcc4c8e88155b9a5b9a5d1a585b1a5e9959605a1b60448201526064016104b7565b610558610e0a565b610560610e19565b60408051600080825260208201909252600f60f81b9b939a50919850469750309650945092509050565b6060603780546103229061181a565b60cc546001600160a01b031633146105e25760405162461bcd60e51b815260206004820152600c60248201526b4f6e6c79204761746577617960a01b60448201526064016104b7565b6104ca8282610e28565b600033816105fa8286610960565b90508381101561065a5760405162461bcd60e51b815260206004820152602560248201527f45524332303a2064656372656173656420616c6c6f77616e63652062656c6f77604482015264207a65726f60d81b60648201526084016104b7565b6103d8828686840361098b565b6000336103b3818585610b2a565b600054610100900460ff16158080156106955750600054600160ff909116105b806106af5750303b1580156106af575060005460ff166001145b6107125760405162461bcd60e51b815260206004820152602e60248201527f496e697469616c697a61626c653a20636f6e747261637420697320616c72656160448201526d191e481a5b9a5d1a585b1a5e995960921b60648201526084016104b7565b6000805460ff191660011790558015610735576000805461ff0019166101001790555b61073e86610f59565b6107488686610fa6565b60cd805460cc80546001600160a01b038088166001600160a01b03199283161790925590851660ff8816600160a01b02919091166001600160a81b03199092169190911717905580156107d5576000805461ff0019169055604051600181527f7f26b83ff96e1f2b6a682f133852f6798a09c465da95921460cefb38474024989060200160405180910390a15b505050505050565b8342111561082d5760405162461bcd60e51b815260206004820152601d60248201527f45524332305065726d69743a206578706972656420646561646c696e6500000060448201526064016104b7565b60007f6e71edae12b1b97f4d1f60370fef10105fa2faae0126114a169c64845d6126c988888861085c8c610fd7565b6040805160208101969096526001600160a01b0394851690860152929091166060840152608083015260a082015260c0810186905260e00160405160208183030381529060405280519060200120905060006108b782610fff565b60408051602081018790529081018590526001600160f81b031960f888901b1660608201529091506108fe908a90839060610160405160208183030381529060405261102c565b61094a5760405162461bcd60e51b815260206004820152601e60248201527f45524332305065726d69743a20696e76616c6964207369676e6174757265000060448201526064016104b7565b61095589898961098b565b505050505050505050565b6001600160a01b03918216600090815260346020908152604080832093909416825291909152205490565b6001600160a01b0383166109ed5760405162461bcd60e51b8152602060048201526024808201527f45524332303a20617070726f76652066726f6d20746865207a65726f206164646044820152637265737360e01b60648201526084016104b7565b6001600160a01b038216610a4e5760405162461bcd60e51b815260206004820152602260248201527f45524332303a20617070726f766520746f20746865207a65726f206164647265604482015261737360f01b60648201526084016104b7565b6001600160a01b0383811660008181526034602090815260408083209487168084529482529182902085905590518481527f8c5be1e5ebec7d5bd14f71427d1e84f3dd0314c0f7b2291e5b200ac8c7c3b92591015b60405180910390a3505050565b6000610abc8484610960565b90506000198114610b245781811015610b175760405162461bcd60e51b815260206004820152601d60248201527f45524332303a20696e73756666696369656e7420616c6c6f77616e636500000060448201526064016104b7565b610b24848484840361098b565b50505050565b6001600160a01b038316610b8e5760405162461bcd60e51b815260206004820152602560248201527f45524332303a207472616e736665722066726f6d20746865207a65726f206164604482015264647265737360d81b60648201526084016104b7565b6001600160a01b038216610bf05760405162461bcd60e51b815260206004820152602360248201527f45524332303a207472616e7366657220746f20746865207a65726f206164647260448201526265737360e81b60648201526084016104b7565b6001600160a01b03831660009081526033602052604090205481811015610c685760405162461bcd60e51b815260206004820152602660248201527f45524332303a207472616e7366657220616d6f756e7420657863656564732062604482015265616c616e636560d01b60648201526084016104b7565b6001600160a01b0380851660008181526033602052604080822086860390559286168082529083902080548601905591517fddf252ad1be2c89b69c2b068fc378daa952ba7f163c4a11628f55a4df523b3ef90610cc89086815260200190565b60405180910390a3610b24565b60006103ed61108d565b604051635260769b60e11b815283906001600160a01b0382169063a4c0ed3690610d119033908790879060040161186f565b600060405180830381600087803b158015610d2b57600080fd5b505af1158015610d3f573d6000803e3d6000fd5b5050505050505050565b6001600160a01b038216610d9f5760405162461bcd60e51b815260206004820152601f60248201527f45524332303a206d696e7420746f20746865207a65726f20616464726573730060448201526064016104b7565b8060356000828254610db1919061184e565b90915550506001600160a01b0382166000818152603360209081526040808320805486019055518481527fddf252ad1be2c89b69c2b068fc378daa952ba7f163c4a11628f55a4df523b3ef910160405180910390a35050565b6060606780546103229061181a565b6060606880546103229061181a565b6001600160a01b038216610e885760405162461bcd60e51b815260206004820152602160248201527f45524332303a206275726e2066726f6d20746865207a65726f206164647265736044820152607360f81b60648201526084016104b7565b6001600160a01b03821660009081526033602052604090205481811015610efc5760405162461bcd60e51b815260206004820152602260248201527f45524332303a206275726e20616d6f756e7420657863656564732062616c616e604482015261636560f01b60648201526084016104b7565b6001600160a01b03831660008181526033602090815260408083208686039055603580548790039055518581529192917fddf252ad1be2c89b69c2b068fc378daa952ba7f163c4a11628f55a4df523b3ef9101610aa3565b505050565b600054610100900460ff16610f805760405162461bcd60e51b81526004016104b79061189f565b610fa381604051806040016040528060018152602001603160f81b815250611101565b50565b600054610100900460ff16610fcd5760405162461bcd60e51b81526004016104b79061189f565b6104ca8282611150565b6001600160a01b03811660009081526099602052604090208054600181018255905b50919050565b60006103b961100c610cd5565b8360405161190160f01b8152600281019290925260228201526042902090565b600080600061103b8585611190565b90925090506000816004811115611054576110546118ea565b1480156110725750856001600160a01b0316826001600160a01b0316145b8061108357506110838686866111d5565b9695505050505050565b60007f8b73c3c69bb8fe3d512ecc4cf759cc79239f7b179b0ffacaa9a75d522b39400f6110b86112c1565b6110c061131a565b60408051602081019490945283019190915260608201524660808201523060a082015260c00160405160208183030381529060405280519060200120905090565b600054610100900460ff166111285760405162461bcd60e51b81526004016104b79061189f565b60676111348382611946565b5060686111418282611946565b50506000606581905560665550565b600054610100900460ff166111775760405162461bcd60e51b81526004016104b79061189f565b60366111838382611946565b506037610f548282611946565b60008082516041036111c65760208301516040840151606085015160001a6111ba8782858561134b565b945094505050506111ce565b506000905060025b9250929050565b6000806000856001600160a01b0316631626ba7e60e01b86866040516024016111ff929190611a06565b60408051601f198184030181529181526020820180516001600160e01b03166001600160e01b031990941693909317909252905161123d9190611a27565b600060405180830381855afa9150503d8060008114611278576040519150601f19603f3d011682016040523d82523d6000602084013e61127d565b606091505b509150915081801561129157506020815110155b801561108357508051630b135d3f60e11b906112b69083016020908101908401611a43565b149695505050505050565b6000806112cc610e0a565b8051909150156112e3578051602090910120919050565b60655480156112f25792915050565b7fc5d2460186f7233c927e7db2dcc703c0e500b653ca82273b7bfad8045d85a4709250505090565b600080611325610e19565b80519091501561133c578051602090910120919050565b60665480156112f25792915050565b6000807f7fffffffffffffffffffffffffffffff5d576e7357a4501ddfe92f46681b20a08311156113825750600090506003611406565b6040805160008082526020820180845289905260ff881692820192909252606081018690526080810185905260019060a0016020604051602081039080840390855afa1580156113d6573d6000803e3d6000fd5b5050604051601f1901519150506001600160a01b0381166113ff57600060019250925050611406565b9150600090505b94509492505050565b60005b8381101561142a578181015183820152602001611412565b50506000910152565b6000815180845261144b81602086016020860161140f565b601f01601f19169290920160200192915050565b6020815260006114726020830184611433565b9392505050565b80356001600160a01b038116811461149057600080fd5b919050565b600080604083850312156114a857600080fd5b6114b183611479565b946020939093013593505050565b6000806000606084860312156114d457600080fd5b6114dd84611479565b92506114eb60208501611479565b9150604084013590509250925092565b6000806000806060858703121561151157600080fd5b61151a85611479565b935060208501359250604085013567ffffffffffffffff8082111561153e57600080fd5b818701915087601f83011261155257600080fd5b81358181111561156157600080fd5b88602082850101111561157357600080fd5b95989497505060200194505050565b60006020828403121561159457600080fd5b61147282611479565b60ff60f81b881681526000602060e0818401526115bd60e084018a611433565b83810360408501526115cf818a611433565b606085018990526001600160a01b038816608086015260a0850187905284810360c0860152855180825283870192509083019060005b8181101561162157835183529284019291840191600101611605565b50909c9b505050505050505050505050565b634e487b7160e01b600052604160045260246000fd5b600082601f83011261165a57600080fd5b813567ffffffffffffffff8082111561167557611675611633565b604051601f8301601f19908116603f0116810190828211818310171561169d5761169d611633565b816040528381528660208588010111156116b657600080fd5b836020870160208301376000602085830101528094505050505092915050565b803560ff8116811461149057600080fd5b600080600080600060a086880312156116ff57600080fd5b853567ffffffffffffffff8082111561171757600080fd5b61172389838a01611649565b9650602088013591508082111561173957600080fd5b5061174688828901611649565b945050611755604087016116d6565b925061176360608701611479565b915061177160808701611479565b90509295509295909350565b600080600080600080600060e0888a03121561179857600080fd5b6117a188611479565b96506117af60208901611479565b955060408801359450606088013593506117cb608089016116d6565b925060a0880135915060c0880135905092959891949750929550565b600080604083850312156117fa57600080fd5b61180383611479565b915061181160208401611479565b90509250929050565b600181811c9082168061182e57607f821691505b602082108103610ff957634e487b7160e01b600052602260045260246000fd5b808201808211156103b957634e487b7160e01b600052601160045260246000fd5b60018060a01b03841681528260208201526060604082015260006118966060830184611433565b95945050505050565b6020808252602b908201527f496e697469616c697a61626c653a20636f6e7472616374206973206e6f74206960408201526a6e697469616c697a696e6760a81b606082015260800190565b634e487b7160e01b600052602160045260246000fd5b601f821115610f5457600081815260208120601f850160051c810160208610156119275750805b601f850160051c820191505b818110156107d557828155600101611933565b815167ffffffffffffffff81111561196057611960611633565b6119748161196e845461181a565b84611900565b602080601f8311600181146119a957600084156119915750858301515b600019600386901b1c1916600185901b1785556107d5565b600085815260208120601f198616915b828110156119d8578886015182559484019460019091019084016119b9565b50858210156119f65787850151600019600388901b60f8161c191681555b5050505050600190811b01905550565b828152604060208201526000611a1f6040830184611433565b949350505050565b60008251611a3981846020870161140f565b9190910192915050565b600060208284031215611a5557600080fd5b505191905056fea2646970667358221220a751502420aca3dc9cb53597f62dcb4064227013e94d06d4c5761ded00a3561364736f6c63430008100033",
  "linkReferences": {},
  "deployedLinkReferences": {}
}